:020000022000DC
:1060000000000120D93A0300193B0300F9430300C3
:106010001D3B03001F3B0300213B03000000000069
:10602000000000000000000000000000553A0300DE
:10603000253B030000000000753A0300293B0300E4
:106040002B3B03002B3B03008D1B03002B3B03006A
:106050002B3B03002B3B0300C51D03002B3B030020
:106060002B3B03002B3B03002B3B03002B3B03008C
:106070002B3B03002B3B03002B3B03002B3B03007C
:106080002B3B0300D53703002B3B03002B3B0300C6
:106090002B3B03002B3B030071F902002B3B030059
:1060A0002B3B03002B3B03002B3B03002B3B03004C
:1060B0002B3B03002B3B030000000000000000000E
:1060C0002B3B03002B3B03002B3B03002B3B03002C
:1060D0002B3B03002B3B03002B3B03000000000085
:1060E00000000000000000000000000000000000B0
:1060F00000000000000000000000000000000000A0
:10610000000000000000000000000000000000008F
:10611000000000000000000000000000000000007F
:10612000000000000000000000000000000000006F
:10613000000000000000000000000000000000005F
:10614000000000000000000000000000000000004F
:10615000000000000000000000000000000000003F
:10616000000000000000000000000000000000002F
:10617000000000000000000000000000000000001F
:10618000000000000000000000000000000000000F
:1061900000000000000000000000000000000000FF
:1061A00000000000000000000000000000000000EF
:1061B00000000000000000000000000000000000DF
:1061C00000000000000000000000000000000000CF
:1061D00000000000000000000000000000000000BF
:1061E00000000000000000000000000000000000AF
:1061F000000000000000000000000000000000009F
:1062000010B5054C237833B9044B13B10448AFF3F0
:1062100000800123237010BD7038002000000000B2
:10622000EC0B040008B5034B1BB103490348AFF363
:10623000008008BD0000000074380020EC0B040052
:10624000154B002B08BF134B9D46A3F5803A002148
:106250008B460F461348144A121A12F0B4FF0F4B24
:10626000002B00D098470E4B002B00D09847002001
:10627000002104000D000D48002802D00C48AFF3A7
:10628000008012F023FF200029000DF04FFC12F0D7
:10629000F7FE00BF00000800000001200000000021
:1062A0000000000070380020C463002000000000DF
:1062B0000000000009490B78094A42F823005A1CE3
:1062C000084B83FB02031B11322000FB1323DBB2BC
:1062D0000B7013B9044B01221A707047A1380020CB
:1062E000A43800201F85EB51A038002010B5114BB9
:1062F0001B782BB9104B1C781CB99FED100A17E0C6
:106300003224002300200021A34207D20C4A52F875
:106310002320801841F100010133F5E712F0A4FCBD
:1063200007EE904AF8EE677A07EE100A87EE270A22
:1063300010BD00BFA0380020A138002000000000E0
:10634000A438002008B5002111200EF0AFFA08BDD6
:1063500008B5012111200EF0A9FA08BD08B5C82220
:106360000021044812F02FFF0023034A1370034A50
:10637000137008BDA4380020A1380020A0380020E8
:1063800008B511200EF0A8FAB0FA80F149091120E1
:106390000EF08CFA08BD000008B5144B1B7833B919
:1063A000134B1A78012A03D89FED120A1DE03222FE
:1063B00000239FED107A93420ED20F4951F823101B
:1063C00007EE901AF8EE677A77EEC07A67EEA77A52
:1063D00037EE277A0133EEE7013A07EE902AB8EE5E
:1063E000670A87EE000A11F075FE08BDA03800208C
:1063F000A138002000000000A438002030B5B3B060
:106400002A4B1B788BB92A4B1C78042C06D9A20086
:106410002849684612F0B3FE002526E0FFF766FF24
:10642000FCEEC07A17EE900A3EE03224EFE7134606
:10643000621B013A9A4217D932AA02EB830252F840
:10644000C81C5A1C32A800EB820050F8C80C8142CC
:10645000EDD90DF1C80C0CEB830343F8C80C0CEB21
:10646000820343F8C81CE2E70135631EAB4201D941
:106470000023DDE7104AA2FB0432D20800D101223A
:10648000A41A134600200021A34209D232AD05EB25
:10649000830555F8C85C401941F100010133F3E769
:1064A000A21A002312F026FC33B030BDA038002021
:1064B000A1380020A4380020CDCCCCCC08B50121D7
:1064C00011200EF059F9FFF73DFFFFF747FF0023BA
:1064D000024A1370024A137008BD00BFA33800209F
:1064E000A238002010B50024032C07D8204602F063
:1064F000BBFF034618B90134E4B2F5E700231846A0
:1065000010BD00002DE9F04F2DED048B87B003285E
:106510000CD9002900F0178102230B704FF0000BFB
:10652000584607B0BDEC048BBDE8F08F8A4607469D
:106530000246864986480BF049F8FFF70FFF854B66
:1065400001221A700026844B1E70844B5F705E60BF
:106550009E60B7EE008A83ED038A1E740BF077FC11
:10656000814603F0ABF8FFF7F3FEB346B04682E096
:106570007B4977480BF020F8764B05221A7003F020
:10658000BDF8754B1B78002B40F0B080734B1B7C23
:10659000002B40F0B580BBF1000F40F0C4806D4B84
:1065A00004221A700123BAF1000FB9D08AF8003022
:1065B000B6E7FFF7E5FEA04679E0664B02221A70C7
:1065C000A0EB08037C2B72D9FFF7DAFEA0466EE041
:1065D0003046FFF76FFE7EE0FFF788FEB0EE409A90
:1065E000FFF7DAFEF0EE409AB5EEC09AF1EE10FA3F
:1065F00029DDC0EE098A594BC3ED038AB4EEE88A5F
:10660000F1EE10FA22DC18EE900A11F023FFCDE92A
:10661000040119EE900A11F01DFFCDE9020119EEF7
:10662000100A11F017FFCDE9000132464D494848E4
:106630000AF0CCFFDFED4C7AF4EEE78AF1EE10FAC7
:106640000AD4264614E0F7EE008AD4E7FFF7D6FE18
:106650008346B0EE688AD6E7404B01221A743D4B60
:1066600003221A7041493A480AF0A6FF87E72646F6
:106670000A200BF006FC384B1B78002B7FF47FAF11
:106680000BF0E5FB0446A0EB0905344B5D60384B8D
:106690009D423FF66DAF47F22F539D428DD82D4B53
:1066A00001221A70A0EB0803B3F5FA7F81D2A31B75
:1066B000632BDDD96421384603F03AF80646274BB0
:1066C000986003F0A3F80346002881D03246294998
:1066D0001F480AF07BFF284B1B78002BC7D047F2DE
:1066E0002F539D423FF678AF2646C1E7FFF72AFEBB
:1066F000224917480AF060FF03234FF0000B52E7CE
:10670000FFF77CFE83460146384602F0EBFEFFF7BA
:106710001FFE104B04221A705A4619490C480AF001
:1067200055FF00233FE75946384602F0DBFE18EEDE
:10673000100A11F08FFECDE900015A4611490448B4
:106740000AF044FF2BE74FF0000BE9E674C10300A9
:10675000DC470020A3380020A23800208C3800201D
:10676000A0C10300ECC103006F12833A20C20300F2
:10677000DF930400BCC10300A03800203CC203002A
:1067800050C2030074C2030030B583B00024254614
:106790000AE00135EDB21B4B1B78FBB94FF4FA70E0
:1067A0000BF06FFB0134E4B2032C17D8204602F043
:1067B0005BFE0028F6D02246134914480AF006FF73
:1067C0000DF107012046FFF79DFE9DF80730002BD5
:1067D000DFD0012BDFD10028DDD0DAE7042D09D08E
:1067E0000024042C09DCFFF7CBFDC8200BF049FB8B
:1067F0000134F6E7FFF7ACFD01E0FFF7A9FD2846FD
:1068000003B030BDA23800204CC10300DC4700209B
:10681000032B22D938B5114B1B6883B114785178FA
:1068200044EA0124917844EA0144D27844EA0264BB
:1068300093F830532146284602F054FE00B938BD83
:10684000064B18682146C83007F034FA23462A461A
:10685000034904480AF0BAFEF1E770476C3900209A
:1068600004C30300DC470020032B23D938B5124BA7
:106870001B6883B11478517844EA0124917844EA82
:106880000144D27844EA026493F830532146284602
:1068900002F04CFE00B938BD074B1868214600F5E0
:1068A000907007F007FA23462A46044904480AF084
:1068B0008DFEF0E7704700BF6C39002028C303004D
:1068C000DC470020032B23D938B5124B1B6883B15A
:1068D0001478517844EA0124917844EA0144D2784A
:1068E00044EA026493F830532146284602F042FEFF
:1068F00000B938BD074B1868214600F5BC7007F099
:10690000D9F923462A46044904480AF05FFEF0E715
:10691000704700BF6C3900204CC30300DC470020E7
:1069200008B50246024903480AF050FE08BD00BF00
:10693000B4C20300DC47002010B588B004466946A5
:1069400090F8300302F0A6FDA8B9002104F1C800B8
:1069500007F0BCF9002104F5907007F0B7F90021A9
:1069600004F5BC7007F0B2F9002104F5207007F0BF
:1069700089F908B010BD009904F1C80007F09AF930
:10698000019904F5907007F095F9029904F5BC702F
:1069900007F090F99DF80D1004F5207007F072F9DA
:1069A000E7E70000BBB10C4B1868A0B110B5147834
:1069B000032C00D910BD80F830432146183007F071
:1069C00061F9054B1868FFF7B7FF224603490448F1
:1069D0000AF0FCFDEEE770476C39002084C4030028
:1069E000DC47002038B50D4600F17004204607F062
:1069F00061F92946204607F076FA38BD38B50D46CC
:106A000000F50A74204607F03DF92946204607F0B4
:106A100063FA38BD002B00F0AE80574B1B68002B8B
:106A200000F0A98070B586B0127893F83043531EF9
:106A3000062B00F29B80DFE803F004244462707BA5
:106A4000950002F03BFE6421204602F071FE0546EF
:106A500002F054FE002D5ED02946204602F042FD91
:106A6000002858D0444E29463068FFF7BBFF3068F5
:106A7000FFF762FF23462A46404941480AF0A6FD37
:106A800049E002F01BFE6421204602F051FE05465B
:106A900002F034FE002D3ED02946204602F046FD8D
:106AA000002838D0344E29463068FFF79BFF306805
:106AB000FFF742FF23462A46324931480AF086FD55
:106AC00029E002F0FBFD6421204602F031FE05467C
:106AD00002F014FEFDB12946204602F04BFDD0B174
:106AE000254E29463068FFF77DFF3068FFF724FF09
:106AF00023462A46244922480AF068FD0BE0204636
:106B000002F05CFD1C4B1868FFF716FF22461F4978
:106B10001B480AF05BFD06B070BD02F071FD164B1C
:106B20001868FFF709FF1A4915480AF045FDF2E712
:106B300003A9204602F09EFE0028ECD00E4D0499D9
:106B40002868FFF74FFF9DF814102868FFF756FFDD
:106B50009DF814300093049B22460E4908480AF021
:106B600035FDD8E72046FFF7DBFED4E70A490448A5
:106B70000AF02CFDCFE770476C39002070C303008A
:106B8000DC4700209CC30300C8C30300F4C3030018
:106B90001CC403003CC4030068C403002DE9F04F8B
:106BA000D7B00646A84D29460AA808F08FF90AA9C9
:106BB000304608F0D3F80AA808F0EDF8B046A34B29
:106BC00048F8183B29460EA808F080F90EA940465F
:106BD00006F0BEFF0EA808F0DEF806F1700B29469D
:106BE00012A808F073F912A9584606F0B1FF12A8CE
:106BF00008F0D1F806F1C80A294616A808F066F987
:106C000016A9504606F0A4FF16A808F0C4F806F529
:106C1000907929461AA808F059F91AA9484606F0A9
:106C200097FF1AA808F0B7F806F5BC7429461EA805
:106C300008F04CF91EA90194204606F089FF1EAB0E
:106C4000184608F0A8F806F5E877294622AB18465A
:106C500008F03CF922A90297384606F079FF22ABEA
:106C6000184608F098F806F50A731C46294626AB24
:106C7000184608F02BF926A90394204606F068FF71
:106C800026AB184608F087F806F520731F462946FC
:106C90002AAB184608F01AF92AA90497384606F0D4
:106CA00057FF2AAB184608F076F806F536731C46EF
:106CB00029462EAB184608F009F92EA9059420465E
:106CC00006F046FF2EAB184608F065F8002386F85C
:106CD00030335F4B1E6006AC95E80F0084E80F0070
:106CE0000123237303276773214632AB184608F04C
:106CF000EDF832A9404606F03FFF32AB184608F0E7
:106D00004AF895E80F0084E80F00022323736773A5
:106D1000214636AB184608F0D9F836A9584606F091
:106D20002BFF36AB184608F036F895E80F0084E8DC
:106D30000F002773677321463AAB184608F0C6F870
:106D40003AA9504606F018FF3AAB184608F023F867
:106D500095E80F0084E80F0004232373677321462E
:106D60003EAB184608F0B2F83EA9484606F004FFCC
:106D70003EAB184608F00FF895E80F0084E80F00C6
:106D8000052323736773214642AB184608F09EF82B
:106D900042A9019806F0F0FE42AB184607F0FBFF4F
:106DA00095E80F0084E80F000623237367732146DC
:106DB00046AB184608F08AF846A9029806F0DCFEB1
:106DC00046AB184607F0E7FF95E80F0084E80F0090
:106DD00007232373677321464AAB184608F076F8F9
:106DE0004AA9039806F0C8FE4AAB184607F0D3FF3D
:106DF00095E80F0084E80F0008232373677321468A
:106E00004EAB184608F062F84EA9049806F0B4FE9E
:106E10004EAB184607F0BFFF95E80F0084E80F005F
:106E2000092323736773214652AB184608F04EF8C6
:106E300052A9059806F0A0FE52A807F0ACFF304614
:106E400057B0BDE8F08F00BFF4C20300D4C4030004
:106E50006C390020012800D070474FF6FF7399422B
:106E6000FAD110B5044C2046FFF798FE034A0449B6
:106E7000204611F029F910BD70390020003600209D
:106E80009D72020008B54FF6FF710120FFF7E2FF87
:106E900008BD0000F8B5064607F01CFF002840F0CA
:106EA000F08006F118050A21284606F06FFE11222F
:106EB0001146284606F07FFE0121284606F06BFEAB
:106EC0000122D149284606F07BFE284606F0D6FC72
:106ED0000446002840F0EF800021284606F0D2FE4C
:106EE00006F170051221284606F050FE00221121FD
:106EF000284606F060FE0421284606F04CFE28468F
:106F000006F0BCFC0446002840F0ED800021284635
:106F100006F0DCFE06F1C8040A21204606F036FE23
:106F200011221146204606F046FE0421204606F0B6
:106F300032FE0122B549204606F042FE204606F008
:106F40009DFC0446002840F0E68006F590740A2176
:106F5000204606F01BFE11221146204606F02BFEAD
:106F60000421204606F017FE0122A949204606F01A
:106F700027FE204606F082FC0446002840F0E3800D
:106F800006F5BC740A21204606F000FE11221146C7
:106F9000204606F010FE0421204606F0FCFD0122EA
:106FA0009C49204606F00CFE204606F067FC04468D
:106FB000002840F0E08006F5E8740821204606F03D
:106FC000E5FD11220021204606F0F5FD01212046B5
:106FD00006F0E1FD01229049204606F0F1FD204631
:106FE00006F04CFC0446002840F0DD8006F50A75EA
:106FF0001221284606F0CAFD00221121284606F07B
:10700000DAFD0121284606F0C6FD284606F036FCCA
:107010000446002840F0DF80FF21284606F032FEBB
:1070200006F520740221204606F0B0FD0022112151
:10703000204606F0C0FD0121204606F0ACFD2046AA
:1070400006F01CFC0446002840F0F08006F536747B
:107050001221204606F09AFD00221121204606F05A
:10706000AAFD0421204606F096FD204606F006FC07
:107070000446002840F0F2803046FFF75DFC002413
:1070800011E004465D226549654812F0F5FE204690
:107090000DF0E4F948B120460DF0E0F912F0ECFEF5
:1070A000604812F071FF2046F8BD224621465E4836
:1070B00012F0E2FEF4E764225849594812F0DCFE6F
:1070C00020460DF0CBF940B120460DF0C7F912F083
:1070D000D3FE544812F058FFE5E7224621465248B5
:1070E00012F0CAFEF5E76B224C494D4812F0C4FE7F
:1070F00020460DF0B3F940B120460DF0AFF912F083
:10710000BBFE484812F040FFCDE7224621464648E4
:1071100012F0B2FEF5E773224049414812F0ACFE8E
:1071200020460DF09BF940B120460DF097F912F082
:10713000A3FE3C4812F028FFB5E7224621463A4814
:1071400012F09AFEF5E77A223449354812F094FE9F
:1071500020460DF083F940B120460DF07FF912F082
:107160008BFE304812F010FF9DE7224621462E4844
:1071700012F082FEF5E781222849294812F07CFEB0
:1071800020460DF06BF940B120460DF067F912F082
:1071900073FE244812F0F8FE85E722462146224875
:1071A00012F06AFEF5E788221C491D4812F064FEC1
:1071B00020460DF053F940B120460DF04FF912F082
:1071C0005BFE184812F0E0FE6DE7224621461648A5
:1071D00012F052FEF5E78E221049114812F04CFED3
:1071E00020460DF03BF940B120460DF037F912F082
:1071F00043FE0C4812F0C8FE55E7224621460A48D5
:1072000012F03AFEF5E700BFA5690200116802001E
:1072100069680200C5680200156A0200E0C4030044
:107220009CC40300C8C40300BCC4030095221749D2
:10723000174812F021FE20460DF010F940B120460B
:107240000DF00CF912F018FE124812F09DFE2AE71C
:1072500022462146104812F00FFEF5E79B220B490B
:107260000B4812F009FE20460DF0F8F840B1204618
:107270000DF0F4F812F000FE064812F085FE12E759
:1072800022462146044812F0F7FDF5E7E0C403006A
:107290009CC40300C8C40300BCC4030010B504466A
:1072A000164B036000F5367006F0AAF904F520705D
:1072B00006F0A6F904F50A7006F0A2F904F5E870E4
:1072C00006F09EF904F5BC7006F09AF904F590708A
:1072D00006F096F904F1C80006F092F904F1700086
:1072E00006F08EF904F1180006F08AF92046044BE6
:1072F00040F8083B07F04FFD204610BDD4C4030002
:10730000F8E6030030B58FB0044600F5E87528466E
:1073100000F088FB284612F0AFFE82B2294604F145
:10732000180006F075FC04F5F075284600F08CFB9B
:10733000284612F0A1FE82B2294604F1700006F040
:1073400067FC00F069FB014604F1C80006F0B2FCDE
:1073500000F05CFB014604F5907006F093FC01A878
:1073600000F0F8FB342201A904F5BC7006F050FCD3
:107370000FB030BD2DE9F04FB1B00646564C214656
:1073800004A807F0A3FD04A9304607F0E7FC04A811
:1073900007F001FD3746514B47F8183B214608A836
:1073A00007F094FD08A9384606F0D2FB08A807F0BC
:1073B000F2FC06F1700B21460CA807F087FD0CA922
:1073C000584606F0C5FB0CA807F0E5FC06F1C80A14
:1073D000214610A807F07AFD10A9504606F0B8FB28
:1073E00010A807F0D8FC06F59079214614A807F0FC
:1073F0006DFD14A9484606F0ABFB14A807F0CBFCC2
:1074000006F5BC78214618A807F060FD18A940468B
:1074100006F09EFB18A807F0BEFC6D4694E80F002E
:1074200085E80F0002238DF80C3029461CA807F0D0
:107430004DFD1CA9384606F09FFB1CA807F0ABFCCD
:1074400094E80F0085E80F0003238DF80C302946DF
:1074500020A807F03BFD20A9584606F08DFB20A888
:1074600007F099FC94E80F0085E80F0004238DF8DD
:107470000C30294624A807F029FD24A9504606F01F
:107480007BFB24A807F087FC94E80F0085E80F0039
:1074900005238DF80C30294628A807F017FD28A9E8
:1074A000484606F069FB28A807F075FC94E80F0031
:1074B00085E80F0006238DF80C3029462CA807F02C
:1074C00005FD2CA9404606F057FB2CA807F063FCED
:1074D000304631B0BDE8F08F10C5030028C5030069
:1074E000012800D070474FF6FF739942FAD110B5CA
:1074F000044C2046FFF73EFF034A0449204610F0A3
:10750000E3FD10BDA43C0020003600204D770200B2
:1075100008B54FF6FF710120FFF7E2FF08BD00003C
:1075200070B5054607F0D6FB002875D105F11804A3
:107530000221204606F02AFB00221121204606F0F7
:107540003AFB1021204606F024FB0021204606F0DD
:1075500022FB204606F092F90446002876D105F178
:1075600070040221204606F011FB00221121204662
:1075700006F021FB1821204606F00BFB00212046D7
:1075800006F009FB204606F079F90446002875D17B
:1075900005F1C8040221204606F0F8FA0022112164
:1075A000204606F008FB0421204606F0F4FA2046A7
:1075B00006F064F90446002878D105F5907402219C
:1075C000204606F0E3FA00221121204606F0F3FAE5
:1075D0000121204606F0DFFA204606F04FF9044666
:1075E00000287BD105F5BC740221204606F0CEFAB6
:1075F00000221121204606F0DEFA3421204606F052
:10760000CAFA204606F03AF9044600287ED12846F8
:10761000FFF778FE002411E004463A224749484823
:1076200012F02AFC20460CF019FF48B120460CF05D
:1076300015FF12F021FC434812F0A6FC204670BD55
:1076400022462146404812F017FCF4E741223B490C
:107650003B4812F011FC20460CF000FF40B12046E0
:107660000CF0FCFE12F008FC364812F08DFCE5E749
:1076700022462146344812F0FFFBF5E748222F4905
:107680002F4812F0F9FB20460CF0E8FE40B12046EE
:107690000CF0E4FE12F0F0FB2A4812F075FCCDE786
:1076A00022462146284812F0E7FBF5E74E222349FF
:1076B000234812F0E1FB20460CF0D0FE40B12046FA
:1076C0000CF0CCFE12F0D8FB1E4812F05DFCB5E7C2
:1076D000224621461C4812F0CFFBF5E754221749F9
:1076E000174812F0C9FB20460CF0B8FE40B1204606
:1076F0000CF0B4FE12F0C0FB124812F045FC9DE7FE
:1077000022462146104812F0B7FBF5E75A220B49F2
:107710000B4812F0B1FB20460CF0A0FE40B1204611
:107720000CF09CFE12F0A8FB064812F02DFC85E739
:1077300022462146044812F09FFBF5E734C50300BA
:107740009CC40300C8C40300BCC4030010B50446B5
:107750000E4B036000F5BC7005F052FF04F590700D
:1077600005F04EFF04F1C80005F04AFF04F1700077
:1077700005F046FF04F1180005F042FF2046044BD7
:1077800040F8083B07F007FB204610BD28C5030062
:10779000F8E6030070B50546002404604460846088
:1077A000C460046144618461C461046244628462AF
:1077B000282221462C3011F006FD2426324621468F
:1077C00005F1540011F0FFFC3246214605F1780026
:1077D00011F0F9FC85F89C4085F89D4085F89E40A5
:1077E000284670BD012800D0704708B54FF6FF73DA
:1077F000994200D008BD0248FFF7CCFFFAE700BF6E
:10780000A03E00200A6803689A4200D370470846E9
:10781000FCE708B54FF6FF710120FFF7E3FF08BD55
:1078200070B400264FF0FF3200E001368E420CD2D9
:10783000835D5A400024072CF7DC42F30005044B1B
:107840002B4083EA52020134F5E7D04370BC704705
:107850002083B8ED4FF08042D2F800344FF0FF3172
:10786000C2F8001413F0010F12D113F0020F11D15E
:1078700013F0040F10D113F0080F0FD113F4803F51
:107880000ED113F4802F01D10120704740207047A2
:10789000022070470420704708207047102070476E
:1078A0002020704770B58EB0342301AAC021124841
:1078B00002F025F8044678B1104E344601AD0FCDE4
:1078C0000FC40FCD0FC40FCD0FC42B6823603268D7
:1078D0000B4B9A4203D0002420460EB070BD346B8F
:1078E0000023336330213046FFF79AFF346384422C
:1078F00014BF00240124EFE7A4420020443F0020ED
:10790000474C424410B5074C2C22002104F10800DA
:1079100011F059FC044B2360012323716371A3719F
:10792000E37110BD443F0020474C424410B5074C62
:107930000023236330212046FFF772FF20633423A6
:107940002246C021024801F0EBFF10BD443F002059
:10795000A442002038B5114B1B7803B938BD054649
:107960000F4CA0720AF073FA0E4BA3FB00239B0985
:10797000A36123690133236194F82830E21882F867
:10798000205001335A4203F0070302F0070258BFA8
:10799000534284F82830FFF7C9FFDFE7403F00205B
:1079A000443F0020D34D6210154B1B7803B1704744
:1079B00010B5FFF777FFE0B1124C0123A371E3711B
:1079C000002222726371FFF745FF6072042813D012
:1079D0000C4CE3680133E3600AF039FA0A4BA3FB6D
:1079E000003080096061FFF7A1FF054B01221A708A
:1079F00010BDFFF787FFDFE70720FFF7ABFFE7E7E3
:107A0000403F0020443F0020D34D6210014B987A44
:107A1000704700BF443F0020014BD868704700BF4B
:107A2000443F002010B582B0044605498A79CB79DD
:107A3000097A0091034912F0BFFA204602B010BD46
:107A4000443F002064C5030030B40446274B5B79F3
:107A5000212B46D8DFE803F011184545454545453B
:107A600045454545454545451E274545454545450B
:107A70004545454545454545313C1D4B03CB2060BB
:107A80006160204630BC70471A4B186820609B88A4
:107A9000A380F6E7184D0FCD20606160A260E3601F
:107AA00028682061EDE7154B07CB20606160A2607C
:107AB0001A889B78A281A373E3E7114D0FCD206054
:107AC0006160A260E3602A88AB782282A374D8E761
:107AD0000C4D0FCD20606160A260E3602B88238293
:107AE000CFE7094B03CB20606160CAE7443F002029
:107AF00070C5030078C5030080C5030094C503006A
:107B0000A4C50300B8C50300CCC5030008B5054BE8
:107B10001B7803B908BD044B002283F82920FFF726
:107B200005FFF7E7403F0020443F002008B5074B22
:107B30001B7803B908BD064A92F82A30013382F84F
:107B40002A300B20FFF706FFF4E700BF403F00207C
:107B5000443F0020F0B4094E044606F13007354694
:107B60000FCD20606160A260E3602E461034BD42FC
:107B7000F5D128682060F0BC704700BF443F00206A
:107B80007047000070B400264FF0FF3200E001366D
:107B90008E420CD2835D5A400024072CF7DC42F35E
:107BA0000005044B2B4083EA52020134F5E7D04331
:107BB00070BC70472083B8ED02780B789A4201D0F0
:107BC0000020704742784B789A4201D000207047DD
:107BD00082788B789A4201D000207047012070474C
:107BE00001230370437000238370C370704700004B
:107BF00038B54FF48073104A0021104804F04BFD53
:107C0000B8B10D4B1A680E4B9A4201D0002011E01A
:107C1000094DD5F8FC400023C5F8FC30FC2128466E
:107C2000FFF7B0FFC5F8FC40844214BF00200120DC
:107C300000E0002038BD00BFB43F0020A03F00207E
:107C40004142574610B5054CFC220021201D11F081
:107C5000BAFA034B23600223237110BDB43F002006
:107C60004142574638B50E4C0025C4F8FC50FC2163
:107C70002046FFF787FFC4F8FC002946094804F0B6
:107C8000DCFC034608B9184638BD4FF48073224621
:107C90002946044804F01CFE431B18BF0123F2E7E9
:107CA000B43F0020A03F0020012800D0704738B525
:107CB0004FF6FF73994200D038BD094D094A0C2197
:107CC000284604F00BFF084C01222946204604F008
:107CD00003FC064A0649204610F0F6F9ECE700BF1F
:107CE0007C3F0020944300209C3F00200036002071
:107CF000817B020010B504460BF098FF204610BDB2
:107D000038B51D4B1C780CB1204638BD00F06AFB1D
:107D100001220021194804F0F3FB044608B3184877
:107D200004F03AFC02461749174809F04FFCFFF7E8
:107D30005FFF48B91549144809F03EFCFFF782FF80
:107D4000FFF790FF054688B1114B5A7993F82C3014
:107D5000413210490C4809F039FC074B01221A70D6
:107D6000D2E70D49084809F027FCCDE70B49064842
:107D700009F022FC2C46C7E7783F00209C3F0020FA
:107D8000A03F0020C8C70300DC470020ECC7030069
:107D9000B43F00203CC80300A8C7030018C8030074
:107DA00008B50E4B1B78A3B10D4B00221A700D4B7A
:107DB0005B797BB90B4B01229A710A4B00221A6244
:107DC0009A62FFF74FFF0849084809F0F5FBFFF7F3
:107DD0009DFE08BD034B0122DA71EEE7783F0020DB
:107DE000983F0020B43F0020A4C90300DC470020D6
:107DF00008B50F4B1B7803B908BD0AF028F80D4BE6
:107E000018600D4B01221A700C4B5B795BB90B4B60
:107E100002229A71094B9862FFF724FF084909482A
:107E200009F0CAFBE8E7054B0222DA71F2E700BF6E
:107E3000783F0020943F0020983F0020B43F00206E
:107E400080C90300DC470020074B187840B1074B7E
:107E50005B7933B9054B9879022814BF00200120C3
:107E60007047024BD879F7E7783F0020B43F0020F5
:107E70002DE9F04FC1B0534B93F80090B9F1000FCA
:107E800033D00746504B98421FD8504B93F805A06B
:107E9000CAF1010A1AF0FF0A1ED14FF480783B465E
:107EA0000AF141024A494B4809F090FB07F6FF7579
:107EB0002D0B0024AC421CD204EB1831464804F0D0
:107EC000BCFB064658B10134F4E74449414809F087
:107ED00073FB4FF0000908E04FF40028DFE722466B
:107EE0003F493C4809F072FBB146484641B0BDE805
:107EF000F08F4FF0FF34002624E00130A8420DD26D
:107F00001DF800305C400022072AF6DC44F3000133
:107F1000344B0B4083EA54040132F5E705F10F0BB3
:107F20002BF00F0B5D451CD332465946684600F0D6
:107F3000B3FA5B466A4606EB0801274804F0C8FC22
:107F4000B8B12E44BE421CD2BD1BB5F5807F28BF00
:107F50004FF480752A463146684611F010F900202A
:107F6000CCE7ABEB050200210DEB050011F02BF97E
:107F7000DAE732461C49174809F028FB4FF00009A0
:107F8000B3E7E443BAF1000F11D1104B01229A710B
:107F90009F601C611A765A7600229A76DA76FFF78D
:107FA00061FE224611490B4809F010FB9DE7074B83
:107FB0000122DA71DF605C611A775A7700229A77C2
:107FC000DA77ECE7783F002000FF0700B43F00209D
:107FD000F8C60300DC470020A03F0020C8C603000D
:107FE0002CC703002083B8ED54C703007CC70300EF
:107FF0006F4B1B78002B00F0D9802DE9F047C0B003
:108000006C4B5A79BAB94FF48077BAB9694B9E680C
:10801000BAB9684BD3F81080334641326649674895
:1080200009F0D4FA721E664B9A420ED84FF0FF3414
:108030004FF0000926E04FF40027E6E75D4BDE68CD
:10804000E6E75C4BD3F81480E6E75E495B4809F04D
:10805000B3FA3CE04A465C49584809F0B7FA36E0C2
:108060000130A8420DD21DF800305C400022072AE2
:10807000F6DC44F30001554B0B4083EA5404013213
:10808000F5E7A944B1451AD2A6EB0905B5F5807FFD
:1080900028BF4FF4807505F10F0A2AF00F0A5346E6
:1080A0006A4609EB07014A4804F0F5FA0028D1D0E6
:1080B0004A465146684600F039FA0020D1E7E343CA
:1080C000984508D0424643493C4809F07FFA0020D1
:1080D00040B0BDE8F0874049384809F06DFA72B603
:1080E00006F6FF72120B3D4B022119603C4B1B68D8
:1080F000002BFBD0002393420AD203F1260109038F
:1081000038480160364909680029FBD00133F2E79D
:10811000324B01221A60324B1B68002BFBD000242B
:10812000B44227D2351BB5F5807F28BF4FF4807548
:1081300005F10F0828F00F0843466A46E119244864
:1081400004F0A9FA22464146684600F0EFF904F52A
:108150001831EA1C92080023934209D25DF82300EB
:1081600041F823001E4800680028FBD00133F3E7E4
:108170002C44D5E7194B00221A60194B1B68002BC1
:10818000FBD062B618490D4809F016FA642009F0D0
:1081900078FEBFF34F8F1549CA6802F4E062144BB2
:1081A0001343CB60BFF34F8F00BFFDE70020704744
:1081B000783F0020B43F00206CC80300DC4700205B
:1081C000FFFE07009CC80300BCC803002083B8ED75
:1081D000A03F0020E4C803001CC9030004E50140DF
:1081E00000E4014008E5014054C9030000ED00E04F
:1081F0000400FA05F0B587B0404B1C7814B920464E
:1082000007B0F0BD05A8FFF7EBFC3D4B93F82060ED
:108210003EB993F8213023B9394B93F82230002B23
:108220006AD0384905A8FFF7C7FC074660BB9DF830
:1082300014209DF815309DF81610314D95F8210049
:1082400095F822C0CDF80CC00290019600912E49FD
:108250002E4809F0BBF92B6A6B6200232B626B7905
:10826000C3F1010313F0FF051BD1254B9B79012BB3
:108270001AD02749254809F09FF90B20FFF76AFB20
:10828000FFF7F0FC3C46BAE79DF814209DF8153046
:108290009DF8161000911F491C4809F097F9002419
:1082A000ADE7174BDB79E2E7154B93F82C20013251
:1082B00083F82C205D71FFF7D5FC05F1410295B9DB
:1082C0000F4B1B7E95B90E49497E95B90C48807EAF
:1082D0000190009110490D4809F078F9FFF726FC4C
:1082E000FFF786FE8BE7064B1B7FEBE70449497FD0
:1082F000EBE70348807FEBE7002480E7783F00202E
:10830000B43F0020D43F002004C60300DC47002017
:1083100048C60300D4C5030070C6030008B50E4B61
:10832000187810B10D4B187800B908BD09F08FFD11
:108330000B4B1B68C01A4EF65F23984201D80020F1
:10834000F3E70849084809F037F9044B00221A708E
:10835000FFF750FFE9E700BF783F0020983F00207B
:10836000943F0020A0C60300DC47002008B54FF66C
:10837000FF710120FFF798FC08BD000070B5AAB09E
:1083800028AE304602F09DF81EAC144D0FCD0FC440
:1083900095E80F0084E80F0026AB96E8030083E819
:1083A0000300684603F0D8FC684603F085FC2822E9
:1083B0001EA9684603F0BCFD20220949684603F067
:1083C000EBFD282200211EA810F0FDFE00232893BB
:1083D0007360684603F09CFC2AB070BDF0C90300CE
:1083E000B840002008B5054B1B7803B108BDFFF766
:1083F000C5FF024B01221A70F8E700BFB44000200D
:10840000F0B5B1B007460E4627AC1B4D0FCD0FC4DB
:1084100095E80F0084E80F003B0E8DF8BC303B0C54
:108420008DF8BD303B0A8DF8BE308DF8BF706846C0
:1084300003F092FC684603F03FFC242227A968461B
:1084400003F076FD20221FA9684603F0A5FD1FACAE
:108450000FCC30607160B260F3602422002127A845
:1084600010F0B1FE202200211FA810F0ACFE6846DB
:1084700003F04EFC31B0F0BDB840002010B504460A
:10848000044B40F82C3B02F06FFD204603F0E2F86D
:10849000204610BDCCC903002DE9F041CEB0204CE0
:1084A00024782CB1002838D011F00F0F04D000240C
:1084B00020464EB0BDE8F081884605464AA91046E0
:1084C000FFF79EFF684603F005F9164E00960BAFC6
:1084D000384602F0E1FD019720221349684603F077
:1084E00060F810224AA9684603F0E5F804216846BE
:1084F00003F002F943462A462946684603F064F829
:1085000000234A934B934C934D930096384602F0C8
:108510002BFD684603F09EF8CAE70024C8E700BFB9
:10852000B4400020CCC90300B840002008B5FFF7D4
:10853000B3FF08BD10B50446064B40F82C3B02F0D3
:1085400013FD204603F086F820460BF06FFB204613
:1085500010BD00BFCCC90300012800D0704738B55A
:108560004FF6FF73994200D038BD094C204603F006
:1085700019FB2546074B45F8783B284602F0E2FCFC
:108580006560054A054920460FF09EFDECE700BFF7
:10859000D840002018CA030000360020B185020030
:1085A00008B54FF6FF710120FFF7D6FF08BD0000A8
:1085B00010B50446044B40F8783B02F061FC2046BD
:1085C00003F0D8F8204610BD18CA030010B50446C1
:1085D000064B40F8783B02F053FC204603F0CAF803
:1085E00020460BF023FB204610BD00BF18CA030035
:1085F000014B01221A7070472942002008B5024938
:10860000024808F0D9FF08BD5CCE0300DC4700201B
:1086100030B585B00A784B788878CC780D7949796F
:1086200003910295019400900349044808F0CEFF9D
:10863000012005B030BD00BFB8CE0300DC470020EC
:1086400008B529B10A460549054808F0BFFF08BD2D
:108650000449034808F0B0FFF9E700BFF8CE030073
:10866000DC470020E0CE030008B50649064808F0C4
:10867000A3FF012111200CF019F909F0E8FB034BCD
:10868000186008BD4CCE0300DC4700202C420020BF
:1086900038B50D460B4C0C49204608F06DFF0A22F8
:1086A0002946204609F013F8084B1B7823B900210E
:1086B00011200CF0FBF838BD012111200CF0F6F868
:1086C000F9E700BFDC4700209CCE03002B420020CE
:1086D000012800D070474FF6FF739942FAD110B5C8
:1086E000064C204607F0D4FD054A064920460FF007
:1086F000EBFC0B21044801F0F9F810BD34420020D6
:108700000036002091920200A442002038B52A4C85
:1087100000220121204606F01BFD0421204607F01F
:108720009DF82649204607F055F804F1200500235E
:108730001A460121284606F038F90121284606F09C
:1087400046F91F49284606F083F91E49284606F0D7
:1087500088F91D49284606F082F91C49204606F092
:1087600073F81B49204606F071F81A4D284607F0A9
:10877000B5FD04F522740621204604F08BFD204649
:1087800004F076FD204604F04FFD2946204604F013
:1087900035FD0121204604F0AFFDA0221146204600
:1087A00004F0A6FD1E21204604F0A0FD0A490B4856
:1087B00008F002FF38BD00BF004400201CCF0300BA
:1087C00011860200FD8502004186020069860200D2
:1087D000918602003442002028CF0300DC470020AD
:1087E00038B5044607200CF077F808B1002038BDF2
:1087F000322009F046FB07200CF06EF808B100208B
:10880000F5E709F024FB054609F021FB401BA042D7
:1088100011D207200CF060F898B909F018FB0A494A
:10882000A1FB0031C1F3001111200CF03FF80A2028
:1088300009F027FBE8E7002111200CF037F80120B0
:10884000D5E70020D3E700BFD34D621008B5054B34
:108850001B7803B108BDFFF759FF024B01221A70C4
:10886000F8E700BF28420020204B1B7803B1704777
:1088700010B51F491F4808F09FFEFFF7E7FF1B4B8D
:1088800001221A7009F0E3FA1B4B18600024042C33
:108890000FDC012111200CF009F8642009F0F1FA35
:1088A000002111200CF002F8642009F0EAFA0134EA
:1088B000EDE7012111200BF0F9FF00210F4804F032
:1088C000E5FD0C4C0E49204608F076FE0D49204689
:1088D00008F052FE0A224FF49671204608F0DAFEA4
:1088E0000949204608F068FE10BD00BF2B42002059
:1088F000BCCD0300DC4700202C420020884600202D
:10890000DCCD030000CE03001CCE030008B50A48EE
:1089100001F0D7FD082303E00121074AD1540133B8
:108920000F2B03DC082BF7D00021F6E7034904489E
:1089300008F042FE012008BD1042002080CE030056
:10894000DC47002010B501244FF08043C3F8784580
:10895000214611200BF010FF002111200BF0A6FF83
:10896000214610200BF008FF214610200BF09EFF3F
:10897000022107200BF000FF0C200BF0C5FE00F0D9
:108980005DFE00F041FDFDF799FD5249524808F0A7
:1089900013FEFDF7A7FD002844D1504801F058FE12
:1089A0004F4801F025F8002843D0FFF7AFFF00281B
:1089B00044D04C4C21464C4801F0ECFC21464B483D
:1089C00001F0F4F9444C4A49204608F0F5FD01F065
:1089D0006BFD02460B464749204608F0F7FD464C22
:1089E0001F231E221B21204601F0B6FE43492046CC
:1089F00002F05BF9044670BB4149374808F0DCFDE2
:108A0000092C49DC012111200BF050FF642009F0F2
:108A100038FA002111200BF049FF642009F031FAE7
:108A20000134EDE737492C4808F0C6FDFDF7ACFEF0
:108A3000B3E73549284808F0BFFDB6E73349264873
:108A400008F0BAFD274B00221A605A609A60DA607B
:108A500001221A70ADE72E491F4808F0ADFD264CE3
:108A60000A21204601F0C2FF2A49204601F0F0FF0A
:108A70000521204602F084F80821204602F099F8EA
:108A800001221421204602F0D5F83421204602F0BC
:108A90009EF8204602F0A1F84FF4FA60FFF7A0FE1E
:108AA00068B9FDF71FFD80B11B490B4808F084FD34
:108AB000FFF7CCFEFDF768FEFFF7D6FE05E017498D
:108AC000054808F079FDFFF7CFFE1549024808F088
:108AD00073FD10BD4CCA0300DC4700209443002006
:108AE000A442002010420020B44200205C43002039
:108AF000E4CA030000CB0300B0430020C0CA89369B
:108B000014CB030068CA0300A0CA0300D0CA030044
:108B100028CB030048E8010064CB030038CB0300F6
:108B200094CB030008B51E200BF0F4FD80B241F297
:108B3000883303FB00F30448A0FB03201B1A00EB5F
:108B40005300C0F3CF2008BD0101100010B584B060
:108B50000B4C0C49204608F02FFD01A9002000F025
:108B600089FE9DF80C30029A0749204608F02EFD38
:108B70000298064BA3FB0030C0F34F1004B010BDA9
:108B8000DC47002054CD03008CCD03001F85EB5142
:108B90000020704708B5FFF7D9FF074B1880FFF793
:108BA000F7FF064B1870FFF7BDFF054B1880054B0C
:108BB00000221A8008BD00BF204200202A42002067
:108BC000304200202242002008B5002111200BF085
:108BD0006DFE322009F055F9012111200BF066FEDF
:108BE00008BD000010B584B01D4B1B6800931D4BE1
:108BF0001B88ADF804301C4B1B788DF808301B4BDC
:108C00001B88ADF80630C0B101228DF8092040F66E
:108C10004752934205D89DF8093043F004038DF87C
:108C200009300023CDF80A30ADF80E3069461048FF
:108C300000F028FF28B904B010BD02228DF80920E9
:108C4000E5E70C4C0C49204608F096FC084800F07B
:108C500055FF0A220146204608F020FDEBE700BF41
:108C600024420020204200202A42002030420020DE
:108C7000A4420020DC47002014CD030038B50E4884
:108C800000F03CFF00B938BD04460C4D0C492846A5
:108C900008F072FC0A222146284608F0FBFC09492C
:108CA000284608F089FC042C28BF0424A1B20248FD
:108CB00000F026FFE7E700BFA4420020DC470020C9
:108CC00028CE030038CE030008B54FF6FF7101200F
:108CD000FFF7FEFC08BD000010B501F007FC4FF4E3
:108CE000E1311A4808F03FFD184B93F8A3302BB937
:108CF00009F0ADF840F6B7339842F5D9134C144952
:108D0000204608F059FC01F0CFFB02460B46114902
:108D1000204608F05BFCFFF715FEFEF7F1FF10B9E7
:108D2000FEF742FE10BDFFF765FA50B9FFF78CF869
:108D30000028F5D00849054808F03EFCFFF758F830
:108D4000EEE70649204608F037FCEFE7DC47002055
:108D5000E0D0030000CB03002CD1030010D10300AE
:108D60002DE9F04196B02F4B1A8840F647539A42AE
:108D700049D900242C4B1B780BB144F002042B483A
:108D800000F0BCFE08B144F00804294B1D88294BB3
:108D90001E78244B1F88284BB3F90080234800F02D
:108DA000ADFEC0B204940390CDF808800197009600
:108DB0002B46402206A9214801F034FB064620B389
:108DC0000024022C27D81E4D1E49284608F0D4FB4B
:108DD0000A22611C284608F061FC1B4D0021284630
:108DE00001F0D7FF324606A9284601F077FD0021A1
:108DF000284601F037FD90B94FF4FA7009F041F8B8
:108E00000134E4B2DDE70124B4E710490C4808F06E
:108E1000D3FB002000E0002016B0BDE8F081012067
:108E2000FAE700BF3042002004360020A4420020B0
:108E3000204200202A42002022420020B44200208A
:108E4000DC470020C0CB0300B0430020A8CB0300C8
:108E500070B50446454D4649284608F0ADFB284606
:108E600008F0EEFD434801F07BFD434800F053FE5F
:108E7000002111200BF01AFD012110200BF016FD2E
:108E8000002C49D13D4B1B88B3F5486F55D33C4C62
:108E900008F0DDFF05463B4B00221A7003223A49D9
:108EA000072008F0D7FE0AF06FFE204608F0E9FF21
:108EB0000AF072FE072008F055FF08F0C8FF451BB6
:108EC000AC4240D9641B2C4800F02CFE294801F02C
:108ED00041FD2C4B1B78002B42D0244E2B493046B1
:108EE00008F06AFB23462A462949304608F06EFB03
:108EF000244B00221A704FF4FA60FFF771FC20BB7C
:108F000024491A4808F058FBB4F57A7F24D822493E
:108F1000164808F051FB27E02049284608F02CFBB2
:108F20001F49A1FB04310A228909284608F0C0FB29
:108F30001C49284608F040FBAAE71B490B4808F0EB
:108F40003BFB1A4CA4E70024BDE71949304608F062
:108F500033FBFFF789FC07E02046FFF779FF03E0CA
:108F60001449024808F028FB70BD00BFDC47002010
:108F7000D0CB0300B0430020A442002030420020A8
:108F800000DD6D0029420020F185020038CC03008D
:108F900050CC0300A0CC0300CCCC0300E8CB0300F2
:108FA000D34D621000CC030014CC03000074B70151
:108FB0007CCC030000CD030010B5134B00221A70C7
:108FC000124B1B785BB9002111200BF06FFC10498C
:108FD000104808F0F1FA0020FFF73AFF10BD0E48E4
:108FE00006F0A1FC18B90D4804F060FAEBE70A4C52
:108FF000204606F07BFC0146204606F0A8FC6420D3
:1090000008F03FFFEFE700BF2B420020284200207E
:1090100034CD0300DC4700200044002088460020B7
:1090200030B5A5B0FFF77AF97D4B1B7863B308F034
:109030000EFF7C4B1B68C01A7B4B98420ED8072052
:109040000BF04AFC30B9322008F01BFF07200BF070
:1090500043FC50B1642008F014FFC7E07349744822
:1090600008F0AAFAFFF7A8FFC0E07249704808F0BC
:10907000A3FA07200BF030FC18B90A2008F001FF12
:10908000F7E7FFF799FFB1E0694C6B49204608F01C
:1090900093FAFFF799FDFFF77DFD6849204608F038
:1090A0006BFA0A22664B1978204608F00CFB6549DA
:1090B000204608F061FA0A22634B1988204608F01E
:1090C000E9FA6249204608F077FA6149204608F03B
:1090D00053FA0A225F4B1988204608F0DBFA5E49F2
:1090E000204608F069FAFFF73BFE002862D05B4992
:1090F000204608F061FAFEF7A7FE18BB08F0A7FEAD
:109100000546002408F0A3FE401B40F6B733984202
:1091100005D80021524801F05BFE041EF2DD002C50
:1091200040DD00244E4801F043FB90B13F2C10D8A5
:109130004B4801F045FB631C24AA144404F8400C7E
:10914000DCB2EFE74749204608F036FAFEF728FE82
:10915000D4E708AB009302AB224614A9424801F0C1
:1091600027F970B39DF80B10A1F11003DBB2072BA8
:109170000ED9022925D13D492D4808F01DFA9DF848
:10918000233013F0010F0AD10120FFF72BFD18E067
:109190009DF81F3008AA364801F00EF811E0FFF7DD
:1091A0006DFDF1E73349224808F006FA0020FFF789
:1091B00019FD06E030491E4808F0FEF90020FFF7CF
:1091C00011FD2B4C204601F06FF82378052B0FD0B2
:1091D0002A4B196801F5E1511960234801F062F941
:1091E0000020FFF735FE264B00221A7025B030BD57
:1091F00024490F4808F0E0F94FF48020FEF738FECC
:1092000048B121490A4808F0D7F9FEF7F1FD18489E
:1092100000F074FEDCE71D49054808F0CDF9F6E7DB
:109220002B4200202C420020E093040058CF030082
:10923000DC47002080CF0300B0CF0300CCCF030079
:109240002A420020D8CF0300204200203CEC03003B
:10925000E4CF030030420020F0CF0300F4CF03003E
:10926000B043002000D00300B442002030D00300FF
:109270005C43002044D003005CD003002442002063
:109280000436002068D003008CD00300B0D0030067
:1092900010B50446064B40F8183B04F0B1F92046DF
:1092A000044B40F8083B05F076FD204610BD00BF9A
:1092B0007CEB0300F8E6030030B400254FF0FF32EA
:1092C00000E00135872D0CD8435D5A400021072965
:1092D000F7DC42F30004044B234083EA52020131DD
:1092E000F5E7D04330BC70472083B8ED38B58C2308
:1092F0001B4A00211B4800F002FB0446B8B1184B82
:109300001A68194B9A4217D1154D2846FFF7D4FF1A
:10931000D5F88820824216D1114B1A79012A19D02A
:1093200001231249124808F051F9002409E01149BB
:109330000F4808F041F904E00F490D4808F03CF9E6
:109340000024204638BD03460C49094808F03EF980
:109350000024F6E70A49064808F02EF9F1E700BFB5
:10936000CC420020A4420020424C434D38D303009D
:10937000DC470020B0D20300D0D20300FCD20300AF
:1093800070D3030010B50C4C86220021A01D0FF0F5
:109390001AFF0A4B23600123237104236371002306
:1093A000032B07D8044A02EB431200215175013305
:1093B000DBB2F5E710BD00BFCC420020424C434D6C
:1093C00010B50C4C2046FFF777FFC4F888008C23BB
:1093D00022460021084800F0A3FA044628B10749B4
:1093E000074808F0E9F8204610BD0649044808F08F
:1093F000E3F8F8E7CC420020A442002094D2030016
:10940000DC47002074D20300134B1B780BB1012002
:10941000704710B584B0FFF769FFB8B10E4B012259
:109420001A700024032C14D80C4A02EB4412517D0C
:109430009368029111690191D2680092224608490D
:10944000084808F0C3F80134E4B2EBE7FFF79AFFED
:10945000E4E7012004B010BD58430020CC420020B6
:1094600054D10300DC470020084B1B7853B103287C
:1094700009D8074B03EB4010437D83F0010303F051
:10948000010300E001231846704700BF5843002045
:10949000CC420020114B1B78DBB1032818D8D1B186
:1094A00070B4400108300E4A10440668456884686C
:1094B000C2680E604D608C60CA6006694569846947
:1094C000C2690E614D618C61CA61184670BC7047FB
:1094D0000023184670470023FBE700BF58430020D5
:1094E000CC42002002460D480078B0B1032A01D9D1
:1094F0000020704708B50B46094901EB42118B600B
:10950000487D40F001004875002088610549064803
:1095100008F05CF8FFF754FF08BD7047584300207F
:10952000CC420020C8D10300DC47002002460D4891
:109530000078B0B1032A01D90020704708B50B4666
:10954000094901EB4211CB60487D40F002004875AB
:10955000002088610549064808F038F8FFF730FF19
:1095600008BD704758430020CC420020F4D10300CE
:10957000DC47002002460D480078B0B1032A01D92B
:109580000020704708B50B46094901EB42110B61F9
:10959000487D40F004004875002088610549064870
:1095A00008F014F8FFF70CFF08BD7047584300207F
:1095B000CC42002020D20300DC47002010B5044636
:1095C0000B4B187810B1032C01D9002010BD63019A
:1095D000083320220021074818440FF0F4FD2246EA
:1095E0000549064807F0F2FFFFF7EAFEEEE700BF85
:1095F00058430020CC4200209CD10300DC470020CF
:1096000008B5064B187800B908BDFFF7BBFE044942
:10961000044807F0D1FFFFF7D3FEF5E758430020D9
:109620004CD20300DC470020000240F00110024B46
:10963000C3F81805704700BF00600040194B1B7845
:1096400003B1704710B5012110200BF095F80121EE
:1096500010200BF02BF90024032C07D80021124B0B
:10966000185D0BF089F80134E4B2F5E70F4A0123E5
:10967000C2F804350320C2F80805D36002F5805211
:109680000021C2F80415C2F808050420C2F810052C
:10969000044A1370064B19700649074807F08CFFFF
:1096A00010BD00BF59430020F8D3030000A00140C3
:1096B0005A4300204CCA0300DC47002008B50B4B7E
:1096C0001B7813B10A4B1B7803B108BD0021102091
:1096D0000BF0ECF8064B01221A700A2008F0D1FBBF
:1096E0000449054807F068FFEFE700BF5943002031
:1096F0005A43002090D30300DC47002008B5084BF4
:109700001B7803B908BD012110200BF0CFF8054BE1
:1097100000221A700449054807F04EFFF2E700BF27
:10972000594300205A430020A8D30300DC470020FF
:10973000F0B583B02C4B1B78002B50D0032801D9F7
:1097400000244DE00E460546284B185CFFF76CFFE1
:109750002749284BC1F8603503F59F3303F5807323
:10976000C1F864354FF47A7202FB06F203F6F8731F
:10977000C3F8402520480122C260DA6000241F4F50
:10978000C7F80841C3F840414FF48064C1F804456C
:1097900002601A601A4BD3F84031002BFAD0164BF6
:1097A00001225A6016494A6001F580414FF48060F9
:1097B000C1F80805A1F5C8310020C1F818051A64E0
:1097C000D3F840354FF47A7404FB03F4B4FBF6F499
:1097D00000942A460B490C4807F0F8FE00E00024EC
:1097E000204603B0F0BD00BF59430020F8D303006A
:1097F00000F001400861004000A00140006000400E
:1098000000B00140C4D30300DC4700204CF24F33CA
:10981000984209D903F5970303F2F173984201D8EE
:1098200000207047012070470220704710B588B0B3
:109830000C466946FFF72EFE80B1019B8BB1029A60
:109840008AB1A34211D9A24211D29A1A1B1B6420D9
:1098500000FB03F0B0FBF2F0C0B200E0FF2008B064
:1098600010BDFF20FBE7FF20F9E70020F7E76420A9
:10987000F5E70000F8B51B4B1B787BB303282CD809
:1098800071B30C460546207000234B60FF230B721A
:1098900004234B72144B1E787EB164212846FFF7D7
:1098A00047FF07466060FFF7B1FF607240B18EB1BD
:1098B000637AB3FA83F35B0910E0FFF7FFFEECE78E
:1098C00039462846FFF7B2FF2072FF28EFD1032365
:1098D0006372ECE7FFF712FFEAE700231846F8BDD2
:1098E0000023FBE7594300205A4300200170002267
:1098F00042704260028142818281C281704710B50C
:109900000446407830B1606840B1CC18B4F5005FCF
:1099100001DD002010BD03F00DFBFBE70020F9E79F
:1099200010B50446407830B1606840B1CC18B4F549
:10993000005F01DD002010BD03F0CEFAFBE7002040
:10994000F9E700B58BB00289ADF804204289ADF883
:1099500006208289ADF80820C389ADF80A300023BB
:10996000039304930593069307930893ADF824306B
:10997000222301AA4021FFF7D3FF0BB05DF804FBBF
:1099800030B58BB00446222301AA4021FFF7B7FF70
:10999000BDF804303E2B03D8BDF806203E2A0DD971
:1099A000002323816381A381E3812046FFF7C9FF60
:1099B0000C490D4807F000FE0BB030BD23816281D9
:1099C000BDF80830A381BDF80A30E381064D074990
:1099D000284607F0D1FD0A22A189284607F05EFE3D
:1099E000EAE700BFFCD30300DC4700201CD40300DF
:1099F00030B583B0044610200AF014F905461B4B1D
:109A00001B4A94F9001003F047FA65609DB10221EA
:109A1000284603F0F3FA054690B91649164807F0B0
:109A2000CBFD606810B103685B68984700236360F2
:109A3000284603B030BD11490F4807F0BDFDF7E7D8
:109A400001AA0DF10701606803F0A2FA28B92046C7
:109A5000FFF796FF01236370EAE7BDF804309DF835
:109A600007200749044807F0B1FDF0E700127A002B
:109A70009443002068D40300DC47002040D4030056
:109A800084D4030038B545780DB9284638BD0A4658
:109A90000446038903F2C1131B0199B21023FFF797
:109AA0003FFF05460028F0D022890132124B83FB8C
:109AB000021313445B11C3EB8313D31A2381A389CD
:109AC0003E2B0DD80133A381E38901339BB2E3819F
:109AD000A289934200D9E2812046FFF732FFD4E702
:109AE00062890132044B83FB021313445B11C3EB05
:109AF0008313D31A6381E7E783200882C089704704
:109B000008B5C3898B4200D219465B1AC381FFF79F
:109B100018FF012008BD406818B108B503F0A0FA8D
:109B200008BD7047406818B108B503F0B9FA08BD20
:109B30007047000030B400248C4209D2035D5340CA
:109B4000DBB2054D55F8233083EA12220134F3E7E6
:109B5000D04330BC704700BFB4D4030030B40025FC
:109B60004FF6FF730EE041F2210484EA43039BB2F7
:109B70000132072A05DC13F4004FF4D15B009BB2DD
:109B8000F6E701358D4204D2425D83EA02230022CA
:109B9000EFE7184630BC70470B78FF2B03D0012B42
:109BA00001D0002070474B788878000240EA0340DB
:109BB000CB781843024B984294BF00200120704795
:109BC00000010100002213460F2A06DCC3EB4313F9
:109BD0004169895C0B440132F6E7044AA2FB031297
:109BE000120D034800FB1230704700BFB17C219575
:109BF00040771B00038D3BB1428D642000FB02F0D7
:109C000090FBF3F0C0B270470020704708B52023E6
:109C100000F118024FF400710148FFF781FE08BD02
:109C2000A442002010B504460021017006234370B1
:109C30004160202218300FF0C6FA2046FFF7E6FFF9
:109C40000249034807F0B8FC10BD00BF18DA030052
:109C5000DC470020F0B5A1B004460D46434E444910
:109C6000304607F089FC0A226978304607F02BFD60
:109C7000404F3946304607F07FFC0A22A97830462B
:109C800007F021FD3946304607F076FC0A22E978D4
:109C9000304607F01CFD29462046FFF77DFF0028CF
:109CA00059D06B68B3F5802F5AD82378032B04D191
:109CB0006268D5F80E309A424BD0D5F80E3063600A
:109CC0002046FFF77FFFA06008F0C1F8E0600026A3
:109CD0002682A674012323706670274AA261D5F8F4
:109CE0000E20E2616A682262D5F80A2062622A893F
:109CF000228566856A7884F82C20AA7884F82D203D
:109D0000EA7884F82E2084F82F3084F830602046DA
:109D1000FFF77CFF80252A46314668460FF053FA4C
:109D20002B466A464FF406711448FFF7F9FD0F4DB4
:109D30001349284607F020FCA168124BA3FB013110
:109D40000A228909284607F0B3FC0F49284607F084
:109D500033FC21B0F0BD0D49304607F02DFCF8E78B
:109D60000B49024807F028FCF3E700BFDC4700205E
:109D700068D903007CC903004841544FA442002025
:109D8000A8D90300D34D62101CCE030078D903007C
:109D900090D9030008B5202300F118024FF4007198
:109DA0000148FFF7ACFD08BDA442002038B50446C9
:109DB000416100230370437043608360C36003828A
:109DC0008374FFF7E7FF30B1A369174A934203D0CA
:109DD000154A93421ED038BD94F82F20032AF7D19C
:109DE00003232370E3696360638D23820F4D104961
:109DF000284607F0C1FB0A22618D284607F04AFC7D
:109E00000C49284607F0B8FB0A22218D284607F0A6
:109E100045FCE0E794F82F30052BDCD12370064990
:109E2000024807F0C9FBD6E74841544FDC47002001
:109E3000D4D90300F4D90300F8D9030008B5C82029
:109E400000FB01F101F5107189B20248FFF768FDCE
:109E500008BD00BFA442002070B582B001F0070524
:109E6000C1F3C70101F506740B4E01230DF1070282
:109E700021463046FFF743FD012303FA05F59DF81F
:109E800007202A438DF807200DF1070221463046AE
:109E9000FFF746FD02B070BDA4420020F0B5B3B09C
:109EA000064600244FF0FF3516E0378C04EB8403A0
:109EB00003EB8303DA0092B2BF1ABFB289B23B460A
:109EC0006A460D48FFF71BFDEA4339466846FFF72F
:109ED00031FEC5430134A4B2338DA34209D9C82150
:109EE00001FB04F101F51071013B9C42DDD0C82754
:109EF000E4E7E84333B0F0BDA442002010B5037896
:109F0000052B04D01049114807F056FB10BD04463C
:109F10000F490E4807F050FB002384F82F302046ED
:109F2000FFF774FE4FF08043B122C3F81C25BFF346
:109F30004F8F0849CA6802F4E062074B1343CB60B5
:109F4000BFF34F8F00BFFDE7B4D80300DC4700200C
:109F5000CCD8030000ED00E00400FA0530B591B064
:109F6000054641238DF8003047238DF80130012448
:109F70008DF8024011238DF803308DF804404369B9
:109F8000186859689A68DB68CDF80500CDF80910A3
:109F9000CDF80D20CDF81130164800F03EFAADF89E
:109FA000150009238DF817306B6806938DF81C4057
:109FB0008DF81D4000238DF81E306B8DBBB1013B29
:109FC0009BB2ADF81F300C4C0021204600F0E1FEA2
:109FD00021226946204600F081FC0021204600F045
:109FE00041FC0649064807F0E7FA11B030BD4FF6CC
:109FF000FF73E6E7B4420020B043002040D90300DD
:10A00000DC47002070B590B004460E4641238DF821
:10A01000003047238DF8013001238DF802301546BA
:10A0200082B314238DF8033001238DF80430636963
:10A03000186859689A68DB68CDF80500CDF80910F2
:10A04000CDF80D20CDF811300F4800F0E6F9ADF84D
:10A05000150007238DF8173063680693ADF81C6070
:10A060008DF81E50094C0021204600F092FE1F2260
:10A070006946204600F032FC0021204600F0F2FB49
:10A0800010B070BD1323CDE7B4420020B0430020D0
:10A09000F8B50A6843689A4200D0F8BD0C460546F8
:10A0A00001F10A06CF8839463046FFF757FD23896C
:10A0B000834213D0384E3949304607F05DFA0A2200
:10A0C000A188304607F0E6FA3549304607F074FAC1
:10A0D0000122A1882846FFF795FFDEE73B4632467E
:10A0E000A1882846FFF7AAFE002842D0A18828466A
:10A0F000FFF7B2FE6B8D01336B8507F0A8FEE860B9
:10A100000022AA74A1882846FFF77CFF224E23492B
:10A11000304607F031FAA1880A220131304607F0B3
:10A12000B9FA2049304607F027FA0A22298D30462D
:10A1300007F0B0FA1C49304607F01EFA2846FFF730
:10A1400059FD0A220146304607F0BDFA174930464C
:10A1500007F032FA03232B7085F82F306A8D2B8D90
:10A160009A4210D22846FFF751FDA38801332B8273
:10A1700093E70F49084807F01FFA0222A1882846F2
:10A18000FFF740FF89E70B49304607F015FA042333
:10A190002B7085F82F30E5E7DC470020E4D803007A
:10A1A000F0D80300F4D9030010D9030014D9030038
:10A1B000FCD8030018D9030010B5044612290ED0AC
:10A1C000162915D0102901D0002019E0112B01D833
:10A1D000002015E01146FFF73DFD012010E0092B9E
:10A1E00001D800200CE01146FFF752FF012007E0E4
:10A1F0000449054807F0E0F92046FFF713FD012068
:10A2000010BD00BFC0D90300DC47002010B590B0DE
:10A21000044641238DF8003047238DF80130012397
:10A220008DF8023015228DF803208DF80430436933
:10A23000186859689A68DB68CDF80500CDF80910F0
:10A24000CDF80D20CDF81130134800F0E6F8ADF848
:10A25000150009238DF81730636806932046FFF731
:10A260001DFE0790636AC01A18BF01208DF82000F8
:10A270000A4C0021204600F08CFD21226946204630
:10A2800000F02CFB0021204600F0ECFA04490548C0
:10A2900007F092F910B010BDB4420020B043002086
:10A2A00054D90300DC47002070B5044607F0CFFD09
:10A2B00005462378013B032B51D8DFE803F0020E5B
:10A2C0000E3BE368C31AA268934248D32046FFF7C7
:10A2D00045FE02232370E56041E0E368C31A42F2C1
:10A2E0000F7293423BD9A37C0133DBB2A374042BDE
:10A2F0000FD92349234807F05FF901236370062231
:10A30000227084F82F2084F830302046FFF77EFC3E
:10A3100025E01C4E1C49304607F02EF90A22A17C8C
:10A32000304607F0D4F90122218A2046FFF76AFE61
:10A33000E56014E02046FFF7B1FD636A83420FD069
:10A340001249104807F038F903236370062222707F
:10A3500084F82F2084F830302046FFF757FC70BD7A
:10A360000B49084807F028F90523237084F82F309B
:10A370002046FFF74BFC2046FFF748FFEFE700BF02
:10A3800028DA0300DC47002044DA030080DA030007
:10A390005CDA030030B40D684C688A68CB680560ED
:10A3A00044608260C36000230382436130BC704715
:10A3B000172A01D80020704770B50C6848688E686D
:10A3C000CD681C6058609E60DD600C6948691C6146
:10A3D00058611878412801D0002070BD587847286E
:10A3E00001D00020F9E79878012801D00020F4E797
:10A3F000DB7D03F1180082420BD3049A5AB10BB9EA
:10A400000120EAE71A46183104980EF0B8FE012040
:10A41000E3E70020E1E70120DFE7038A5A1C02821C
:10A4200018467047262A01D800207047F8B51E4606
:10A430000C46054641230B7047234B7001238B705C
:10A44000CB700B7107684068A968EA68C4F80570AA
:10A45000C4F80900C4F80D10C4F811202846FFF70D
:10A46000DCFFA4F815000F23E3756B69A361A683D5
:10A470009DF81830A377BDF81C30A4F81F30BDF943
:10A480002030A4F82130002384F8233084F82430CD
:10A490009DF8243084F825309DF8283084F8263043
:10A4A0002720F8BD416170474DF804BD4FF080533F
:10A4B000186E596E002242EA000B58465DF804BB44
:10A4C0007047034688B14FF080510A6E496E080EFE
:10A4D0001870080C5870080A9870D970110E19710C
:10A4E000110C5971110A9971DA717047704702287D
:10A4F00005D0032805D0012805D00020704704208E
:10A5000070470620704702207047000010B50024F5
:10A51000447481B181600B4951F82220027351F8D3
:10A52000233083739DF8083051F8233043730023A0
:10A53000C373037410BD044B044A452104480EF054
:10A540006DFD00BF40EF030094DA030008DB030059
:10A55000A4DA0300012800D070474FF6FF73994238
:10A56000FAD100B583B0094B094A1A6001225A7129
:10A5700000221A710D2300930C230E220549064870
:10A58000FFF7C4FF03B05DF804FB00BFA843002041
:10A5900000093D00003002409443002082680023FF
:10A5A000C2F800354374704783680022C3F8002561
:10A5B0007047B1F5007F0FD2FF2913D87F2914D837
:10A5C0003F2915D81F2916D80F2902D84FF000426D
:10A5D00004E04FF0804201E04FF000728368C3F85E
:10A5E000242570474FF08062F8E74FF00062F5E7EE
:10A5F0004FF08052F2E74FF00052EFE730B583B0F2
:10A60000044602AB03E9060083680022C3F8002574
:10A610009DF8055015F1FF3518BF012505749DF80B
:10A620000400E073FFF763FFA3682843C3F85405F1
:10A63000009B0649B1FBF3F12046FFF7BAFFA36880
:10A640000122C3F8002503B030BD00BF0090D00345
:10A6500008B5437C03B108BD012343748368827B42
:10A66000C3F808258368427BC3F80C258368027B06
:10A67000C3F81025024B93E80600FFF7BFFFEAE797
:10A68000A84300208368C3F81C158368D3F8082109
:10A69000002AFAD0D3F818050022C3F80821C0B266
:10A6A0007047F8B507460D4616460024B44206D258
:10A6B000295D3846FFF7E6FF28550134F6E7F8BD77
:10A6C00008B54FF6FF710120FFF744FF08BD0020D9
:10A6D000704710B582B002AB03F8011D02685468E0
:10A6E00001221946A04702B010BD704710B50446BC
:10A6F000002141604FF47A7383600C4B03600C4B74
:10A7000003610123437501750A4B83610A23C36109
:10A7100009230362022343628162C16201634163D0
:10A72000816307F01BF8204610BD00BF50DB03001B
:10A7300000127A0094430020012800D0704708B529
:10A740004FF6FF73994200D008BD0248FFF7CEFFD5
:10A75000FAE700BFB0430020C16102624362704764
:10A7600070B504460E4615460021C0690AF09EF8F1
:10A7700004F1100393E80600A069FFF73FFF31469C
:10A78000A069FFF77FFF2946A069FFF77BFF054619
:10A79000A069FFF709FF0121E0690AF087F8284660
:10A7A00070BD08B5002201F07F01FFF7D9FF08BD99
:10A7B00010B504461321FFF7F4FFE36AC01A10BD79
:10A7C00010B5044603681B69984738B1E36A013342
:10A7D000E36200212046FFF7E4FF10BD4FF0FF3099
:10A7E000FBE708B51E21FFF7DCFF001108BD0000E4
:10A7F00008B51D21FFF7D5FFC0F3071009281ED8A3
:10A80000DFE800F00520080B0E111417191B41F6A4
:10A81000786019E043F6F04016E045F2401013E08E
:10A8200047F6122010E04AF2E4200DE04FF22440F7
:10A830000AE0064808E0064806E0064804E04FF053
:10A84000FF3001E042F6A00008BD00BF48E801006B
:10A8500090D0030020A1070008B541F08001FFF768
:10A860007FFF08BD38B504460D4629B1836B1BB187
:10A8700040221146FFF7F0FF832201212046FFF717
:10A88000EBFF75B912212046FFF78BFF10F0080F80
:10A8900002D109F0EBFBF5E7082212212046FFF771
:10A8A000DBFF012038BD10B504460121FFF779FF19
:10A8B00000F0030003280FD012212046FFF771FF9C
:10A8C00010F0080F01D1002007E0082212212046D5
:10A8D000FFF7C2FF002000E0012010BD2DE9F0418C
:10A8E00006460F4615462221FFF75BFF80464319B7
:10A8F000FF2B01D9C0F1FF050024A54206D93A5D1E
:10A9000000213046FFF7A8FF0134F6E708EB050207
:10A91000D2B222213046FFF79FFF2846BDE8F081E2
:10A9200070B5044603681B69984780B10D21204625
:10A93000FFF737FF064600212046FFF732FF0546A6
:10A9400032460D212046FFF787FF284670BD4FF0A5
:10A95000FF30FBE708B581220121FFF77DFF08BD2D
:10A9600008B580220121FFF777FF08BD38B50446FE
:10A9700081620C4A0023C80449130EF0BBF9054656
:10A98000C0F3074206212046FFF766FFC5F3072202
:10A9900007212046FFF760FFEAB208212046FFF7B3
:10A9A0005BFF38BD0048E80138B50446FFF720FFDB
:10A9B00005462046FFF715FF012303FA00F095FB3B
:10A9C000F0F04FF47A7595FBF0F526212046FFF75D
:10A9D000E8FE102D06DC00F0F70226212046FFF7E6
:10A9E0003BFF38BD40F00802D2B2F6E738B5044666
:10A9F00005291FDD0D460C2928DC06291BD0C322A2
:10AA000031212046FFF728FF0A2237212046FFF791
:10AA100023FF1E212046FFF7C4FE00F00F0040EA8E
:10AA20000512D2B21E212046FFF716FF2046FFF77F
:10AA3000BBFF38BD0625C52231212046FFF70CFF9C
:10AA40000C2237212046FFF707FFE2E70C25D6E767
:10AA5000F8B5044608460DF0EBFC06460F4636A353
:10AA6000D3E900230DF0CAFF002846D134A3D3E96F
:10AA70000023304639460DF0C1FF00284ED132A3E5
:10AA8000D3E90023304639460DF0B8FF002847D1FE
:10AA90002FA3D3E90023304639460DF0AFFF00283D
:10AAA00040D12DA3D3E90023304639460DF0A6FF4F
:10AAB000D0BB2BA3D3E90023304639460DF09EFFCF
:10AAC000A0BB29A3D3E90023304639460DF096FFF9
:10AAD00070BB27A3D3E90023304639460DF08EFF23
:10AAE00040BB25A3D3E90023304639460DF086FF4D
:10AAF00008B9092502E0082500E000251D212046AF
:10AB0000FFF74FFE00F00F0242EA05121D2120461A
:10AB1000FFF7A2FE2046FFF747FFF8BD0125EDE74E
:10AB20000225EBE70325E9E70425E7E70525E5E747
:10AB30000625E3E70725E1E7000000000078BE40B6
:10AB4000000000000050C440000000000078CE402B
:10AB5000000000000050D440000000008084DE406F
:10AB600000000000805CE440000000008084EE40B3
:10AB7000000000008084FE400000000080840E4140
:10AB800038B50546042903DD082902DD082100E067
:10AB900005210C1F1D212846FFF703FE41B221F0BD
:10ABA0000E0141EA4401CAB21D212846FFF754FEB6
:10ABB00038BD38B505460C46C1F307222021FFF702
:10ABC0004BFEE2B221212846FFF746FE38BD08B50C
:10ABD000CAB23921FFF740FE08BD10B504461E2158
:10ABE000FFF7DFFD40F00402D2B21E212046FFF73E
:10ABF00033FE10BD08B5782908D9F02916D801F11F
:10AC00001E020B4981FB0232920807E02D39084AE7
:10AC100082FB0132C917C1EB6202D2B202F01F02FD
:10AC200042F020020B21FFF717FE08BD1B22F5E7BB
:10AC30006766666638B505460C467AB9134600293C
:10AC400002DB0E2908DD0E2343F07002D2B2092187
:10AC50002846FFF701FE38BD0B46F5E7112916DD42
:10AC6000142900DD1424033C87224D212846FFF7D8
:10AC7000F3FD8C212846FFF7BDFFA21E52B262F001
:10AC80007F02D2B209212846FFF7E6FDE3E701295A
:10AC900009DD84224D212846FFF7DEFD6421284688
:10ACA000FFF7A8FFE9E70224F3E738B504460D46AD
:10ACB0000121C06909F060FD0121E06909F0F6FD9C
:10ACC000206AB0F1FF3F0AD1A069FFF7C1FC422121
:10ACD0002046FFF766FD122813D0002038BD012161
:10ACE00009F04AFD0021206A09F0E0FD0A2007F082
:10ACF000C8F80121206A09F0D9FD0A2007F0C1F83F
:10AD0000E2E72046FFF72CFE29462046FFF72EFEFD
:10AD100000220E212046FFF79FFD00220F21204632
:10AD2000FFF79AFD0C212046FFF73BFD40F00302A0
:10AD3000D2B20C212046FFF78FFD042226212046A7
:10AD4000FFF78AFD012211212046FFF773FF2046FD
:10AD5000FFF700FE0120C1E710B50446002303639E
:10AD60001D21FFF71EFD00F0FE021D212046FFF70A
:10AD700073FD10BD10B50446012303631D21FFF7C9
:10AD800010FD40F00102D2B21D212046FFF764FD04
:10AD900010BD38B504460D46FFF785FD08B100200B
:10ADA00038BD2046FFF7D6FD75B12046FFF7E2FF1C
:10ADB00000220D212046FFF74FFD002222212046D0
:10ADC000FFF74AFD0120EBE72046FFF7C5FFEFE75D
:10ADD00070B504460E461221FFF7E3FC0546002E2F
:10ADE00027DD2046FFF7C6FFF2B222212046FFF7FB
:10ADF00033FD2A4612212046FFF72EFD05F060059F
:10AE0000402D20D10023E362236BB3B122212046E1
:10AE1000FFF7C7FC054610212046FFF7C2FC02469B
:10AE20000D212046FFF718FD2046FFF793FD284629
:10AE300070BD2046FFF790FFDBE713212046FFF7A8
:10AE4000B0FC0546E7E701212046FFF7AAFC86286B
:10AE50000BD000220D212046FFF7FEFC86220121A7
:10AE60002046FFF7F9FC0025E1E70025DFE708B5FC
:10AE70004FF6FF710120FFF75FFC08BD10207047FF
:10AE800010B50446054B40F80C3BB02100F047FCE0
:10AE9000204600F029F9204610BD00BF74DB0300F6
:10AEA00010B50446FFF7ECFF204608F0BFFE204631
:10AEB00010BD102A01D00020704770B500F10C04BD
:10AEC0000E684D688A68CB68C6606560A260E36002
:10AED0000423102501261EE0324604F10C0104F182
:10AEE000100000F027FB237C227853402374637CFE
:10AEF000627853406374A37CA2785340A374E37CCC
:10AF0000E2785340E3740136F6B20023043404358A
:10AF1000EDB20133DBB2AF2D12D8042BDCD0227B93
:10AF200021784A402274627B61784A406274A27B35
:10AF3000A1784A40A274E27BE1784A40E274E5E7F6
:10AF4000012070BD10B5044600F0C0F8044B23602A
:10AF50000A23237104F10C03A360204610BD00BF37
:10AF600074DB03002020704710B50446054B40F801
:10AF70000C3BF02100F0D3FB204600F0B5F8204652
:10AF800010BD00BF9CDB030010B50446FFF7ECFFCB
:10AF9000204608F04BFE204610BD202A01D000209C
:10AFA0007047F8B500F10C040E684D688A68CB68EC
:10AFB000C6606560A260E3600E694D698A69CB690D
:10AFC00026616561A261E36108252026012726E04C
:10AFD0003A4604F11C0104F1200000F0ABFA94F8A9
:10AFE00020302278534084F8203094F82130627861
:10AFF000534084F8213094F82230A278534084F8EA
:10B00000223094F82330E278534084F8233001371B
:10B01000FFB2002504340436F6B20135EDB2EF2E4E
:10B0200037D8082DD4D0042D14D0237F2278534054
:10B0300084F82030637F6278534084F82130A37F06
:10B04000A278534084F82230E37FE278534084F8BA
:10B050002330DFE704F11C0104F1200000F082FA44
:10B0600094F820302278534084F8203094F821302E
:10B070006278534084F8213094F82230A27853400B
:10B0800084F8223094F82330E278534084F8233057
:10B09000C0E70120F8BD000010B5044600F016F826
:10B0A000044B23600E23237104F10C03A36020469C
:10B0B00010BD00BF9CDB03001020704708B501796C
:10B0C00001310901806800F02AFB08BD10B5044673
:10B0D00000F058FA034B236000232371A36020463D
:10B0E00010BD00BFCCDD030010B50446024B036069
:10B0F00000F04EFA204610BDCCDD03000A78184B54
:10B100009A5C02704A799A5C42708A7A9A5C827080
:10B11000CA7B9A5CC2700A799A5C02714A7A9A5C1C
:10B1200042718A7B9A5C8271CA789A5CC2710A7A8F
:10B130009A5C02724A7B9A5C42728A789A5C82724A
:10B14000CA799A5CC2720A7B9A5C02734A789A5CEA
:10B1500042738A799A5C8273CA7A9B5CC373704724
:10B16000C4DC03000A78184B9A5C02704A7B9A5C34
:10B1700042708A7A9A5C8270CA799A5CC2700A7943
:10B180009A5C02714A789A5C42718A7B9A5C8271FD
:10B19000CA7A9A5CC2710A7A9A5C02724A799A5C9B
:10B1A00042728A789A5C8272CA7B9A5CC2720A7B0B
:10B1B0009A5C02734A7A9A5C42738A799A5C8273C7
:10B1C000CA789B5CC3737047BCDB03002DE9F04178
:10B1D0000B784D788C78CF785A00D6B21212510085
:10B1E0000A4402EBC20256406900CAB209124FEA91
:10B1F000410C614401EBC1014A4061005FFA81FCEE
:10B2000009124FEA410E714401EBC1018CEA010CB5
:10B210004FEA470E5FFA8EF84FEA2E2E4FEA4E01A4
:10B22000714401EBC10188EA010186EA020E8EEA4F
:10B23000050E8EEA040E8EEA070E80F800E05A40F2
:10B2400082EA0C0262407A40427083EA050282EA96
:10B250000C0C8CEA010C8CEA0707877073406B407A
:10B2600063404B40C370BDE8F08170B588B00E46B6
:10B27000846800230F2B09D8D15CE55C694008ADD8
:10B280001D4405F8101C0133DBB2F3E710340579D7
:10B2900002E01034013DEDB2012D21D904A9684628
:10B2A000FFF72CFF694604A8FFF790FF01A905A846
:10B2B000FFF78CFF02A906A8FFF788FF03A907A8DC
:10B2C000FFF784FF00230F2BE3D808AAD11811F849
:10B2D000102CE05C424001F8102C0133DBB2F2E7A5
:10B2E00004A96846FFF70AFF00230F2B09D808AA14
:10B2F0001A4412F8202CE15C4A40F2540133DBB2CC
:10B30000F3E708B070BD00002DE9F04F87B091F869
:10B31000008091F801E091F802C091F803901FFAC3
:10B3200088F56B00DEB21B125A00134403EBC30313
:10B3300086EA030101911FFA8EFB4FEA4B03DAB252
:10B340001B1259000B4403EBC303534002931FFA33
:10B350008CF463005FFA83FA1B125A00134403EB68
:10B36000C3038AEA030204921FFA89F25300DFB290
:10B370001B1259000B4403EBC30387EA030605962F
:10B38000AE00F3B2361240498E5D73404FEA8B0631
:10B39000F7B236128E5D77400397A6005FFA86FA01
:10B3A00036128E5D8AEA060A9600F7B236128E5D74
:10B3B0007740ED00EEB22D124D5D6E404FEACB0BA3
:10B3C0005FFA8BF54FEA2B2B11F80BB085EA0B05D2
:10B3D000E4005FFA84FB24120C5D8BEA0404D200C3
:10B3E0005FFA82FB12128A5C8BEA020B7340019AAD
:10B3F0005A406A4002994A4082EA0E02624082EA5A
:10B400000A0282EA0C0282EA0B0282EA0902027054
:10B4100088EA06026A4003994A4002994A4062401B
:10B4200004994A4082EA0C0282EA0B027A4082EADC
:10B430000902427083EA08036B4083EA0E0363400B
:10B4400083EA0A0A8AEA010A8AEA0B0A059B8AEA5F
:10B45000030A8AEA090980F8029001994E4086EAB7
:10B46000080888EA050503994D4085EA0E0E8EEA24
:10B47000040484EA0C0C8CEA0B0B8BEA07075F4090
:10B48000C77007B0BDE8F08FBCDC030070B588B0B2
:10B4900005460E468468037904EB031400230F2B42
:10B4A00009D8D15CE05C414008A8184400F8101CA1
:10B4B0000133DBB2F3E704A96846FFF753FE2D79A9
:10B4C00015E0694604A8FFF71FFF01A905A8FFF7CB
:10B4D0001BFF02A906A8FFF717FF03A907A8FFF79C
:10B4E00013FF04A96846FFF73DFE013DEDB2012DB3
:10B4F0000ED9103C00230F2BE3D808AAD11811F85D
:10B50000202CE05C424001F8202C0133DBB2F2E752
:10B5100000230F2B0BD808AA1A4412F8202CE1188C
:10B5200011F8101C4A40F2540133DBB2F1E708B0C5
:10B5300070BD000030B44C78084B1C5D084DAA5C0F
:10B54000544004708A789A5C4270CA789A5C82701F
:10B550000A789B5CC37030BC704700BFC4DC03003A
:10B56000ECDD03000A78064B9A5C02704A789A5C1C
:10B5700042708A789A5C8270CA789B5CC37070470C
:10B58000C4DC0300014B0360704700BF00DE030012
:10B59000704708B540680368DB68984708BD10200D
:10B5A000704770B504460D461646406803689B68B0
:10B5B0009847102801D0002070BD606803681B699F
:10B5C000324629469847F7E7F8B504460E46154631
:10B5D0001F46002F37D094F828300F2B19D894F835
:10B5E0002830C3F11003DBB2BB4200D9FBB2FF1A13
:10B5F000002BEED0297894F82820501C84F82800DD
:10B600002244127E4A403270013BDBB201350136E2
:10B61000EEE7606803685B6904F1080204F1180151
:10B620009847002384F828301023012294F8291029
:10B630009942D4D2013BDBB2E118087A02440A7283
:10B64000C2F30F22F2E7F8BD10B50468A469A04761
:10B6500010BD000010B50446074B40F8083B102110
:10B6600000F05DF8102104F1180000F058F82046B1
:10B6700000F054F8204610BD28DE030010B5044643
:10B6800040680368DB699847102104F1080000F066
:10B6900046F8102104F1180000F041F8102384F856
:10B6A000283010BD10B50446FFF7D4FF204608F03F
:10B6B000BDFA204610BD102A01D00020704710B5F9
:10B6C000044608300DF05BFD102384F8283001207B
:10B6D00010BD000010B5044600F01AF8054B2360B9
:10B6E00000236360102284F8282084F82930204643
:10B6F00010BD00BF28DE03004B1E0F2B05D8C1F183
:10B70000100180F8291001207047002070470000C8
:10B71000014B0360704700BF54DE0300704721B146
:10B720000023037001390130F9E7704730B4002479
:10B730003AB103780D786B401C43013A0131013076
:10B74000F6E7C4F58074230A14BF0120002030BC42
:10B75000704708B540680368DB68984708BD0C204F
:10B7600070471020704708B5406803681B69984708
:10B7700008BD000010B50446074B40F8303B482197
:10B78000FFF7CDFF04F1080000F02CFA204600F08E
:10B79000E5FC204610BD00BF80DE030010B5044666
:10B7A000FFF7E8FF204608F041FA204610BD38B503
:10B7B00090F8703003B138BD15460446083000F0EB
:10B7C00024FAD4E91823501943F10001C4E91801FF
:10B7D000F1E72DE9F843064689461546984690F864
:10B7E000703013B347464C46002F48D096F871305E
:10B7F0000F2B21D896F87120C2F11003DBB2BB42A7
:10B8000000D9FBB206F1400111441A4486F87120B8
:10B81000FF1A002BE8D02A78087842402270013BBA
:10B82000DBB2013101340135F3E7083000F01CFAD6
:10B83000012386F87030D5E796F83F104A1C86F849
:10B840003F2096F83E3003EB122286F83E2096F811
:10B850003D3003EB122386F83D3096F83C2002EB96
:10B86000132386F83C30706803685B6906F1300288
:10B8700006F140019847002386F87130BAE7424646
:10B88000494606F1080000F0C0F9D6E91A2312EB88
:10B89000080043F10001C6E91A01BDE8F883F8B5D4
:10B8A00006460D4614461F4690F870306BB33A4674
:10B8B000214606F1080000F0A8F9D6E91A23D019AC
:10B8C00043F10001C6E91A01002F48D096F8713003
:10B8D0000F2B21D896F87120C2F11003DBB2BB42C6
:10B8E00000D9FBB206F1400111441A4486F87120D8
:10B8F000FF1A002BE8D02278087842402A70013BDA
:10B90000DBB2013101340135F3E7083000F0ACF966
:10B91000012386F87030CAE796F83F104A1C86F873
:10B920003F2096F83E3003EB122286F83E2096F830
:10B930003D3003EB122386F83D3096F83C2002EBB5
:10B94000132386F83C30706803685B6906F13002A7
:10B9500006F140019847002386F87130BAE7F8BD38
:10B960002DE9F04385B0044688460C2A68D0174676
:10B9700000F150060025056545658565C56540688B
:10B9800003685B6932463146984704F10803314643
:10B990001E46184600F02DF93A464146304600F062
:10B9A00034F9304600F060F9009501957A0FF900FE
:10B9B0000B0A03F47F4343EA1163F90201F47F01A8
:10B9C0000B43120643EAC76945EA02004946CDE93E
:10B9D000020110226946304600F017F9102168462E
:10B9E000FFF79DFE102204F13001304600F04AF9C5
:10B9F00000220023C4E91823C4E91A23002384F891
:10BA00007030102284F8712004F1500523656365BD
:10BA1000A365E365606803685B692A462946984721
:10BA2000294604F1080000F0E4F8606803685B69E7
:10BA300004F1300229469847012005B0BDE8F083A3
:10BA400008684968D8F8082020636163A26300236E
:10BA500084F83C3084F83D3084F83E30012384F88B
:10BA60003F30C5E72DE9F04F85B0064688461746BA
:10BA700000F10809484600F0F7F8306E736EDA00FE
:10BA800042EA5072C300190A01F47F4141EA13618E
:10BA9000C30203F47F031943130A03F47F4343EA09
:10BAA0001263140204F47F04234343EA02634FF059
:10BAB000000A41EAC06B4AEA03005946CDE9000199
:10BAC000B56EF36ED90041EA5571EB001A0A02F423
:10BAD0007F4242EA1362EB0203F47F031A430B0A2C
