:020000022000DC
:106000000000012085210300C5210300A52A03000B
:10601000C9210300CB210300CD21030000000000B3
:10602000000000000000000000000000012103004B
:10603000D12103000000000021210300D52103002D
:10604000D7210300D7210300F5030300D721030064
:10605000D7210300D721030071040300D7210300D7
:10606000D7210300D7210300D7210300D721030044
:10607000D7210300D7210300D7210300D721030034
:10608000D7210300811E0300D7210300D72103007D
:10609000D7210300D7210300D9E10200D721030053
:1060A000D7210300D7210300D7210300D721030004
:1060B000D7210300D72103000000000000000000EA
:1060C000D7210300D7210300D7210300D7210300E4
:1060D000D7210300D7210300D721030000000000CF
:1060E00000000000000000000000000000000000B0
:1060F00000000000000000000000000000000000A0
:10610000000000000000000000000000000000008F
:10611000000000000000000000000000000000007F
:10612000000000000000000000000000000000006F
:10613000000000000000000000000000000000005F
:10614000000000000000000000000000000000004F
:10615000000000000000000000000000000000003F
:10616000000000000000000000000000000000002F
:10617000000000000000000000000000000000001F
:10618000000000000000000000000000000000000F
:1061900000000000000000000000000000000000FF
:1061A00000000000000000000000000000000000EF
:1061B00000000000000000000000000000000000DF
:1061C00000000000000000000000000000000000CF
:1061D00000000000000000000000000000000000BF
:1061E00000000000000000000000000000000000AF
:1061F000000000000000000000000000000000009F
:1062000010B5054C237833B9044B13B10448AFF3F0
:1062100000800123237010BD6838002000000000BA
:10622000A4E6030008B5034B1BB103490348AFF3D1
:10623000008008BD000000006C380020A4E60300C8
:10624000154B002B08BF134B9D46A3F5803A002148
:106250008B460F461348144A121A11F050F90F4B8F
:10626000002B00D098470E4B002B00D09847002001
:10627000002104000D000D48002802D00C48AFF3A7
:10628000008011F0BFF8200029000BF0A5FF11F0ED
:1062900093F800BF0000080000000120000000008B
:1062A0000000000068380020145F0020000000009B
:1062B0000000000030B58FB0044600F5E8752846B0
:1062C00000F0EAFC284612F073F882B2294604F185
:1062D000180006F0B3F904F5F075284600F0EEFC5E
:1062E000284612F065F882B2294604F1700006F0E3
:1062F000A5F900F0CBFC014604F1C80006F0F0F966
:1063000000F0BEFC014604F5907006F0D1F901A83A
:1063100000F05AFD342201A904F5BC7006F08EF994
:106320000FB030BD2DE9F04FB1B00646564C2146B6
:1063300004A807F013FA04A9304607F057F904A897
:1063400007F071F93746514B47F8183B214608A82A
:1063500007F004FA08A9384606F018F908A807F06B
:1063600062F906F1700B21460CA807F0F7F90CA9A9
:10637000584606F00BF90CA807F055F906F1C80AC3
:10638000214610A807F0EAF910A9504606F0FEF8D9
:1063900010A807F048F906F59079214614A807F0EF
:1063A000DDF914A9484606F0F1F814A807F03BF906
:1063B00006F5BC78214618A807F0D0F918A9404680
:1063C00006F0E4F818A807F02EF96D4694E80F00DF
:1063D00085E80F0002238DF80C3029461CA807F031
:1063E000BDF91CA9384606F0E5F81CA807F01BF912
:1063F00094E80F0085E80F0003238DF80C30294640
:1064000020A807F0ABF920A9584606F0D3F820A839
:1064100007F009F994E80F0085E80F0004238DF8D0
:106420000C30294624A807F099F924A9504606F013
:10643000C1F824A807F0F7F894E80F0085E80F00EA
:1064400005238DF80C30294628A807F087F928A9DC
:10645000484606F0AFF828A807F0E5F894E80F00E2
:1064600085E80F0006238DF80C3029462CA807F08C
:1064700075F92CA9404606F09DF82CA807F0D3F832
:10648000304631B0BDE8F08F8CA40300D4A40300E3
:10649000012800D070474FF6FF739942FAD110B52A
:1064A000044C2046FFF73EFF034A0449204610F003
:1064B00061F910BD8438002000360020FD6602001E
:1064C00008B54FF6FF710120FFF7E2FF08BD00009D
:1064D00070B5054607F046F8002875D105F1180497
:1064E0000221204606F070F800221121204606F015
:1064F00080F81021204606F06AF80021204606F0B8
:1065000068F8204605F0D8FE0446002876D105F14B
:1065100070040221204606F057F80022112120467F
:1065200006F067F81821204606F051F800212046B1
:1065300006F04FF8204605F0BFFE0446002875D14E
:1065400005F1C8040221204606F03EF80022112180
:10655000204606F04EF80421204606F03AF8204680
:1065600005F0AAFE0446002878D105F590740221B2
:10657000204606F029F800221121204606F039F8BD
:106580000121204606F025F8204605F095FE044638
:1065900000287BD105F5BC740221204606F014F8D2
:1065A00000221121204606F024F83421204606F06E
:1065B00010F8204605F080FE044600287ED12846CB
:1065C000FFF778FE002411E004463A224749484884
:1065D00011F0EEFD20460CF097FA48B120460CF081
:1065E00093FA11F0E5FD434811F06AFE204670BDB4
:1065F00022462146404811F0DBFDF4E741223B49A9
:106600003B4811F0D5FD20460CF07EFA40B1204603
:106610000CF07AFA11F0CCFD364811F051FEE5E7A6
:1066200022462146344811F0C3FDF5E748222F49A0
:106630002F4811F0BDFD20460CF066FA40B120460F
:106640000CF062FA11F0B4FD2A4811F039FECDE7E2
:1066500022462146284811F0ABFDF5E74E2223499A
:10666000234811F0A5FD20460CF04EFA40B120461B
:106670000CF04AFA11F09CFD1E4811F021FEB5E71E
:10668000224621461C4811F093FDF5E75422174994
:10669000174811F08DFD20460CF036FA40B1204627
:1066A0000CF032FA11F084FD124811F009FE9DE75A
:1066B00022462146104811F07BFDF5E75A220B498E
:1066C0000B4811F075FD20460CF01EFA40B1204633
:1066D0000CF01AFA11F06CFD064811F0F1FD85E797
:1066E00022462146044811F063FDF5E7E0A40300CB
:1066F0009CA40300C8A40300BCA4030010B5044676
:106700000E4B036000F5BC7005F098FC04F590702A
:1067100005F094FC04F1C80005F090FC04F1700051
:1067200005F08CFC04F1180005F088FC2046044BB1
:1067300040F8083B06F077FF204610BDD4A40300C4
:10674000B8C1030008B501210E200CF06BFB01213C
:106750000F200CF067FB00210E200CF0FDFB002148
:106760000F200CF0F9FB012110200CF05BFB002145
:1067700010200CF0F1FB002102200CF053FB11491A
:10678000114BC1F81035114BC1F81435104B0022D4
:10679000C3F80425C3F80825C3F810255020C3F812
:1067A00040050120C3F8000203F5A8330948C3F8E7
:1067B0001005C3F814150431C3F81019064B1A70EC
:1067C00008BD00BF00600040030E0300030F13006C
:1067D00000A0004040A100407C3A002008B5144BC6
:1067E0001B7803B108BD012110200CF0B5FB4FF45C
:1067F000C850104B43F00103984700210E200CF0C5
:10680000ABFB01210F200CF0A7FB0B4B0B4AC3F88D
:1068100010250B4AC3F8142501230A4AC2F804358F
:10682000A2F5A832D3601360014A1370DAE700BF03
:106830007C3A002010A5030000600040030E030016
:10684000030F130000F00140104B1B7803B9704791
:1068500010B501230E4A536002F5A832C2F808357C
:106860000C4B0024C3F81045C3F8144521460E20F4
:106870000CF072FB21460F200CF06EFB214610201D
:106880000CF06AFB014B1C7010BD00BF7C3A00206D
:1068900000A00040006000402DE9F04F83B00D469D
:1068A00001B901254FF47A7A0AFB00FABAFBF5FB2D
:1068B000BBF1130F01D84FF0140B464BDB6813F0FC
:1068C000807F08D0444B1B6813F0010F03D0424B6C
:1068D0005868800922E00AF0E5FC80464FF0000984
:1068E0004201C30E161A63EB0907790241EAD65139
:1068F000700206460F4618EB060049EB07018F01B0
:1069000047EA90678601321A67EB010318EB020829
:1069100049EB03094FEA982343EA89508244002453
:106920004FF000084FF000092FE00AF0BBFC0646CC
:1069300000274201C30ECDE90067161A63EB070773
:10694000790241EAD6517002DDE9002312184B4169
:106950001F46990141EA92619001821A61EB070397
:10696000DDE90067B6185F41B20A42EA87539A45EB
:1069700019D9A54217D902200CF022FA18EB000809
:1069800049F100090134A54218D8124BDB6813F015
:10699000807FCAD0104B1B6813F0010FC5D00E4B7F
:1069A0005B689B09E3E794B12246002340464946D1
:1069B00010F03CFB80B203B0BDE8F08FBBF10A00E1
:1069C000E3D08001054B43F001039847DDE7002049
:1069D000F1E700BFF0ED00E0001000E010A50300BB
:1069E00010B5FFF7FBFE642009F0A1FD4FF47A71AA
:1069F0000846FFF751FF0446FFF726FF204610BD6B
:106A000000B970476420FCE770B5054600240460B7
:106A100044608460C460046144618461C461046250
:106A200044628462282221462C3010F068FD24261E
:106A30003246214605F1540010F061FD32462146F0
:106A400005F1780010F05BFD85F89C4085F89D40CD
:106A500085F89E40284670BD012800D0704708B5D3
:106A60004FF6FF73994200D008BD0248FFF7CCFFF4
:106A7000FAE700BF803A00200A6803689A4200D310
:106A800070470846FCE708B54FF6FF710120FFF795
:106A9000E3FF08BD70B400264FF0FF3200E001367E
:106AA0008E420CD2835D5A400024072CF7DC42F35F
:106AB0000005044B2B4083EA52020134F5E7D04332
:106AC00070BC70472083B8ED4FF08042D2F800349C
:106AD0004FF0FF31C2F8001413F0010F12D113F080
:106AE000020F11D113F0040F10D113F0080F0FD1C2
:106AF00013F4803F0ED113F4802F01D10120704791
:106B000040207047022070470420704708207047DB
:106B1000102070472020704770B58EB0342301AA32
:106B2000C021124801F009FC044678B1104E3446E9
:106B300001AD0FCD0FC40FCD0FC40FCD0FC42B6807
:106B4000236032680B4B9A4203D0002420460EB0DB
:106B500070BD346B0023336330213046FFF79AFF5A
:106B60003463844214BF00240124EFE7883E0020F0
:106B7000243B0020474C424410B5074C2C220021F6
:106B800004F1080010F0BBFC044B236001232371C7
:106B90006371A371E37110BD243B0020474C424454
:106BA00010B5074C0023236330212046FFF772FF06
:106BB000206334232246C021024801F0CFFB10BDE0
:106BC000243B0020883E002038B5114B1B7803B9C8
:106BD00038BD05460F4CA07209F08FFC0E4BA3FB8D
:106BE00000239B09A36123690133236194F82830B2
:106BF000E21882F8205001335A4203F0070302F0F2
:106C0000070258BF534284F82830FFF7C9FFDFE777
:106C1000203B0020243B0020D34D6210154B1B78F5
:106C200003B1704710B5FFF777FFE0B1124C0123B5
:106C3000A371E371002222726371FFF745FF607256
:106C4000042813D00C4CE3680133E36009F055FCD1
:106C50000A4BA3FB003080096061FFF7A1FF054BE1
:106C600001221A7010BDFFF787FFDFE70720FFF74B
:106C7000ABFFE7E7203B0020243B0020D34D621010
:106C8000014B987A704700BF243B0020014BD86825
:106C9000704700BF243B002010B582B00446054970
:106CA0008A79CB79097A0091034911F021FB2046BA
:106CB00002B010BD243B002018A5030030B40446E8
:106CC000274B5B79212B46D8DFE803F011184545A7
:106CD0004545454545454545454545451E274545A9
:106CE000454545454545454545454545313C1D4B93
:106CF00003CB20606160204630BC70471A4B186897
:106D000020609B88A380F6E7184D0FCD206061605E
:106D1000A260E36028682061EDE7154B07CB206097
:106D20006160A2601A889B78A281A373E3E7114D8A
:106D30000FCD20606160A260E3602A88AB78228278
:106D4000A374D8E70C4D0FCD20606160A260E360B2
:106D50002B882382CFE7094B03CB20606160CAE711
:106D6000243B002024A503002CA5030034A5030028
:106D700048A5030058A503006CA5030080A50300E7
:106D800008B5054B1B7803B908BD044B002283F8F6
:106D90002920FFF705FFF7E7203B0020243B0020D8
:106DA00008B5074B1B7803B908BD064A92F82A308C
:106DB000013382F82A300B20FFF706FFF4E700BF0B
:106DC000203B0020243B0020F0B4094E044606F18D
:106DD000300735460FCD20606160A260E3602E462B
:106DE0001034BD42F5D128682060F0BC704700BF68
:106DF000243B00207047000070B400264FF0FF32A3
:106E000000E001368E420CD2835D5A400024072CEC
:106E1000F7DC42F30005044B2B4083EA52020134B5
:106E2000F5E7D04370BC70472083B8ED02780B784B
:106E30009A4201D00020704742784B789A4201D0A4
:106E40000020704782788B789A4201D000207047EA
:106E50000120704701230370437000238370C370C7
:106E60007047000038B54FF48073104A0021104875
:106E700004F031F9B8B10D4B1A680E4B9A4201D0AB
:106E8000002011E0094DD5F8FC400023C5F8FC3086
:106E9000FC212846FFF7B0FFC5F8FC40844214BF30
:106EA0000020012000E0002038BD00BF943B0020FE
:106EB000803B00204142574610B5054CFC22002182
:106EC000201D10F01CFB034B23600223237110BD17
:106ED000943B00204142574638B50E4C0025C4F87B
:106EE000FC50FC212046FFF787FFC4F8FC00294630
:106EF000094804F0C2F8034608B9184638BD4FF4F3
:106F0000807322462946044804F002FA431B18BF46
:106F10000123F2E7943B0020803B0020012800D0B1
:106F2000704738B54FF6FF73994200D038BD094D10
:106F3000094A0C21284604F0F1FA084C012229469E
:106F4000204603F0E9FF064A064920460FF012FCEE
:106F5000ECE700BF5C3B0020E83E00207C3B0020CB
:106F600000360020F56D020010B504460BF0B4F9B0
:106F7000204610BD38B51D4B1C780CB1204638BDDD
:106F800000F06AFB01220021194803F0D9FF0446F2
:106F900008B3184804F020F802461749174808F0CB
:106FA00049FFFFF75FFF48B91549144808F038FF5B
:106FB000FFF782FFFFF790FF054688B1114B5A7922
:106FC00093F82C30413210490C4808F033FF074B3E
:106FD00001221A70D2E70D49084808F021FFCDE7D9
:106FE0000B49064808F01CFF2C46C7E7583B002019
:106FF0007C3B0020803B00207CA703003043002026
:10700000A0A70300943B0020F0A703005CA70300A7
:10701000CCA7030008B50E4B1B78A3B10D4B002283
:107020001A700D4B5B797BB90B4B01229A710A4B9D
:1070300000221A629A62FFF74FFF0849084808F0D9
:10704000EFFEFFF79DFE08BD034B0122DA71EEE76C
:10705000583B0020783B0020943B002058A90300B7
:107060003043002008B50F4B1B7803B908BD09F069
:1070700044FA0D4B18600D4B01221A700C4B5B79D2
:107080005BB90B4B02229A71094B9862FFF724FF00
:107090000849094808F0C4FEE8E7054B0222DA7106
:1070A000F2E700BF583B0020743B0020783B0020F3
:1070B000943B002034A9030030430020074B18788C
:1070C00040B1074B5B7933B9054B9879022814BF5F
:1070D000002001207047024BD879F7E7583B002089
:1070E000943B00202DE9F04FC1B0534B93F8009032
:1070F000B9F1000F33D00746504B98421FD8504B80
:1071000093F805A0CAF1010A1AF0FF0A1ED14FF444
:1071100080783B460AF141024A494B4808F08AFE12
:1071200007F6FF752D0B0024AC421CD204EB18317E
:10713000464803F0A2FF064658B10134F4E744493B
:10714000414808F06DFE4FF0000908E04FF40028B8
:10715000DFE722463F493C4808F06CFEB14648460E
:1071600041B0BDE8F08F4FF0FF34002624E001303D
:10717000A8420DD21DF800305C400022072AF6DC40
:1071800044F30001344B0B4083EA54040132F5E729
:1071900005F10F0B2BF00F0B5D451CD33246594602
:1071A000684600F0B3FA5B466A4606EB08012748DA
:1071B00004F0AEF8B8B12E44BE421CD2BD1BB5F5EA
:1071C000807F28BF4FF480752A463146684610F00C
:1071D00072F90020CCE7ABEB050200210DEB0500B6
:1071E00010F08DF9DAE732461C49174808F022FE04
:1071F0004FF00009B3E7E443BAF1000F11D1104B8F
:1072000001229A719F601C611A765A7600229A7642
:10721000DA76FFF761FE224611490B4808F00AFEB4
:107220009DE7074B0122DA71DF605C611A775A77BC
:1072300000229A77DA77ECE7583B002000FF07003E
:10724000943B0020ACA6030030430020803B00208C
:107250007CA60300E0A603002083B8ED08A7030086
:1072600030A703006F4B1B78002B00F0D9802DE96D
:10727000F047C0B06C4B5A79BAB94FF48077BAB9BD
:10728000694B9E68BAB9684BD3F8108033464132D7
:107290006649674808F0CEFD721E664B9A420ED8CA
:1072A0004FF0FF344FF0000926E04FF40027E6E7E7
:1072B0005D4BDE68E6E75C4BD3F81480E6E75E4999
:1072C0005B4808F0ADFD3CE04A465C49584808F090
:1072D000B1FD36E00130A8420DD21DF800305C400F
:1072E0000022072AF6DC44F30001554B0B4083EAE9
:1072F00054040132F5E7A944B1451AD2A6EB0905B9
:10730000B5F5807F28BF4FF4807505F10F0A2AF08C
:107310000F0A53466A4609EB07014A4803F0DBFEB1
:107320000028D1D04A465146684600F039FA00207C
:10733000D1E7E343984508D0424643493C4808F02A
:1073400079FD002040B0BDE8F0874049384808F09A
:1073500067FD72B606F6FF72120B3D4B02211960F3
:107360003C4B1B68002BFBD0002393420AD203F155
:107370002601090338480160364909680029FBD015
:107380000133F2E7324B01221A60324B1B68002BAB
:10739000FBD00024B44227D2351BB5F5807F28BF2F
:1073A0004FF4807505F10F0828F00F0843466A4630
:1073B000E119244803F08FFE22464146684600F05A
:1073C000EFF904F51831EA1C92080023934209D220
:1073D0005DF8230041F823001E4800680028FBD018
:1073E0000133F3E72C44D5E7194B00221A60194BFF
:1073F0001B68002BFBD062B618490D4808F010FD41
:10740000642009F094F8BFF34F8F1549CA6802F45D
:10741000E062144B1343CB60BFF34F8F00BFFDE717
:1074200000207047583B0020943B002020A8030018
:1074300030430020FFFE070050A8030070A803009F
:107440002083B8ED803B002098A80300D0A803005B
:1074500004E5014000E4014008E5014008A90300FB
:1074600000ED00E00400FA05F0B587B0404B1C7851
:1074700014B9204607B0F0BD05A8FFF7EBFC3D4B63
:1074800093F820603EB993F8213023B9394B93F833
:107490002230002B6AD0384905A8FFF7C7FC074601
:1074A00060BB9DF814209DF815309DF81610314DE5
:1074B00095F8210095F822C0CDF80CC002900196F5
:1074C00000912E492E4808F0B5FC2B6A6B62002310
:1074D0002B626B79C3F1010313F0FF051BD1254B20
:1074E0009B79012B1AD02749254808F099FC0B20DD
:1074F000FFF76AFBFFF7F0FC3C46BAE79DF8142063
:107500009DF815309DF8161000911F491C4808F091
:1075100091FC0024ADE7174BDB79E2E7154B93F8BC
:107520002C20013283F82C205D71FFF7D5FC05F18A
:10753000410295B90F4B1B7E95B90E49497E95B90D
:107540000C48807E0190009110490D4808F072FCB3
:10755000FFF726FCFFF786FE8BE7064B1B7FEBE76A
:107560000449497FEBE70348807FEBE7002480E78D
:10757000583B0020943B0020B43B0020B8A50300FA
:1075800030430020FCA5030088A5030024A60300C7
:1075900008B50E4B187810B10D4B187800B908BD1E
:1075A00008F0ABFF0B4B1B68C01A4EF65F239842E6
:1075B00001D80020F3E70849084808F031FC044BE3
:1075C00000221A70FFF750FFE9E700BF583B002088
:1075D000783B0020743B002054A603003043002079
:1075E00008B54FF6FF710120FFF798FC08BD0000B9
:1075F00070B5AAB028AE304601F081FC1EAC144D27
:107600000FCD0FC495E80F0084E80F0026AB96E875
:10761000030083E80300684603F0BEF8684603F001
:107620006BF828221EA9684603F0A2F92022094916
:10763000684603F0D1F9282200211EA80FF05FFF51
:10764000002328937360684603F082F82AB070BD67
:10765000A4A90300983C002008B5054B1B7803B192
:1076600008BDFFF7C5FF024B01221A70F8E700BF03
:10767000943C0020F0B5B1B007460E4627AC1B4D38
:107680000FCD0FC495E80F0084E80F003B0E8DF876
:10769000BC303B0C8DF8BD303B0A8DF8BE308DF808
:1076A000BF70684603F078F8684603F025F8242296
:1076B00027A9684603F05CF920221FA9684603F059
:1076C0008BF91FAC0FCC30607160B260F360242284
:1076D000002127A80FF013FF202200211FA80FF080
:1076E0000EFF684603F034F831B0F0BD983C00203E
:1076F00010B50446044B40F82C3B02F055F92046E7
:1077000002F0C8FC204610BD80A903002DE9F0411D
:10771000CEB0204C24782CB1002838D011F00F0FB7
:1077200004D0002420464EB0BDE8F08188460546CE
:107730004AA91046FFF79EFF684602F0EBFC164E82
:1077400000960BAF384602F0C7F901972022134983
:10775000684602F046FC10224AA9684602F0CBFCBB
:107760000421684602F0E8FC43462A46294668465A
:1077700002F04AFC00234A934B934C934D9300969E
:10778000384602F011F9684602F084FCCAE700248A
:10779000C8E700BF943C002080A90300983C00206B
:1077A00008B5FFF7B3FF08BD10B50446064B40F817
:1077B0002C3B02F0F9F8204602F06CFC20460AF05F
:1077C0008BFD204610BD00BF80A90300012800D01A
:1077D000704738B54FF6FF73994200D038BD094C59
:1077E000204602F0FFFE2546074B45F8783B284629
:1077F00002F0C8F86560054A054920460EF0BAFF58
:10780000ECE700BFB83C0020CCA903000036002004
:107810002578020008B54FF6FF710120FFF7D6FF6B
:1078200008BD000010B50446044B40F8783B02F058
:1078300047F8204602F0BEFC204610BDCCA903004C
:1078400010B50446064B40F8783B02F039F8204664
:1078500002F0B0FC20460AF03FFD204610BD00BFFC
:10786000CCA9030008B50249024808F0D9FA08BDBE
:1078700030AC03003043002030B585B00A784B7837
:107880008878CC780D79497903910295019400901C
:107890000349044808F0CEFA012005B030BD00BF0E
:1078A0008CAC03003043002008B529B10A460549D5
:1078B000054808F0BFFA08BD0449034808F0B0FACB
:1078C000F9E700BFCCAC030030430020B4AC0300A8
:1078D00008B50449044808F0A3FA012114200BF06C
:1078E0003BFB08BD20AC03003043002038B50D46FB
:1078F0000B4C0C49204608F073FA0A222946204610
:1079000008F019FB084B1B7823B9002114200BF059
:1079100023FB38BD012114200BF01EFBF9E700BF4B
:107920003043002070AC0300043E0020012800D04A
:1079300070474FF6FF739942FAD110B5064C2046B6
:1079400007F0DAF8054A064920460EF013FF0B212E
:10795000044800F0E9FC10BD183E0020003600206D
:1079600001830200883E002038B52A4C0022012104
:10797000204606F035F80421204606F0B7FB2649DC
:10798000204606F06FFB04F1200500231A46012172
:10799000284605F052FC0121284605F060FC1F49ED
:1079A000284605F09DFC1E49284605F0A2FC1D490D
:1079B000284605F09CFC1C49204605F08DFB1B4920
:1079C000204605F08BFB1A4D284607F0BBF804F55E
:1079D00022740621204604F07DF9204604F068F95F
:1079E000204604F041F92946204604F027F90121F8
:1079F000204604F0A1F9A0221146204604F098F98F
:107A00001E21204604F092F90A490B4808F008FAB2
:107A100038BD00BF543F0020F0AC0300797802006D
:107A200065780200A9780200D1780200ED780200A2
:107A3000183E0020FCAC0300304300201F4B1B7895
:107A400003B1704710B51E491E4808F0E9F91B4BF9
:107A500001221A7008F051FD1B4B18600024042C01
:107A60000FDC012114200BF077FA642008F05FFD91
:107A7000002114200BF070FA642008F058FD013446
:107A8000EDE7012114200BF067FA00210F4804F004
:107A90001DFA0C4C0E49204608F0C2F90D4920464B
:107AA00008F09EF90A224FF49671204608F026FA53
:107AB0000949204608F0B4F910BD00BF043E00207B
:107AC000D0AA030030430020103E0020DC410020FB
:107AD000E8AA030008AB030020AB030008B50720A9
:107AE0000BF050FA00B108BD322008F020FD07204D
:107AF0000BF048FA0028F6D1FFF7A0FFF3E70000EB
:107B000008B50A4801F0FBF9082303E00121074A00
:107B1000D15401330F2B03DC082BF7D00021F6E7FB
:107B20000349044808F07CF9012008BDF03D00201D
:107B300054AC03003043002010B501244FF08043C3
:107B4000C3F87845214611200BF06CF9214611202D
:107B50000BF002FA214613200BF064F921461320A2
:107B60000BF0FAF9214614200BF05CF921461420A1
:107B70000BF0F2F9214610200BF054F900211020EF
:107B80000BF0EAF9022107200BF04CF90C200BF066
:107B900011F9FEF7D7FD4149414808F041F9414844
:107BA00001F074FA404800F041FC00283CD0FFF797
:107BB000A7FF00283DD03D4C21463D4801F008F983
:107BC00021463C4800F010FE354C3B49204608F069
:107BD00027F901F087F902460B463849204608F09C
:107BE00029F9374C1F231E221B21204601F0D2FA0F
:107BF0003449204601F079FD044638BB3249284813
:107C000008F00EF9092C42DC012111200BF0A4F937
:107C1000642008F08CFC002111200BF09DF96420F9
:107C200008F085FC0134EDE728491D4808F0F8F814
:107C3000BDE727491A4808F0F3F81C4B00221A60E8
:107C40005A609A60DA6001221A70B4E72149144838
:107C500008F0E6F81A4C0A21204601F0E5FB1E491F
:107C6000204601F015FC0521204601F0A9FC082161
:107C7000204601F0BEFC01221421204601F0FAFC4E
:107C80003421204601F0C3FC204601F0C6FCFFF77A
:107C90006BFE1249024808F0C3F810BD00AA0300A9
:107CA00030430020E83E0020883E0020F03D0020C8
:107CB000983E0020B03E002068AA030084AA03007A
:107CC000043F0020C0CA893698AA030024AA0300F2
:107CD00054AA0300ACAA030048E80100BCAA0300B0
:107CE00008B51E200BF06CF880B241F2883303FB1C
:107CF00000F30448A0FB03201B1A00EB5300C0F361
:107D0000CF2008BD0101100038B5094C09492046B3
:107D100008F086F8FEF764FE05460749204608F09D
:107D20005FF80A222946204608F0ECF8284638BDBC
:107D300030430020B0AB0300E4AB030008B5FEF70E
:107D40005FFE08BD08B5FFF7DFFF074B1880FFF7A0
:107D5000F5FF064B1870FFF7C3FF054B1880054B66
:107D600000221A8008BD00BF003E00200C3E00200B
:107D7000143E0020023E002008B5002111200BF027
:107D8000EBF8322008F0D3FB012111200BF0E4F8CE
:107D900008BD08B5002113200BF0DEF808BD08B5BA
:107DA000012113200BF0D8F808BD000010B584B0F5
:107DB0001D4B1B6800931D4B1B88ADF804301C4BFA
:107DC0001B788DF808301B4B1B88ADF80630C0B10E
:107DD00001228DF8092040F64752934205D89DF8BC
:107DE000093043F004038DF809300023CDF80A3040
:107DF000ADF80E306946104800F062FB28B904B0B7
:107E000010BD02228DF80920E5E70C4C0C492046F4
:107E100007F0E6FF084800F08FFB0A2201462046E3
:107E200008F070F8EBE700BF083E0020003E00209D
:107E30000C3E0020143E0020883E002030430020ED
:107E400090AB030038B50E4800F076FB00B938BDA2
:107E500004460C4D0C49284607F0C2FF0A22214671
:107E6000284608F04BF80949284607F0D9FF042CAA
:107E700028BF0424A1B2024800F060FBE7E700BF7E
:107E8000883E002030430020FCAB03000CAC030014
:107E900008B54FF6FF710120FFF748FD08BD00004F
:107EA00010B501F041F84FF4E1311A4808F08FF8AD
:107EB000184B93F8A3302BB908F01FFB40F6B733EB
:107EC0009842F5D9134C1449204607F0A9FF01F058
:107ED00009F802460B461149204607F0ABFFFFF7B1
:107EE0002BFEFFF747F810B9FEF798FE10BDFFF71D
:107EF000BBFA50B9FFF7E2F80028F5D00849054869
:107F000007F08EFFFFF7AEF8EEE70649204607F0D0
:107F100087FFEFE7304300208CAE030084AA030004
:107F2000D8AE0300BCAE03002DE9F04196B0324B51
:107F30001A8840F647539A424BD900242F4B1B789E
:107F40000BB144F002042E4800F0F6FA08B144F0F8
:107F500008042C4B1D882C4B1E78274B1F882B4B5D
:107F6000B3F90080264800F0E7FAC0B20494039009
:107F7000CDF80880019700962B46402206A9244898
:107F800000F06EFF064630B3FFF703FF0024022C1B
:107F90002DD8204D2049284607F022FF0A22611CD7
:107FA000284607F0AFFF1D4D0021284601F011FCC7
:107FB000324606A9284601F0AFF90021284601F013
:107FC0006FF980B94FF4FA7008F0B1FA0134E4B2F5
:107FD000DDE70124B2E712490E4807F021FF002037
:107FE00016B0BDE8F081FFF7DAFE0120F8E7FFF7F1
:107FF000D6FE0020F4E700BF143E00200436002027
:10800000883E0020003E00200C3E0020023E002062
:10801000983E00203043002044AB0300043F002082
:108020002CAB030010B51A4C1A49204607F0F8FE95
:10803000204608F039F9184801F0B0F9174800F067
:1080400088FA002111200AF087FF002114200AF08D
:1080500083FF002110200AF07FFF114B1B88B3F52E
:10806000486F0ED30F4C0AF0E5F8204608F05FFA8F
:108070000AF0E8F8094800F073FA074801F088F9B7
:1080800010BD0949204607F0CBFE084CEBE700BFC6
:108090003043002054AB0300043F0020883E002002
:1080A000143E002000DD6D006CAB03000074B701CE
:1080B00030B5A5B0FFF76CFAFFF710FD744B1B78D5
:1080C000DBB108F01AFA734B1B68C01A724B984266
:1080D00004D8642008F02BFA25B030BD6F497048F1
:1080E00007F09EFE00246A4B1C706E4803F0FEFEF3
:1080F000214614200AF030FFEBE7694C6A4920461C
:1081000007F08EFEFFF738FEFFF71CFE674920469A
:1081100007F066FE0A22664B1978204607F007FF33
:108120006449204607F05CFE0A22634B198820460A
:1081300007F0E4FE6149204607F072FE60492046E0
:1081400007F04EFE0A225F4B1988204607F0D6FE44
:108150005D49204607F064FEFFF7E6FE002862D086
:108160005A49204607F05CFEFEF7A8FF18BB08F04E
:10817000C4F90546002408F0C0F9401B40F6B733A7
:10818000984205D80021524801F042FB041EF2DD5E
:10819000002C40DD00244E4801F028F890B13F2C1F
:1081A00010D84B4801F02AF8631C24AA144404F8A0
:1081B000400CDCB2EFE74749204607F031FEFEF7FE
:1081C00029FFD4E708AB009302AB224614A942482A
:1081D00000F00CFE70B39DF80B10A1F11003DBB2A0
:1081E000072B0ED9022925D13C492D4807F018FE4E
:1081F0009DF8233013F0010F0AD10120FFF7D6FDBF
:1082000018E09DF81F3008AA354800F0F3FC11E093
:10821000FFF718FEF1E73349214807F001FE00207F
:10822000FFF7C4FD06E030491D4807F0F9FD0020C6
:10823000FFF7BCFD2A4C204600F054FD2378052BA7
:108240000DD02A4B196801F5E1511960224800F060
:1082500047FEFFF7E7FE264B00221A703CE7254950
:108260000F4807F0DDFD4FF48020FEF73BFF48B1DB
:1082700021490B4807F0D4FDFEF7F4FE184800F042
:108280005BFBDEE71D49064807F0CAFDF6E700BFC5
:10829000043E0020103E0020E09304002CAD0300BB
:1082A00030430020DC4100205CAD030078AD0300CA
:1082B0000C3E002084AD0300003E002000C70300F8
:1082C00090AD0300143E00209CAD0300A0AD030060
:1082D000043F0020ACAD0300983E0020DCAD03005D
:1082E000B03E0020F0AD030008AE0300083E0020C1
:1082F0000436002014AE030038AE03005CAE030069
:1083000010B50446064B40F8183B03F097FE204694
:10831000044B40F8083B05F086F9204610BD00BF2D
:1083200040C60300B8C103000170002242704260E1
:10833000028142818281C281704710B50446407833
:1083400030B1606840B1CC18B4F5005F01DD0020A9
:1083500010BD03F00FFBFBE70020F9E710B5044662
:10836000407830B1606840B1CC18B4F5005F01DDF1
:10837000002010BD03F0D0FAFBE70020F9E700B5BC
:108380008BB00289ADF804204289ADF806208289BD
:10839000ADF80820C389ADF80A3000230393049395
:1083A0000593069307930893ADF82430222301AA7E
:1083B0004021FFF7D3FF0BB05DF804FB30B58BB065
:1083C0000446222301AA4021FFF7B7FFBDF804307D
:1083D0003E2B03D8BDF806203E2A0DD90023238169
:1083E0006381A381E3812046FFF7C9FF0C490D4853
:1083F00007F016FD0BB030BD23816281BDF8083057
:10840000A381BDF80A30E381064D0749284607F0ED
:10841000E7FC0A22A189284607F074FDEAE700BFBD
:1084200000AF03003043002020AF030030B583B01D
:108430000446102009F04CFF05461B4B1B4A94F9DB
:10844000001003F049FA65609DB10221284603F04F
:10845000F5FA054690B91649164807F0E1FC606840
:1084600010B103685B68984700236360284603B037
:1084700030BD11490F4807F0D3FCF7E701AA0DF111
:108480000701606803F0A4FA28B92046FFF796FFB9
:1084900001236370EAE7BDF804309DF8072007491F
:1084A000044807F0C7FCF0E700127A00E83E00201D
:1084B0006CAF03003043002044AF030088AF0300DB
:1084C00038B545780DB9284638BD0A4604460389B3
:1084D00003F2C1131B0199B21023FFF73FFF0546BA
:1084E0000028F0D022890132124B83FB021313447F
:1084F0005B11C3EB8313D31A2381A3893E2B0DD8C1
:108500000133A381E38901339BB2E381A2899342C2
:1085100000D9E2812046FFF732FFD4E762890132B9
:10852000044B83FB021313445B11C3EB8313D31A75
:108530006381E7E783200882C089704708B5C38953
:108540008B4200D219465B1AC381FFF718FF012046
:1085500008BD406818B108B503F0A2FA08BD70471D
:10856000406818B108B503F0BBFA08BD70470000B9
:1085700030B400248C4209D2035D5340DBB2054D78
:1085800055F8233083EA12220134F3E7D04330BC9C
:10859000704700BFB8AF030030B400254FF6FF733B
:1085A0000EE041F2210484EA43039BB20132072A20
:1085B00005DC13F4004FF4D15B009BB2F6E7013504
:1085C0008D4204D2425D83EA02230022EFE718467F
:1085D00030BC70470B78FF2B03D0012B01D000205B
:1085E00070474B788878000240EA0340CB78184304
:1085F000024B984294BF0020012070470001010007
:10860000002213460F2A06DCC3EB43134169895C41
:108610000B440132F6E7044AA2FB0312120D034891
:1086200000FB1230704700BFB17C219540771B00E2
:10863000038D3BB1428D642000FB02F090FBF3F010
:10864000C0B270470020704708B5202300F118021F
:108650004FF400710148FFF781FE08BD883E0020FD
:1086600010B50446002101700623437041602022AA
:1086700018300EF044FF2046FFF7E6FF024903489A
:1086800007F0CEFB10BD00BF1CB503003043002037
:10869000F0B5A1B004460D46434E4449304607F0BC
:1086A0009FFB0A226978304607F041FC404F39466B
:1086B000304607F095FB0A22A978304607F037FCD0
:1086C0003946304607F08CFB0A22E978304607F03D
:1086D00032FC29462046FFF77DFF002859D06B6801
:1086E000B3F5802F5AD82378032B04D16268D5F8CC
:1086F0000E309A424BD0D5F80E3063602046FFF71B
:108700007FFFA06007F0F9FEE06000262682A674D5
:10871000012323706670274AA261D5F80E20E2611A
:108720006A682262D5F80A2062622A8922856685F3
:108730006A7884F82C20AA7884F82D20EA7884F8C6
:108740002E2084F82F3084F830602046FFF77CFF1D
:1087500080252A46314668460EF0D1FE2B466A46F1
:108760004FF406711448FFF7F9FD0F4D13492846E1
:1087700007F036FBA168124BA3FB01310A228909DD
:10878000284607F0C9FB0F49284607F049FB21B0EE
:10879000F0BD0D49304607F043FBF8E70B490248AE
:1087A00007F03EFBF3E700BF304300206CB403004A
:1087B00030A903004841544F883E0020ACB4030068
:1087C000D34D621020AB03007CB4030094B40300CB
:1087D00008B5202300F118024FF400710148FFF79B
:1087E000ACFD08BD883E002038B504464161002339
:1087F0000370437043608360C36003828374FFF738
:10880000E7FF30B1A369174A934203D0154A934258
:108810001ED038BD94F82F20032AF7D103232370EC
:10882000E3696360638D23820F4D1049284607F08A
:10883000D7FA0A22618D284607F060FB0C492846CA
:1088400007F0CEFA0A22218D284607F05BFBE0E70D
:1088500094F82F30052BDCD123700649024807F02D
:10886000DFFAD6E74841544F30430020D8B4030024
:10887000F8B40300FCB4030008B5C82000FB01F104
:1088800001F5107189B20248FFF768FD08BD00BF0D
:10889000883E002070B582B001F00705C1F3C70122
:1088A00001F506740B4E01230DF1070221463046F7
:1088B000FFF743FD012303FA05F59DF807202A433E
:1088C0008DF807200DF1070221463046FFF746FDDF
:1088D00002B070BD883E0020F0B5B3B0064600245B
:1088E0004FF0FF3516E0378C04EB840303EB830372
:1088F000DA0092B2BF1ABFB289B23B466A460D484F
:10890000FFF71BFDEA4339466846FFF731FEC543D2
:108910000134A4B2338DA34209D9C82101FB04F16B
:1089200001F51071013B9C42DDD0C827E4E7E84324
:1089300033B0F0BD883E002010B50378052B04D07D
:108940001049114807F06CFA10BD04460F490E4853
:1089500007F066FA002384F82F302046FFF774FEF4
:108960004FF08043B122C3F81C25BFF34F8F084955
:10897000CA6802F4E062074B1343CB60BFF34F8F2A
:1089800000BFFDE7B8B3030030430020D0B30300BD
:1089900000ED00E00400FA0530B591B00546412332
:1089A0008DF8003047238DF8013001248DF8024006
:1089B00011238DF803308DF8044043691868596815
:1089C0009A68DB68CDF80500CDF80910CDF80D20C8
:1089D000CDF81130164800F03EFAADF81500092325
:1089E0008DF817306B6806938DF81C408DF81D408C
:1089F00000238DF81E306B8DBBB1013B9BB2ADF8EF
:108A00001F300C4C0021204600F0E3FE2122694675
:108A1000204600F081FC0021204600F041FC064980
:108A2000064807F0FDF911B030BD4FF6FF73E6E7D9
:108A3000983E0020043F002044B40300304300204F
:108A400070B590B004460E4641238DF800304723A0
:108A50008DF8013001238DF80230154682B31423BE
:108A60008DF8033001238DF8043063691868596864
:108A70009A68DB68CDF80500CDF80910CDF80D2017
:108A8000CDF811300F4800F0E6F9ADF815000723D6
:108A90008DF8173063680693ADF81C608DF81E5092
:108AA000094C0021204600F094FE1F226946204612
:108AB00000F032FC0021204600F0F2FB10B070BD47
:108AC0001323CDE7983E0020043F0020F8B50A6844
:108AD00043689A4200D0F8BD0C46054601F10A06EB
:108AE000CF8839463046FFF757FD2389834213D09C
:108AF000384E3949304607F073F90A22A1883046CA
:108B000007F0FCF93549304607F08AF90122A188BF
:108B10002846FFF795FFDEE73B463246A188284608
:108B2000FFF7AAFE002842D0A1882846FFF7B2FE30
:108B30006B8D01336B8507F0E0FCE8600022AA74BE
:108B4000A1882846FFF77CFF224E2349304607F0D4
:108B500047F9A1880A220131304607F0CFF92049B0
:108B6000304607F03DF90A22298D304607F0C6F954
:108B70001C49304607F034F92846FFF759FD0A2210
:108B80000146304607F0D3F91749304607F048F957
:108B900003232B7085F82F306A8D2B8D9A4210D2CB
:108BA0002846FFF751FDA38801332B8293E70F4935
:108BB000084807F035F90222A1882846FFF740FF50
:108BC00089E70B49304607F02BF904232B7085F811
:108BD0002F30E5E730430020E8B30300F4B303008F
:108BE000F8B4030014B4030018B4030000B4030085
:108BF0001CB4030010B5044612290ED0162915D056
:108C0000102901D0002019E0112B01D8002015E017
:108C10001146FFF73DFD012010E0092B01D800208F
:108C20000CE01146FFF752FF012007E00449054818
:108C300007F0F6F82046FFF713FD012010BD00BF36
:108C4000C4B403003043002010B590B00446412363
:108C50008DF8003047238DF8013001238DF8023064
:108C600015228DF803208DF804304369186859687F
:108C70009A68DB68CDF80500CDF80910CDF80D2015
:108C8000CDF81130134800F0E6F8ADF815000923CF
:108C90008DF81730636806932046FFF71DFE079096
:108CA000636AC01A18BF01208DF820000A4C002109
:108CB000204600F08EFD21226946204600F02CFB64
:108CC0000021204600F0ECFA0449054807F0A8F816
:108CD00010B010BD983E0020043F002058B403009F
:108CE0003043002070B5044607F007FC05462378A2
:108CF000013B032B51D8DFE803F0020E0E3BE36883
:108D0000C31AA268934248D32046FFF745FE0223C8
:108D10002370E56041E0E368C31A42F20F729342A8
:108D20003BD9A37C0133DBB2A374042B0FD92349B5
:108D3000234807F075F8012363700622227084F837
:108D40002F2084F830302046FFF77EFC25E01C4EB3
:108D50001C49304607F044F80A22A17C304607F04F
:108D6000EAF80122218A2046FFF76AFEE56014E056
:108D70002046FFF7B1FD636A83420FD012491048C5
:108D800007F04EF8032363700622227084F82F2028
:108D900084F830302046FFF757FC70BD0B49084877
:108DA00007F03EF80523237084F82F302046FFF7A4
:108DB0004BFC2046FFF748FFEFE700BF2CB5030050
:108DC0003043002048B5030084B5030060B50300BC
:108DD00030B40D684C688A68CB6805604460826076
:108DE000C36000230382436130BC7047172A01D857
:108DF0000020704770B50C6848688E68CD681C60AC
:108E000058609E60DD600C6948691C615861187883
:108E1000412801D0002070BD5878472801D000209B
:108E2000F9E79878012801D00020F4E7DB7D03F111
:108E3000180082420BD3049A5AB10BB90120EAE719
:108E40001A46183104980EF036FB0120E3E70020A3
:108E5000E1E70120DFE7038A5A1C028218467047C7
:108E6000262A01D800207047F8B51E460C46054654
:108E700041230B7047234B7001238B70CB700B7118
:108E800007684068A968EA68C4F80570C4F8090072
:108E9000C4F80D10C4F811202846FFF7DCFFA4F831
:108EA00015000F23E3756B69A361A6839DF8183045
:108EB000A377BDF81C30A4F81F30BDF92030A4F80A
:108EC0002130002384F8233084F824309DF82430A6
:108ED00084F825309DF8283084F826302720F8BD06
:108EE000416170474DF804BD4FF08053186E596EC4
:108EF000002242EA000B58465DF804BB7047034667
:108F000088B14FF080510A6E496E080E1870080C37
:108F10005870080A9870D970110E1971110C597196
:108F2000110A9971DA7170477047022805D0032839
:108F300005D0012805D00020704704207047062086
:108F4000704702207047000010B50024447481B1BE
:108F500081600B4951F82220027351F8233083734A
:108F60009DF8083051F8233043730023C373037412
:108F700010BD044B044A452104480EF0EBF900BF34
:108F800004CA030098B503000CB60300A8B503009B
:108F9000012800D070474FF6FF739942FAD100B50F
:108FA00083B0094B094A1A6001225A7100221A71D2
:108FB0000D2300930C230E2205490648FFF7C4FF3A
:108FC00003B05DF804FB00BFFC3E002000093D003B
:108FD00000300240E83E002082680023C2F80035DD
:108FE0004374704783680022C3F800257047B1F5C9
:108FF000007F0FD2FF2913D87F2914D83F2915D815
:109000001F2916D80F2902D84FF0004204E04FF074
:10901000804201E04FF000728368C3F82425704756
:109020004FF08062F8E74FF00062F5E74FF08052B2
:10903000F2E74FF00052EFE730B583B0044602ABE1
:1090400003E9060083680022C3F800259DF8055057
:1090500015F1FF3518BF012505749DF80400E07374
:10906000FFF763FFA3682843C3F85405009B064934
:10907000B1FBF3F12046FFF7BAFFA3680122C3F862
:10908000002503B030BD00BF0090D00308B5437C7D
:1090900003B108BD012343748368827BC3F80825AC
:1090A0008368427BC3F80C258368027BC3F81025D4
:1090B000024B93E80600FFF7BFFFEAE7FC3E002003
:1090C0008368C3F81C158368D3F80821002AFAD0F6
:1090D000D3F818050022C3F80821C0B27047F8B5CC
:1090E00007460D4616460024B44206D2295D38468E
:1090F000FFF7E6FF28550134F6E7F8BD08B54FF64F
:10910000FF710120FFF744FF08BD0020704710B534
:1091100082B002AB03F8011D0268546801221946AF
:10912000A04702B010BD704710B504460021416051
:109130004FF47A7383600C4B03600C4B0361012383
:10914000437501750A4B83610A23C36109230362D6
:10915000022343628162C16201634163816306F05D
:1091600031FF204610BD00BF54B6030000127A0044
:10917000E83E0020012800D0704708B54FF6FF7385
:10918000994200D008BD0248FFF7CEFFFAE700BFC2
:10919000043F0020C16102624362704770B504461B
:1091A0000E4615460021C06909F0D6FE04F11003F1
:1091B00093E80600A069FFF73FFF3146A069FFF77B
:1091C0007FFF2946A069FFF77BFF0546A069FFF7EF
:1091D00009FF0121E06909F0BFFE284670BD08B50E
:1091E000002201F07F01FFF7D9FF08BD10B504464A
:1091F0001321FFF7F4FFE36AC01A10BD10B504464F
:1092000003681B69984738B1E36A0133E3620021C0
:109210002046FFF7E4FF10BD4FF0FF30FBE708B535
:109220001E21FFF7DCFF001108BD000008B51D215D
:10923000FFF7D5FFC0F3071009281ED8DFE800F0BC
:109240000520080B0E111417191B41F6786019E060
:1092500043F6F04016E045F2401013E047F61220C6
:1092600010E04AF2E4200DE04FF224400AE0064804
:1092700008E0064806E0064804E04FF0FF3001E051
:1092800042F6A00008BD00BF48E8010090D00300EE
:1092900020A1070008B541F08001FFF77FFF08BD5E
:1092A00038B504460D4629B1836B1BB140221146E7
:1092B000FFF7F0FF832201212046FFF7EBFF75B98E
:1092C00012212046FFF78BFF10F0080F02D109F0A2
:1092D00023FAF5E7082212212046FFF7DBFF0120E1
:1092E00038BD10B504460121FFF779FF00F00300F7
:1092F00003280FD012212046FFF771FF10F0080F4E
:1093000001D1002007E0082212212046FFF7C2FF0A
:10931000002000E0012010BD2DE9F04106460F4677
:1093200015462221FFF75BFF80464319FF2B01D929
:10933000C0F1FF050024A54206D93A5D0021304660
:10934000FFF7A8FF0134F6E708EB0502D2B22221AD
:109350003046FFF79FFF2846BDE8F08170B5044610
:1093600003681B69984780B10D212046FFF737FF3E
:10937000064600212046FFF732FF054632460D2102
:109380002046FFF787FF284670BD4FF0FF30FBE710
:1093900008B581220121FFF77DFF08BD08B58022B5
:1093A0000121FFF777FF08BD38B5044681620C4AFA
:1093B0000023C80449130DF039FE0546C0F30742E7
:1093C00006212046FFF766FFC5F307220721204646
:1093D000FFF760FFEAB208212046FFF75BFF38BDC8
:1093E0000048E80138B50446FFF720FF054620464F
:1093F000FFF715FF012303FA00F095FBF0F04FF49F
:109400007A7595FBF0F526212046FFF7E8FE102D32
:1094100006DC00F0F70226212046FFF73BFF38BDAF
:1094200040F00802D2B2F6E738B5044605291FDD40
:109430000D460C2928DC06291BD0C32231212046E9
:10944000FFF728FF0A2237212046FFF723FF1E21BE
:109450002046FFF7C4FE00F00F0040EA0512D2B22A
:109460001E212046FFF716FF2046FFF7BBFF38BD41
:109470000625C52231212046FFF70CFF0C2237219B
:109480002046FFF707FFE2E70C25D6E700000000C3
:10949000F8B5044608460DF0C5FA06460F4636A351
:1094A000D3E900230DF0A4FD002846D134A3D3E96D
:1094B0000023304639460DF09BFD00284ED132A3E3
:1094C000D3E90023304639460DF092FD002847D1FC
:1094D0002FA3D3E90023304639460DF089FD00283B
:1094E00040D12DA3D3E90023304639460DF080FD4D
:1094F000D0BB2BA3D3E90023304639460DF078FDCD
:10950000A0BB29A3D3E90023304639460DF070FDF6
:1095100070BB27A3D3E90023304639460DF068FD20
:1095200040BB25A3D3E90023304639460DF060FD4A
:1095300008B9092502E0082500E000251D21204684
:10954000FFF74DFE00F00F0242EA05121D212046F2
:10955000FFF7A0FE2046FFF745FFF8BD0125EDE728
:109560000225EBE70325E9E70425E7E70525E5E71D
:109570000625E3E70725E1E7000000000078BE408C
:10958000000000000050C440000000000078CE4001
:10959000000000000050D440000000008084DE4045
:1095A00000000000805CE440000000008084EE4089
:1095B000000000008084FE400000000080840E4116
:1095C00038B50546042903DD082902DD082100E03D
:1095D00005210C1F1D212846FFF701FE41B221F095
:1095E0000E0141EA4401CAB21D212846FFF752FE8E
:1095F00038BD38B505460C46C1F307222021FFF7D8
:1096000049FEE2B221212846FFF744FE38BD08B5E5
:10961000CAB23921FFF73EFE08BD10B504461E212F
:10962000FFF7DDFD40F00402D2B21E212046FFF715
:1096300031FE10BD08B5782908D9F02916D801F1F6
:109640001E020B4981FB0232920807E02D39084ABD
:1096500082FB0132C917C1EB6202D2B202F01F02D3
:1096600042F020020B21FFF715FE08BD1B22F5E793
:109670006766666638B505460C467AB91346002912
:1096800002DB0E2908DD0E2343F07002D2B209215D
:109690002846FFF7FFFD38BD0B46F5E7112916DD1B
:1096A000142900DD1424033C87224D212846FFF7AE
:1096B000F1FD8C212846FFF7BDFFA21E52B262F0D9
:1096C0007F02D2B209212846FFF7E4FDE3E7012932
:1096D00009DD84224D212846FFF7DCFD6421284660
:1096E000FFF7A8FFE9E70224F3E738B504460D4683
:1096F0000121C06909F096FB0121E06909F02CFC09
:10970000206AB0F1FF3F0AD1A069FFF7BFFC4221F8
:109710002046FFF764FD122813D0002038BD012138
:1097200009F080FB0021206A09F016FC0A2006F0EF
:10973000FEFE0121206A09F00FFC0A2006F0F7FE68
:10974000E2E72046FFF72AFE29462046FFF72CFED7
:1097500000220E212046FFF79DFD00220F2120460A
:10976000FFF798FD0C212046FFF739FD40F003027A
:10977000D2B20C212046FFF78DFD0422262120467F
:10978000FFF788FD012211212046FFF773FF2046D5
:10979000FFF7FEFD0120C1E710B504460023036377
:1097A0001D21FFF71CFD00F0FE021D212046FFF7E2
:1097B00071FD10BD10B50446012303631D21FFF7A1
:1097C0000EFD40F00102D2B21D212046FFF762FDDE
:1097D00010BD38B504460D46FFF783FD08B10020E3
:1097E00038BD2046FFF7D4FD75B12046FFF7E2FFF4
:1097F00000220D212046FFF74DFD002222212046A8
:10980000FFF748FD0120EBE72046FFF7C5FFEFE734
:1098100070B504460E461221FFF7E1FC0546002E06
:1098200027DD2046FFF7C6FFF2B222212046FFF7D0
:1098300031FD2A4612212046FFF72CFD05F0600578
:10984000402D20D10023E362236BB3B122212046B7
:10985000FFF7C5FC054610212046FFF7C0FC024675
:109860000D212046FFF716FD2046FFF791FD284603
:1098700070BD2046FFF790FFDBE713212046FFF77E
:10988000AEFC0546E7E701212046FFF7A8FC862845
:109890000BD000220D212046FFF7FCFC862201217F
:1098A0002046FFF7F7FC0025E1E70025DFE708B5D4
:1098B0004FF6FF710120FFF75DFC08BD10207047D7
:1098C00010B50446054B40F80C3BB02100F047FCB6
:1098D000204600F029F9204610BD00BF78B60300ED
:1098E00010B50446FFF7ECFF204608F0F5FC2046D3
:1098F00010BD102A01D00020704770B500F10C0493
:109900000E684D688A68CB68C6606560A260E360D7
:109910000423102501261EE0324604F10C0104F157
:10992000100000F027FB237C227853402374637CD3
:10993000627853406374A37CA2785340A374E37CA1
:10994000E2785340E3740136F6B200230434043560
:10995000EDB20133DBB2AF2D12D8042BDCD0227B69
:1099600021784A402274627B61784A406274A27B0B
:10997000A1784A40A274E27BE1784A40E274E5E7CC
:10998000012070BD10B5044600F0C0F8044B236000
:109990000A23237104F10C03A360204610BD00BF0D
:1099A00078B603002020704710B50446054B40F8F8
:1099B0000C3BF02100F0D3FB204600F0B5F8204628
:1099C00010BD00BFA0B6030010B50446FFF7ECFFC2
:1099D000204608F081FC204610BD202A01D000203E
:1099E0007047F8B500F10C040E684D688A68CB68C2
:1099F000C6606560A260E3600E694D698A69CB69E3
:109A000026616561A261E36108252026012726E021
:109A10003A4604F11C0104F1200000F0ABFA94F87E
:109A200020302278534084F8203094F82130627836
:109A3000534084F8213094F82230A278534084F8BF
:109A4000223094F82330E278534084F823300137F1
:109A5000FFB2002504340436F6B20135EDB2EF2E24
:109A600037D8082DD4D0042D14D0237F227853402A
:109A700084F82030637F6278534084F82130A37FDC
:109A8000A278534084F82230E37FE278534084F890
:109A90002330DFE704F11C0104F1200000F082FA1A
:109AA00094F820302278534084F8203094F8213004
:109AB0006278534084F8213094F82230A2785340E1
:109AC00084F8223094F82330E278534084F823302D
:109AD000C0E70120F8BD000010B5044600F016F8FC
:109AE000044B23600E23237104F10C03A360204672
:109AF00010BD00BFA0B603001020704708B5017963
:109B000001310901806800F02AFB08BD10B5044648
:109B100000F058FA034B236000232371A360204612
:109B200010BD00BFD0B8030010B50446024B03605F
:109B300000F04EFA204610BDD0B803000A78184B4A
:109B40009A5C02704A799A5C42708A7A9A5C827056
:109B5000CA7B9A5CC2700A799A5C02714A7A9A5CF2
:109B600042718A7B9A5C8271CA789A5CC2710A7A65
:109B70009A5C02724A7B9A5C42728A789A5C827220
:109B8000CA799A5CC2720A7B9A5C02734A789A5CC0
:109B900042738A799A5C8273CA7A9B5CC3737047FA
:109BA000C8B703000A78184B9A5C02704A7B9A5C2B
:109BB00042708A7A9A5C8270CA799A5CC2700A7919
:109BC0009A5C02714A789A5C42718A7B9A5C8271D3
:109BD000CA7A9A5CC2710A7A9A5C02724A799A5C71
:109BE00042728A789A5C8272CA7B9A5CC2720A7BE1
:109BF0009A5C02734A7A9A5C42738A799A5C82739D
:109C0000CA789B5CC3737047C0B603002DE9F0416E
:109C10000B784D788C78CF785A00D6B2121251005A
:109C20000A4402EBC20256406900CAB209124FEA66
:109C3000410C614401EBC1014A4061005FFA81FCC3
:109C400009124FEA410E714401EBC1018CEA010C8B
:109C50004FEA470E5FFA8EF84FEA2E2E4FEA4E017A
:109C6000714401EBC10188EA010186EA020E8EEA25
:109C7000050E8EEA040E8EEA070E80F800E05A40C8
:109C800082EA0C0262407A40427083EA050282EA6C
:109C90000C0C8CEA010C8CEA0707877073406B4050
:109CA00063404B40C370BDE8F08170B588B00E468C
:109CB000846800230F2B09D8D15CE55C694008ADAE
:109CC0001D4405F8101C0133DBB2F3E710340579AD
:109CD00002E01034013DEDB2012D21D904A96846FE
:109CE000FFF72CFF694604A8FFF790FF01A905A81C
:109CF000FFF78CFF02A906A8FFF788FF03A907A8B2
:109D0000FFF784FF00230F2BE3D808AAD11811F81E
:109D1000102CE05C424001F8102C0133DBB2F2E77A
:109D200004A96846FFF70AFF00230F2B09D808AAE9
:109D30001A4412F8202CE15C4A40F2540133DBB2A1
:109D4000F3E708B070BD00002DE9F04F87B091F83F
:109D5000008091F801E091F802C091F803901FFA99
:109D600088F56B00DEB21B125A00134403EBC303E9
:109D700086EA030101911FFA8EFB4FEA4B03DAB228
:109D80001B1259000B4403EBC303534002931FFA09
:109D90008CF463005FFA83FA1B125A00134403EB3E
:109DA000C3038AEA030204921FFA89F25300DFB266
:109DB0001B1259000B4403EBC30387EA0306059605
:109DC000AE00F3B2361240498E5D73404FEA8B0607
:109DD000F7B236128E5D77400397A6005FFA86FAD7
:109DE00036128E5D8AEA060A9600F7B236128E5D4A
:109DF0007740ED00EEB22D124D5D6E404FEACB0B79
:109E00005FFA8BF54FEA2B2B11F80BB085EA0B05A7
:109E1000E4005FFA84FB24120C5D8BEA0404D20098
:109E20005FFA82FB12128A5C8BEA020B7340019A82
:109E30005A406A4002994A4082EA0E02624082EA2F
:109E40000A0282EA0C0282EA0B0282EA090202702A
:109E500088EA06026A4003994A4002994A406240F1
:109E600004994A4082EA0C0282EA0B027A4082EAB2
:109E70000902427083EA08036B4083EA0E036340E1
:109E800083EA0A0A8AEA010A8AEA0B0A059B8AEA35
:109E9000030A8AEA090980F8029001994E4086EA8D
:109EA000080888EA050503994D4085EA0E0E8EEAFA
:109EB000040484EA0C0C8CEA0B0B8BEA07075F4066
:109EC000C77007B0BDE8F08FC0B7030070B588B0A9
:109ED00005460E468468037904EB031400230F2B18
:109EE00009D8D15CE05C414008A8184400F8101C77
:109EF0000133DBB2F3E704A96846FFF753FE2D797F
:109F000015E0694604A8FFF71FFF01A905A8FFF7A0
:109F10001BFF02A906A8FFF717FF03A907A8FFF771
:109F200013FF04A96846FFF73DFE013DEDB2012D88
:109F30000ED9103C00230F2BE3D808AAD11811F832
:109F4000202CE05C424001F8202C0133DBB2F2E728
:109F500000230F2B0BD808AA1A4412F8202CE11862
:109F600011F8101C4A40F2540133DBB2F1E708B09B
:109F700070BD000030B44C78084B1C5D084DAA5CE5
:109F8000544004708A789A5C4270CA789A5C8270F5
:109F90000A789B5CC37030BC704700BFC8B7030031
:109FA000F0B803000A78064B9A5C02704A789A5C13
:109FB00042708A789A5C8270CA789B5CC3707047E2
:109FC000C8B70300014B0360704700BF04B903002A
:109FD000704708B540680368DB68984708BD1020E3
:109FE000704770B504460D461646406803689B6886
:109FF0009847102801D0002070BD606803681B6975
:10A00000324629469847F7E7F8B504460E46154606
:10A010001F46002F37D094F828300F2B19D894F80A
:10A020002830C3F11003DBB2BB4200D9FBB2FF1AE8
:10A03000002BEED0297894F82820501C84F82800B2
:10A040002244127E4A403270013BDBB201350136B8
:10A05000EEE7606803685B6904F1080204F1180127
:10A060009847002384F828301023012294F82910FF
:10A070009942D4D2013BDBB2E118087A02440A7259
:10A08000C2F30F22F2E7F8BD10B50468A469A04737
:10A0900010BD000010B50446074B40F8083B1021E6
:10A0A00000F05DF8102104F1180000F058F8204687
:10A0B00000F054F8204610BD2CB9030010B504463A
:10A0C00040680368DB699847102104F1080000F03C
:10A0D00046F8102104F1180000F041F8102384F82C
:10A0E000283010BD10B50446FFF7D4FF204608F015
:10A0F000F3F8204610BD102A01D00020704710B59B
:10A10000044608300DF0D7F9102384F828300120D8
:10A1100010BD000010B5044600F01AF8054B23608E
:10A1200000236360102284F8282084F82930204618
:10A1300010BD00BF2CB903004B1E0F2B05D8C1F179
:10A14000100180F82910012070470020704700009E
:10A15000014B0360704700BF58B90300704721B13D
:10A160000023037001390130F9E7704730B400244F
:10A170003AB103780D786B401C43013A013101304C
:10A18000F6E7C4F58074230A14BF0120002030BC18
:10A19000704708B540680368DB68984708BD0C2025
:10A1A00070471020704708B5406803681B699847DE
:10A1B00008BD000010B50446074B40F8303B48216D
:10A1C000FFF7CDFF04F1080000F02CFA204600F064
:10A1D000E5FC204610BD00BF84B9030010B504465D
:10A1E000FFF7E8FF204608F077F8204610BD38B5A5
:10A1F00090F8703003B138BD15460446083000F0C1
:10A2000024FAD4E91823501943F10001C4E91801D4
:10A21000F1E72DE9F843064689461546984690F839
:10A22000703013B347464C46002F48D096F8713033
:10A230000F2B21D896F87120C2F11003DBB2BB427C
:10A2400000D9FBB206F1400111441A4486F871208E
:10A25000FF1A002BE8D02A78087842402270013B90
:10A26000DBB2013101340135F3E7083000F01CFAAC
:10A27000012386F87030D5E796F83F104A1C86F81F
:10A280003F2096F83E3003EB122286F83E2096F8E7
:10A290003D3003EB122386F83D3096F83C2002EB6C
:10A2A000132386F83C30706803685B6906F130025E
:10A2B00006F140019847002386F87130BAE742461C
:10A2C000494606F1080000F0C0F9D6E91A2312EB5E
:10A2D000080043F10001C6E91A01BDE8F883F8B5AA
:10A2E00006460D4614461F4690F870306BB33A464A
:10A2F000214606F1080000F0A8F9D6E91A23D01982
:10A3000043F10001C6E91A01002F48D096F87130D8
:10A310000F2B21D896F87120C2F11003DBB2BB429B
:10A3200000D9FBB206F1400111441A4486F87120AD
:10A33000FF1A002BE8D02278087842402A70013BAF
:10A34000DBB2013101340135F3E7083000F0ACF93C
:10A35000012386F87030CAE796F83F104A1C86F849
:10A360003F2096F83E3003EB122286F83E2096F806
:10A370003D3003EB122386F83D3096F83C2002EB8B
:10A38000132386F83C30706803685B6906F130027D
:10A3900006F140019847002386F87130BAE7F8BD0E
:10A3A0002DE9F04385B0044688460C2A68D017464C
:10A3B00000F150060025056545658565C565406861
:10A3C00003685B6932463146984704F10803314619
:10A3D0001E46184600F02DF93A464146304600F038
:10A3E00034F9304600F060F9009501957A0FF900D4
:10A3F0000B0A03F47F4343EA1163F90201F47F017E
:10A400000B43120643EAC76945EA02004946CDE913
:10A41000020110226946304600F017F91021684603
:10A42000FFF79DFE102204F13001304600F04AF99A
:10A4300000220023C4E91823C4E91A23002384F866
:10A440007030102284F8712004F150052365636593
:10A45000A365E365606803685B692A4629469847F7
:10A46000294604F1080000F0E4F8606803685B69BD
:10A4700004F1300229469847012005B0BDE8F08379
:10A4800008684968D8F8082020636163A263002344
:10A4900084F83C3084F83D3084F83E30012384F861
:10A4A0003F30C5E72DE9F04F85B006468846174690
:10A4B00000F10809484600F0F7F8306E736EDA00D4
:10A4C00042EA5072C300190A01F47F4141EA136164
:10A4D000C30203F47F031943130A03F47F4343EADF
:10A4E0001263140204F47F04234343EA02634FF02F
:10A4F000000A41EAC06B4AEA03005946CDE900016F
:10A50000B56EF36ED90041EA5571EB001A0A02F4F8
:10A510007F4242EA1362EB0203F47F031A430B0A01
:10A5200003F47F4343EA1163080200F47F0003430E
:10A5300043EA016342EAC5621146504640EA03001D
:10A54000CDE9020110226946484600F07EF810214C
:10A550006846FFF704FE06F14005102229464846EA
:10A5600000F0B0F854460F2C0AD8331993F8502055
:10A5700093F840104A4083F840200134E4B2F2E7F7
:10A58000102F00D910273A46294640460CF093FF79
:10A5900005B0BDE8F08F102A01D90020704770B5D2
:10A5A00014460D46064656F8303BDB6A102231460B
:10A5B0009847224629463046FFF7D8FD70BD10B5B2
:10A5C000044640680368DB69984704F1080000F01E
:10A5D00089F8482104F13000FFF7C1FD102384F809
:10A5E000713010BD38B5044600F0CEFA0A4B236036
:10A5F0000025656004F1080000F010F80022002337
:10A60000C4E91823C4E91A2384F87050102384F88D
:10A610007130204638BD00BF84B90300002280F8A5
:10A620002020704710B504462421FFF798FD2046EE
:10A6300010BD10B5044600F0BBFA0023236163612E
:10A64000A361E36184F8203010BDF8B506460C46DE
:10A65000154609E096F820303B44DBB286F82030FE
:10A66000ED1B3C44102B17D0EDB196F82010C1F132
:10A670001007FFB2AF4200D9EFB206F1100001445B
:10A6800000239F42E6D9CA5C14F803C082EA0C0298
:10A69000CA540133DBB2F4E7314600F0C8FA0023B4
:10A6A00086F82030E0E7F8BD90F8203003B9704715
:10A6B00010B504460146103000F0B9FA002384F8C2
:10A6C000203010BD70B506460D461446FFF7ECFF6E
:10A6D000102C00D91024224606F1100128460CF057
:10A6E000EAFE70BD08B52421FFF739FD08BD202022
:10A6F00070474020704700000E4B83600E4BC360D4
:10A700000E4B03610E4B43610E4B83610E4BC361D5
:10A710000E4B036203F17453A3F52303A3F6924394
:10A720004362002380F8703000220023C0E91A231E
:10A73000704700BF67E6096A85AE67BB72F36E3C7F
:10A740003AF54FA57F520E518C68059BABD9831FFC
:10A7500010B50446054B40F8083B7021FFF7FFFC9D
:10A76000204600F0E5FA204610BD00BFC0B9030046
:10A7700010B5044670210830FFF7F1FC23681B690F
:10A780002046984710BD10B50446FFF7E1FF20466C
:10A7900007F0A2FD204610BD10B5044600F0C2FA35
:10A7A000034B23602046FFF7A7FF204610BD00BFE4
:10A7B000C0B903002DE9F04F8BB000240F2C13D843
:10A7C00004F10A0550F82520130A03F47F4343EAF5
:10A7D0001263110201F47F010B4343EA026340F864
:10A7E00025300134E4B2E9E787680397C268049230
:10A7F000046905944169069186690796C5690895BB
:10A80000036A0293436A0993DDF80880A946A446C7
:10A81000964600251C460F2D30D8544B53F8252062
:10A82000224405F10A0350F823301A444FEAF62374
:10A8300083EAB61383EA76631A4406EA090328EA30
:10A84000060463401A444FEA773383EAB70383EA86
:10A85000B7548EEA0C033B400EEA0C0A83EA0A0363
:10A86000234401EB020A0135EDB261464446C84675
:10A87000B1465646F446BE46D718CCE70191A346EA
:10A880003F2D56D8A5F10F0303F00F030A3350F8FC
:10A8900023A0AB1E03F00F030A3350F8233005F05A
:10A8A0000F010A3150F82140EA1F02F00F020A326C
:10A8B00050F8222014444FEABA4282EAFA1282EA9D
:10A8C000DA0214444FEAF34282EA734282EA9323A3
:10A8D0001C4440F82140254B53F825305B44234469
:10A8E0004FEAF62484EAB61484EA7664234406EA3E
:10A8F000090B28EA06028BEA020B5B444FEA773227
:10A9000082EAB70282EAB7518EEA0C023A400EEAB6
:10A910000C0462400A44019919440135EDB2CDF8A6
:10A9200004C0C346C846B1460E46F446BE469F180C
:10A93000A6E75B46039A17448760049A7244C26094
:10A94000059A62440261019A06990A444261079A93
:10A9500016448661089A4A44C261029A42440262DD
:10A96000099A134443620BB0BDE8F08FE8B90300C5
:10A970002DE9F04806460F461546510FD000D6E99E
:10A980001A2312EB000B43EB010CC6E91ABC10E0D2
:10A9900006F128002246394618440CF08CFD96F842
:10A9A00070302344DBB286F870302D1B2744402BD7
:10A9B00009D07DB196F87030C3F14004E4B2AC42E6
:10A9C000E6D9ECB2E4E73046FFF7F4FE002386F860
:10A9D0007030EEE7BDE8F088F8B504460F4616463D
:10A9E00000F1280590F87030372B3FD88022EA54C8
:10A9F00090F87020501CC2F13702002128440CF05E
:10AA00007EFDA16EE36E1A0A02F47F4242EA1362EF
:10AA1000180200F47F00024342EA036222660B0A36
:10AA200003F47F4343EA11630A0202F47F021343F3
:10AA300043EA016363662046FFF7BCFE0022072A53
:10AA400045D8931C54F823100B0A03F47F4343EAC0
:10AA50001163080200F47F00034343EA016302F13B
:10AA60000A0144F821300132D2B2E8E78022EA54E8
:10AA700090F87020501CC2F13F02002128440CF0D5
:10AA80003EFD2046FFF796FE3822002128460CF0B6
:10AA900036FDA16EE36E1A0A02F47F4242EA1362A7
:10AAA000180200F47F00024342EA036222660B0AA6
:10AAB00003F47F4343EA11630A0202F47F02134363
:10AAC00043EA016363662046FFF774FEB6E7236836
:10AAD0009B68204698470246B04204D22946384631
:10AAE0000CF0E9FCF8BD3246F8E710B582B0044638
:10AAF0003623009313460A4600F1280100F019F9A5
:10AB0000D4E91A2312F5007043F10001C4E91A01D7
:10AB10002046FFF74FFE02B010BD2DE9F0418AB08C
:10AB200004460F4690461E46054655F8283B9B694D
:10AB3000202202A998475C23009343463A462946BF
:10AB4000204600F0F6F8D4E91A2312F5007043F11C
:10AB50000001C4E91A012046FFF72CFE23685D6955
:10AB60009B6820469847024602A92046A8472368CA
:10AB70009B69109A314620469847202102A8FFF78A
:10AB8000EEFA0AB0BDE8F08110B50446FFF7E0FA2E
:10AB9000014B2360204610BDF0BA030010B50446F7
:10ABA000024B0360FFF7DAFA204610BDF0BA03004B
:10ABB00030B40D684C688A68CB6805604460826078
:10ABC000C3600268130A03F47F4343EA126311026D
:10ABD00001F47F010B4343EA026303604268130AF6
:10ABE00003F47F4343EA1263110201F47F010B4334
:10ABF00043EA026343608268130A03F47F4343EA33
:10AC00001263110201F47F010B4343EA0263836084
:10AC1000C268130A03F47F4343EA1263110201F48A
:10AC20007F010B4343EA0263C36030BC70472DE9E8
:10AC3000F04F0F684E688D68CC684FF0000AD4461C
:10AC4000D646D046D14603E00AF1010A5FFA8AFAF5
:10AC5000BAF10F0F2CD810F80A100022072AF3D8E7
:10AC600041F3C01307EA030B89EA0B0906EA030B59
:10AC700088EA0B0805EA030B8EEA0B0E23408CEAE8
:10AC8000030C44F3000303F061434FEAC57B4BEA36
:10AC900054044FEAC67B4BEA55054FEAC77B4BEAA3
:10ACA000560683EA57070132D2B24900C9B2D5E746
:10ACB0004FEA192303F47F4343EA19634FEA092259
:10ACC00002F47F02134343EA096303604FEA182347
:10ACD00003F47F4343EA18634FEA082202F47F0239
:10ACE000134343EA086343604FEA1E2303F47F43A0
:10ACF00043EA1E634FEA0E2202F47F02134343EA43
:10AD00000E6383604FEA1C2303F47F4343EA1C6312
:10AD10004FEA0C2202F47F02134343EA0C63C36040
:10AD2000BDE8F08F014B0360704700BF2CBB0300F0
:10AD300070472DE9F84306460C4691461D469DF89E
:10AD400020700368DB689847804633681B6930468B
:10AD50009847A84521D233685B692A464946304660
:10AD6000984733689B6830469847054633689B6927
:10AD7000024621463046984733681B69304698475B
:10AD8000A8EB0502394660190CF0B9FB5DB12378D8
:10AD90007B402370013D0134F8E72A4649462046AE
:10ADA0000CF089FBECE7BDE8F883704708B5036851
:10ADB000DB69984708BD08B503681B69984708BD5B
:10ADC00010B504686469A04710BD08B503681B6A24
:10ADD000984708BD10B50468646AA04710BD08B55F
:10ADE0000368DB69984708BD08B503681B69984785
:10ADF00008BD10B504686469A04710BD08B50368B4
:10AE00001B6A984708BD10B50468646AA04710BD66
:10AE100010B50446043000F0D3F8606918B107F0AB
:10AE20005BFA0023636110BD08B5043000F0F6F84A
:10AE300080F00100C0B208BD08B5043000F0CCF8C5
:10AE4000400A08BD10B582B0446954B14FF4007394
:10AE5000009313464A020146204600F0A4FC02B0CB
:10AE600010BD4FF400734902043000F034F9003093
:10AE700018BF0120F3E710B582B044694CB15B0202
:10AE8000009313464A020146204600F08CFC02B0B3
:10AE900010BD5B024902043000F01DF9003018BFFC
:10AEA0000120F4E708B5436923B10146184600F0D4
:10AEB00015FC08BD0120FCE710B582B0446954B10F
:10AEC0004FF40073009313464A020146204600F0F7
:10AED00022FC02B010BD4FF400734902043000F0B0
:10AEE00017FA003018BF0120F3E710B582B04469AB
:10AEF0004CB15B02009313464A020146204600F023
:10AF00000AFC02B010BD5B024902043000F000FAF6
:10AF1000003018BF0120F4E738B504461546064B4B
:10AF200040F8043B00F043F8044B236065740023B1
:10AF30006361204638BD00BF5CBB0300A0BB0300BB
:10AF400070B50446043000F0FDF80546A3683BB137
:10AF5000DB7A13F0400F03D1637C0BB163690BB153
:10AF6000284670BD41F2040007F0B2F9064600F031
:10AF7000AFFB6661F4E770B4002301E00133DBB29C
:10AF80008B4210DA03EB4305AC0004441678A57934
:10AF9000AE42F3D15678E579AE42EFD19678257A74
:10AFA000AE42EBD100E00024204670BC7047016047
:10AFB000002242604FF0FF3282600122027370472C
:10AFC000036843B110B504461A68526818469047A2
:10AFD0000023636010BD704743680BB11868704769
:10AFE0000020704710B582B0006803685C690123D7
:10AFF0000DF107020521A0479DF8070002B010BD22
:10B0000010B582B0006803685C6901230DF1070286
:10B010003521A0479DF8070002B010BD08B5436870
:10B02000DB7AC3F380130BB1184608BDFFF7DAFFD4
:10B0300010F0030F0CBF01230023F5E710B5044601
:10B040004368DB7A13F0400F08D12046FFF7CAFFB0
:10B0500010F0030F02D007F05FFBF6E710BD08B554
:10B06000006803681B690621984708BD08B5006899
:10B0700003681B690421984708BD38B5436843B38A
:10B08000DD7AC5F38015F5B90D46044680680028C1
:10B0900004DB237BCBB1012107F05EFF2046FFF7E5
:10B0A000CDFF2046FFF7DBFF20680368DB692A033A
:10B0B000202198470546A068002804DB237B33B194
:10B0C000002107F049FF284638BD0021E4E70121AF
:10B0D000F7E70025F7E72DE9F041446844B31D4642
:10B0E0001746884604468068002804DB237BCBB1E2
:10B0F000012107F031FF2046FFF7A0FF2068036819
:10B100001E6A2B463A464146B0470646A0680028CC
:10B1100004DB237B43B1002107F01EFF36B900207A
:10B12000BDE8F0810021E4E70121F5E72846F7E7D3
:10B130000020F5E70A6803689A4200D37047084682
:10B14000FCE700000368002B00F0D580F0B585B067
:10B1500016460D4604461A6812681846904720683D
:10B1600003685F69042302AA9F21B8479DF809304C
:10B170007F2B57D02DB102AA31462846FFF7FBFEA0
:10B1800060606368002B56D06368002B00F0B580C8
:10B19000DB7A13F0400F20D12046FFF723FF10F099
:10B1A000010FF9D16368DB7A13F0200F05D1204637
:10B1B000FFF726FF10F0800FF9D1206803681B69A4
:10B1C00066219847206803681B69992198474FF4C6
:10B1D000F0604B4B43F00103984763685A7A494B40
:10B1E00003FB02F3019304A9474B41F8043D01A876
:10B1F000FFF7A0FF0168019120680368DB680A4639
:10B200009847206803689B689847D8B16368DA7AE2
:10B2100012F0040F16D012F0200F22D12046FFF7B3
:10B22000EFFE21E09DF80A308DF809309DF80B30D3
:10B230008DF80A309EE702AA10213448FFF79BFEE2
:10B240006060A1E76368DB7A13F0020F3CD16368AA
:10B250001B68B3F1807F3BD8B3F5803F49D9032207
:10B260003CE02046FFF7BEFE63689B7A0342EED1C6
:10B270002046FFF7F4FE0023ADF8003063689A7AA9
:10B280008DF80120DA7A12F0100F0CD1DB7A13F06E
:10B29000200F11D0206803689D6901230DEB030284
:10B2A0001946A847D3E7206803689D6901230DEB81
:10B2B00003023121A847CAE7206803689D69022379
:10B2C0006A460121A847C2E723680B225A71BEE7EC
:10B2D000206803681B69B7219847042223681A7104
:10B2E0002046FFF7C3FE2046FFF7A8FE012005B069
:10B2F000F0BD0222F2E7002070470020F7E700BF10
:10B30000A0BC030040420F000090D003DCBB030050
:10B310002DE9F04383B098464368002B53D0044690
:10B320000E4617468068002804DB237B53B30121B7
:10B3300007F012FE6368DB7A13F0400F24D1CDF8DA
:10B340000080009B73B32046FFF778FE2046FFF78E
:10B3500086FEF3B2C3F5807302A941F8043D684646
:10B36000FFF7E8FE056820680368D3F824902B46B1
:10B370003A463146C847A8B1009B5B1B00932F4457
:10B380002E44DEE70021D3E72046FFF768FE206861
:10B3900003685D6A43463A463146A8472046FFF7B0
:10B3A00065FE02E0009BA8EB0308A068002804DB10
:10B3B000237B33B1002107F0CFFD404603B0BDE849
:10B3C000F0830121F7E74FF00008F6E7002070470F
:10B3D00001614261704710B504460121007B07F00E
:10B3E00021FD0121207B07F0B7FDA068FDF74EFE8F
:10B3F00010BD10B504468068FDF7EEFD0021207BEE
:10B4000007F010FD10BDF0B583B004460F46036988
:10B41000009301258DF8055000268DF8046002ABDD
:10B4200013E906008068FDF707FE3146207B07F030
:10B4300093FD3946A068FDF743FE2946207B07F0BF
:10B440008BFDA068FDF7CEFD284603B0F0BD2DE9C9
:10B45000F04182B00646884615461C4603690093B3
:10B4600001238DF8053000278DF8047002AB13E935
:10B4700006008068FDF7E0FD3946307B07F06CFD83
:10B480004146B068FDF71CFE671E44B105F1010896
:10B490002978B068FDF714FE3C464546F4E70121E3
:10B4A000307B07F059FDB068FDF79CFD012002B02C
:10B4B000BDE8F0812DE9F04182B006468846154688
:10B4C0001C464369009301238DF8053000278DF851
:10B4D000047002AB13E906008068FDF7ADFD394644
:10B4E000307B07F039FD4146B068FDF7E9FD671E86
:10B4F0004CB105F10108FF21B068FDF7E1FD2870AE
:10B500003C464546F3E70121307B07F025FDB06856
:10B51000FDF768FD012002B0BDE8F08110B4064CD3
:10B52000046003244471047101738260034A426120
:10B5300002615DF8044B7047B0BC030000093D0098
:10B540000379032B04D0042B05D1130E0B700131AA
:10B55000130C0B700131130A0B704A7070472DE900
:10B56000F04184B0044688461746036902930126D9
:10B570008DF80D6000258DF80C5004AB13E9060022
:10B580008068FDF759FD2946207B07F0E5FC009512
:10B590008DF804508DF800803A460DEB06012046E8
:10B5A000FFF7CEFF227932446946A068FDF797FD88
:10B5B0003146207B07F0D0FCA068FDF713FD304634
:10B5C00004B0BDE8F0812DE9F04184B0044688461E
:10B5D00016461F464369029301238DF80D3000255E
:10B5E0008DF80C5004AB13E906008068FDF724FDCC
:10B5F0002946207B07F0B0FC0095ADF80450637934
:10B600008DF8003042460DF101012046FFF798FF0A
:10B61000227963790B2B18D000231A44D2B201325D
:10B62000D2B26946A068FDF75AFD3A463146A06895
:10B63000FDF755FD0121207B07F08EFCA068FDF78A
:10B64000D1FC012004B0BDE8F0810123E5E72DE93C
:10B65000F04184B00646884615461C4603690293AD
:10B6600001238DF80D3000278DF80C7004AB13E921
:10B6700006008068FDF7E0FC3946307B07F06CFC83
:10B6800000978DF8047002238DF8003042460DF1CA
:10B6900001013046FFF754FF327901326946B06844
:10B6A000FDF71DFD671E44B105F101082978B0685A
:10B6B000FDF706FD3C464546F4E70121307B07F0E7
:10B6C0004BFCB068FDF78EFC012004B0BDE8F081B2
:10B6D00000F580534FF0FF321A60704700F5805339
:10B6E0001B68B3F1FF3F14D070B505460C1D190B54
:10B6F0002046FFF7C2FC05F580564FF480532A46DA
:10B7000031682046FFF704FE4FF0FF33336001201D
:10B7100070BD012070472DE9F04383B0064688468E
:10B7200015461F460A9B01930BE0009A394606EB2B
:10B7300009000BF0C0FE009B1F44019AD21A01922F
:10B740001D44019B23B325F47F6424F00F04C5F34B
:10B750000B09C9F5805302A941F8083D01A8FFF77C
:10B76000E9FC0368009306F580531B68A342DCD014
:10B7700041463046FFF7B2FF06F580531C604FF498
:10B7800080533246214608F10400FFF7A4FCCCE7C1
:10B79000012003B0BDE8F0830A6803689A4200DB29
:10B7A00070470846FCE72DE9F04F83B089461546FF
:10B7B000984600F580531C68B4F1FF3F3DD0074622
:10B7C000944203D90C9BD3189C4236D204F5805383
:10B7D000AB4232D9641B24D44FF0000BCBF580531D
:10B7E000009326460C9B1B1B02A941F8043D6846AA
:10B7F000FFF7D2FFD0F800A0BCB9524607EB0B010F
:10B8000008EB06000BF057FE54440C9BA3421BD9D7
:10B810001B1B08EB0402291909F10400FFF75BFC6C
:10B8200012E0C4F1000B0024D8E723464246294623
:10B8300009F10400FFF74FFCDFE70C9B4246294665
:10B8400009F10400FFF747FC012003B0BDE8F08FC9
:10B8500000230A2B1AD810B402E001330A2B10D8A7
:10B8600003EB4304A2000B4CA25C8242F5D103EB34
:10B8700043029400074A224452888A42EDD1184676
:10B8800001E04FF0FF305DF8044B70474FF0FF30A0
:10B89000704700BFD8BC030038B50446054B0360B1
:10B8A00045682DB1284607F045FC284606F014FDF2
:10B8B000204638BD64BD030010B50446FFF7ECFF19
:10B8C000204606F009FD204610BD002303724FF00C
:10B8D000FF33C360704700002DE9F04182B0044699
:10B8E0000E4690461F460B4B0360FFF7EEFF3820D5
:10B8F00006F0EEFC0546CDF80480002300930123FA
:10B900003A46314607F0F9FB6560204602B0BDE8D3
:10B91000F08100BF64BD0300F0B587B015461A463C
:10B9200002238DF80C30047A032C21D90B0E8DF8EC
:10B930000D300223022C06D90C0C5E1C06AF3B44D2
:10B9400003F80C4CF3B20F0A5C1C06AE1E4406F85A
:10B950000C7C0233DBB206AE56FA84F404F80C1CFD
:10B960004068009303AB294607F07DFD07B0F0BDAA
:10B970000123DFE7F0B587B003248DF80C40057A8A
:10B98000A54223D90C0E8DF80D400224022D06D9B4
:10B990000D0C661C06AF3C4404F80C5CF4B20F0AB4
:10B9A000651C06AE264406F80C7C023406AE56FA38
:10B9B00085F505F80C1C4068FF21019100931346A2
:10B9C000E2B203A907F072FD07B0F0BD0124DDE784
:10B9D00030B585B00D4614469F238DF80F3004AB6B
:10B9E000002243F8082D4068FF22019204220092B1
:10B9F00001220DF10F0107F059FD034668B19DF8D2
:10BA000009207F2A0CD09DF808202A709DF8091083
:10BA10009DF80A2002EB01222280184605B030BDB5
:10BA20009DF808202A709DF80A109DF80B2002EB63
:10BA300001222280F1E701727047000030B583B027
:10BA40000446406807F07EFB054610B9284603B05F
:10BA500030BD01AA0DF107012046FFF7B9FFBDF87F
:10BA600004109DF80700FFF7F3FEE060B0F1FF3F20
:10BA700012D000EB40008200084B13445B68B3F522
:10BA8000803F04D802212046FFF7D5FFDEE70321DF
:10BA90002046FFF7D0FFD9E70025D7E7D8BC030041
:10BAA000C368B3F1FF3F17D0024603EB430399008D
:10BAB0000A4B0B44187A00B9704700B585B004A949
:10BAC000B92301F8013D506800230093012207F0DB
:10BAD000CAFC05B05DF804FB00207047D8BC030029
