:020000022000DC
:106000000000012099040300D9040300810D03005E
:10601000DD040300DF040300E104030000000000CE
:106020000000000000000000000000001504030054
:10603000E50403000000000035040300E904030048
:10604000EB040300EB04030089E70200EB04030008
:10605000EB040300EB04030005E80200EB0403007B
:10606000EB040300EB040300EB040300EB04030068
:10607000EB040300EB040300EB040300EB04030058
:10608000EB04030095010300EB040300EB040300A1
:10609000EB040300EB0403006DC50200EB040300F6
:1060A000EB040300EB040300EB040300EB04030028
:1060B000EB040300EB0403000000000000000000FC
:1060C000EB040300EB040300EB040300EB04030008
:1060D000EB040300EB040300EB04030000000000EA
:1060E00000000000000000000000000000000000B0
:1060F00000000000000000000000000000000000A0
:10610000000000000000000000000000000000008F
:10611000000000000000000000000000000000007F
:10612000000000000000000000000000000000006F
:10613000000000000000000000000000000000005F
:10614000000000000000000000000000000000004F
:10615000000000000000000000000000000000003F
:10616000000000000000000000000000000000002F
:10617000000000000000000000000000000000001F
:10618000000000000000000000000000000000000F
:1061900000000000000000000000000000000000FF
:1061A00000000000000000000000000000000000EF
:1061B00000000000000000000000000000000000DF
:1061C00000000000000000000000000000000000CF
:1061D00000000000000000000000000000000000BF
:1061E00000000000000000000000000000000000AF
:1061F000000000000000000000000000000000009F
:1062000010B5054C237833B9044B13B10448AFF3F0
:1062100000800123237010BD6038002000000000C2
:10622000FCBE030008B5034B1BB103490348AFF3A1
:10623000008008BD0000000064380020FCBE0300A0
:10624000154B002B08BF134B9D46A3F5803A002148
:106250008B460F461348144A121A0FF0EEF90F4BF3
:10626000002B00D098470E4B002B00D09847002001
:10627000002104000D000D48002802D00C48AFF3A7
:1062800000800FF05DF9200029000AF02FF90FF0CF
:1062900031F900BF000008000000012000000000EC
:1062A00000000000603800208C5E0020000000002C
:1062B0000000000030B58FB0044600F5E8752846B0
:1062C00000F08AFB284610F011F982B2294604F149
:1062D000180004F0A7FB04F5F075284600F08EFBCB
:1062E000284610F003F982B2294604F1700004F048
:1062F00099FB00F06BFB014604F1C80004F0E4FBDD
:1063000000F05EFB014604F5907004F0C5FB01A8A7
:1063100000F0FAFB342201A904F5BC7004F082FB02
:106320000FB030BD2DE9F04FB1B00646564C2146B6
:1063300004A805F0DDFB04A9304605F021FB04A804
:1063400005F03BFB3746514B47F8183B214608A860
:1063500005F0CEFB08A9384604F00CFB08A805F0B0
:106360002CFB06F1700B21460CA805F0C1FB0CA913
:10637000584604F0FFFA0CA805F01FFB06F1C80A06
:10638000214610A805F0B4FB10A9504604F0F2FA1B
:1063900010A805F012FB06F59079214614A805F027
:1063A000A7FB14A9484604F0E5FA14A805F005FB7C
:1063B00006F5BC78214618A805F09AFB18A94046B6
:1063C00004F0D8FA18A805F0F8FA6D4694E80F0022
:1063D00085E80F0002238DF80C3029461CA805F033
:1063E00087FB1CA9384604F0D9FA1CA805F0E5FA89
:1063F00094E80F0085E80F0003238DF80C30294640
:1064000020A805F075FB20A9584604F0C7FA20A87B
:1064100005F0D3FA94E80F0085E80F0004238DF807
:106420000C30294624A805F063FB24A9504604F04B
:10643000B5FA24A805F0C1FA94E80F0085E80F002A
:1064400005238DF80C30294628A805F051FB28A912
:10645000484604F0A3FA28A805F0AFFA94E80F0024
:1064600085E80F0006238DF80C3029462CA805F08E
:106470003FFB2CA9404604F091FA2CA805F09DFAA8
:10648000304631B0BDE8F08FCC85030014860300A0
:10649000012800D070474FF6FF739942FAD110B52A
:1064A000044C2046FFF73EFF034A044920460EF005
:1064B000FFF910BD7C38002000360020FD66020088
:1064C00008B54FF6FF710120FFF7E2FF08BD00009D
:1064D00070B5054605F010FA002875D105F11804CD
:1064E0000221204604F064FA00221121204604F023
:1064F00074FA1021204604F05EFA0021204604F0D0
:106500005CFA204604F0CCF80446002876D105F168
:1065100070040221204604F04BFA0022112120468B
:1065200004F05BFA1821204604F045FA00212046C9
:1065300004F043FA204604F0B3F80446002875D16D
:1065400005F1C8040221204604F032FA002211218C
:10655000204604F042FA0421204604F02EFA204698
:1065600004F09EF80446002878D105F590740221C5
:10657000204604F01DFA00221121204604F02DFAD5
:106580000121204604F019FA204604F089F8044657
:1065900000287BD105F5BC740221204604F008FADE
:1065A00000221121204604F018FA3421204604F07C
:1065B00004FA204604F074F8044600287ED12846E8
:1065C000FFF778FE002411E004463A224749484884
:1065D0000FF08CFE20460AF005FC48B120460AF078
:1065E00001FC0FF083FE43480FF008FF204670BD0A
:1065F0002246214640480FF079FEF4E741223B490C
:106600003B480FF073FE20460AF0ECFB40B12046F9
:106610000AF0E8FB0FF06AFE36480FF0EFFEE5E700
:106620002246214634480FF061FEF5E748222F4903
:106630002F480FF05BFE20460AF0D4FB40B1204605
:106640000AF0D0FB0FF052FE2A480FF0D7FECDE73C
:106650002246214628480FF049FEF5E74E222349FD
:1066600023480FF043FE20460AF0BCFB40B1204611
:106670000AF0B8FB0FF03AFE1E480FF0BFFEB5E778
:10668000224621461C480FF031FEF5E754221749F7
:1066900017480FF02BFE20460AF0A4FB40B120461D
:1066A0000AF0A0FB0FF022FE12480FF0A7FE9DE7B4
:1066B0002246214610480FF019FEF5E75A220B49F1
:1066C0000B480FF013FE20460AF08CFB40B1204629
:1066D0000AF088FB0FF00AFE06480FF08FFE85E7F0
:1066E0002246214604480FF001FEF5E7208603000C
:1066F000DC85030008860300FC85030010B5044612
:106700000E4B036000F5BC7003F08CFE04F5907036
:1067100003F088FE04F1C80003F084FE04F1700069
:1067200003F080FE04F1180003F07CFE2046044BC9
:1067300040F8083B05F041F9204610BD14860300DF
:10674000009A030070B5054600240460446084602C
:10675000C460046144618461C4610462446284620F
:10676000282221462C300EF068FF2426324621468E
:1067700005F154000EF061FF3246214605F1780024
:106780000EF05BFF85F89C4085F89D4085F89E40A3
:10679000284670BD012800D0704708B54FF6FF733A
:1067A000994200D008BD0248FFF7CCFFFAE700BFCE
:1067B000783A00200A6803689A4200D37047084676
:1067C000FCE708B54FF6FF710120FFF7E3FF08BDB6
:1067D00070B400264FF0FF3200E001368E420CD23A
:1067E000835D5A400024072CF7DC42F30005044B7C
:1067F0002B4083EA52020134F5E7D04370BC704766
:106800002083B8ED4FF08042D2F800344FF0FF31D2
:10681000C2F8001413F0010F12D113F0020F11D1BE
:1068200013F0040F10D113F0080F0FD113F4803FB1
:106830000ED113F4802F01D1012070474020704702
:1068400002207047042070470820704710207047CE
:106850002020704770B58EB0342301AAC0211248A1
:1068600000F041FE044678B1104E344601AD0FCD24
:106870000FC40FCD0FC40FCD0FC42B682360326837
:106880000B4B9A4203D0002420460EB070BD346BEF
:106890000023336330213046FFF79AFF346384428C
:1068A00014BF00240124EFE7603E00201C3B0020C1
:1068B000474C424410B5074C2E220021A01D0EF07B
:1068C000BCFE054B236001232371202363716323E6
:1068D000A37110BD1C3B0020474C424410B5074C2F
:1068E0000023236330212046FFF772FF2063342307
:1068F0002246C021024800F007FE10BD1C3B0020CC
:10690000603E002038B5114B1B7803B938BD0546F1
:106910000F4CA07207F0BBFF0E4BA3FB00239B099B
:10692000A36123690133236194F82830E21882F8C7
:10693000205001335A4203F0070302F0070258BF08
:10694000534284F82830FFF7C9FFDFE7183B0020E7
:106950001C3B0020D34D6210164B1B7803B17047CF
:1069600010B5FFF777FFE8B1134C6323A371002341
:10697000E371237220236371FFF744FF60720428E0
:1069800013D00D4CE3680133E36007F080FF0B4B3D
:10699000A3FB003080096061FFF7A0FF054B0122D7
:1069A0001A7010BDFFF786FFDEE70720FFF7AAFF8A
:1069B000E7E700BF183B00201C3B0020D34D6210CE
:1069C000014B987A704700BF1C3B0020014BD868F0
:1069D000704700BF1C3B002010B582B0044605493B
:1069E0008A79CB79097A009103490FF01FFD20467F
:1069F00002B010BD1C3B00205086030030B404469A
:106A0000274B5B79212B46D8DFE803F01118454569
:106A10004545454545454545454545451E2745456B
:106A2000454545454545454545454545313C1D4B55
:106A300003CB20606160204630BC70471A4B186859
:106A400020609B88A380F6E7184D0FCD2060616021
:106A5000A260E36028682061EDE7154B07CB20605A
:106A60006160A2601A889B78A281A373E3E7114D4D
:106A70000FCD20606160A260E3602A88AB7822823B
:106A8000A374D8E70C4D0FCD20606160A260E36075
:106A90002B882382CFE7094B03CB20606160CAE7D4
:106AA0001C3B00205C860300648603006C860300A8
:106AB0008086030090860300A4860300B886030046
:106AC00008B5054B1B7803B908BD044B002283F8B9
:106AD0002920FFF703FFF7E7183B00201C3B0020AD
:106AE00008B5074B1B7803B908BD064A92F82A304F
:106AF000013382F82A300B20FFF704FFF4E700BFD0
:106B0000183B00201C3B0020F0B4094E044606F15F
:106B1000300735460FCD20606160A260E3602E46ED
:106B20001034BD42F5D128682060F0BC704700BF2A
:106B30001C3B00200B4601383F2856D8DFE800F008
:106B40002028552F55555536555555555555553FB2
:106B500055555555555555555555555555555547F3
:106B600055555555555555555555555555555555D5
:106B70005555555555555555555555555555554ECC
:106B80001C4A03CA1860596012781A721846704776
:106B9000194A03CA1860596012881A81F6E7174A21
:106BA00003CA1860596012781A72EFE7144A03CAD0
:106BB000186059601188927819819A72E6E7114A33
:106BC000106808609188927999809A71DEE70E4A80
:106BD00003CA1860596012881A81D7E70B4A03CAA2
:106BE0001860596012781A72D0E7094A03CA18600F
:106BF0005960CBE7C0860300CC860300D88603002B
:106C0000E4860300F0860300F8860300048703008F
:106C1000B88603007047000070B400264FF0FF32C2
:106C200000E001368E420CD2835D5A400024072CCE
:106C3000F7DC42F30005044B2B4083EA5202013497
:106C4000F5E7D04370BC70472083B8ED02780B782D
:106C50009A4201D00020704742784B789A4201D086
:106C60000020704782788B789A4201D000207047CC
:106C70000120704701230370437000238370C370A9
:106C80007047000038B54FF48073104A0021104857
:106C900002F0A1FCB8B10D4B1A680E4B9A4201D01C
:106CA000002011E0094DD5F8FC400023C5F8FC3068
:106CB000FC212846FFF7B0FFC5F8FC40844214BF12
:106CC0000020012000E0002038BD00BF8C3B0020E8
:106CD000783B00204142574610B5054CFC2200216C
:106CE000201D0EF0AAFC034B23600223237110BD6C
:106CF0008C3B00204142574638B50E4C0025C4F865
:106D0000FC50FC212046FFF787FFC4F8FC00294611
:106D1000094802F032FC034608B9184638BD4FF462
:106D2000807322462946044802F072FD431B18BFB7
:106D30000123F2E78C3B0020783B0020012800D0A3
:106D4000704738B54FF6FF73994200D038BD094DF2
:106D5000094A0C21284602F061FE084C012229460E
:106D6000204602F059FB064A064920460DF0A0FDD8
:106D7000ECE700BF543B0020703E0020743B002035
:106D800000360020156C020010B5044609F012FC14
:106D9000204610BD38B51D4B1C780CB1204638BDBF
:106DA00000F092FA01220021194802F049FB044642
:106DB00008B3184802F090FB02461749174807F03D
:106DC00003FAFFF75FFF48B91549144807F0F2F9D5
:106DD000FFF782FFFFF790FF054688B1114B5A7904
:106DE00093F82C30413210490C4807F0EDF9074B6D
:106DF00001221A70D2E70D49084807F0DBF9CDE708
:106E00000B49064807F0D6F92C46C7E7503B00204F
:106E1000743B0020783B0020FC870300B842002030
:106E2000208803008C3B002070880300DC8703006F
:106E30004C88030008B50E4B1B78A3B10D4B002204
:106E40001A700D4B5B797BB90B4B01229A710A4B7F
:106E500000221A629A62FFF74FFF0849084807F0BC
:106E6000A9F9FFF72DFE08BD034B0122DA71EEE709
:106E7000503B0020703B00208C3B0020D889030051
:106E8000B842002008B50F4B1B7803B908BD07F0C6
:106E9000FEFC0D4B18600D4B01221A700C4B5B79F8
:106EA0005BB90B4B02229A71094B9862FFF724FFE2
:106EB0000849094807F07EF9E8E7054B0222DA7134
:106EC000F2E700BF503B00206C3B0020703B0020ED
:106ED0008C3B0020B4890300B8420020074B18788F
:106EE00040B1074B5B7933B9054B9879022814BF41
:106EF000002001207047024BD879F7E7503B002073
:106F00008C3B00206F4B1B78002B00F0D9802DE9C3
:106F1000F047C0B06C4B5A79BAB94FF48077BAB920
:106F2000694B9E68BAB9684BD3F81080334641323A
:106F30006649674807F048F9721E664B9A420ED8B8
:106F40004FF0FF344FF0000926E04FF40027E6E74A
:106F50005D4BDE68E6E75C4BD3F81480E6E75E49FC
:106F60005B4807F027F93CE04A465C49584807F07F
:106F70002BF936E00130A8420DD21DF800305C40FC
:106F80000022072AF6DC44F30001554B0B4083EA4C
:106F900054040132F5E7A944B1451AD2A6EB09051C
:106FA000B5F5807F28BF4FF4807505F10F0A2AF0F0
:106FB0000F0A53466A4609EB07014A4802F00BFBE9
:106FC0000028D1D04A465146684600F021FA0020F8
:106FD000D1E7E343984508D0424643493C4807F08F
:106FE000F3F8002040B0BDE8F0874049384807F08A
:106FF000E1F872B606F6FF72120B3D4B02211960E2
:107000003C4B1B68002BFBD0002393420AD203F1B8
:107010002601090338480160364909680029FBD078
:107020000133F2E7324B01221A60324B1B68002B0E
:10703000FBD00024B44227D2351BB5F5807F28BF92
:107040004FF4807505F10F0828F00F0843466A4693
:10705000E119244802F0BFFA22464146684600F092
:10706000D7F904F51831EA1C92080023934209D29B
:107070005DF8230041F823001E4800680028FBD07B
:107080000133F3E72C44D5E7194B00221A60194B62
:107090001B68002BFBD062B618490D4807F08AF830
:1070A000642007F00EFCBFF34F8F1549CA6802F445
:1070B000E062144B1343CB60BFF34F8F00BFFDE77B
:1070C00000207047503B00208C3B0020A08803002C
:1070D000B8420020FFFE0700D0880300F0880300BC
:1070E0002083B8ED783B0020188903005089030005
:1070F00004E5014000E4014008E5014088890300FF
:1071000000ED00E00400FA05F0B587B0404B1C78B4
:1071100014B9204607B0F0BD05A8FFF7ABFD3D4B05
:1071200093F820603EB993F8213023B9394B93F896
:107130002230002B6AD0384905A8FFF787FD0746A3
:1071400060BB9DF814209DF815309DF81610314D48
:1071500095F8210095F822C0CDF80CC00290019658
:1071600000912E492E4807F02FF82B6A6B620023FE
:107170002B626B79C3F1010313F0FF051BD1254B83
:107180009B79012B1AD02749254807F013F80B20CB
:10719000FFF7B8FBFFF7B0FD3C46BAE79DF81420B7
:1071A0009DF815309DF8161000911F491C4807F0F6
:1071B0000BF80024ADE7174BDB79E2E7154B93F8AA
:1071C0002C20013283F82C205D71FFF795FD05F12D
:1071D000410295B90F4B1B7E95B90E49497E95B971
:1071E0000C48807E0190009110490D4806F0ECFF9C
:1071F000FFF776FCFFF786FE8BE7064B1B7FEBE77E
:107200000449497FEBE70348807FEBE7002480E7F0
:10721000503B00208C3B0020AC3B0020408703000B
:10722000B84200208487030010870300AC87030066
:1072300010B5054B1C7824B14FF4807203490EF051
:10724000D8F9204610BD00BF503B00208C3B0020E9
:1072500008B54FF6FF710120FFF770FD08BD000073
:1072600070B5AAB028AE304600F00DFA1EAC144D31
:107270000FCD0FC495E80F0084E80F0026AB96E809
:10728000030083E80300684601F006FD684601F04C
:10729000B3FC28221EA9684601F0EAFD2022094914
:1072A000684601F019FE282200211EA80EF0C5F93B
:1072B000002328937360684601F0CAFC2AB070BDB1
:1072C000248A0300903C002008B5054B1B7803B1CD
:1072D00008BDFFF7C5FF024B01221A70F8E700BF97
:1072E0008C3C0020F0B5B1B007460E4627AC1B4DD4
:1072F0000FCD0FC495E80F0084E80F003B0E8DF80A
:10730000BC303B0C8DF8BD303B0A8DF8BE308DF89B
:10731000BF70684601F0C0FC684601F06DFC242295
:1073200027A9684601F0A4FD20221FA9684601F0A4
:10733000D3FD1FAC0FCC30607160B260F3602422CB
:10734000002127A80EF079F9202200211FA80EF0B5
:1073500074F9684601F07CFC31B0F0BD903C00202F
:1073600010B50446044B40F82C3B00F09DFD204630
:1073700001F010F9204610BD008A03002DE9F0410C
:10738000CEB0204C24782CB1002838D011F00F0F4B
:1073900004D0002420464EB0BDE8F0818846054662
:1073A0004AA91046FFF79EFF684601F033F9164ED2
:1073B00000960BAF384600F00FFE019720221349CC
:1073C000684601F08EF810224AA9684601F013F9C8
:1073D0000421684601F030F943462A4629466846AA
:1073E00001F092F800234A934B934C934D930096EF
:1073F000384600F059FD684601F0CCF8CAE7002491
:10740000C8E700BF8C3C0020008A0300903C0020AD
:1074100008B5FFF7B3FF08BD10B50446064B40F8AA
:107420002C3B00F041FD204601F0B4F8204609F065
:10743000C1F8204610BD00BF008A0300012800D01B
:10744000704738B54FF6FF73994200D038BD094CEC
:10745000204601F047FB2546074B45F8783B284678
:1074600000F010FD6560054A054920460DF020FA40
:10747000ECE700BFB03C00204C8A0300003600203F
:107480009574020008B54FF6FF710120FFF7D6FF93
:1074900008BD000010B50446044B40F8783B00F0EE
:1074A0008FFC204601F006F9204610BD4C8A0300EF
:1074B00010B50446064B40F8783B00F081FC2046AE
:1074C00001F0F8F8204609F075F8204610BD00BF1D
:1074D0004C8A0300017000224270426002814281A6
:1074E0008281C281704710B50446407830B160682F
:1074F00040B1CC18B4F5005F01DD002010BD02F0F2
:10750000B9FCFBE70020F9E710B50446407830B13C
:10751000606840B1CC18B4F5005F01DD002010BDFB
:1075200002F07AFCFBE70020F9E700B58BB0028996
:10753000ADF804204289ADF806208289ADF8082014
:10754000C389ADF80A30002303930493059306938F
:1075500007930893ADF82430222301AA4021FFF7B6
:10756000D3FF0BB05DF804FB30B58BB0044622238B
:1075700001AA4021FFF7B7FFBDF804303E2B03D826
:10758000BDF806203E2A0DD9002323816381A38103
:10759000E3812046FFF7C9FF0C490D4806F00AFEBB
:1075A0000BB030BD23816281BDF80830A381BDF8E6
:1075B0000A30E381064D0749284606F0DBFD0A2222
:1075C000A189284606F068FEEAE700BF808A03002A
:1075D000B8420020A08A030030B583B004461020D2
:1075E00008F0E4FF05461B4B1B4A94F9001002F01B
:1075F000F3FB65609DB10221284602F09FFC054621
:1076000090B91649164806F0D5FD606810B10368B8
:107610005B68984700236360284603B030BD11497A
:107620000F4806F0C7FDF7E701AA0DF107016068F2
:1076300002F04EFC28B92046FFF796FF0123637045
:10764000EAE7BDF804309DF807200749044806F032
:10765000BBFDF0E700127A00703E0020EC8A0300C8
:10766000B8420020C48A0300088B03004DF804BD13
:107670004FF08053186E596E002242EA000B5846B4
:107680005DF804BB7047034688B14FF080510A6E25
:10769000496E080E1870080C5870080A9870D97056
:1076A000110E1971110C5971110A9971DA71704723
:1076B00070470000012800D070474FF6FF739942D1
:1076C000FAD110B50B210648FFF704FF054C204600
:1076D00005F0DCFB044A054920460DF0E9F810BD31
:1076E000603E0020F03D002000360020197A0200A4
:1076F000F8B505460E461746002400E00134AC42BA
:1077000013DA0021112009F0C5FC304607F0D9F842
:107710000121112009F0BEFC6B1EA342EEDD002FFB
:10772000ECDD384607F0CDF8E8E7F8BD08B507F01E
:10773000AEF8174B1B68C01AB0F5FA6F0CD207F001
:10774000A6F8144B1B68C01A42F20F7398420DD86A
:107750000A2007F0B6F808BD07F099F80C4B18603E
:107760000022C8210120FFF7C3FFE8E707F08FF8E8
:10777000084B186007F08BF8074AA2FB0032920909
:107780000649074806F020FD0648FEF793FDDFE7AF
:10779000E83D0020EC3D0020D34D6210D88D030061
:1077A000B84200207C38002008B5FFF7BFFF08BDB5
:1077B00008B54FF6FF710120FFF77CFF08BD000000
:1077C000F0B5D1B04FF4E131744806F0CAFD734B07
:1077D00093F8A3302BB907F05AF840F6B733984224
:1077E000F5D96E4C6E49204606F0E4FC6D49204602
:1077F00006F0E0FC6C49204606F0DCFC6B492046B4
:1078000006F0D8FC6A49204606F0D4FC69492046B7
:1078100006F0D0FCFFF72AFF02460B4666492046D9
:1078200006F0D2FC0121112009F09AFB012114205D
:1078300009F096FB0121112009F02CFC01211420F4
:1078400009F028FC5D4800F0ABF95D48FFF7C4FE85
:10785000B8B1FFF79FFA40B35A49504806F0AAFC66
:10786000FFF752FC90B96846FFF7E2FC98B9FFF7C2
:1078700035FBF0B15449494806F09CFCFFF702FB88
:1078800017E05249204606F095FCE2E7504943488C
:1078900006F090FCE7E79DF805209DF82C3041327A
:1078A0004C493E4806F090FCE1E74B493B4806F066
:1078B00081FCFFF751F8FFF789F8384D0246474938
:1078C000284606F081FC4CA8FFF786F8024644499A
:1078D000284606F079FC46A8FFF790F80246414991
:1078E000284606F071FC40A90020FFF723F9024664
:1078F0003D49284606F068FC3C4C00220121204608
:1079000004F038FA0421204604F0BAFD3849204634
:1079100004F072FD374F384605F0DEFA364E304639
:10792000FEF7D6FD04F522740621204602F0FAFB8C
:10793000204602F0E5FB204602F0BEFB3946204619
:1079400002F0A4FB3146204602F0A0FB01212046B4
:1079500002F01AFCA0221146204602F011FC1E2162
:10796000204602F00BFC0021204602F0D7FC234900
:10797000284606F01FFC2249284606F01BFC214938
:10798000284606F017FCFFF755FAFFF799F81E494D
:10799000284606F00FFC51B0F0BD00BFB8420020F1
:1079A000388B0300648B03008C8B0300B88B0300BF
:1079B000D88B0300FC8B0300288C0300703E002052
:1079C000603E0020508C0300888C03003C8C030038
:1079D000688C030070880300B88C0300D08C03000F
:1079E000E48C0300FC8C03000C8D0300DC3E0020C3
:1079F0001C8D0300F03D00207C380020308D0300FA
:107A00004C8D0300808D0300A88D030008B5FFF79F
:107A10004FFEFFF7D5FE08BD10B50446064B40F8F3
:107A2000183B02F0FFFC2046044B40F8083B03F0F3
:107A3000C4FF204610BD00BF889E0300009A0300CB
:107A4000022805D0032805D0012805D00020704762
:107A500004207047062070470220704710B50024AC
:107A6000447481B181600B4951F82220027351F8AE
:107A7000233083739DF8083051F82330437300237B
:107A8000C373037410BD044B044A452104480DF030
:107A9000FFFC00BF4CA203000C8E0300808E03008D
:107AA0001C8E0300012800D070474FF6FF739942E7
:107AB000FAD100B583B0094B094A1A6001225A7104
:107AC00000221A710D2300930C230E22054906484B
:107AD000FFF7C4FF03B05DF804FB00BF843E002045
:107AE00000093D0000300240703E00208268002303
:107AF000C2F800354374704783680022C3F800253C
:107B00007047B1F5007F0FD2FF2913D87F2914D811
:107B10003F2915D81F2916D80F2902D84FF0004247
:107B200004E04FF0804201E04FF000728368C3F838
:107B3000242570474FF08062F8E74FF00062F5E7C8
:107B40004FF08052F2E74FF00052EFE730B583B0CC
:107B5000044602AB03E9060083680022C3F800254F
:107B60009DF8055015F1FF3518BF012505749DF8E6
:107B70000400E073FFF764FFA3682843C3F85405CB
:107B8000009B0649B1FBF3F12046FFF7BAFFA3685B
:107B90000122C3F8002503B030BD00BF0090D00320
:107BA00008B5437C03B108BD012343748368827B1D
:107BB000C3F808258368427BC3F80C258368027BE1
:107BC000C3F81025024B93E80600FFF7BFFFEAE772
:107BD000843E00208368C3F81C158368D3F808210D
:107BE000002AFAD0D3F818050022C3F80821C0B241
:107BF0007047F8B507460D4616460024B44206D233
:107C0000295D3846FFF7E6FF28550134F6E7F8BD51
:107C100008B54FF6FF710120FFF744FF08BD0020B3
:107C2000704710B582B002AB03F8011D02685468BA
:107C300001221946A04702B010BD704710B5044696
:107C4000002141604FF47A7383600C4B03600C4B4E
:107C500003610123437501750A4B83610A23C361E4
:107C600009230362022343628162C16201634163AB
:107C7000816306F071FB204610BD00BFC88E030073
:107C800000127A00703E0020012800D0704708B52D
:107C90004FF6FF73994200D008BD0248FFF7CEFFB0
:107CA000FAE700BF8C3E002070B504460E4615462C
:107CB0000021C06909F0EEF904F1100393E8060011
:107CC000A069FFF743FF3146A069FFF783FF29460C
:107CD000A069FFF77FFF0546A069FFF70DFF0121AF
:107CE000E06909F0D7F9284670BD08B5002201F017
:107CF0007F01FFF7D9FF08BD10B504461321FFF738
:107D0000F4FFE36AC01A10BD10B5044603681B698E
:107D1000984738B1E36A0133E36200212046FFF758
:107D2000E4FF10BD4FF0FF30FBE708B541F08001E4
:107D3000FFF7BAFF08BD2DE9F04106460F4615468C
:107D40002221FFF7D2FF80464319FF2B01D9C0F152
:107D5000FF050024A54206D93A5D00213046FFF711
:107D6000E4FF0134F6E708EB0502D2B222213046E7
:107D7000FFF7DBFF2846BDE8F08170B504460368D5
:107D80001B69984780B10D212046FFF7AEFF0646DC
:107D900000212046FFF7A9FF054632460D21204667
:107DA000FFF7C3FF284670BD4FF0FF30FBE708B573
:107DB0004FF6FF710120FFF767FF08BD10207047E5
:107DC00010B50446054B40F80C3BB02100F047FCD1
:107DD000204600F029F9204610BD00BFEC8E0300BC
:107DE00010B50446FFF7ECFF204608F0E3FB204601
:107DF00010BD102A01D00020704770B500F10C04AE
:107E00000E684D688A68CB68C6606560A260E360F2
:107E10000423102501261EE0324604F10C0104F172
:107E2000100000F027FB237C227853402374637CEE
:107E3000627853406374A37CA2785340A374E37CBC
:107E4000E2785340E3740136F6B20023043404357B
:107E5000EDB20133DBB2AF2D12D8042BDCD0227B84
:107E600021784A402274627B61784A406274A27B26
:107E7000A1784A40A274E27BE1784A40E274E5E7E7
:107E8000012070BD10B5044600F0C0F8044B23601B
:107E90000A23237104F10C03A360204610BD00BF28
:107EA000EC8E03002020704710B50446054B40F8C7
:107EB0000C3BF02100F0D3FB204600F0B5F8204643
:107EC00010BD00BF148F030010B50446FFF7ECFF90
:107ED000204608F06FFB204610BD202A01D000206C
:107EE0007047F8B500F10C040E684D688A68CB68DD
:107EF000C6606560A260E3600E694D698A69CB69FE
:107F000026616561A261E36108252026012726E03C
:107F10003A4604F11C0104F1200000F0ABFA94F899
:107F200020302278534084F8203094F82130627851
:107F3000534084F8213094F82230A278534084F8DA
:107F4000223094F82330E278534084F8233001370C
:107F5000FFB2002504340436F6B20135EDB2EF2E3F
:107F600037D8082DD4D0042D14D0237F2278534045
:107F700084F82030637F6278534084F82130A37FF7
:107F8000A278534084F82230E37FE278534084F8AB
:107F90002330DFE704F11C0104F1200000F082FA35
:107FA00094F820302278534084F8203094F821301F
:107FB0006278534084F8213094F82230A2785340FC
:107FC00084F8223094F82330E278534084F8233048
:107FD000C0E70120F8BD000010B5044600F016F817
:107FE000044B23600E23237104F10C03A36020468D
:107FF00010BD00BF148F03001020704708B5017931
:1080000001310901806800F02AFB08BD10B5044663
:1080100000F058FA034B236000232371A36020462D
:1080200010BD00BF4491030010B50446024B03602D
:1080300000F04EFA204610BD449103000A78184B18
:108040009A5C02704A799A5C42708A7A9A5C827071
:10805000CA7B9A5CC2700A799A5C02714A7A9A5C0D
:1080600042718A7B9A5C8271CA789A5CC2710A7A80
:108070009A5C02724A7B9A5C42728A789A5C82723B
:10808000CA799A5CC2720A7B9A5C02734A789A5CDB
:1080900042738A799A5C8273CA7A9B5CC373704715
:1080A0003C9003000A78184B9A5C02704A7B9A5CF9
:1080B00042708A7A9A5C8270CA799A5CC2700A7934
:1080C0009A5C02714A789A5C42718A7B9A5C8271EE
:1080D000CA7A9A5CC2710A7A9A5C02724A799A5C8C
:1080E00042728A789A5C8272CA7B9A5CC2720A7BFC
:1080F0009A5C02734A7A9A5C42738A799A5C8273B8
:10810000CA789B5CC3737047348F03002DE9F0413C
:108110000B784D788C78CF785A00D6B21212510075
:108120000A4402EBC20256406900CAB209124FEA81
:10813000410C614401EBC1014A4061005FFA81FCDE
:1081400009124FEA410E714401EBC1018CEA010CA6
:108150004FEA470E5FFA8EF84FEA2E2E4FEA4E0195
:10816000714401EBC10188EA010186EA020E8EEA40
:10817000050E8EEA040E8EEA070E80F800E05A40E3
:1081800082EA0C0262407A40427083EA050282EA87
:108190000C0C8CEA010C8CEA0707877073406B406B
:1081A00063404B40C370BDE8F08170B588B00E46A7
:1081B000846800230F2B09D8D15CE55C694008ADC9
:1081C0001D4405F8101C0133DBB2F3E710340579C8
:1081D00002E01034013DEDB2012D21D904A9684619
:1081E000FFF72CFF694604A8FFF790FF01A905A837
:1081F000FFF78CFF02A906A8FFF788FF03A907A8CD
:10820000FFF784FF00230F2BE3D808AAD11811F839
:10821000102CE05C424001F8102C0133DBB2F2E795
:1082200004A96846FFF70AFF00230F2B09D808AA04
:108230001A4412F8202CE15C4A40F2540133DBB2BC
:10824000F3E708B070BD00002DE9F04F87B091F85A
:10825000008091F801E091F802C091F803901FFAB4
:1082600088F56B00DEB21B125A00134403EBC30304
:1082700086EA030101911FFA8EFB4FEA4B03DAB243
:108280001B1259000B4403EBC303534002931FFA24
:108290008CF463005FFA83FA1B125A00134403EB59
:1082A000C3038AEA030204921FFA89F25300DFB281
:1082B0001B1259000B4403EBC30387EA0306059620
:1082C000AE00F3B2361240498E5D73404FEA8B0622
:1082D000F7B236128E5D77400397A6005FFA86FAF2
:1082E00036128E5D8AEA060A9600F7B236128E5D65
:1082F0007740ED00EEB22D124D5D6E404FEACB0B94
:108300005FFA8BF54FEA2B2B11F80BB085EA0B05C2
:10831000E4005FFA84FB24120C5D8BEA0404D200B3
:108320005FFA82FB12128A5C8BEA020B7340019A9D
:108330005A406A4002994A4082EA0E02624082EA4A
:108340000A0282EA0C0282EA0B0282EA0902027045
:1083500088EA06026A4003994A4002994A4062400C
:1083600004994A4082EA0C0282EA0B027A4082EACD
:108370000902427083EA08036B4083EA0E036340FC
:1083800083EA0A0A8AEA010A8AEA0B0A059B8AEA50
:10839000030A8AEA090980F8029001994E4086EAA8
:1083A000080888EA050503994D4085EA0E0E8EEA15
:1083B000040484EA0C0C8CEA0B0B8BEA07075F4081
:1083C000C77007B0BDE8F08F3490030070B588B077
:1083D00005460E468468037904EB031400230F2B33
:1083E00009D8D15CE05C414008A8184400F8101C92
:1083F0000133DBB2F3E704A96846FFF753FE2D799A
:1084000015E0694604A8FFF71FFF01A905A8FFF7BB
:108410001BFF02A906A8FFF717FF03A907A8FFF78C
:1084200013FF04A96846FFF73DFE013DEDB2012DA3
:108430000ED9103C00230F2BE3D808AAD11811F84D
:10844000202CE05C424001F8202C0133DBB2F2E743
:1084500000230F2B0BD808AA1A4412F8202CE1187D
:1084600011F8101C4A40F2540133DBB2F1E708B0B6
:1084700070BD000030B44C78084B1C5D084DAA5C00
:10848000544004708A789A5C4270CA789A5C827010
:108490000A789B5CC37030BC704700BF3C900300FF
:1084A000649103000A78064B9A5C02704A789A5CE1
:1084B00042708A789A5C8270CA789B5CC3707047FD
:1084C0003C900300014B0360704700BF78910300AC
:1084D000704708B540680368DB68984708BD1020FE
:1084E000704770B504460D461646406803689B68A1
:1084F0009847102801D0002070BD606803681B6990
:10850000324629469847F7E7F8B504460E46154621
:108510001F46002F37D094F828300F2B19D894F825
:108520002830C3F11003DBB2BB4200D9FBB2FF1A03
:10853000002BEED0297894F82820501C84F82800CD
:108540002244127E4A403270013BDBB201350136D3
:10855000EEE7606803685B6904F1080204F1180142
:108560009847002384F828301023012294F829101A
:108570009942D4D2013BDBB2E118087A02440A7274
:10858000C2F30F22F2E7F8BD10B50468A469A04752
:1085900010BD000010B50446074B40F8083B102101
:1085A00000F05DF8102104F1180000F058F82046A2
:1085B00000F054F8204610BDA091030010B5044609
:1085C00040680368DB699847102104F1080000F057
:1085D00046F8102104F1180000F041F8102384F847
:1085E000283010BD10B50446FFF7D4FF204607F031
:1085F000E1FF204610BD102A01D00020704710B5C1
:10860000044608300CF0F5FF102384F828300120D0
:1086100010BD000010B5044600F01AF8054B2360A9
:1086200000236360102284F8282084F82930204633
:1086300010BD00BFA09103004B1E0F2B05D8C1F148
:10864000100180F8291001207047002070470000B9
:10865000014B0360704700BFCC910300704721B10C
:108660000023037001390130F9E7704730B400246A
:108670003AB103780D786B401C43013A0131013067
:10868000F6E7C4F58074230A14BF0120002030BC33
:10869000704708B540680368DB68984708BD0C2040
:1086A00070471020704708B5406803681B699847F9
:1086B00008BD000010B50446074B40F8303B482188
:1086C000FFF7CDFF04F1080000F02CFA204600F07F
:1086D000E5FC204610BD00BFF891030010B504462C
:1086E000FFF7E8FF204607F065FF204610BD38B5CC
:1086F00090F8703003B138BD15460446083000F0DC
:1087000024FAD4E91823501943F10001C4E91801EF
:10871000F1E72DE9F843064689461546984690F854
:10872000703013B347464C46002F48D096F871304E
:108730000F2B21D896F87120C2F11003DBB2BB4297
:1087400000D9FBB206F1400111441A4486F87120A9
:10875000FF1A002BE8D02A78087842402270013BAB
:10876000DBB2013101340135F3E7083000F01CFAC7
:10877000012386F87030D5E796F83F104A1C86F83A
:108780003F2096F83E3003EB122286F83E2096F802
:108790003D3003EB122386F83D3096F83C2002EB87
:1087A000132386F83C30706803685B6906F1300279
:1087B00006F140019847002386F87130BAE7424637
:1087C000494606F1080000F0C0F9D6E91A2312EB79
:1087D000080043F10001C6E91A01BDE8F883F8B5C5
:1087E00006460D4614461F4690F870306BB33A4665
:1087F000214606F1080000F0A8F9D6E91A23D0199D
:1088000043F10001C6E91A01002F48D096F87130F3
:108810000F2B21D896F87120C2F11003DBB2BB42B6
:1088200000D9FBB206F1400111441A4486F87120C8
:10883000FF1A002BE8D02278087842402A70013BCA
:10884000DBB2013101340135F3E7083000F0ACF957
:10885000012386F87030CAE796F83F104A1C86F864
:108860003F2096F83E3003EB122286F83E2096F821
:108870003D3003EB122386F83D3096F83C2002EBA6
:10888000132386F83C30706803685B6906F1300298
:1088900006F140019847002386F87130BAE7F8BD29
:1088A0002DE9F04385B0044688460C2A68D0174667
:1088B00000F150060025056545658565C56540687C
:1088C00003685B6932463146984704F10803314634
:1088D0001E46184600F02DF93A464146304600F053
:1088E00034F9304600F060F9009501957A0FF900EF
:1088F0000B0A03F47F4343EA1163F90201F47F0199
:108900000B43120643EAC76945EA02004946CDE92E
:10891000020110226946304600F017F9102168461E
:10892000FFF79DFE102204F13001304600F04AF9B5
:1089300000220023C4E91823C4E91A23002384F881
:108940007030102284F8712004F1500523656365AE
:10895000A365E365606803685B692A462946984712
:10896000294604F1080000F0E4F8606803685B69D8
:1089700004F1300229469847012005B0BDE8F08394
:1089800008684968D8F8082020636163A26300235F
:1089900084F83C3084F83D3084F83E30012384F87C
:1089A0003F30C5E72DE9F04F85B0064688461746AB
:1089B00000F10809484600F0F7F8306E736EDA00EF
:1089C00042EA5072C300190A01F47F4141EA13617F
:1089D000C30203F47F031943130A03F47F4343EAFA
:1089E0001263140204F47F04234343EA02634FF04A
:1089F000000A41EAC06B4AEA03005946CDE900018A
:108A0000B56EF36ED90041EA5571EB001A0A02F413
:108A10007F4242EA1362EB0203F47F031A430B0A1C
:108A200003F47F4343EA1163080200F47F00034329
:108A300043EA016342EAC5621146504640EA030038
:108A4000CDE9020110226946484600F07EF8102167
:108A50006846FFF704FE06F1400510222946484605
:108A600000F0B0F854460F2C0AD8331993F8502070
:108A700093F840104A4083F840200134E4B2F2E712
:108A8000102F00D910273A46294640460CF0B1FD78
:108A900005B0BDE8F08F102A01D90020704770B5ED
:108AA00014460D46064656F8303BDB6A1022314626
:108AB0009847224629463046FFF7D8FD70BD10B5CD
:108AC000044640680368DB69984704F1080000F039
:108AD00089F8482104F13000FFF7C1FD102384F824
:108AE000713010BD38B5044600F0CEFA0A4B236051
:108AF0000025656004F1080000F010F80022002352
:108B0000C4E91823C4E91A2384F87050102384F8A8
:108B10007130204638BD00BFF8910300002280F874
:108B20002020704710B504462421FFF798FD204609
:108B300010BD10B5044600F0BBFA00232361636149
:108B4000A361E36184F8203010BDF8B506460C46F9
:108B5000154609E096F820303B44DBB286F8203019
:108B6000ED1B3C44102B17D0EDB196F82010C1F14D
:108B70001007FFB2AF4200D9EFB206F11000014476
:108B800000239F42E6D9CA5C14F803C082EA0C02B3
:108B9000CA540133DBB2F4E7314600F0C8FA0023CF
:108BA00086F82030E0E7F8BD90F8203003B9704730
:108BB00010B504460146103000F0B9FA002384F8DD
:108BC000203010BD70B506460D461446FFF7ECFF89
:108BD000102C00D91024224606F1100128460CF072
:108BE00008FD70BD08B52421FFF739FD08BD202020
:108BF00070474020704700000E4B83600E4BC360EF
:108C00000E4B03610E4B43610E4B83610E4BC361F0
:108C10000E4B036203F17453A3F52303A3F69243AF
:108C20004362002380F8703000220023C0E91A2339
:108C3000704700BF67E6096A85AE67BB72F36E3C9A
:108C40003AF54FA57F520E518C68059BABD9831F17
:108C500010B50446054B40F8083B7021FFF7FFFCB8
:108C6000204600F0E5FA204610BD00BF3492030014
:108C700010B5044670210830FFF7F1FC23681B692A
:108C80002046984710BD10B50446FFF7E1FF204687
:108C900007F090FC204610BD10B5044600F0C2FA63
:108CA000034B23602046FFF7A7FF204610BD00BFFF
:108CB000349203002DE9F04F8BB000240F2C13D811
:108CC00004F10A0550F82520130A03F47F4343EA10
:108CD0001263110201F47F010B4343EA026340F87F
:108CE00025300134E4B2E9E787680397C26804924B
:108CF000046905944169069186690796C5690895D6
:108D0000036A0293436A0993DDF80880A946A446E2
:108D1000964600251C460F2D30D8544B53F825207D
:108D2000224405F10A0350F823301A444FEAF6238F
:108D300083EAB61383EA76631A4406EA090328EA4B
:108D4000060463401A444FEA773383EAB70383EAA1
:108D5000B7548EEA0C033B400EEA0C0A83EA0A037E
:108D6000234401EB020A0135EDB261464446C84690
:108D7000B1465646F446BE46D718CCE70191A34605
:108D80003F2D56D8A5F10F0303F00F030A3350F817
:108D900023A0AB1E03F00F030A3350F8233005F075
:108DA0000F010A3150F82140EA1F02F00F020A3287
:108DB00050F8222014444FEABA4282EAFA1282EAB8
:108DC000DA0214444FEAF34282EA734282EA9323BE
:108DD0001C4440F82140254B53F825305B44234484
:108DE0004FEAF62484EAB61484EA7664234406EA59
:108DF000090B28EA06028BEA020B5B444FEA773242
:108E000082EAB70282EAB7518EEA0C023A400EEAD1
:108E10000C0462400A44019919440135EDB2CDF8C1
:108E200004C0C346C846B1460E46F446BE469F1827
:108E3000A6E75B46039A17448760049A7244C260AF
:108E4000059A62440261019A06990A444261079AAE
:108E500016448661089A4A44C261029A42440262F8
:108E6000099A134443620BB0BDE8F08F5C92030093
:108E70002DE9F04806460F461546510FD000D6E9B9
:108E80001A2312EB000B43EB010CC6E91ABC10E0ED
:108E900006F128002246394618440CF0AAFB96F841
:108EA00070302344DBB286F870302D1B2744402BF2
:108EB00009D07DB196F87030C3F14004E4B2AC4201
:108EC000E6D9ECB2E4E73046FFF7F4FE002386F87B
:108ED0007030EEE7BDE8F088F8B504460F46164658
:108EE00000F1280590F87030372B3FD88022EA54E3
:108EF00090F87020501CC2F13702002128440CF079
:108F00009CFBA16EE36E1A0A02F47F4242EA1362EE
:108F1000180200F47F00024342EA036222660B0A51
:108F200003F47F4343EA11630A0202F47F0213430E
:108F300043EA016363662046FFF7BCFE0022072A6E
:108F400045D8931C54F823100B0A03F47F4343EADB
:108F50001163080200F47F00034343EA016302F156
:108F60000A0144F821300132D2B2E8E78022EA5403
:108F700090F87020501CC2F13F02002128440CF0F0
:108F80005CFB2046FFF796FE3822002128460CF0B5
:108F900054FBA16EE36E1A0A02F47F4242EA1362A6
:108FA000180200F47F00024342EA036222660B0AC1
:108FB00003F47F4343EA11630A0202F47F0213437E
:108FC00043EA016363662046FFF774FEB6E7236851
:108FD0009B68204698470246B04204D2294638464C
:108FE0000CF007FBF8BD3246F8E710B582B0044636
:108FF0003623009313460A4600F1280100F019F9C0
:10900000D4E91A2312F5007043F10001C4E91A01F2
:109010002046FFF74FFE02B010BD2DE9F0418AB0A7
:1090200004460F4690461E46054655F8283B9B6968
:10903000202202A998475C23009343463A462946DA
:10904000204600F0F6F8D4E91A2312F5007043F137
:109050000001C4E91A012046FFF72CFE23685D6970
:109060009B6820469847024602A92046A8472368E5
:109070009B69109A314620469847202102A8FFF7A5
:10908000EEFA0AB0BDE8F08110B50446FFF7E0FA49
:10909000014B2360204610BD6493030010B50446C5
:1090A000024B0360FFF7DAFA204610BD6493030019
:1090B00030B40D684C688A68CB6805604460826093
:1090C000C3600268130A03F47F4343EA1263110288
:1090D00001F47F010B4343EA026303604268130A11
:1090E00003F47F4343EA1263110201F47F010B434F
:1090F00043EA026343608268130A03F47F4343EA4E
:109100001263110201F47F010B4343EA026383609F
:10911000C268130A03F47F4343EA1263110201F4A5
:109120007F010B4343EA0263C36030BC70472DE903
:10913000F04F0F684E688D68CC684FF0000AD44637
:10914000D646D046D14603E00AF1010A5FFA8AFA10
:10915000BAF10F0F2CD810F80A100022072AF3D802
:1091600041F3C01307EA030B89EA0B0906EA030B74
:1091700088EA0B0805EA030B8EEA0B0E23408CEA03
:10918000030C44F3000303F061434FEAC57B4BEA51
:1091900054044FEAC67B4BEA55054FEAC77B4BEABE
:1091A000560683EA57070132D2B24900C9B2D5E761
:1091B0004FEA192303F47F4343EA19634FEA092274
:1091C00002F47F02134343EA096303604FEA182362
:1091D00003F47F4343EA18634FEA082202F47F0254
:1091E000134343EA086343604FEA1E2303F47F43BB
:1091F00043EA1E634FEA0E2202F47F02134343EA5E
:109200000E6383604FEA1C2303F47F4343EA1C632D
:109210004FEA0C2202F47F02134343EA0C63C3605B
:10922000BDE8F08F014B0360704700BFA0930300BF
:1092300070472DE9F84306460C4691461D469DF8B9
:1092400020700368DB689847804633681B693046A6
:109250009847A84521D233685B692A46494630467B
:10926000984733689B6830469847054633689B6942
:10927000024621463046984733681B693046984776
:10928000A8EB0502394660190CF0D7F95DB12378D7
:109290007B402370013D0134F8E72A4649462046C9
:1092A0000CF0A7F9ECE7BDE8F883704708B5036850
:1092B000DB69984708BD08B503681B69984708BD76
:1092C00010B504686469A04710BD08B503681B6A3F
:1092D000984708BD10B50468646AA04710BD08B57A
:1092E0000368DB69984708BD08B503681B699847A0
:1092F00008BD10B504686469A04710BD08B50368CF
:109300001B6A984708BD10B50468646AA04710BD81
:1093100010B50446043000F0D3F8606918B107F0C6
:1093200049F90023636110BD08B5043000F0F6F878
:1093300080F00100C0B208BD08B5043000F0CCF8E0
:10934000400A08BD10B582B0446954B14FF40073AF
:10935000009313464A020146204600F0A4FC02B0E6
:1093600010BD4FF400734902043000F034F90030AE
:1093700018BF0120F3E710B582B044694CB15B021D
:10938000009313464A020146204600F08CFC02B0CE
:1093900010BD5B024902043000F01DF9003018BF17
:1093A0000120F4E708B5436923B10146184600F0EF
:1093B00015FC08BD0120FCE710B582B0446954B12A
:1093C0004FF40073009313464A020146204600F012
:1093D00022FC02B010BD4FF400734902043000F0CB
:1093E00017FA003018BF0120F3E710B582B04469C6
:1093F0004CB15B02009313464A020146204600F03E
:109400000AFC02B010BD5B024902043000F000FA11
:10941000003018BF0120F4E738B504461546064B66
:1094200040F8043B00F043F8044B236065740023CC
:109430006361204638BD00BFD0930300149403003D
:1094400070B50446043000F0FDF80546A3683BB152
:10945000DB7A13F0400F03D1637C0BB163690BB16E
:10946000284670BD41F2040007F0A0F8064600F05F
:10947000AFFB6661F4E770B4002301E00133DBB2B7
:109480008B4210DA03EB4305AC0004441678A5794F
:10949000AE42F3D15678E579AE42EFD19678257A8F
:1094A000AE42EBD100E00024204670BC7047016062
:1094B000002242604FF0FF32826001220273704747
:1094C000036843B110B504461A68526818469047BD
:1094D0000023636010BD704743680BB11868704784
:1094E0000020704710B582B0006803685C690123F2
:1094F0000DF107020521A0479DF8070002B010BD3D
:1095000010B582B0006803685C6901230DF10702A1
:109510003521A0479DF8070002B010BD08B543688B
:10952000DB7AC3F380130BB1184608BDFFF7DAFFEF
:1095300010F0030F0CBF01230023F5E710B504461C
:109540004368DB7A13F0400F08D12046FFF7CAFFCB
:1095500010F0030F02D007F04DFAF6E710BD08B582
:10956000006803681B690621984708BD08B50068B4
:1095700003681B690421984708BD38B5436843B3A5
:10958000DD7AC5F38015F5B90D46044680680028DC
:1095900004DB237BCBB1012107F07CFD2046FFF7E4
:1095A000CDFF2046FFF7DBFF20680368DB692A0355
:1095B000202198470546A068002804DB237B33B1AF
:1095C000002107F067FD284638BD0021E4E70121AE
:1095D000F7E70025F7E72DE9F041446844B31D465D
:1095E0001746884604468068002804DB237BCBB1FD
:1095F000012107F04FFD2046FFF7A0FF2068036818
:109600001E6A2B463A464146B0470646A0680028E7
:1096100004DB237B43B1002107F03CFD36B9002079
:10962000BDE8F0810021E4E70121F5E72846F7E7EE
:109630000020F5E70A6803689A4200D3704708469D
:10964000FCE700000368002B00F0D580F0B585B082
:1096500016460D4604461A68126818469047206858
:1096600003685F69042302AA9F21B8479DF8093067
:109670007F2B57D02DB102AA31462846FFF7FBFEBB
:1096800060606368002B56D06368002B00F0B580E3
:10969000DB7A13F0400F20D12046FFF723FF10F0B4
:1096A000010FF9D16368DB7A13F0200F05D1204652
:1096B000FFF726FF10F0800FF9D1206803681B69BF
:1096C00066219847206803681B69992198474FF4E1
:1096D000F0604B4B43F00103984763685A7A494B5B
:1096E00003FB02F3019304A9474B41F8043D01A891
:1096F000FFF7A0FF0168019120680368DB680A4654
:109700009847206803689B689847D8B16368DA7AFD
:1097100012F0040F16D012F0200F22D12046FFF7CE
:10972000EFFE21E09DF80A308DF809309DF80B30EE
:109730008DF80A309EE702AA10213448FFF79BFEFD
:109740006060A1E76368DB7A13F0020F3CD16368C5
:109750001B68B3F1807F3BD8B3F5803F49D9032222
:109760003CE02046FFF7BEFE63689B7A0342EED1E1
:109770002046FFF7F4FE0023ADF8003063689A7AC4
:109780008DF80120DA7A12F0100F0CD1DB7A13F089
:10979000200F11D0206803689D6901230DEB03029F
:1097A0001946A847D3E7206803689D6901230DEB9C
:1097B00003023121A847CAE7206803689D69022394
:1097C0006A460121A847C2E723680B225A71BEE707
:1097D000206803681B69B7219847042223681A711F
:1097E0002046FFF7C3FE2046FFF7A8FE012005B084
:1097F000F0BD0222F2E7002070470020F7E700BF2B
:109800001095030040420F000090D00350940300D5
:109810002DE9F04383B098464368002B53D00446AB
:109820000E4617468068002804DB237B53B30121D2
:1098300007F030FC6368DB7A13F0400F24D1CDF8D9
:109840000080009B73B32046FFF778FE2046FFF7A9
:1098500086FEF3B2C3F5807302A941F8043D684661
:10986000FFF7E8FE056820680368D3F824902B46CC
:109870003A463146C847A8B1009B5B1B00932F4472
:109880002E44DEE70021D3E72046FFF768FE20687C
:1098900003685D6A43463A463146A8472046FFF7CB
:1098A00065FE02E0009BA8EB0308A068002804DB2B
:1098B000237B33B1002107F0EDFB404603B0BDE848
:1098C000F0830121F7E74FF00008F6E7002070472A
:1098D00001614261704710B504460121007B07F029
:1098E0003FFB0121207B07F0D5FBA068FEF758F96C
:1098F00010BD10B504468068FEF7F8F80021207B03
:1099000007F02EFB10BDF0B583B004460F46036987
:10991000009301258DF8055000268DF8046002ABF8
:1099200013E906008068FEF711F93146207B07F045
:10993000B1FB3946A068FEF74DF92946207B07F0B8
:10994000A9FBA068FEF7D8F8284603B0F0BD2DE9C2
:10995000F04182B00646884615461C4603690093CE
:1099600001238DF8053000278DF8047002AB13E950
:1099700006008068FEF7EAF83946307B07F08AFB7C
:109980004146B068FEF726F9671E44B105F10108AB
:109990002978B068FEF71EF93C464546F4E70121F8
:1099A000307B07F077FBB068FEF7A6F8012002B025
:1099B000BDE8F0812DE9F04182B0064688461546A3
:1099C0001C464369009301238DF8053000278DF86C
:1099D000047002AB13E906008068FEF7B7F8394659
:1099E000307B07F057FB4146B068FEF7F3F8671E7F
:1099F0004CB105F10108FF21B068FEF7EBF82870C3
:109A00003C464546F3E70121307B07F043FBB06855
:109A1000FEF772F8012002B0BDE8F08110B4064CE8
:109A2000046003244471047101738260034A42613B
:109A300002615DF8044B70472095030000093D006A
:109A40000379032B04D0042B05D1130E0B700131C5
:109A5000130C0B700131130A0B704A7070472DE91B
:109A6000F04184B0044688461746036902930126F4
:109A70008DF80D6000258DF80C5004AB13E906003D
:109A80008068FEF763F82946207B07F003FB00950A
:109A90008DF804508DF800803A460DEB0601204603
:109AA000FFF7CEFF227932446946A068FEF7A1F89D
:109AB0003146207B07F0EEFAA068FEF71DF830462D
:109AC00004B0BDE8F0812DE9F04184B00446884639
:109AD00016461F464369029301238DF80D30002579
:109AE0008DF80C5004AB13E906008068FEF72EF8E1
:109AF0002946207B07F0CEFA0095ADF80450637933
:109B00008DF8003042460DF101012046FFF798FF25
:109B1000227963790B2B18D000231A44D2B2013278
:109B2000D2B26946A068FEF764F83A463146A068AA
:109B3000FEF75FF80121207B07F0ACFAA068FDF783
:109B4000DBFF012004B0BDE8F0810123E5E72DE94A
:109B5000F04184B00646884615461C4603690293C8
:109B600001238DF80D3000278DF80C7004AB13E93C
:109B700006008068FDF7EAFF3946307B07F08AFA75
:109B800000978DF8047002238DF8003042460DF1E5
:109B900001013046FFF754FF327901326946B0685F
:109BA000FEF727F8671E44B105F101082978B0686F
:109BB000FEF710F83C464546F4E70121307B07F0FC
:109BC00069FAB068FDF798FF012004B0BDE8F081A4
:109BD00000F580534FF0FF321A60704700F5805354
:109BE0001B68B3F1FF3F14D070B505460C1D190B6F
:109BF0002046FFF7C2FC05F580564FF480532A46F5
:109C000031682046FFF704FE4FF0FF333360012038
:109C100070BD012070472DE9F04383B006468846A9
:109C200015461F460A9B01930BE0009A394606EB46
:109C300009000BF0DEFC009B1F44019AD21A01922E
:109C40001D44019B23B325F47F6424F00F04C5F366
:109C50000B09C9F5805302A941F8083D01A8FFF797
:109C6000E9FC0368009306F580531B68A342DCD02F
:109C700041463046FFF7B2FF06F580531C604FF4B3
:109C800080533246214608F10400FFF7A4FCCCE7DC
:109C9000012003B0BDE8F0830A6803689A4200DB44
:109CA00070470846FCE72DE9F04F83B0894615461A
:109CB000984600F580531C68B4F1FF3F3DD007463D
:109CC000944203D90C9BD3189C4236D204F580539E
:109CD000AB4232D9641B24D44FF0000BCBF5805338
:109CE000009326460C9B1B1B02A941F8043D6846C5
:109CF000FFF7D2FFD0F800A0BCB9524607EB0B012A
:109D000008EB06000BF075FC54440C9BA3421BD9D6
:109D10001B1B08EB0402291909F10400FFF75BFC87
:109D200012E0C4F1000B0024D8E72346424629463E
:109D300009F10400FFF74FFCDFE70C9B4246294680
:109D400009F10400FFF747FC012003B0BDE8F08FE4
:109D500000230A2B1AD810B402E001330A2B10D8C2
:109D600003EB4304A2000B4CA25C8242F5D103EB4F
:109D700043029400074A224452888A42EDD1184691
:109D800001E04FF0FF305DF8044B70474FF0FF30BB
:109D9000704700BF4895030038B50446054B036083
:109DA00045682DB1284607F063FA284606F002FC04
:109DB000204638BDD495030010B50446FFF7ECFFEC
:109DC000204606F0F7FB204610BD002303724FF03B
:109DD000FF33C360704700002DE9F04182B00446B4
:109DE0000E4690461F460B4B0360FFF7EEFF3820F0
:109DF00006F0DCFB0546CDF8048000230093012328
:109E00003A46314607F017FA6560204602B0BDE8D1
:109E1000F08100BFD4950300F0B587B015461A460F
:109E200002238DF80C30047A032C21D90B0E8DF807
:109E30000D300223022C06D90C0C5E1C06AF3B44ED
:109E400003F80C4CF3B20F0A5C1C06AE1E4406F875
:109E50000C7C0233DBB206AE56FA84F404F80C1C18
:109E60004068009303AB294607F09BFB07B0F0BDA9
:109E70000123DFE7F0B587B003248DF80C40057AA5
:109E8000A54223D90C0E8DF80D400224022D06D9CF
:109E90000D0C661C06AF3C4404F80C5CF4B20F0ACF
:109EA000651C06AE264406F80C7C023406AE56FA53
:109EB00085F505F80C1C4068FF21019100931346BD
:109EC000E2B203A907F090FB07B0F0BD0124DDE783
:109ED00030B585B00D4614469F238DF80F3004AB86
:109EE000002243F8082D4068FF22019204220092CC
:109EF00001220DF10F0107F077FB034668B19DF8D1
:109F000009207F2A0CD09DF808202A709DF809109E
:109F10009DF80A2002EB01222280184605B030BDD0
:109F20009DF808202A709DF80A109DF80B2002EB7E
:109F300001222280F1E701727047000030B583B042
:109F40000446406807F09CF9054610B9284603B05E
:109F500030BD01AA0DF107012046FFF7B9FFBDF89A
:109F600004109DF80700FFF7F3FEE060B0F1FF3F3B
:109F700012D000EB40008200084B13445B68B3F53D
:109F8000803F04D802212046FFF7D5FFDEE70321FA
:109F90002046FFF7D0FFD9E70025D7E74895030013
:109FA00072DF704773DF704774DF704777DF704789
:109FB00010B504460021C1771F220BF03EFB20465E
:109FC00010BD70B5C57F5C1902341F2C01DD002067
:109FD00070BD1E46134604462844721C62554170EB
:109FE0003246194602300BF004FBE37F3344DBB208
:109FF0000233E3770120EBE72DE9F04788B0814693
:10A000000F4616460024A04625460AE06A1CBAF808
:10A01000043008A901EB450525F8203CD5B20134F0
:10A02000E4B2B4420ED207EB041A504601F0CCFC65
:10A030001028EBD08028F2D1B8F1000F1DD1DAF84A
:10A040000880ECE76DB9B8F1000F18D01023424634
:10A0500007214846FFF7B5FF0346184608B0BDE89C
:10A06000F0876B0003F0FE036A4603214846FFF7C2
:10A07000A8FF03460028E6D1EFE70023EDE7012320
:10A08000EBE708B50122FFF7B7FF08BD10B584B0B4
:10A09000084B0093CB6801930B6902934B690393C0
:10A0A0006946FFF7EEFF0446684601F086FC20464D
:10A0B00004B010BD389A030030B589B004462022A0
:10A0C00069460E4802F0ACF90346E07F1A180232E6
:10A0D0001F2A11DDC0F11D03DBB208256A4629469F
:10A0E0002046FFF76EFF034618B1092D14BF002369
:10A0F0000123184609B030BD0925EFE7DC3E0020FA
:10A1000010B582B00446064802F0DAF902AA02F855
:10A11000010D01230A212046FFF753FF02B010BDB5
:10A12000DC3E002000B583B002AA02F8011D012325
:10A130001946FFF746FF03B05DF804FBC07F704788
:10A14000704710B50446FFF733FFFF2384F8203033
:10A15000012384F8213084F82230002384F823304E
:10A16000E36220222286F4216186A2861E22E286F4
:10A1700063872387E3632364204610BDC18670474D
:10A18000018642868186704780F822107047000061
:10A190002DE9F04186B004460F4616460023009391
:10A1A000019303930493059390F821208DF80020E8
:10A1B000029106EB860303EB83039B00ADF80C30A2
:10A1C000931E092B09D8DFE803F0050508080805E8
:10A1D0000805080500F12403019394F82330002BAF
:10A1E00039D1474D2C60E37FAB80DFF82C814046AE
:10A1F000FFF7A6FFA8604046FFF7A0FFA8816A46C8
:10A20000294604F12000FFF7CBFE054640BB94F839
:10A2100020503C4802F054F9024629460120FFF73D
:10A22000C5FE0546002837D1012194F82000FFF72C
:10A23000B9FE0546002849D1324802F0A7F90123AA
:10A2400084F82330A786638FB34200D21E469E1B3C
:10A250006687012017E094F82000FFF7A5FEC0E70D
:10A2600040F27F12284929480CF040F8284606F0B1
:10A27000B9FD58B1284606F0B5FD0CF037F8244872
:10A280000CF0BCF8002006B0BDE8F0812A46294653
:10A2900020480CF02BF8F2E74FF4C0721A491B4823
:10A2A0000CF024F8284606F09DFD48B1284606F03B
:10A2B00099FD0CF01BF816480CF0A0F80020E2E71E
:10A2C0002A46294613480CF011F8F4E740F28112AF
:10A2D0000D490E480CF00AF8284606F083FD48B1F7
:10A2E000284606F07FFD0CF001F809480CF086F8CE
:10A2F0000020C8E72A46294606480BF0F7FFF4E796
:10A30000C83E0020DC3E0020DC950300DC85030015
:10A3100008860300FC850300A841002010B5044610
:10A3200041870187FA21044802F0CDF8E28E218EA0
:10A330002046FFF72DFF10BDDC3E002030B585B074
:10A3400004468D880B88112B11D0262B2DD0102B75
:10A3500001D005B030BDCB7B012BFAD103FA05F556
:10A36000C36A2B43C362002380F82330F1E7C36A3A
:10A37000EB4013F0010FECD0244801F08DF80028D9
:10A38000E7D1012303FA05F5E36A23EA0503E36253
:10A3900094F82330002BDCD194F82230002BD8D055
:10A3A000218F2046FFF7BAFFD3E70B7A012BD0D1DC
:10A3B000002380F823304FF4FA71144802F083F838
:10A3C000238F43B9236C03B198470022618E204646
:10A3D000FFF7DEFEBDE7638F43B1236C03B19847FF
:10A3E000628F618E2046FFF7D3FEB2E7074802F086
:10A3F000ECF8E26B002AACD0002004AB43F8040D6B
:10A400000090014606F070FCA3E700BFDC3E002090
:10A41000AADF7047ABDF7047ACDF7047ADDF704736
:10A42000B0DF704710B50446034B40F8043B01F021
:10A43000C4FA204610BD00BF4496030010B5044680
:10A44000FFF7F0FF204606F0B5F8204610BD0000EB
:10A45000F0B58BB005460C468E880B88502B00F06B
:10A46000C680512B40F0CB808B79012B1CD0A37977
:10A47000022B40F0C48004F10807A37B042B3ED0DC
:10A48000062B7ED0012B40F0BA80EA6C002A00F047
:10A49000B68095F8443013F0080F22D1EB6C3A46A1
:10A4A000294630469847AAE0826C002ADFD001F1A5
:10A4B000080790F8443013F0040F05D1AB6C3A460E
:10A4C000294630469847D2E7069607900897032317
:10A4D000009306AB0821384606F006FC0028C6D1DA
:10A4E000ECE70696079508970323009306AB0E2129
:10A4F000384606F0F9FB002840F08180CEE7EB6B90
:10A50000BBB10023069307930893099302238DF8A8
:10A510001830238A628A9818B5F84010884213DDF3
:10A5200040F20913ADF81C3006A93046FFF778FF5A
:10A5300065E04FF48060A5F8400004F0DEF9E863C0
:10A540000023A5F84230DCE704F114019DF81E0059
:10A5500040F001008DF81E00ADF82030ADF822204B
:10A560000991E86B18440BF044F8B5F84220238AAF
:10A57000618A0B449BB29A4200D91346A5F8423037
:10A58000D2E7EB6B002B3AD00023029303930493A2
:10A59000059302238DF8083002A93046FFF740FFEB
:10A5A0002A6D5AB195F8443013F0010F10D12C6D7B
:10A5B000B5F84230EA6B29463046A047E86B04F014
:10A5C000B6F90023EB63A5F84230A5F8403016E059
:10A5D00006960795E86B0890B5F842100991042398
:10A5E000009306AB06F080FB0028E0D0E6E7CA88BF
:10A5F000438E9A4205D0E288EB8E9A4220D00BB06F
:10A60000F0BD026D002AF6D090F8443013F0010F2F
:10A6100007D12F6D238A04F1120229463046B8472C
:10A62000E9E70696079001F112000890098A09915E
:10A630000423009306AB06F057FB0028DBD1E8E7C4
:10A64000648A134913480BF051FE214612480BF05F
:10A650004DFE12480BF0D2FE6A6D002ACFD095F85D
:10A66000443013F0020F05D16B6D22462946304667
:10A670009847C4E70696079508940323009306AB12
:10A680000021084606F030FB0028EDD0B7E700BFF8
:10A69000149603001C96030024960300088603000A
:10A6A00070B598B00446954B1B688361043001F087
:10A6B000CBF994F82E3013F0320F07D194F82F20F5
:10A6C00002F0F0026FF3071284F82F2013F00C0F42
:10A6D00007D194F8303003F0F0036FF3071384F8D8
:10A6E00030300DF15E020DF15F01A06901F05CF9FF
:10A6F0009DF85F209DF85E0094F82F3013F00F0F47
:10A7000011D0194603F00F0602F00F05AE4208D82B
:10A71000534013F00F0F03D11309B3EB111F00D3F4
:10A72000114684F82F1094F8303013F00F0F11D029
:10A730001A4603F00F0500F00F018D4208D8434080
:10A7400013F00F0F03D10309B3EB121F00D302461E
:10A7500084F8302094F82E3013F0300259D10023C1
:10A760000F931093119312931393159394F82E3023
:10A770008DF83C30002A5CD016AB14930023ADF862
:10A780003830012262F342038DF83A3094F82F30CA
:10A790008DF83830206A58B103784BB110900BF027
:10A7A000A5FE80B2ADF84400ADF846000EAB1393A1
:10A7B00094F8263013B104F1260312930023CDF848
:10A7C0002E30ADF8323004F10803099304F12F0361
:10A7D0000A9394F8313013F0010F2CD1E38AADF8CD
:10A7E0002C30E38AADF83030E3690D9304F1320385
:10A7F00009AA0FA90020FFF70BFE0546E8B994F857
:10A8000025309BBB237D002B72D00025284618B035
:10A8100070BD4FF00003012161F342038DF85A30FF
:10A82000374B1B788DF8583094F82F308DF859300D
:10A8300095E70023A1E70023D1E74FF4AA7231493D
:10A8400031480BF053FD284606F0CCFA40B12846BB
:10A8500006F0C8FA0BF04AFD2C480BF0CFFDD5E707
:10A860002A4629462A480BF041FDF5E70020ADF8BD
:10A8700008004FF00003012262F342038DF80A3012
:10A8800094F82F308DF808301D4B5B680393CDF89A
:10A890001A00ADF81E000223ADF81830ADF81C30D8
:10A8A00003AB049302AB059304F1240308930DF169
:10A8B000060204A9FFF7AEFD05460028A2D04FF41A
:10A8C000B772104910480BF011FD284606F08AFABD
:10A8D00040B1284606F086FA0BF008FD0B480BF055
:10A8E0008DFD93E72A46294609480BF0FFFCF5E762
:10A8F0002146084800F048FD002587E7D83E0020A3
:10A900000C96030054960300DC85030008860300C0
:10A91000FC850300643F0020002380F84430037569
:10A920001422C282836103628384C0F82630C0F897
:10A930002A3080F82E300E4A127880F82F2080F8C6
:10A9400030204FF00102012161F3420280F83120F2
:10A95000C361438683860387C386C363A0F8403000
:10A96000A0F842308364C36403654365704700BF49
:10A970000C96030010B50446064B0360064B43607B
:10A980004B6883608B68C360CB680361FFF7C4FFCB
:10A99000204610BD44960300389A03004B6883603C
:10A9A0008B68C360CB6803617047012303757047F0
:10A9B00080F82E107047C182704731B990F831305D
:10A9C00043F0010380F831307047C18290F8313094
:10A9D0006FF3000380F83130704780F82F1080F853
:10A9E0003020704710B40C4681B1012190F831300D
:10A9F00061F3041380F83130C46490F8443062F39A
:10AA0000C30380F844305DF8044B70470021EDE744
:10AA100010B451F8324F4A68046042605DF8044B4C
:10AA20007047000010B582B00023ADF80230C38A31
:10AA3000934200D91346ADF8003001916A46418E29
:10AA40004FF6FF70FFF7E8FC044618B9BDF80000A8
:10AA500002B010BD4FF413720B490C480BF046FCCA
:10AA6000204606F0BFF948B1204606F0BBF90BF0CE
:10AA70003DFC07480BF0C2FC0020E9E722462146D6
:10AA800004480BF033FCF4E780960300DC850300F8
:10AA900008860300FC85030000B583B002AB03F811
:10AAA000011D01221946FFF7BDFF03B05DF804FB4D
:10AAB00000B583B002AB23F8021D02221946FFF74E
:10AAC000B1FF03B05DF804FB00B583B002AB43F8FF
:10AAD000041D04221946FFF7A5FF03B05DF804FB2F
:10AAE00030B585B004460D461E4801F022FDB0B3D6
:10AAF000E08EA8B30023ADF806300223ADF8043091
:10AB00000DF10E03029301AA01462846FFF786FCC9
:10AB1000044643F20143984203D030B9BDF80E0019
:10AB20001EE00023ADF80E30F8E740F2AF220E49E8
:10AB30000E480BF0DBFB204606F054F948B12046E6
:10AB400006F050F90BF0D2FB09480BF057FCA0B20D
:10AB500006E02246214607480BF0C8FBF4E7002038
:10AB600005B030BDDC3E0020BC960300DC85030050
:10AB700008860300FC85030008B590F82E3013F01A
:10AB8000100F01D1002008BDFFF7AAFF00F001005F
:10AB9000F9E776DF70478FDF704790DF7047B1DFEE
:10ABA0007047B5DF7047000010B50446064B0360E0
:10ABB000806A04F05FFAE06A04F05CFA206B08B186
:10ABC00004F058FA204610BD6C98030010B50446F6
:10ABD000FFF7EAFF204605F0EDFC204610BD00001F
:10ABE00070B504469DF8106018482060A1800125CA
:10ABF00025751721E1801B21E1812574518921816F
:10AC000091896181D189A18192E80300A061A1832A
:10AC1000090CA177D27962741946184603F0B5FF82
:10AC2000A0623146304603F0B0FFE062E37D65F399
:10AC3000071365F30303E375002363752363A375AB
:10AC40004FF6FF736382204670BD00BF6C9803000F
:10AC5000007D7047407D7047C07D113818BF0120CE
:10AC60007047407C7047C0887047008970474B7DB3
:10AC70003BB918310B6803608A888B7982808371B5
:10AC800070471F31F6E708B513218088FFF781FF71
:10AC9000B0FA80F0400908BD08B500F11F028188B4
:10ACA000407C02F0D1FA08BD08B500F11F0281888E
:10ACB000407C02F05DFD08BD38B505460C460A46ED
:10ACC0008188407C02F0AEFA214651F8482FC5F841
:10ACD0001F2088888A79A5F8230085F8252001207F
:10ACE000687538BD38B505460C460A4600F11801AE
:10ACF000407C02F091FB687550B1214651F8482F15
:10AD0000C5F81F208C888A79A5F8234085F825206E
:10AD100038BD10B5447D0CB9204610BD00F11F01AF
:10AD2000407C02F043FBF7E770B586B005460C4661
:10AD30000B88113B462B4AD8DFE813F047005D0033
:10AD400049004900490049004900490049004B00B9
:10AD500049004900490049004900490008011E0115
:10AD6000C500F60049004900490049004900490072
:10AD7000490049004900490049004900490049008B
:10AD80004900490049004900490049004900B7000D
:10AD9000490057014900490049004900490049005C
:10ADA000490049004900490049004900490049005B
:10ADB00049004900490049004900490049007F0114
:10ADC000650149008400710149010023037506B043
:10ADD00070BD0B7AC375FFF73FFF0028F7D02846F8
:10ADE000FFF762FF0028F2D100231A461946A8880F
:10ADF000FFF7D5FEEBE74B8903818B894381CB8934
:10AE00008381914991480BF071FA2B8907EE903AB2
:10AE1000F8EEE77A6E89AC89B7EE047A67EE877A46
:10AE200017EE900A09F0AEFE04EB84046300019370
:10AE3000009602460B4686480BF058FA85480BF000
:10AE4000DDFAC4E7417C844801F062FBE18881427D
:10AE500000D30146E980A888FFF7A3FE0446C0B1ED
:10AE60004FF4AD727D497E480BF040FA204605F064
:10AE7000B9FF40B1204605F0B5FF0BF037FA754831
:10AE80000BF0BCFAA3E72246214676480BF02EFAD7
:10AE9000F5E76D496D480BF029FAE98872480BF027
:10AEA00025FA6C480BF0AAFA91E74B89C3806649F2
:10AEB00066480BF01BFAE9886B480BF017FA6548F7
:10AEC0000BF09CFA83E7604960480BF00FFA218988
:10AED0006289A389E089009064480BF007FA5D4815
:10AEE0000BF08CFA00221146A888FFF756FE0446A4
:10AEF00000283FF46CAF40F26F12584958480BF0ED
:10AF0000F5F9204605F06EFF40B1204605F06AFFD6
:10AF10000BF0ECF94F480BF071FA58E72246214646
:10AF200050480BF0E3F9F5E7474948480BF0DEF9E4
:10AF300021896289A389E08900904D480BF0D6F9F8
:10AF400044480BF05BFA2389EB8140E73E493F48D8
:10AF50000BF0CCF9627A217A46480BF0C7F93D48EC
:10AF60000BF04CFA00238DF808308DF8093002A957
:10AF7000A888FFF710FE2AE70B7A5BB13249334805
:10AF80000BF0B4F9217A3C480BF0B0F931480BF0E2
:10AF900035FA1CE7394B0FCB06AE06E90F002A49FC
:10AFA0002A480BF0A3F9637AA27A06A901EB820280
:10AFB00001EB830352F8102C53F8101C30480BF0AF
:10AFC00095F924480BF01AFA637A2B74FFE60026F1
:10AFD00007E000231A461946A86A03F0E1FD01368E
:10AFE000F6B2A379B342F4D8F1E6002607E00023D5
:10AFF0001A461946E86A03F0D3FD0136F6B2A37A81
:10B00000B342F4D8E3E601238375006B00283FF4D4
:10B01000DEAE00231A46194603F0C2FDD7E68B794F
:10B02000002B7FF4D4AE8375006B00283FF4CFAEC5
:10B030001A46194603F0B4FDC9E600231A4619461C
:10B040008088FFF7ACFDC2E6089703001C9603005A
:10B050000C97030008860300DC3E00207498030070
:10B06000DC850300FC850300509703006C97030008
:10B07000BC970300049803002C980300F896030083
:10B080004898030070B588B00D46164684884FF482
:10B09000285104A800F01CFD4FF6FF730293012312
:10B0A000019300962B4604AA2146054800F020F89B
:10B0B000044604A800F081FC204608B070BD00BF23
:10B0C000643F0020A0DF704738B5044600F5F870F3
:10B0D00001F0D7FFF8252A46002120460AF0ADFAF4
:10B0E0002A46002160190AF0A8FA204638BD00005F
:10B0F0002DE9F04383B005460F4690469946BDF8CA
:10B100002C30ADF80430BDF83030ADF806302548AD
:10B1100001F006FA064605F5F874204602F000F83C
:10B1200028B13046FFF7A1FD03F0CBFBF3E7012187
:10B13000204601F0ACFFBDF828204946204601F02A
:10B14000BCFF01AA08F104013846FFF7BBFF054622
:10B15000D0B14722144915480BF0C8F8284605F02D
:10B1600041FEC0B1284605F03DFE0BF0BFF8104887
:10B170000BF044F90025204601F093FF25EAE57025
:10B1800080B203B0BDE8F0834FF4FA71204601F0BD
:10B1900099FF0546EFE72A46294606480BF0A6F830
:10B1A000E5E700BFDC3E0020C4980300DC85030017
:10B1B00008860300FC8503002DE9F04F87B00446A4
:10B1C0008846B1F804900E8849466E4801F0A8F907
:10B1D0008246A6F110039BB2012B01D900251CE089
:10B1E000002508E004EB8503586803681B6849469E
:10B1F00098470135EDB22378AB42EFD9112EF1D04B
:10B2000004EB8503586803685B6849469847F0E794
:10B21000B8F80670D7B90135EDB294F85430AB42A6
:10B220003ED905F1160354F823B0502EF0D0512E1C
:10B230000AD1B8F8087098F80630022BEAD198F8CD
:10B240000E30062BE6D109E00027E3E759466846B1
:10B25000FFF7DEFBBDF80030BB4218D1DBF8003051
:10B26000DB684146584698475046FFF7F5FC0028F2
:10B27000D1D0502ECFD1594604A8FFF7C9FBBDF855
:10B280001430BB42C7D15046FFF706FDC3E759460D
:10B2900002A8FFF7BDFBBDF80C30BB42BBD1DDE718
:10B2A000002503E0B8F80A70E7B9013594F84C318D
:10B2B000AB4221DD05F1540354F8230002F001FCF8
:10B2C0004845F2D105F1540354F823A0382E06D096
:10B2D000392EE7D0362EE8D1B8F80A70E4E7B8F88E
:10B2E0000A70E1E7504602F0F1FBB842DDD1414679
:10B2F000504602F0EDFBD8E7112E10D0352E0BD1C1
:10B30000B8F80A3043B1B8F80C2008F10E088BBB2E
:10B3100004F5F87001F01DFF07B0BDE8F08F0025BF
:10B3200001E00135EDB294F84C31AB420ED905F194
:10B33000540354F8230002F0C4FB4845F1D105F151
:10B34000540354F8230002F0B9FBEAE7002501E0BA
:10B350000135EDB294F8F830AB42CFD905F13E0398
:10B3600004EB8303586883884B45F1D103681B685D
:10B370009847EDE708F1020104F5F87001F0D2FEFC
:10B38000C6E700BFDC3E002090F85430272B07D8DA
:10B390005A1C80F85420163340F8231001207047BF
:10B3A000002070470378132B06D85A1C027000EB5C
:10B3B00083004160012070470020704778DF7047AC
:10B3C0007ADF7047034600228260C260034A92E837
:10B3D000030083E803001846704700BF209903006C
:10B3E00010B5FFF7EDFF30B90020FFF7E7FF044687
:10B3F000D8B9012012E004463922184918480AF049
:10B4000075FF204605F0EEFC48B1204605F0EAFC49
:10B410000AF06CFF13480AF0F1FF002010BD22462D
:10B42000214611480AF062FFF4E73B220B490C4821
:10B430000AF05CFF204605F0D5FC48B1204605F037
:10B44000D1FC0AF053FF07480AF0D8FF0020E5E7D7
:10B450002246214604480AF049FFF4E778990300A0
:10B46000DC85030008860300FC85030038B5094825
:10B4700001F056F858B10546FFF7EAFB044638B12B
:10B480002846FFF7EEFB012802D0002400E000244C
:10B49000204638BDDC3E002070B506460024254617
:10B4A00001E00134A4B2132C08D821463046FFF73E
:10B4B000DDFF0028F5D00135EDB2F2E7284670BD7A
:10B4C0007047000070B52DED028B0546204E214CD3
:10B4D000214A3146204602F077FE2B8807EE903A4B
:10B4E000F8EEE77AB7EE048A67EE887A17EE900AEC
:10B4F00009F048FB02460B461849204602F064FE5C
:10B500006B8807EE903AF8EEE77A67EE887A17EEE6
:10B51000900A09F037FB02460B461149204602F01B
:10B5200053FE204602F03CFE0E4A3146204602F011
:10B530004BFEEB8803EB83035A000B49204602F0D5
:10B5400043FE204602F02CFEBDEC028B70BD00BF16
:10B5500038990300B842002028990300409903005D
:10B5600050990300609903007099030046DF70470B
:10B570007FDF704780DF704785DF704786DF704769
:10B580000022B2EB510F0FD230B48B1ADBB2013B69
:10B59000DBB2845CC55C8554C4540132D2B2B2EBD8
:10B5A000510FF2D330BC7047704770B506460D4658
:10B5B00011461C461A462846B0472CB128B1012135
:10B5C00000222846FFF7D6FF70BD0021F8E710B52E
:10B5D00082B003460C466946204698476A460121D8
:10B5E0002046FFF7C7FF02B010BD10B4034600228B
:10B5F0004FF00101032464F306110170072141702B
:10B6000010218170DC701C718265C2650266426621
:10B610005DF8044B7047012070470B7803F0FE0380
:10B62000042B01D000207047F0B58DB015464F1C9B
:10B630000C4630220021684609F0FFFF6E4628685C
:10B640006968AA68EB680FC610216846FFF798FF83
:10B6500034F8042FA378ADF810208DF812301021A3
:10B660000DEB0100FFF78CFF6846FFF77FFF10210D
:10B6700008A8FFF785FF032208A9384609F0AAFFAA
:10B68000B0FA80F040090DB0F0BD000010B50846DA
:10B69000137C13F0010F08D011460A461231FFF750
:10B6A0006BFF044620B9012010BD02F11C01F4E734
:10B6B000F4220C490C480AF019FE204605F092FBD2
:10B6C00048B1204605F08EFB0AF010FE07480AF04C
:10B6D00095FE0020E8E72246214605480AF006FECE
:10B6E000F4E700BFBC990300DC8503000886030073
:10B6F000FC850300F0B599B006460C468D882946B6
:10B70000744800F00DFF07462388133B072B23D80E
:10B71000DFE813F0080089003F00220053002200F8
:10B720006100D20000230593069307930A930B93BD
:10B73000B31D049306F12203089306F13E03099317
:10B74000FFF78FFA012809D0002204AB0021284618
:10B75000FFF70EFF044618B919B0F0BD3246F4E702
:10B760004FF49A725C495D480AF0C0FD204605F02E
:10B7700039FB40B1204605F035FB0AF0B7FD5848CB
:10B780000AF03CFEE8E72246214656480AF0AEFDA4
:10B79000F5E7B36D002BDFD00493059504F10800A5
:10B7A0000690A37B03F0010307930423009304ABEB
:10B7B0004D4A062105F098FACEE7F36D002BCBD069
:10B7C000049305950223009304AB484A00210846E0
:10B7D00005F08AFAC0E7237A3BB9637B13F0020FC6
:10B7E00011D0B11D3846FFF767FA326E002AB3D088
:10B7F0000495237A05930223009304AB00210846A5
:10B8000005F072FAA8E7014602A8FFF730FA029A9B
:10B81000C6F84E20BDF80C109DF80E20A6F8521068
:10B8200086F85420DDE704A9FFF75CFA08B300238B
:10B8300012AA04A92846FFF7A1FE044600288BD0CF
:10B8400040F2A312244925480AF050FD204605F095
:10B85000C9FA40B1204605F0C5FA0AF047FD204874
:10B860000AF0CCFD78E7224621461E480AF03EFD4C
:10B87000F5E700231A4619462846FFF77FFE0446DF
:10B8800000283FF469AF4FF4D372134913480AF00C
:10B890002DFD204605F0A6FA40B1204605F0A2FA9B
:10B8A0000AF024FD0E480AF0A9FD55E7224621467C
:10B8B0000C480AF01BFDF5E7726E002A3FF44CAF0E
:10B8C00018AB43F8505D012100910021084605F0B6
:10B8D0000BFA41E7DC3E002090990300DC85030071
:10B8E00008860300FC850300ABB50200CFB502005B
:10B8F000A8DF70477047704770B582B005460830C2
:10B9000000F0A2F80DF1060205F10C010120FFF78D
:10B91000EFFF48B9114B1D6029461148FFF742FD62
:10B920000024204602B070BD044653220D490E4843
:10B930000AF0DCFC204605F055FA40B1204605F03F
:10B9400051FA0AF0D3FC09480AF058FDE9E722460B
:10B95000214607480AF0CAFCF5E700BFD83E0020A0
:10B96000643F00200C9A0300DC8503000886030076
:10B97000FC8503000023838011238371C37170470A
:10B9800010B50446064B0360064B83604B68C360EA
:10B990008B680361CB684361FFF7ECFF204610BD65
:10B9A000009A0300389A030083790B70C3791370EF
:10B9B000704762DF704763DF7047704710B5044619
:10B9C00004F0F8FD204610BD8379012B0DD082686C
:10B9D0000AB180207047C2680AB180207047012BED
:10B9E00001D8002070478020704710207047F0B5C4
:10B9F00083B00646102002F080FF074630460AF06A
:10BA000075FD441E002512E000218DF80610331943
:10BA100013F8013C8DF80430335D8DF805301022A9
:10BA200001A80AF021FE6B1C7855DDB2023C002C07
:10BA300006DB0F2D04D8335D2D2BE5D10134F5E75E
:10BA4000384603B0F0BD000083796BBB10B50446E7
:10BA5000C06810B1FFF7CBFFA060A06830B3A11D94
:10BA6000FFF7A7FF221DA1681020FFF7A4FF0446DF
:10BA700008B901201BE093220D490E480AF036FC5C
:10BA8000204605F0AFF948B1204605F0ABF90AF0C1
:10BA90002DFC09480AF0B2FC002008E022462146AD
:10BAA00006480AF023FCF4E701207047012010BD8E
:10BAB000409A0300DC85030008860300FC85030030
:10BAC00001238371818000238360C360704700007D
:10BAD00010B50446024B0360FFF7F2FF204610BD8D
