:020000022000DC
:1060000000000120ED4903002D4A03002F4A030040
:10601000314A0300334A0300354A03000000000000
:1060200000000000000000000000000069490300BB
:10603000394A030000000000894903003D4A03007B
:106040003F4A03003F4A0300552203003F4A030032
:106050003F4A03003F4A0300F12203003F4A030086
:106060003F4A03003F4A03003F4A03003F4A030000
:106070003F4A03003F4A03003F4A03003F4A0300F0
:106080003F4A0300F54603003F4A03003F4A03002E
:106090003F4A03003F4A03004D0803003F4A030004
:1060A0003F4A03003F4A03003F4A03003F4A0300C0
:1060B0003F4A03003F4A03000000000000000000C8
:1060C0003F4A03003F4A03003F4A03003F4A0300A0
:1060D0003F4A03003F4A03003F4A0300000000001C
:1060E00000000000000000000000000000000000B0
:1060F00000000000000000000000000000000000A0
:10610000000000000000000000000000000000008F
:10611000000000000000000000000000000000007F
:10612000000000000000000000000000000000006F
:10613000000000000000000000000000000000005F
:10614000000000000000000000000000000000004F
:10615000000000000000000000000000000000003F
:10616000000000000000000000000000000000002F
:10617000000000000000000000000000000000001F
:10618000000000000000000000000000000000000F
:1061900000000000000000000000000000000000FF
:1061A00000000000000000000000000000000000EF
:1061B00000000000000000000000000000000000DF
:1061C00000000000000000000000000000000000CF
:1061D00000000000000000000000000000000000BF
:1061E00000000000000000000000000000000000AF
:1061F000000000000000000000000000000000009F
:10620000F1EE103A43F08073E1EE103A704700BFB0
:1062100010B5054C237833B9044B13B10448AFF3E0
:1062200000800123237010BD6C38002000000000A6
:10623000980E040008B5034B1BB103490348AFF3A4
:10624000008008BD0000000070380020980E040097
:10625000154B002B08BF134B9D46A3F5803A002138
:106260008B460F461348144A121A16F064FD0F4B62
:10627000002B00D098470E4B002B00D098470020F1
:10628000002104000D000D48002802D00C48AFF397
:10629000008016F0D3FC200029000EF0F5FB16F06C
:1062A000B9FC00BF00000800000001200000000051
:1062B000000000006C380020D45E002000000000C8
:1062C000000000002DE9F04F574C89B006462146EA
:1062D00004A809F005FE04A9304609F0CBFD3746B5
:1062E00004A809F0E7FD514B47F8183B214604A8E4
:1062F00009F0F6FD04A9384608F05AFF04A809F091
:10630000D9FD06F1700B214604A809F0E9FD04A9A6
:10631000584608F04DFF04A809F0CCFD06F1C80A64
:10632000214604A809F0DCFD04A9504608F040FF0E
:1063300004A809F0BFFD06F59079214604A809F0EC
:10634000CFFD04A9484608F033FF04A809F0B2FDC8
:1063500006F5BC78214604A809F0C2FD04A9404610
:1063600008F026FF04A809F0A5FD94E80F006D468B
:1063700085E80F000223294604A88DF80C3009F0A7
:10638000AFFD04A9384608F04DFF04A809F092FDBE
:1063900094E80F00032785E80F00294604A88DF82C
:1063A0000C7009F09DFD04A9584608F03BFF04A8B5
:1063B00009F080FD94E80F00042785E80F002946C6
:1063C00004A88DF80C7009F08BFD04A9504608F064
:1063D00029FF04A809F06EFD94E80F00052785E861
:1063E0000F00294604A88DF80C7009F079FD04A966
:1063F000484608F017FF04A809F05CFD94E80F0078
:10640000062485E80F00294604A88DF80C4009F001
:1064100067FD04A9404608F005FF04A809F04AFDFD
:10642000304609B0BDE8F08F20F1030038F10300D9
:1064300010B5054C2046FFF745FF2046034A0449A6
:10644000BDE8104015F0E2BD88380020003600207D
:10645000AD6502002DE9F04F8FB0064609F0EEFC65
:10646000044618B120460FB0BDE8F08F06F11805BC
:106470002846022108F0E4FE22462846112108F0B1
:10648000F7FE2846102108F0DFFE2146284608F0D6
:10649000DDFE284608F05CFC04460028E2D106F147
:1064A00070073846022108F0CBFE224638461121FB
:1064B00008F0DEFE3846182108F0C6FE21463846B0
:1064C00008F0C4FE384608F043FC04460028C9D151
:1064D00006F1C8084046022108F0B2FE22464046B6
:1064E000112108F0C5FE4046042108F0AFFE4046E9
:1064F00008F02EFC04460028B4D106F590794846F1
:10650000022108F09DFE22464846112108F0B0FE07
:106510004846012108F09AFE484608F019FC044656
:1065200000289FD106F5BC7A5046022108F088FE6B
:1065300022465046112108F09BFE5046342108F0B7
:1065400085FE504608F004FC044600288AD106F572
:10655000E87B584600F060FB584617F077F906F5DF
:10656000F07682B25946284608F0A2FE304600F086
:1065700065FB304617F06AF9314682B2384608F0BA
:1065800097FE00F043FB0146404608F0E7FE00F0AE
:1065900037FB0146484608F0A5FE01A800F074FC50
:1065A00001A95046342208F083FE5BE70F4B10B57B
:1065B0000446036000F5BC7008F0B0FB04F5907071
:1065C00008F0ACFB04F1C80008F0A8FB04F170006F
:1065D00008F0A4FB04F1180008F0A0FB2046044BCF
:1065E00040F8083B09F066FC204610BD38F1030076
:1065F000C408040038B501210E200EF07FFE0121F1
:106600000F200EF07BFE00210E200EF00FFF002168
:106610000F200EF00BFF012110200EF06FFE002165
:1066200010200EF003FF002102200EF067FE11483B
:10663000114B124A124DC0F81025C0F81455002213
:106640005025C3F80425C3F80825C3F81025C3F85E
:1066500040550125C3F800520A490B4C0B4DC1F8B7
:106660001055A3F57F533C3BC1F81405C1F8103910
:10667000227038BD0060004000A00040030E0300FF
:10668000030F130000F00140803A002040A10040B9
:106690002DE9F84F324B4FF47A78DB68002914BFAC
:1066A0000D46012508FB00F8B8FBF5F9B9F1140F08
:1066B00038BF4FF01409DC0103D52A4B1A68D00704
:1066C0004AD40DF027F9284BA0FB0301830A43EAC3
:1066D0008153264ADFF888A0A9F10A094FEA8919EF
:1066E000984442F0010B002400260027DAF80C2021
:1066F0001C4BD10119D51A68D20716D55B689B09C6
:1067000098454FF002001CD9A5421CD00EF020FD88
:106710000134361847F10007A5424846E6D9D84764
:10672000DAF80C200F4BD101E5D40DF0F3F80E4B45
:10673000A0FB0301830A43EA815398454FF002000E
:10674000E2D8204634B1224630463946002316F0BE
:10675000B9F880B2BDE8F88F5B689B09B9E700BF64
:10676000F0ED00E0001000E040420F0050F10300A7
:1067700070B5254C25782DB364200BF009FE4FF43D
:106780007A710846FFF784FF23780646C3B11F4B92
:106790001F482049002501224260C1F808250E202B
:1067A000C3F810552946C3F814550EF03FFE29468C
:1067B0000F200EF03BFE294610200EF037FE25700C
:1067C000304670BD012110200EF030FE124B4FF408
:1067D000C85043F00103984729460E200EF026FECC
:1067E00001210F200EF022FE0849094A0B4B0948EF
:1067F000C1F810350A4DC1F814550123C0F804350D
:10680000D36013602370B7E7803A00200060004037
:1068100000A0004000F0014050F10300030E03000F
:10682000030F1300002814BF64200020704700BF2E
:1068300070B500240546046044608460C46004614F
:10684000446184612146C4610462446284622426F6
:1068500028222C3016F06FFA2146324605F15400FA
:1068600016F069FA3246214605F1780016F063FA0F
:1068700085F89C4085F89D4085F89E40284670BD6F
:106880000148FFF7D5BF00BF883A00202DE9F0434B
:106890009F4E96F800808FB0B8F1000F02D00FB075
:1068A000BDE8F08301AA3423C0219A4801F076FFA5
:1068B000002800F0C18001AC0FCC974DDFF860C21A
:1068C0002F460FC70FCC0FC70FCC0FC723683B60F5
:1068D0002B68634574D005F12F042C2200218F48CA
:1068E00016F029FA8E4B2B6001232B718D4BC5F8C6
:1068F00005304FF080424FF0FF37D2F80034C2F835
:10690000007413F0010940F0F7809A0700F19880B5
:10691000580700F1F480190700F1F480DA0300F160
:10692000F4805B0354BF012340236B72EB687E4FFE
:106930000133EB600BF020FD7C4A7D4BA2FB001283
:10694000920900216A6129634FF0FF3217F8011F95
:106950004A4042F30001194081EA520141F300022A
:106960001A4082EA510141F300021A4082EA5102C0
:1069700042F30001194081EA520242F3000119403A
:1069800081EA520141F300021A4082EA510141F3C7
:1069900000021A4082EA510242F300011940A74264
:1069A00081EA5202D2D1D143296334235A4A594849
:1069B000C02101F003FF012333700FB0BDE8F08365
:1069C0005B4B2F6BC5F83080681E05F12F044FF02C
:1069D000FF3210F8011F4A4042F30001194081EADA
:1069E000520141F300021A4082EA510141F30002D0
:1069F0001A4082EA510242F30001194081EA520230
:106A000042F30001194081EA520141F300021A40A9
:106A100082EA510141F300021A4082EA510242F334
:106A200000011940844281EA5202D2D1D2439742F6
:106A30002F633FF45BAF50E7374D05F12F044CE770
:106A4000337804226A72002B3FF470AF4FF00708CE
:106A500085F80A800BF090FC95F82830C5F8309046
:106A600001463248EA18A0FB0101286982F820801B
:106A7000013303EA080200F1010C89092A482C4B72
:106A800085F82820C5F810C03A46A96110F8011F02
:106A9000514041F300021A4082EA510242F30001E0
:106AA000194081EA520141F300021A4082EA510181
:106AB00041F300021A4082EA510242F300011940F8
:106AC00081EA520141F300021A4082EA510141F386
:106AD00000021A4082EA510242F300011940844246
:106AE00081EA5202D2D1D143296334230A4A0948A8
:106AF000C02101F063FE19E702236B7216E7082339
:106B00006B7213E710236B7210E720236B720DE793
:106B1000283B0020903E00202C3B0020343B0020EE
:106B2000474C4244000101002B3B0020D34D621032
:106B30002083B8ED2D4B1B7803B9704770B52C4CF2
:106B40000546A0720BF018FC2A4B94F82820266901
:106B5000A3FB00139B09511C22440020013601F0C5
:106B60000701A361244B82F820502063266184F83A
:106B70002810601E04F12F054FF0FF3210F8011F9E
:106B80004A4042F30001194081EA520141F30002F8
:106B90001A4082EA510141F300021A4082EA51028E
:106BA00042F30001194081EA520242F30001194008
:106BB00081EA520141F300021A4082EA510141F395
:106BC00000021A4082EA510242F300011940854254
:106BD00081EA5202D2D1D14321633423044A0748C7
:106BE000C021BDE8704001F0E9BD00BF283B002096
:106BF0002C3B0020D34D62102083B8ED903E002046
:106C0000014B987A704700BF2C3B0020014BD8689D
:106C1000704700BF2C3B002010B5064C0649E379B5
:106C2000A279247A82B00094044616F0AFFD204683
:106C300002B010BD2C3B002058F1030070B42E4B65
:106C40005B790446212B50D8DFE803F01C234F4F1B
:106C50004F4F4F4F4F4F4F4F4F4F4F4F2B364F4F81
:106C60004F4F4F4F4F4F4F4F4F4F4F4F4211234DAD
:106C70000FCD2D88206025826160A260E3602046F0
:106C800070BC70471E4B03CB20606160204670BC17
:106C900070471C4B18689B882060A380204670BCFE
:106CA0007047194D0FCD2060286820616160A26097
:106CB000E360204670BC7047144B07CB1D889B785F
:106CC00020606160A260A581A373204670BC7047FC
:106CD0000F4D0FCD2E88AD7820606160A260E3601B
:106CE0002682A574204670BC70470A4B03CB2060F7
:106CF0006160204670BC70472C3B0020ACF1030063
:106D000064F103006CF1030074F1030088F10300E7
:106D100098F10300C0F10300224B1B7803B97047C0
:106D200030B4214C214B002284F829202263601EBC
:106D300004F12F054FF0FF3210F8011F4A4042F3D3
:106D40000001194081EA520141F300021A4082EA2F
:106D5000510141F300021A4082EA510242F300015C
:106D6000194081EA520242F30001194081EA5201BE
:106D700041F300021A4082EA510141F300021A4035
:106D800082EA510242F300011940854281EA52022F
:106D9000D2D1D14321633423034A0548C02130BCFA
:106DA00001F00CBD283B00202C3B00202083B8EDD7
:106DB000903E00202F4B1B7803B9704770B52E4CC6
:106DC00094F82A300B25013384F82A30A5720BF091
:106DD000D3FA2A4994F828302269A1FB0001E61869
:106DE00089090133501CA16103F007020021244BE3
:106DF000206186F8205084F828202163601E04F169
:106E00002F054FF0FF3210F8011F4A4042F30001F6
:106E1000194081EA520141F300021A4082EA51010D
:106E200041F300021A4082EA510242F30001194084
:106E300081EA520242F30001194081EA520141F312
:106E400000021A4082EA510141F300021A4082EA2C
:106E5000510242F300011940854281EA5202D2D127
:106E6000D14321633423044A0648C021BDE8704061
:106E700001F0A4BC283B00202C3B0020D34D621025
:106E80002083B8ED903E0020F0B4094E054606F18F
:106E9000300734460FCCBC4228606960AA60EB60C2
:106EA000264605F11005F4D120682860F0BC704733
:106EB0002C3B0020704700BF2DE9F04F7D4B7E49F1
:106EC0005A797E48D3E9025AD3E90443002A08BF1D
:106ED000AA46C3B01E4618BF344602F141025346CB
:106EE00014BF4FF4002B4FF4807B01940AF09AFEFC
:106EF000734B0AF1FF329A4267D8724D4FF0FF345C
:106F00004FF0000802AFAAEB0806B6F5807F28BF55
:106F10004FF4807606F10F0929F00F094B463A46E7
:106F200008EB0B01684806F0F7FF002845D04946FA
:106F30004246384600F042FED04530D0BC461CF8F0
:106F4000012B82EA040343F300022A4082EA53023F
:106F500042F300032B4083EA520242F300032B402A
:106F600083EA520343F300022A4082EA530343F3C5
:106F700000022A4082EA530242F300032B4083EAD4
:106F8000520242F300032B4083EA520343F300040E
:106F9000ACEB07022C40964284EA5304CFD8B044AD
:106FA000D045B0D3019AE343934215D047494348B3
:106FB0000AF038FE43B0BDE8F08F424644493F48EE
:106FC0000AF030FE43B0BDE8F08F42493B480AF07A
:106FD0005FFD43B0BDE8F08F3F4938480AF058FDE7
:106FE00072B63E4A3E480AF6FF7302211B0B11603F
:106FF0000268002AFCD03B4C3948002202F12601ED
:107000000903216001680029FCD001329342F5D1C7
:10701000324B334901221A600B68002BFCD0DFF899
:10702000A8802F4E0024AAEB0405B5F5807F28BF69
:107030004FF4807505F10F0929F00F094B463A46C8
:107040000BEB0401404606F067FF224649463846EE
:1070500000F0B4FDE91C890804F5183200239942B8
:1070600008D057F82300106030680028FCD00133A6
:107070000432F4E72C445445D5D3184B1849002268
:107080001A600B68002BFCD062B617490B480AF057
:10709000FFFC64200BF07CF9BFF34F8F1349144BB6
:1070A000CA6802F4E0621343CB60BFF34F8F00BFA6
:1070B000FDE700BF9C3B0020F0F3030038430020B5
:1070C000FFFE07002083B8ED883B002068F4030032
:1070D00040F4030020F40300A0F4030004E50140A1
:1070E00000E4014008E50140D8F4030000ED00E0B1
:1070F0000400FA0510B504460DF00CFD204610BD45
:107100002DE9F843694D2C7814B12046BDE8F88389
:1071100000F082FC01222146654806F0D3FC0746B8
:10712000002864D06348644E06F09CFE6349024622
:1071300063480AF077FD32464FF4807321465D487C
:1071400006F0EAFE18B15F4B32689A4256D006F15B
:10715000FF3906F1FB085C4959480AF099FCFC220A
:1071600000215A4815F0E7FD564B33600123337177
:10717000574B48464FF0FF3210F8011F4A4042F388
:107180000001194081EA520141F300021A4082EAEB
:10719000510141F300021A4082EA510242F3000118
:1071A000194081EA520242F30001194081EA52017A
:1071B00041F300021A4082EA510141F300021A40F1
:1071C00082EA510242F300011940804581EA5202ED
:1071D000D2D1D24300213748C6F8FC2006F062FE27
:1071E000002858D13B4936480AF052FC8DE73A490D
:1071F00033480AF04DFC2046BDE8F88306F1FF391C
:10720000334BD6F8FCC0C6F8FC40484606F1FB08F4
:107210004FF0FF3210F8011F4A4042F300011940BD
:1072200081EA520141F300021A4082EA510141F31E
:1072300000021A4082EA510242F30001194081EA39
:10724000520242F30001194081EA520141F3000267
:107250001A4082EA510141F300021A4082EA5102C7
:1072600042F300011940804581EA5202D2D1D24353
:107270009445C6F8FCC07FF46EAF727996F824305E
:1072800016490F4841320AF0CDFC3C4601232B70D1
:107290002046BDE8F8834FF48073074A0548002173
:1072A00006F076FE0028E8D19CE700BF603B002096
:1072B000843B0020883B00209C3B00204CF30300D3
:1072C000384300204142574670F30300A03B0020A2
:1072D0002083B8ED9CF303002CF30300C0F30300FC
:1072E000F8B5414D2C7834B1404E77792FB1F37910
:1072F000022B18D000242046F8BDB379022BF9D117
:107300003B493C480AF0C4FB0323B3710122F379E3
:10731000012B15D0384937480AF0BAFB0B20FFF78C
:1073200009FC0024E7E7324932480AF0B1FBC7F113
:107330000102032312F0FF02F371E8D1B379E7E70A
:1073400096F824102D4872712D4B4A1C002186F8A6
:10735000242000F1FC07C6F8FC104FF0FF3210F8B3
:10736000011F4A4042F30001194081EA520141F3F2
:1073700000021A4082EA510141F300021A4082EAF7
:10738000510242F30001194081EA520242F3000126
:10739000194081EA520141F300021A4082EA510188
:1073A00041F300021A4082EA510242F300011940FF
:1073B000874281EA5202D2D1D24300211148C6F855
:1073C000FC2006F06FFD30B14FF48073074A0D4882
:1073D000002106F0DDFDFFF7EDFC2D78002D8AD0B1
:1073E000FFF76AFD2C4686E7603B00209C3B0020AF
:1073F000F0F1030038430020C8F103009B3B00205C
:107400002083B8ED883B002038B52F4B1B78002B2C
:1074100056D02E4C2E4A637900211170002B50D08B
:107420000123E3712B482C4B00222262C4F8FC207C
:1074300000F1FC054FF0FF3210F8011F4A4042F303
:107440000001194081EA520141F300021A4082EA28
:10745000510141F300021A4082EA510242F3000155
:10746000194081EA520242F30001194081EA5201B7
:1074700041F300021A4082EA510141F300021A402E
:1074800082EA510242F300011940854281EA520228
:10749000D2D1D24300211148C4F8FC2006F002FDED
:1074A00030B14FF48073094A0C48002106F070FD9A
:1074B0000B490C480AF0ECFABDE83840FFF72CBC49
:1074C00038BD0123A371ADE7603B00209C3B002049
:1074D000803B00209B3B00202083B8ED883B0020B0
:1074E00028F503003843002038B5304B1B7803B92A
:1074F00038BD0AF041FF2E4C2E492F4A63790860AF
:1075000001211170002B4DD10223A3712B4D2C4B67
:1075100020620022C4F8FC2005F1FC004FF0FF328D
:1075200015F8011F4A4042F30001194081EA520157
:1075300041F300021A4082EA510141F300021A406D
:1075400082EA510242F30001194081EA520242F3F9
:107550000001194081EA520141F300021A4082EA17
:10756000510141F300021A4082EA510242F3000144
:107570001940A84281EA5202D2D1D24300211148D7
:10758000C4F8FC2006F08EFC30B14FF48073084A3A
:107590000C48002106F0FCFC0B490C48BDE83840C3
:1075A0000AF076BA0223E371B0E700BF603B002027
:1075B0009C3B00207C3B0020803B00209B3B00202C
:1075C0002083B8ED883B002004F5030038430020F9
:1075D000F8B54C4D2B7813B14B4E337813B90024CA
:1075E0002046F8BD0AF0C8FE484B1B684EF65F22E5
:1075F000C01A9042F3D9464946480AF049FA2C7815
:1076000000233370002CEAD0434E7779A7B9B379C1
:10761000022BE4D141493F480AF03AFA0323B371FF
:107620000122F379012B17D03D493A480AF030FA8C
:107630000B20FFF77FFAD2E7F379022BCFD137493E
:1076400034480AF025FAC7F10102032312F0FF02C1
:10765000F371E6D1B379E5E796F8241031487271F9
:10766000314B4A1C002186F8242000F1FC07C6F8A3
:10767000FC104FF0FF3210F8011F4A4042F30001A6
:10768000194081EA520141F300021A4082EA510195
:1076900041F300021A4082EA510242F3000119400C
:1076A00081EA520242F30001194081EA520141F39A
:1076B00000021A4082EA510141F300021A4082EAB4
:1076C000510242F300011940874281EA5202D2D1AD
:1076D000D24300211548C6F8FC2006F0E3FB30B188
:1076E0004FF480730C4A1148002106F051FCFFF75B
:1076F00061FB2D78002D3FF473AFFFF7DDFB2C46C7
:107700006EE700BF603B0020803B00207C3B0020F8
:1077100024F20300384300209C3B0020F0F10300DA
:10772000C8F103009B3B00202083B8ED883B00207C
:10773000074B187840B1074B5A7932B1D879A0F18C
:107740000200B0FA80F0400970479879F7E700BF6F
:10775000603B00209C3B00202DE9F04F934B93F8B9
:107760000090C3B0B9F1000F34D0914B98428046DD
:1077700000F2F980DFF854A28E499AF805308E485D
:10778000C3F10103DBB2002B14BF4FF400244FF40C
:107790008074009303F14102A346434608F6FF7448
:1077A00014BF802500250AF03DFA240B16D0834E25
:1077B000002702E00137BC4210D07919304606F0AC
:1077C00071FB0028F6D103463A467D497A4899462E
:1077D0000AF028FA484643B0BDE8F08FB8F1000F30
:1077E00000F0E180774DCDF804904FF0FF34002792
:1077F000A8EB0706B6F5807F28BF4FF480763246A7
:10780000394602A815F073FA02AB03EB060E9C464C
:107810001CF8012B82EA040343F300022A4082EAA7
:10782000530242F300032B4083EA520242F3000367
:107830002B4083EA520343F300022A4082EA5303B7
:1078400043F300022A4082EA530242F300032B4032
:1078500083EA520242F300032B4083EA520343F3CC
:1078600000042C40E64584EA5304D1D106F10F030D
:1078700023F00F094E4506D202ABA9EB0602002108
:10788000981915F058FA3A46494602A800F084F9CA
:107890004B4602AA0BEB0701484806F079FB00288B
:1078A0006BD03744B845A3D8DDF80490E443009B7F
:1078B0000122002B6CD140F20113CAF80880CAF8EB
:1078C00010408AF80620CAF818303F4E3D4D00237C
:1078D000CAF8FC3006F1FC074FF0FF3316F8012F11
:1078E000534043F300022A4082EA530242F300036A
:1078F0002B4083EA520242F300032B4083EA5203F7
:1079000043F300022A4082EA530343F300022A4071
:1079100082EA530242F300032B4083EA520242F30D
:1079200000032B4083EA520343F300022A40BE4285
:1079300082EA5303D2D1DB4300212048CAF8FC304D
:1079400006F0B0FA30B14FF48073204A1B48002192
:1079500006F01EFB22461E4917480AF063F9484606
:1079600043B0BDE8F08F1B4913480AF091F84FF07F
:107970000009484643B0BDE8F08F03463A46164931
:107980000D4899460AF04EF9484643B0BDE8F08FDD
:1079900040F20113CAF80C80CAF814408AF8072094
:1079A000CAF81C3091E7444681E700BF603B0020E5
:1079B00000FF07007CF2030038430020883B0020D2
:1079C000B0F203002083B8ED9B3B00209C3B0020DD
:1079D00000F303004CF20300D8F2030038B5094D60
:1079E000094C0A4A28460C2106F0D6FC29462046B6
:1079F000012206F053F82046054A0649BDE8384002
:107A000014F004BB643B0020843B0020F03E0020C7
:107A100000360020B56E02002DE9F0411A4F3E7885
:107A2000AAB06EBBE846194D404601F05FFD0FCD90
:107A300002AC0FC495E80F0084E80F0098E803003B
:107A40000AAB83E803000CA805F0D4F90CA805F0F4
:107A50004BF90CA802A9282205F00EFB0CA8202245
:107A60000B4905F045FB2822314602A815F063F9C1
:107A70000CA8C8F80460009605F060F901233B707B
:107A80002AB0BDE8F08100BF9C3C002074F50300E3
:107A9000A03C002010B5054B044640F82C3B03F0F9
:107AA000A5F9204604F082FA204610BD50F50300E7
:107AB0002DE9F047364F374E3D469446804689467D
:107AC0000FCDE0B00DAC0FC495E80F0084E80F00B7
:107AD0004FEA1C614FEA1C424FEA1C2316A88DF89E
:107AE00057C08DF856308DF854108DF8552005F09C
:107AF00081F916A805F0F8F805AD0DA916A82422FD
:107B000005F0BAFA16A82946202205F0F1FA95E800
:107B10000F0001AC84E80F004FF0200A0DA82422CA
:107B2000002115F008F952460021284615F003F906
:107B300016A805F003F921AD16A804F061FB28464C
:107B4000169603F0FBF95246394616A8179504F02D
:107B500055FA2146102216A804F064FA16A804214A
:107B600004F05CFB424641464B4616A804F064F91B
:107B700000232846C4E90033C4E90233169603F013
:107B800035F916A804F012FA012060B0BDE8F087BC
:107B9000A03C002050F50300074B1B7833B130B4F4
:107BA00008B10B0704D0002030BC7047002070479C
:107BB00030BCFFF77DBF00BF9C3C0020074B1B780B
:107BC00033B130B408B10B0704D0002030BC70478B
:107BD0000020704730BCFFF76BBF00BF9C3C00200B
:107BE00010B5074B044640F82C3B03F0FFF8204645
:107BF00004F0DCF920460CF08DFF204610BD00BFDC
:107C000050F5030038B5094C2546204604F024FF02
:107C1000074B45F8783B284603F0D6F820466560C8
:107C2000044A0549BDE8384014F0F0B9C03C0020D2
:107C30009CF50300003600203D7C020010B5054B8A
:107C4000044640F8783B03F03FF8204604F022FB5E
:107C5000204610BD9CF5030010B5074B044640F8C4
:107C6000783B03F031F8204604F014FB20460CF07A
:107C700051FF204610BD00BF9CF50300014902489A
:107C800009F006BF08F803003843002030B585B07E
:107C90004C794B780A780D790394CC7889780091E7
:107CA000CDE901450349044809F0BCFF012005B0B6
:107CB00030BD00BF48F803003843002008B505492F
:107CC000054809F0E5FE01211420BDE808400DF04B
:107CD000ADBB00BFF8F703003843002021B10A46CE
:107CE0000348044909F09EBF0349014809F0D0BE8A
:107CF0003843002088F8030070F8030010B50C48E2
:107D00000C460C4909F0E6FD21460A22084809F014
:107D1000D7FE094B197821B91420BDE810400DF0A9
:107D200085BB01211420BDE810400DF07FBB00BFD2
:107D3000384300202CF803000C3E002070B52A4C7C
:107D40002A4E00222046012108F064FB204604212F
:107D500008F0FEFC2046264904F1200508F0D0FC7E
:107D600000231A462846012107F0EAFE2846012191
:107D700007F0FEFE28461F4907F0A6FF28461E49C9
:107D800007F0ACFF28461D4907F0A6FF20461C4916
:107D900007F08EFE20461B4904F5227407F08AFE88
:107DA000304608F09FFE0621204606F011FE2046D0
:107DB00006F0F6FD204606F0C5FD3146204606F0E9
:107DC000ABFD2046012106F03BFEA02220461146D5
:107DD00006F032FE20461E2106F02CFE0A490B4812
:107DE000BDE8704009F054BE5C3F0020203E0020FA
:107DF000ACF803008D7C02007D7C0200DD7C02007B
:107E0000BD7C0200FD7C0200B8F80300384300206E
:107E100038B54FF080430124C3F87845214611203E
:107E20000DF06CFA214611200DF000FB21461320C5
:107E30000DF064FA214613200DF0F8FA21461420C3
:107E40000DF05CFA214614200DF0F0FA21461020C6
:107E50000DF054FA002110200DF0E8FA022107205D
:107E60000DF04CFA0C200DF06DF9FEF7C3FB3D4907
:107E70003D4809F00DFE3D4801F05EFB3C4800F036
:107E800003FC002868D03B4C204601F02FFB012565
:107E90000023C4E902533849334809F0F9FD21466B
:107EA000364801F05BFA2146354800F039FD354986
:107EB0002D4809F0EDFD01F00BFB02460B462A4868
:107EC000314909F0AFFE1B2130481F231E2202F06A
:107ED000EFFE2F492D4801F01DFEE0B92D49224843
:107EE00009F0D6FD0A24012111200DF09FFA64202B
:107EF0000AF04EFA002111200DF098FA64200AF0E1
:107F000047FA013CEFD1FFF719FF23491648BDE8B6
:107F1000384009F0BDBD2149134809F0B9FD0A21D7
:107F20001A4802F069FB1E49184802F099FC052125
:107F3000164802F0E7FD0821144802F027FE2A4601
:107F40001421124802F0BCFA3421104802F056FE07
:107F50000E4802F073FED6E71249034809F098FD77
:107F600091E700BFD0F5030038430020F03E002029
:107F7000903E0020F83D002024F60300A03E0020A3
:107F8000B83E002040F603005CF603000C3F0020E2
:107F9000C0CA893670F6030094F6030084F6030025
:107FA00048E80100F4F5030010B5074C204608F03E
:107FB00073FD20460549064A14F028F80B210548B0
:107FC000BDE8104000F058BB203E00205186020062
:107FD00000360020903E002038B501F09FFA1E4880
:107FE0004FF4E131044640F6B73509F00DFF03E0E8
:107FF0000AF0C2F9A84203D894F8A330002BF7D0B6
:108000001649154809F044FD01F062FA02460B4694
:108010001148134909F006FEFFF7FAFEFFF770F862
:1080200018B9BDE83840FEF731BCFFF759F968B917
:10803000FFF77EFB0028F4D00A49074809F028FD25
:10804000FFF752FABDE83840FEF720BC0649024867
:1080500009F01EFDECE700BF3843002048FA03009A
:108060005CF6030094FA030078FA03002DE9F0436C
:10807000364D374B2C881B7840F64752944297B0C8
:108080008CBF002401240BB144F00204314800F0FD
:1080900011FC08B144F008042F49304A304B2D48F8
:1080A000B5F8008016780D88B3F9007000F002FC76
:1080B000C0B2CDE902700494CDF8048000962B463E
:1080C00006A94022274801F057F9044678B3002159
:1080D00013200DF0ABF9DFF89C90234F234E0125C0
:1080E0004946384609F0F6FB0A222946384609F087
:1080F00021FD0021304601F09BFE224606A93046B4
:1081000001F0FEFB0021304601F098FF013580466A
:10811000A8B94FF4FA700AF03BF9042DE0D113200E
:1081200001210DF083F9404617B0BDE8F0831049F6
:108130000D4809F0ADFC204617B0BDE8F0831320D0
:1081400001210DF073F90120EEE700BF1C3E002075
:1081500004360020903E0020083E0020143E0020FF
:108160000A3E0020A03E0020384300200C3F0020A3
:10817000F4F603000CF703002DE9F04FA9B0FFF768
:1081800027FA07200DF064F9002800F0FE80B34DB7
:108190002C78002C40F0CE80B149B248DFF848A3DB
:1081A000DFF84893B04F09F073FC214611200DF021
:1081B0003DF932200AF0ECF8012111200DF036F9DA
:1081C000AA49A84809F064FCFEF7D2FAA849054676
:1081D000A44809F07FFB29460A22A24809F0AAFC1C
:1081E0002846AAF80050FEF71DFB89F800001E2063
:1081F0000CF0AEFF41F2883280B29E4B9E4902FBEA
:1082000000F0A3FB0023C01A9C4A03EB5003DB0AD7
:1082100094483B80148009F05DFB0A2299F8001015
:10822000904809F069FB96498E4809F053FB0A22F1
:10823000BAF800108B4809F08FFB9249894809F081
:1082400027FC9149874809F045FB398885480A226F
:1082500009F082FB8D49834809F01AFCFFF706FFFD
:10826000002875D18A497F488A4C09F011FC3B8867
:10827000BAF800202168ADF8642040F6475299F81A
:1082800000008DF8680093421891ADF8663040F216
:10829000BF8002238DF86930002318A97E48ADF80D
:1082A0006E30CDF86A3000F099FA002840F06C8109
:1082B0007A4D284600F000FF2B78052B00F07181E5
:1082C0002368774803F5E1531946236001F0D0F89D
:1082D0007449644809F0DCFB624809F02DFD7248DE
:1082E00002F0D0F86C4800F00FFB002111200DF0D7
:1082F0009DF8002114200DF099F8002110200DF0B8
:1083000095F83B88B3F5486FC0F09B80674C0CF044
:10831000E9FB20460AF03CF80CF0EAFB5E4800F06E
:10832000F9FA614802F090F8614B00221A7029B006
:10833000BDE8F08F0AF020F85E4B5F4A1B68C01A58
:10834000904269D864200AF023F829B0BDE8F08F84
:108350005A49444809F09CFBFFF7EAF9002869D123
:108360000AF00AF8504E054640F6B73403E001F033
:10837000E7FE00286BDC09F0FFFF431BA3424FF030
:1083800000013046F3D94E496DE732200AF000F87B
:1083900007200DF05DF8314D00287FF4F9AE2B7801
:1083A000002BC7D147492F4809F072FB01232B70DE
:1083B00009F0E2FF3F4B05241860012114200DF065
:1083C00035F8642009F0E4FF002114200DF02EF8A8
:1083D000642009F0DDFF013CEFD1012114200DF0F4
:1083E00025F82146384806F099FB38491D4809F020
:1083F0004FFB37491B4809F06DFA0A224FF496717A
:10840000184809F0A9FA3349164809F041FBBFE6BC
:1084100006238DF869303FE72F49124809F038FBF1
:10842000002429482C7006F0EBFB214614200CF0A8
:10843000FDFF87E729490B4809F02AFBFEF7E4FF17
:108440008EE727490748274C09F022FB5FE718AE63
:10845000154D34460DF1A00851E000BF0C3E002040
:1084600018F90300384300201C3E0020A8F6030042
:10847000DCF603000101100034F903000A3E00207D
:1084800040F9030094F903004CF9030058F9030084
:10849000ACF90300103E0020903E0020B83E0020C2
:1084A000A03E002078F703000C3F002000DD6D00A7
:1084B00004360020183E0020E09304005CF903001D
:1084C00030FA03001CF70300E441002034F70300F6
:1084D00054F703006CF70300E8F8030068F90300A1
:1084E00090F703000074B701083E0020143E0020FE
:1084F0004445284675D001F0B7F904F8010BA21BDA
:1085000028465FFA82FB01F017F90028F0D10CAC85
:108510005A463146009406AB414800F075FF38B129
:108520009DF81B10A1F11003072B52D9022901D08D
:108530003C4CBDE63C493D4809F0AAFA9DF8333071
:10854000DB0751D43B88BAF80020364CADF80C203C
:1085500040F647529342ADF80E3099F8000021687A
:108560008DF810008CBF0123052302918DF8113086
:1085700002A900232E48ADF81630CDF8123000F0D5
:108580002DF900283FF494AE2A49284809F0A2F9B1
:10859000274800F08FF90A220146244809F0CAFA58
:1085A00086E62549214809F073FA4FF48020FFF749
:1085B000D3F848B121491D4809F06AFAFEF794FF43
:1085C0001F4800F0EDFA7BE61E49184809F060FAF2
:1085D000F6E722469DF82F301948124C00F02AFD8C
:1085E00066E64FF0400B92E7114800F063F904464D
:1085F0000028A7D014490D4809F06CF90A22214639
:108600000A4809F0A9F91149084809F041FA042C6F
:10861000214628BF042189B2054800F04DF991E7B1
:10862000A03E0020103E002098F9030038430020AF
:10863000903E0020B4F70300B8F90300DCF9030012
:10864000B83E002000FA0300D4F70300E4F703006B
:1086500010B5074B044640F8183B06F05FFB204678
:10866000044B40F8083B07F025FC204610BD00BF36
:10867000AC090400C4080400002201704270C0E983
:108680000122C260704700BF30B5044695B010208B
:108690000CF03EFA94F90010394B3A4A054605F0C1
:1086A00063FF65602846022105F07EFF054668B934
:1086B0003549364809F0ECF9606810B103685B6829
:1086C000984700232846636015B030BD0DF10602BF
:1086D0000DF10501606806F059F850BB6378FBB9ED
:1086E000BDF808303E2B03D8BDF80A203E2A35D904
:1086F000627800230F93C4E90233CDE90B33CDE94F
:108700000D33CDE910331293ADF84C30EAB920495E
:108710001E4809F0BDF901232846637015B030BD2D
:1087200060680028DCD0222302AA402105F0FCFF6B
:10873000D6E7BDF806309DF805201649134809F024
:1087400071FA6378002BCBD0EAE760680028DED0AE
:108750000BAA2223402105F0B7FFD8E7002163F3DD
:108760000F01039B094862F31F41C4E902130A4940
:1087700009F0B0F80A22A189044809F0DBF9CAE738
:1087800000127A00F03E0020BCFA030038430020BB
:1087900008FB0300D8FA030028FB030070B44578F7
:1087A00035B1406820B10C461C44B4F5005F02DDD1
:1087B000002070BC704770BC05F0B6BF70B445783F
:1087C00035B1406820B10C461C44B4F5005F02DDB1
:1087D000002070BC704770BC05F076BFF0B54378E0
:1087E0008BB01BB9002528460BB0F0BD4568002DA5
:1087F000F8D0038903F2C1131B019BB241F6F0725A
:108800009342EFD80A46044619462846102305F03D
:108810005BFF05460028E5D02289254EA1896089A5
:10882000013286FB027313445B11C3EB8313D31A2B
:108830009BB23E2923812DD8013189B2A181E289E1
:10884000013292B200278A423E4688BF0A4663F34D
:108850000F0761F30F0688BFE181617898BFE2815D
:10886000002360F31F4762F31F46CDE901760593AD
:10887000CDE90333CDE906330893ADF82430002960
:10888000B1D060680028AED001AA2223402105F0B3
:108890001BFFA8E7013086FB00260644C217C2EB87
:1088A0006616C6EB8616801B80B26081C7E700BFE4
:1088B00083200882C089704710B5C38984684278D4
:1088C0008AB08B4294BFD91A591A89B200230194F5
:1088D0008489C181ADF80A10ADF808400593CDE94F
:1088E0000333CDE906330893ADF8243012B90120E3
:1088F0000AB010BD40680028F9D001AA2223402107
:1089000005F0E2FEF3E700BF406808B105F06ABF7A
:10891000704700BF406808B105F084BF704700BFD2
:10892000002310B500F11802416103704370C0E9E3
:108930000133C36003828374044620234FF4007123
:108940001748FFF72BFF18B1164BA2699A4200D0C7
:1089500010BD94F82F30032B08D0052BF8D12370CD
:1089600011491248BDE8104009F092B8E169628DE2
:108970002370616022820E490C4808F0ABFF0A2286
:10898000618D0A4808F0E8FF0A49084808F0A2FF8C
:10899000218D06480A22BDE8104009F0CBB800BF7F
:1089A000903E00204841544F90000400384300207E
:1089B0006C0004008C000400F0B50C46A1B06B49BB
:1089C00005466B4808F086FF0A226178684808F07F
:1089D00093FF6849664808F07DFF0A22A178644841
:1089E00008F08AFF6349624808F074FFE178604844
:1089F0000A2209F065F82378FF2B07D0012B05D058
:108A00005D495B4809F044F821B0F0BDA378607877
:108A1000E1785A4A1B0243EA00430B439342EFDDDD
:108A20006368B3F5802F00F297802B78D4F80E207E
:108A3000032B00F096806B696A601E7858789978ED
:108A4000DF7B1F2212FB0602C2EB42121144DA78CE
:108A500018795E79C1EB41110A44C2EB421210440D
:108A6000C0EB401006449879DA79197AC6EB4616BD
:108A70003044C0EB40100244C2EB421211445A7A17
:108A8000987ADE7AC1EB41110A44C2EB42121044DB
:108A9000C0EB40100644187B5A7B997B384BC6EBE1
:108AA00046163044C0EB40100244C2EB42120A4466
:108AB000C2EB42123A443349A3FB02031B0D01FBF4
:108AC0001323AB6009F058FC002601232E4AE8600E
:108AD0002B702E82AE746E70AA61D4F80E20EA61FB
:108AE00062682A62D4F80A206A6222892A856E8521
:108AF000627885F82C20A27885F82D20E27885F818
:108B00002E2085F82F3005F11802202385F83060DB
:108B10004FF400711D48FFF751FE31466846802230
:108B200014F009F96A4680234FF406711748FFF7DD
:108B300045FE17490E4808F0CDFE164BA9680C48B3
:108B4000A3FB01310A22890908F074FF1249084881
:108B500008F09EFF21B0F0BD1049054808F098FFCD
:108B600052E76B6893427FF466AF4DE70000040064
:108B70003843002000F5030010000400000101004C
:108B8000B17C219540771B004841544F903E002016
:108B900040000400D34D62106CF70300280004006D
:108BA0000378052B03D01349134808F071BF10B5A3
:108BB00012490446104808F06BFF002384F82F3058
:108BC00004F1180220234FF400710D48FFF7F6FD61
:108BD0004FF08043B122C3F81C25BFF34F8F0949E2
:108BE000094BCA6802F4E0621343CB60BFF34F8FB6
:108BF00000BFFDE74CFF03003843002064FF030083
:108C0000903E002000ED00E00400FA052DE9F04F51
:108C1000C3B0414A4369009201228DF8042059688B
:108C20009A681C68DB68CDF8113080463B48CDF867
:108C30000910CDF80D20CDF8054000F013FCB8F870
:108C40002830D8F80420ADF8150009218DF8171048
:108C500006925BB3DFF8D8A0314F4FF0FF34002508
:108C600010AE4FF0C80909FB05F1013B01F5107189
:108C70009D426FEA040489B234D0C823324650467C
:108C8000FFF78CFDC823314611F8012B6240D2B2A8
:108C9000881B57F82220834282EA1424F4D8013535
:108CA000B8F82830ADB2AB42DDD8E343D8F8244061
:108CB0000793E31A18BF012300211A488DF82030CA
:108CC00001F0B6F821226946164800F019FE00218D
:108CD000144801F0B3F91449144808F0D9FE43B020
:108CE000BDE8F08FD8F8203005EB850B0BEB8B0B34
:108CF000A3EBCB0B1FFA8BFB5B4632465046FFF7CC
:108D00004DFD5B46002BBED10135B8F82830ADB221
:108D1000AB42A8D8C9E700BF41470115A03E0020DB
:108D20004CFB03000C3F0020ECFF03003843002005
:108D3000903E00202DE9F041CB8890B00C460546CE
:108D400001F10A02002B00F0588110469F184FF6DF
:108D5000FF7141F2210610F801CB81EA0C210FFAD4
:108D600081FC1FFA8CF1BCF1000FACBF490086EA10
:108D7000410189B211F4004F0CBF490086EA41015C
:108D800089B211F4004F0CBF490086EA410189B253
:108D900011F4004F0CBF490086EA410189B211F479
:108DA000004F0CBF490086EA410189B211F4004F1F
:108DB0000CBF490086EA410189B211F4004F0CBF93
:108DC000490086EA410189B211F4004F0CBF490005
:108DD00086EA4101B84289B2BDD1208988423DD09E
:108DE0008749884808F076FD0A22A188854808F05E
:108DF000B3FD8549834808F04BFE01266B69834A21
:108E000000928DF80460186859689A68A488DB6835
:108E1000CDF805007E48CDF80910CDF80D20CDF82D
:108E2000113000F01FFB6A68ADF815000723794880
:108E3000ADF81C4000218DF81E6006928DF81730A9
:108E400000F0F6FF69461F22724800F059FD00212C
:108E5000704801F0F3F810B0BDE8F081A6886E48C4
:108E6000C82101FB06F101F5107189B2FFF7A6FCDC
:108E70000646002800F09880A6886748C6F3C70811
:108E800008F5067841466A460123FFF787FC01276B
:108E90009DF80030604806F0070607FA06F64146DE
:108EA0001E436A463B468DF80060FFF787FC6B8DDA
:108EB0003B446B8509F060FA00266B69574AE8600D
:108EC0008DF80470AE7400921F6859689A68DB6868
:108ED000CDF81130CDF80910CDF80D20CDF8057082
:108EE0004B48A78800F0BEFA6B68ADF81500072262
:108EF0003146484806938DF81720ADF81C708DF860
:108F00001E6000F095FF1F226946424800F0F8FC01
:108F10003146404801F092F839493A4808F0DAFC05
:108F2000A18838480A22013108F016FD3C4935482D
:108F300008F0D0FC0A22298D324808F00DFD39498D
:108F4000304808F0C7FC298DE9B90A222D4808F0FD
:108F5000D3FC35492B4808F09BFD698D2A8D0323EE
:108F600091422B7085F82F3015D2202305F118027D
:108F70004FF400712848FFF721FCA38801332B82AE
:108F800010B0BDE8F0816A8D642303FB02F393FB0C
:108F9000F1F1C9B2D9E725491A4808F079FD04234F
:108FA0002B7085F82F30E0E72149164808F070FD56
:108FB000164A00926B6901228DF8042018685968DE
:108FC0009A68A788DB68CDF805001148CDF809102C
:108FD000CDF80D20CDF8113000F044FA6C68ADF8F2
:108FE0001500072202230B48ADF81C703146069489
:108FF0008DF817208DF81E3022E74FF6FF71ECE652
:109000007CFF03003843002088FF03004147011420
:10901000A03E00200C3F0020903E0020414701135D
:109020008C000400A8FF0300ACFF0300B0FF0300A6
:1090300094FF0300122910B5044628D016290AD03F
:10904000102901D0002010BD112BFBD91146FFF7CC
:10905000B3FC012010BD1449144808F019FD04F1B7
:1090600018030021062221706160627018462022D8
:1090700013F061FE202302464FF400710C48FFF705
:109080009DFB0C49094808F003FD012010BD092B88
:10909000D8D943681168994201D0012010BD11460A
:1090A000FFF748FE012010BD58000400384300209F
:1090B000903E0020B00004002DE9F04F8046B3B090
:1090C00009F05AF998F80030013B0446032B29D8DF
:1090D000DFE803F07802022BD8F80C3042F20F726E
:1090E000C31A93421ED998F812300133DBB2042B15
:1090F00088F8123040F2DB808C498D4808F0C8FCBB
:109100000122062388F8012088F8302088F80030F2
:1091100088F82F3008F1180220234FF40071854899
:10912000FFF74CFB33B0BDE8F08FB8F828305BB3E5
:10913000DFF800A2804F4FF0FF3400256E464FF05D
:10914000C80909FB05F1013B01F510719D426FEA69
:10915000040489B27CD0C82332465046FFF71EFB78
:10916000C823314611F8012B6240D2B2881B57F850
:109170002220984282EA1424F4D30135B8F828302A
:10918000ADB2AB42DDD8E343D8F824209A4208F1CF
:10919000180478D06949664808F07AFC0321062350
:1091A00088F8011088F8301088F8003088F82F30DF
:1091B000224620234FF400715E48FFF7FFFA33B0D8
:1091C000BDE8F08FD8E90223C31A9342AAD35C4AC0
:1091D0000092D8F814305B4801228DF804201D68F5
:1091E00059689A68DB68CDF81130CDF80550CDF894
:1091F0000910CDF80D2000F035F9B8F82A30ADF897
:1092000015000025013B0920D8F80420ADF81F30D7
:10921000294640F201138DF817004B48ADF81C3079
:1092200006928DF81E5000F003FE21226946464842
:1092300000F066FB2946444800F000FF43493C48E3
:1092400008F026FC0223C8F80C4088F8003069E7D3
:10925000D8F8203005EB850B0BEB8B0BA3EBCB0B7E
:109260001FFA8BFB5B4632465046FFF797FA5B4688
:10927000002B7FF476AF0135B8F82830ADB2AB42A1
:109280003FF65FAF7FE73249294808F001FC05232C
:1092900088F8003088F82F30224620234FF40071E0
:1092A0002448FFF78BFA4046FFF7B0FC3AE729491C
:1092B0001F4808F00FFB0A2298F812101C4808F00B
:1092C000FFFB0125D8F81430234A00928DF8045092
:1092D0001E6859689A681B48DB68CDF81130CDF8D4
:1092E0000560CDF80910CDF80D20B8F8106000F039
:1092F000B9F8D8F80430ADF815000722002112485B
:1093000006938DF817208DF81E50ADF81C6000F004
:109310008FFD69461F220C4800F0F2FA00210A482E
:1093200000F08CFEC8F80C40FCE600BFC000040052
:1093300038430020903E00204CFB0300180104003D
:1093400041470111A03E00200C3F0020D8FF030040
:10935000F4000400DC0004004147011430B4CB6881
:109360000D684C688A68C3600023056044608260B1
:109370000382436130BC70472DE9F047262A9DF8EF
:1093800020C0BDF82470BDF928609DF82C509DF8D0
:10939000304002D80020BDE8F0871A4A0A60012256
:1093A0000A71D0F80880D0F80CE0D0F800A0D0F80E
:1093B0000490C1F80990C1F80D80C1F811E0C1F81E
:1093C00005A0028A4FF00F0E02F10108A0F81080EC
:1093D000A1F8152081F817E042698A6100228B8389
:1093E00081F81EC0A1F81F70A1F8216081F82550F6
:1093F00081F8264081F8232081F824202720BDE829
:10940000F08700BF41470101172A01D800207047AB
:1094100070B508684C68CD688E681860DD601D788E
:109420005C609E6008694C695C61412D186101D0E7
:10943000002070BD58784728FAD19C78012CF7D1CC
:10944000DB7D03F118008242F2D3049A02B10BB91A
:10945000204670BD104618311A4613F048FC2046CD
:1094600070BD00BF038A5A1C02821846704700BFB5
:1094700041617047134B0122C3F80425D3F800243F
:10948000002AFBD04FF0102200210E4BC2F8081228
:10949000D3F80024002AFBD000220A49C3F804258F
:1094A000D1F80034002BFBD0BFF34F8F0649074B98
:1094B000CA6802F4E0621343CB60BFF34F8F00BF72
:1094C000FDE700BF00E0014000ED00E00400FA0508
:1094D0004FF080510022086E496E4DF804BD42EAFB
:1094E000000B58465DF804BB704700BFA0B14FF0B9
:1094F000805230B4136E526EC270110E150C1C0ED9
:10950000120AC3710170190C1B0A45700471827034
:109510004171837130BC7047704700BF08B54FF090
:109520001023D3F80822013200D008BDD3F8083246
:109530000133FAD1FFF79EFF417C01B1704770B44F
:109540008368827B254C01254574C3F80825427B3E
:10955000C3F80C252579067B6279C3F81065C3F83A
:109560000015691E12F1FF32C9B218BF012202298B
:10957000C5730274206816D9C3F85425184AB2FB83
:10958000F0F2B2F5007F13D2FF2A1AD87F2A1ED834
:109590003F2A19D81F2A1DD8102A34BF4FF0004186
:1095A0004FF0804106E00F4C54F821100A43E3E7E6
:1095B0004FF000710122C3F8241570BCC3F80025D8
:1095C00070474FF08061F5E74FF08051F2E74FF0C0
:1095D0000061EFE74FF00051ECE700BF043F0020CF
:1095E0000090D0032C01040082680023C2F80035EB
:1095F0004374704730B482B002AB03E906009DF8B3
:1096000004409DF805308268611E13F1FF33C9B232
:1096100018BF012300250229C2F80055C473037442
:1096200003D8194850F821100B43C2F8543500995B
:10963000164BB3FBF1F3B3F5007F18D2FF2B0CD818
:109640007F2B17D83F2B18D81F2B19D8102B34BFBE
:109650004FF000414FF0804101E04FF08061012365
:10966000C2F82415C2F8003502B030BC70474FF084
:109670000071F4E74FF00061F1E74FF08051EEE741
:109680004FF00051EBE700BF2C0104000090D00325
:1096900083680022C3F80025704700BF8268C2F8C3
:1096A0001C15D2F80831002BFBD0D2F81805002386
:1096B000C0B2C2F808317047B2B1013A30B48C1868
:1096C00000250139826811F8013FC2F81C35D2F833
:1096D0000831002BFBD0D2F81835C2F80851A1424E
:1096E0000B70EFD130BC7047704700BF0B4A0C4B7A
:1096F0000C4970B4D2E90C050B4C966B98730022A0
:109700009C604FF48070094C1E735D73DA731A7499
:109710000C6088805A7470BC704700BF600A0400F7
:10972000F03E0020043F00200030024000093D00D0
:1097300000207047704700BF38B500210446C0695B
:109740000BF074FE04F1100393E80600A069FFF724
:1097500051FFA0691321FFF7A1FF0021A069FFF7C6
:109760009DFF0546A069FFF793FFE06901210BF01B
:109770005DFEE06A281A38BD2DE9F0430368394AD6
:109780005B6883B093428DF8071061D104460021D5
:10979000C06904F110060BF049FE96E80600A069C6
:1097A000FFF728FF2221A069FFF778FF0021A069B9
:1097B000FFF774FF8146A069FFF76AFF0121E069A6
:1097C0000BF034FEB9F1FF0F3FD00DF1070845460D
:1097D0000021E06915F8017B0BF028FE96E80600F1
:1097E000A069FFF707FF8021A069FFF757FF3946FF
:1097F000A069FFF753FFA069FFF74AFF0121E06965
:109800000BF014FEA845E3D001231D46E0690021BA
:1098100099440BF00BFE96E80600A069FFF7EAFEFC
:109820005FFA89F9A221A069FFF738FF4946A069CC
:10983000FFF734FFA069FFF72BFFE06901210BF070
:10984000F5FD284603B0BDE8F08300231D46DDE7A3
:1098500001220DF1070198470546284603B0BDE8EF
:10986000F08300BF0199020038B50368234A1B69E1
:10987000934204463DD10021C0690BF0D7FD04F1AD
:10988000100393E80600A069FFF7B4FE1321A06956
:10989000FFF704FF0021A069FFF700FF0546A0695C
:1098A000FFF7F6FEE06901210BF0C0FDE06A281A1F
:1098B00008B3E36AE0690133E36200210BF0B6FD0F
:1098C00004F1100393E80600A069FFF793FE00215E
:1098D000A069FFF7E3FE0021A069FFF7DFFE054660
:1098E000A069FFF7D5FEE06901210BF09FFD284636
:1098F00038BD9847DCE74FF0FF3038BD399702009C
:109900002DE9F04704460D46C069002104F1100618
:1099100091460BF08BFD96E80600A069FFF76AFE02
:109920002221A069FFF7BAFE0021A069FFF7B6FE69
:109930000746A069FFF7ACFE07EB090AE0690121C1
:109940000BF074FDBAF1FF0F84BFC7F1FF0907EBFD
:10995000090AB9F1000F1ED0013D05EB09080021ED
:10996000E06915F8017F0BF061FD96E80600A0693B
:10997000FFF740FE8021A069FFF790FE3946A069FD
:10998000FFF78CFEA069FFF783FE0121E0690BF071
:109990004DFDA845E3D1E06900210BF047FD96E8B5
:1099A0000600A069FFF726FE5FFA8AFAA221A069E5
:1099B000FFF774FE5146A069FFF770FEA069FFF73C
:1099C00067FEE06901210BF031FD4846BDE8F087F4
:1099D000F8B503683B4A1B69934204466CD10021E9
:1099E000C0690BF023FD04F1100393E80600A069A1
:1099F000FFF700FE1321A069FFF750FE0021A069C8
:109A0000FFF74CFE0546A069FFF742FEE069012121
:109A10000BF00CFDE06A281A00284FD004F1100565
:109A2000E06900210BF002FD95E80600A069FFF750
:109A3000E1FD0D21A069FFF731FE0021A069FFF7CC
:109A40002DFE0746A069FFF723FEE06901210BF018
:109A5000EDFCE06900210BF0E9FC95E80600A06947
:109A6000FFF7C8FD0021A069FFF718FE0021A069DB
:109A7000FFF714FE0646A069FFF70AFEE069012120
:109A80000BF0D4FCE06900210BF0D0FC95E8060057
:109A9000A069FFF7AFFD8D21A069FFF7FFFD3946F3
:109AA000A069FFF7FBFDA069FFF7F2FDE069012166
:109AB0000BF0BCFC3046F8BD9847ADE74FF0FF30E7
:109AC000F8BD00BF3997020038B54FF47A73836050
:109AD0000D4D0E4A0E4905600123026143750922AE
:109AE000022381610A2500210446C0E9075243622E
:109AF00041600175C0E90A11C0E90C11816308F0E9
:109B0000ADF8204638BD00BF6801040000127A009D
:109B1000F03E0020F8B504460F46C06901210BF065
:109B2000EDFBE06901210BF081FC206A431C10D0A1
:109B300001210BF0E3FB0021206A0BF077FC0A20E7
:109B400008F026FC206A01210BF070FC0A2008F0C6
:109B50001FFCA069FFF7F0FC04F110050021E0698B
:109B60000BF064FC95E80600A069FFF743FD422175
:109B7000A069FFF793FD0021A069FFF78FFD06465E
:109B8000A069FFF785FD0121E0690BF04FFC122E63
:109B900001D00020F8BDE06900210BF047FC95E8FA
:109BA0000600A069FFF726FD8121A069FFF776FD79
:109BB0008021A069FFF772FDA069FFF769FDE069E8
:109BC00001210BF033FCFB17D904984AA76200234C
:109BD00041EA5731F80412F075FE00210646E069AB
:109BE0000BF024FC95E80600A069FFF703FD862131
:109BF000A069FFF753FDC6F30741A069FFF74EFDCB
:109C0000A069FFF745FDE06901210BF00FFCE06959
:109C100000210BF00BFC95E80600A069FFF7EAFCB9
:109C20008721A069FFF73AFDC6F30721A069FFF776
:109C300035FDA069FFF72CFDE06901210BF0F6FB73
:109C4000E06900210BF0F2FB95E80600A069FFF740
:109C5000D1FC8821A069FFF721FDF1B2A069FFF7CF
:109C60001DFDA069FFF714FDE06901210BF0DEFB8B
:109C7000E06900210BF0DAFB95E80600A069FFF728
:109C8000B9FC8E21A069FFF709FD0021A069FFF74B
:109C900005FDA069FFF7FCFCE06901210BF0C6FBA4
:109CA000E06900210BF0C2FB95E80600A069FFF710
:109CB000A1FC8F21A069FFF7F1FC0021A069FFF74B
:109CC000EDFCA069FFF7E4FCE06901210BF0AEFBBD
:109CD000E06900210BF0AAFB95E80600A069FFF7F8
:109CE00089FC0C21A069FFF7D9FC0021A069FFF7CE
:109CF000D5FC0646A069FFF7CBFCE06901210BF01B
:109D000095FBE06900210BF091FB95E80600A06946
:109D1000FFF770FC8C21A069FFF7C0FC46F003013F
:109D2000C9B2A069FFF7BAFCA069FFF7B1FCE0690E
:109D300001210BF07BFBE06900210BF077FB95E83C
:109D40000600A069FFF756FCA621A069FFF7A6FC54
:109D50000421A069FFF7A2FCA069FFF799FCE06964
:109D600001210BF063FBE06900210BF05FFB95E83C
:109D70000600A069FFF73EFCCD21A069FFF78EFC2D
:109D80008421A069FFF78AFCA069FFF781FCE069E4
:109D900001210BF04BFBE06900210BF047FB95E83C
:109DA0000600A069FFF726FC8B21A069FFF776FC6F
:109DB0002B21A069FFF772FCA069FFF769FCE0693D
:109DC00001210BF033FBE06900210BF02FFB95E83C
:109DD0000600A069FFF70EFC8921A069FFF75EFC71
:109DE0008F21A069FFF75AFCA069FFF751FCE069D9
:109DF00001210BF01BFBE06900210BF017FB95E83C
:109E00000600A069FFF7F6FB8121A069FFF746FC79
:109E10008121A069FFF742FCA069FFF739FCE069E6
:109E200001210BF003FB0120F8BD00BF0048E80151
:109E3000F8B504460F46C069002104F110050BF087
:109E4000F5FA95E80600A069FFF7D4FB0121A069A7
:109E5000FFF724FC0021A069FFF720FC0646A0695B
:109E6000FFF716FC06F00306E06901210BF0DEFAAD
:109E7000032E00F09B800021E0690BF0D7FA95E8F3
:109E80000600A069FFF7B6FB1221A069FFF706FCE8
:109E90000021A069FFF702FC0646A069FFF7F8FB66
:109EA0000121E0690BF0C2FA330700F18180002143
:109EB000E0690BF0BBFA95E80600A069FFF79AFB92
:109EC0008121A069FFF7EAFB8121A069FFF7E6FB8A
:109ED000A069FFF7DDFB0121E0690BF0A7FA002F75
:109EE0007FD13946E06927630BF0A0FA95E80600B8
:109EF000A069FFF77FFB1D21A069FFF7CFFB394663
:109F0000A069FFF7CBFB0646A069FFF7C1FB012163
:109F1000E0690BF08BFA3946E0690BF087FA95E8B7
:109F20000600A069FFF766FB9D21A069FFF7B6FB5D
:109F300006F0FE01A069FFF7B1FBA069FFF7A8FBDF
:109F4000E06901210BF072FAE06900210BF06EFA72
:109F500095E80600A069FFF74DFB8D21A069FFF78A
:109F60009DFB0021A069FFF799FBA069FFF790FB1B
:109F7000E06901210BF05AFAE06900210BF056FA72
:109F800095E80600A069FFF735FBA221A069FFF75D
:109F900085FB0021A069FFF781FBA069FFF778FB33
:109FA000E06901210BF042FA0120F8BD0020F8BD64
:109FB000E06900210BF03AFA95E80600A069FFF786
:109FC00019FB9221A069FFF769FB0821A069FFF73F
:109FD00065FBA069FFF75CFB0121E0690BF026FA45
:109FE00065E701260021E06926630BF01FFA95E87A
:109FF0000600A069FFF7FEFA1D21A069FFF74EFBDE
:10A000000021A069FFF74AFB0746A069FFF740FB64
:10A010003146E0690BF00AFA0021E0690BF006FA1C
:10A0200095E80600A069FFF7E5FA9D21A069FFF712
:10A0300035FB47EA0601C9B27CE700BF70B50446AC
:10A04000C06951B3A36B002B77D0002104F1100538
:10A050000BF0ECF995E80600A069FFF7CBFAC021F8
:10A06000A069FFF71BFB4021A069FFF717FBA06960
:10A07000FFF70EFBE06901210BF0D8F9E069002140
:10A080000BF0D4F995E80600A069FFF7B3FA812137
:10A09000A069FFF703FB832143E004F110050BF0F7
:10A0A000C5F995E80600A069FFF7A4FA8121A06927
:10A0B000FFF7F4FA8321A069FFF7F0FAA069FFF730
:10A0C000E7FA0121E0690BF0B1F901E00AF0C0FE06
:10A0D0000021E0690BF0AAF995E80600A069FFF7F6
:10A0E00089FA1221A069FFF7D9FA0021A069FFF7C8
:10A0F000D5FA0646A069FFF7CBFA0121E0690BF01B
:10A1000095F93307E2D50021E0690BF08FF995E866
:10A110000600A069FFF76EFA9221A069FFF7BEFA68
:10A120000821A069FFF7BAFAA069FFF7B1FAE06960
:10A1300001210BF07BF9012070BD04F110059EE7B1
:10A140002DE9F84304468846C069002104F1100552
:10A150000BF06CF995E80600A069FFF74BFA1221A5
:10A16000A069FFF79BFA0021A069FFF797FA06465E
:10A17000A069FFF78DFAE06901210BF057F9B8F1FA
:10A18000000F40F3318101270021E06927630BF0C4
:10A190004DF995E80600A069FFF72CFA1D21A0698A
:10A1A000FFF77CFA0021A069FFF778FA8146A069E1
:10A1B000FFF76EFA3946E0690BF038F90021E069E3
:10A1C0000BF034F995E80600A069FFF713FA9D211A
:10A1D000A069FFF763FA49EA0701C9B2A069FFF76E
:10A1E0005DFAA069FFF754FA3946E0690BF01EF9F1
:10A1F0000021E0690BF01AF995E80600A069FFF765
:10A20000F9F9A221A069FFF749FA5FFA88F1A0697C
:10A21000FFF744FAA069FFF73BFA0121E0690BF070
:10A2200005F90021E0690BF001F995E80600A06945
:10A23000FFF7E0F99221A069FFF730FA3146A069F3
:10A24000FFF72CFAA069FFF723FA06F06006012158
:10A25000E0690BF0EBF8402E77D1266BE069002720
:10A26000E762002E63D131460BF0E0F895E8060076
:10A27000A069FFF7BFF91321A069FFF70FFA314674
:10A28000A069FFF70BFA0646A069FFF701FAE0693B
:10A2900001210BF0CBF8E06900210BF0C7F895E83D
:10A2A0000600A069FFF7A6F91021A069FFF7F6F9EB
:10A2B0000021A069FFF7F2F90746A069FFF7E8F966
:10A2C000E06901210BF0B2F8E06900210BF0AEF873
:10A2D00095E80600A069FFF78DF98D21A069FFF7C9
:10A2E000DDF93946A069FFF7D9F9A069FFF7D0F980
:10A2F000E06901210BF09AF8E06900210BF096F873
:10A3000095E80600A069FFF775F98121A069FFF7BC
:10A31000C5F98121A069FFF7C1F9A069FFF7B8F974
:10A32000E06901210BF082F83046BDE8F883394638
:10A330000BF07CF895E80600A069FFF75BF9222195
:10A34000A069FFF7ABF939469AE70021E0690BF005
:10A350006DF895E80600A069FFF74CF90121A069A6
:10A36000FFF79CF90021A069FFF798F90646A0695C
:10A37000FFF78EF90121E0690BF058F8862E5ED0C8
:10A38000E06900210BF052F895E80600A069FFF79C
:10A3900031F98D21A069FFF781F90021A069FFF74C
:10A3A0007DF9A069FFF774F9E06901210BF03EF82F
:10A3B000E06900210BF03AF895E80600A069FFF784
:10A3C00019F98121A069FFF769F98621A069FFF7D2
:10A3D00065F9A069FFF75CF90026E06901210BF03F
:10A3E00025F83046BDE8F88300273946E069276341
:10A3F0000BF01CF895E80600A069FFF7FBF81D219B
:10A40000A069FFF74BF93946A069FFF747F9804685
:10A41000A069FFF73DF90121E0690BF007F8394623
:10A42000E0690BF003F895E80600A069FFF7E2F891
:10A430009D21A069FFF732F908F0FE01E7E600264A
:10A440003046BDE8F88300BF10B500210446C0695E
:10A450000AF0ECFF04F1100393E80600A069FFF78F
:10A46000C9F8A0698121FFF719F98121A069FFF7D7
:10A4700015F9A069FFF70CF9E0690121BDE810406A
:10A480000AF0D4BF10B500210446C0690AF0CEFF1F
:10A4900004F1100393E80600A069FFF7ABF8A06988
:10A4A0008121FFF7FBF88021A069FFF7F7F8A06989
:10A4B000FFF7EEF8E0690121BDE810400AF0B6BFF1
:10A4C00070B504460D46C0690ABB0E2D1146A8BFE3
:10A4D0000E250AF0ABFF04F1100393E80600A06913
:10A4E000FFF788F88921A069FFF7D8F825EAE57316
:10A4F00043F07001C9B2A069FFF7D0F8A069FFF777
:10A50000C7F8E0690121BDE870400AF08FBF11294A
:10A5100045DC022D4FF0000104F11006B8BF022502
:10A520000AF084FF96E80600A069FFF763F8CD21E2
:10A53000A069FFF7B3F88421A069FFF7AFF8A0691D
:10A54000FFF7A6F80121E0690AF070FF0021E06939
:10A550000AF06CFF96E80600A069FFF74BF88B2124
:10A56000A069FFF79BF82B21A069FFF797F8A06976
:10A57000FFF78EF80121E0690AF058FF0021E06939
:10A580000AF054FF96E80600A069FFF733F8892126
:10A59000A069FFF783F8AB1E63F07F01AAE71429D7
:10A5A0000B4604F11006A8BF14230021DD1E0AF09B
:10A5B0003DFF96E80600A069FFF71CF8CD21A069D1
:10A5C000FFF76CF88721A069FFF768F8A069FFF72B
:10A5D0005FF80121E0690AF029FF0021E0690AF033
:10A5E00025FF96E80600A069FFF704F88B21A06913
:10A5F000FFF754F83121B7E705292DE9F04104466A
:10A6000040F3F5800C2900F3EF80062900F0EF807D
:10A6100009014EB20021E06904F110050AF006FFBD
:10A6200095E80600A069FEF7E5FFB121A069FFF7F4
:10A6300035F8C321A069FFF731F8A069FFF728F8C2
:10A640000121E0690AF0F2FE0021E0690AF0EEFE65
:10A6500095E80600A069FEF7CDFFB721A069FFF7D6
:10A660001DF80A21A069FFF719F8A069FFF710F893
:10A670000121E0690AF0DAFEE06900210AF0D6FE65
:10A6800095E80600A069FEF7B5FF1E21A069FFF757
:10A6900005F80021A069FFF701F80746A069FEF759
:10A6A000F7FFE06901210AF0C1FEE06900210AF02C
:10A6B000BDFE95E80600A069FEF79CFF9E21A069FB
:10A6C000FEF7ECFF07F00F013143C9B2A069FEF7B6
:10A6D000E5FFA069FEF7DCFFE06901210AF0A6FEB4
:10A6E000E06900210AF0A2FE95E80600A069FEF7E5
:10A6F00081FF1D21A069FEF7D1FF0021A069FEF7AF
:10A70000CDFF0646A069FEF7C3FFE06901210AF00C
:10A710008DFE30110928D8BF4F4B4FF00001D8BF34
:10A7200053F82070E069C8BF4FF0FF370AF07EFE93
:10A7300095E80600A069FEF75DFF1E21A069FEF7FF
:10A74000ADFF0021A069FEF7A9FF8046A069FEF7D2
:10A750009FFFE06901210AF069FEE06900210AF02B
:10A7600065FE95E80600A069FEF744FF2621A06972
:10A77000FEF794FF0021A069FEF790FF0646A0694E
:10A78000FEF786FFE06901210AF050FE4FEA281823
:10A79000012202FA08F24FF47A7397FBF2F793FB67
:10A7A000F7F3102BC8BF46F00806E0694FF0000130
:10A7B000CCBFF6B206F0F7060AF038FE95E80600C0
:10A7C000A069FEF717FFA621A069FEF767FF3146D3
:10A7D000A069FEF763FFA069FEF75AFFE069012157
:10A7E000BDE8F0410AF022BE6FF03F0612E70021FB
:10A7F000E06904F110050AF019FE95E80600A06969
:10A80000FEF7F8FEB121A069FEF748FFC521A06957
:10A81000FEF744FFA069FEF73BFF0121E0690AF063
:10A8200005FE0021E0690AF001FE95E80600A06936
:10A83000FEF7E0FEB721A069FEF730FF0C21A0690A
:10A84000FEF72CFFA069FEF723FF0121E0690AF063
:10A85000EDFD602610E700BF380104000000000095
:10A860002DE9F0410446084611F028FD93A3D3E9F1
:10A87000002306460F4612F007F8002840F00E812C
:10A8800090A3D3E900233046394611F0FDFF00289C
:10A8900049D18EA3D3E900233046394611F0F4FFA5
:10A8A000002840F0FD808BA3D3E9002330463946D1
:10A8B00011F0EAFF002840F0F58088A3D3E90023D7
:10A8C0003046394611F0E0FF002840F0ED8085A3C6
:10A8D000D3E900233046394611F0D6FF002840F076
:10A8E000E58082A3D3E900233046394611F0CCFF3E
:10A8F000002840F0DD807FA3D3E9002330463946AD
:10A9000011F0C2FF002840F0D580394630467BA3C5
:10A91000D3E9002311F0B8FF002814BF6FF07F07C0
:10A920006FF06F0700E0102704F11005E0690021C7
:10A930000AF07CFD95E80600A069FEF75BFE1D218C
:10A94000A069FEF7ABFE0021A069FEF7A7FE064650
:10A95000A069FEF79DFEE06901210AF067FDE0694C
:10A9600000210AF063FD06F00F0695E80600A069D5
:10A97000FEF740FE3E439D21A069FEF78FFEF1B237
:10A98000A069FEF78BFEA069FEF782FEE069012157
:10A990000AF04CFDE06900210AF048FD95E8060048
:10A9A000A069FEF727FE1D21A069FEF777FE0021B2
:10A9B000A069FEF773FE0646A069FEF769FEE0692E
:10A9C00001210AF033FD30110928D8BF3A4B4FF06E
:10A9D0000001D8BF53F82070E069C8BF4FF0FF37BF
:10A9E0000AF024FD95E80600A069FEF703FE1E218B
:10A9F000A069FEF753FE0021A069FEF74FFE8046D6
:10AA0000A069FEF745FEE06901210AF00FFDE0694B
:10AA100000210AF00BFD95E80600A069FEF7EAFDAB
:10AA20002621A069FEF73AFE0021A069FEF736FE56
:10AA30000646A069FEF72CFEE06901210AF0F6FC4B
:10AA40004FEA2818012202FA08F24FF47A7397FBB2
:10AA5000F2F793FBF7F3102BC8BF46F00806E06946
:10AA60004FF00001CCBFF6B206F0F7060AF0DEFCAC
:10AA700095E80600A069FEF7BDFDA621A069FEF7D6
:10AA80000DFE3146A069FEF709FEA069FEF700FE43
:10AA9000E0690121BDE8F0410AF0C8BC002743E7A6
:10AAA000202741E730273FE740273DE750273BE796
:10AAB000602739E7702737E73801040000000000FD
:10AAC0000078BE40000000000050C44000000000BC
:10AAD0000078CE40000000000050D440000000008C
:10AAE0008084DE4000000000805CE4400000000044
:10AAF0008084EE40000000008084FE4000000000E2
:10AB000080840E410829F8B5A8BF082104460E46E6
:10AB100004F11007C06900210AF088FC97E80600DC
:10AB2000A069FEF767FDA0691D21FEF7B7FD0021B2
:10AB3000A069FEF7B3FD0546A069FEF7A9FDE0692F
:10AB400001210AF073FCE06900210AF06FFC97E82C
:10AB50000600A069FEF74EFDA0699D21FEF79EFD4F
:10AB6000052EB8BF0526311F25F00E0545EA410127
:10AB7000C9B2A069FEF792FDA069FEF789FDE06900
:10AB80000121BDE8F8400AF051BC00BF70B5044691
:10AB90000E4604F11005C06900210AF047FC95E853
:10ABA0000600A069FEF726FDA069A021FEF776FD4C
:10ABB000C6F30721A069FEF771FDA069FEF768FDE5
:10ABC000E06901210AF032FCE06900210AF02EFC64
:10ABD00095E80600A069FEF70DFDA069A121FEF72A
:10ABE0005DFDF1B2A069FEF759FDA069FEF750FDC9
:10ABF000E0690121BDE870400AF018BC38B5044690
:10AC00000D46C06900210AF011FC04F1100393E81D
:10AC10000600A069FEF7EEFCA069B921FEF73EFD33
:10AC2000E9B2A069FEF73AFDA069FEF731FDE069DF
:10AC30000121BDE838400AF0F9BB00BF70B50446F9
:10AC400004F110050021C0690AF0F0FB95E8060048
:10AC5000A069FEF7CFFCA0691E21FEF71FFD0021B1
:10AC6000A069FEF71BFD0646A069FEF711FDE0692D
:10AC700001210AF0DBFBE06900210AF0D7FB95E82F
:10AC80000600A069FEF7B6FCA0699E21FEF706FD4E
:10AC900046F00401C9B2A069FEF700FDA069FEF705
:10ACA000F7FCE0690121BDE870400AF0BFBB00BFBE
:10ACB000C0E90712436270470148FEF705BF00BFB5
:10ACC0000C3F00201020704710B5064B0446B02101
:10ACD00040F80C3B01F0B4FA204600F055F920464C
:10ACE00010BD00BF8C01040010B5074B0446B02115
:10ACF00040F80C3B01F0A4FA204600F045F920464C
:10AD000009F008FF204610BD8C010400102A01D074
:10AD1000002070472DE9F8430E684D688C68CA68BA
:10AD20008261C6600561446100F1B00500F1100464
:10AD3000012604201DE094F8089014F8047C617A40
:10AD400014F8038CA27A14F802ECE37A14F801CC1C
:10AD500089EA070781EA080182EA0E0283EA0C0306
:10AD600027736173A273E37304340130AC42C0B241
:10AD700026D00428DFD1324604F1080104F10C008A
:10AD800001F024F8207B617BA27BE37B14F8048C28
:10AD900014F803EC14F802CC14F8017C80EA0800E3
:10ADA00081EA0E0182EA0C027B4020736173A27378
:10ADB000E37304340136AC42F6B24FF00100D8D14F
:10ADC0000120BDE8F88300BF10B5044600F0CEF8BE
:10ADD000044B23600A2204F10C032271A360204675
:10ADE00010BD00BF8C0104002020704710B5064B39
:10ADF0000446F02140F80C3B01F022FA204600F016
:10AE0000C3F8204610BD00BFB401040010B5074BC5
:10AE10000446F02140F80C3B01F012FA204600F005
:10AE2000B3F8204609F076FE204610BDB4010400B8
:10AE3000202A01D0002070472DE9F8430D684C68A6
:10AE40008A68CE688661C560046142610D694C699B
:10AE5000CE698A6942628662C561046200F1E006D9
:10AE600000F11004012508231FE0042B47D094F8BB
:10AE7000189014F8047C607E14F8038CA17E14F8FA
:10AE800002ECE27E14F801CC013389EA070780EA7C
:10AE9000080081EA0E0182EA0C02DBB227776077B4
:10AEA000A177E2770434B44226D0082BDDD12A46BC
:10AEB00004F1180104F11C0000F088FF207F617F7D
:10AEC000A27FE37F14F8048C14F803EC14F802CC8E
:10AED00014F8017C80EA08007B4081EA0E0182EAD6
:10AEE0000C02E37720776177A27704340135B4420E
:10AEF000EDB24FF00103D8D10120BDE8F88304F191
:10AF0000180104F11C0000F079FF207F617FA27F0F
:10AF1000E37F14F8048C14F803EC14F802CC14F852
:10AF2000017C80EA08007B4081EA0E0182EA0C0283
:10AF3000E37720776177A2770523B3E710B504465E
:10AF400000F014F8044B23600E2204F10C0322716C
:10AF5000A360204610BD00BFB4010400102070475C
:10AF6000017980680131090101F06AB910B5044620
:10AF700000F054FF034B236000232371A36020469D
:10AF800010BD00BFE403040010B5034B036004468A
:10AF900000F04AFF204610BDE4030400184B0A7875
:10AFA0009A5C02704A799A5C42708A7A9A5C8270E2
:10AFB000CA7B9A5CC2700A799A5C02714A7A9A5C7E
:10AFC00042718A7B9A5C8271CA789A5CC2710A7AF1
:10AFD0009A5C02724A7B9A5C42728A789A5C8272AC
:10AFE000CA799A5CC2720A7B9A5C02734A789A5C4C
:10AFF00042738A799A5C8273CA7A9B5CC373704786
:10B00000DC0204002DE9F04F8768A7B03B1D1C91BE
:10B010001EA9994203D21FAB9F42C0F02383D7F8E9
:10B0200000C0156891685468D3687E6885EA0C0290
:10B03000BD681E924D40F9684B40CDE920537440E5
:10B040001F94037907F11002012B1B9240F29282A8
:10B05000023BD8B29DF87C3001939DF88130069375
:10B060009DF87B509DF87A609DF879300895079699
:10B070009DF880509DF87F6002939DF87E30059585
:10B0800007F1300C049603931D9007F120090CEB97
:10B090000010DDE905EBDDE9037C9DF878A09DF863
:10B0A0007D809DF882409DF887209DF886109DF850
:10B0B00085509DF884609DF883301A90CF4810F831
:10B0C0000A000390CD48045D10F80880019882467C
:10B0D000CA4810F80A001190C84810F80BA0C748D9
:10B0E000CDF810A0865D415C1796029E10F80EE028
:10B0F000455D01910146CDF814E0069510F806E093
:10B10000079D865C089ACB5C10F80CC0CDF81CE05B
:10B1100010F807E010F805A0CDF824E0855CCDF824
:10B1200020C00293039A1198049F52004300129387
:10B13000790013120F9159000B440599019F17983C
:10B1400049000C9103EBC30306997F005340039A17
:10B1500010974F004FEA480B82EA08010D974FEA1B
:10B160004A0288EA04074FEA2B2E0E92DBB284EAE9
:10B17000010277405F40400053404FEA4E020A9080
:10B180007244039802EBC20282EA0B0280EA040BCB
:10B190004FEA440CD2B286EA0B0B4FEA2C2E82EA1D
:10B1A0000B0B7A4013924FEA4E0296440EEBCE0EF2
:10B1B0008EEA0C0C770071405FFA8CFC3A128CEA34
:10B1C00001018CEA0B0CCDF850C04FEA420C6244EE
:10B1D00002EBC2027A40D2B282EA010CCDF854C02E
:10B1E00082EA030C039A1298079FCDF858C00023F7
:10B1F00062F3070368F30F2364F317430F9C9DF872
:10B200004CC08DF878C002127F0021120B975400B9
:10B21000099F22447F0002EBC202019C1897424022
:10B22000049F119866F31F6387EA040680EA070407
:10B23000109F9DF850C02293019B8DF879C0634008
:10B24000D2B26E4056405A404B00194401EBC10344
:10B250000F999DF854C08DF87AC04B4001999DF824
:10B2600058C08DF87BC080EA010CDBB23F1285EA42
:10B270000C0C83EA060E83EA0C0C7B00109ECDF8C2
:10B280003CE069001F4407EBC7070B1287EA06087A
:10B290005E00334403EBC3035FFA88F86C40594007
:10B2A000C9B288EA040488EA0C0C4C40CDF840C0CE
:10B2B0000C9E119481EA020C0024049A01999DF8D5
:10B2C0003C808DF87C8060F30704371262F30F2412
:10B2D00061F31744790065F31F640F440C9D0599D1
:10B2E0009DF8408008980D9ECDF848C007EBC70731
:10B2F0007D40069F8DF87D809DF844800E9B0A9AC4
:10B300008DF87E8087EA0A0E4F400B999DF84880A1
:10B310008DF87F803612EDB287EA0A0880EA0E0EB9
:10B3200085EA080885EA0E0E750035440D9E2394C3
:10B3300005EBC5057540059ECDF8648086EA0A0BCD
:10B340001B12EDB280EA0B0B85EA0B0B85EA0E0EA1
:10B350005D001D440E9B029ECDF810E005EBC50577
:10B360004FEA400C5D4087EA00044FEA2C23189F07
:10B37000EDB212124FEA460E85EA0B0809126C4034
:10B3800056005D002B4432443D124E000E446900CD
:10B390000D4405EBC5054FEA2E217D404F000F44BB
:10B3A00003EBC30305990C9483EA0C034FF0000CE4
:10B3B0000A9CCDF80C8061F3070C0699E8B202EB09
:10B3C000C202179D0190624007980B9C61F30F2CFD
:10B3D000002165F3070106EBC606664060F30F2106
:10B3E0000446099807EBC70787EA0E076AF3174C6C
:10B3F00085EA040E84EA000A099C01E0DC020400EC
:10B40000029885EA04088EEA040B80EA0A0A80EAB8
:10B4100008088EEA000E0198199D80EA0E0E64F36A
:10B42000174108980C9CDBB25C4060F31F6C6B40CA
:10B430000198029DF6B286EA0808D2B2FFB282EA0B
:10B440000A0A65F31F6182EA0B0280EA0805DDF84B
:10B4500010B08DF880B087EA0E009DF80CE08DF8F2
:10B4600081E08DF88240CDE924C1574086EA0A0682
:10B470008DF883308DF884608DF885508DF88600C6
:10B480008DF8877019F810AC139A1599049782EA11
:10B490000A0A8DF878A019F80FCC149A82EA0C0CDD
:10B4A0008DF879C019F80E2CCDF808C081EA020C8D
:10B4B0008DF87AC019F80D2C1699CDF81CC081EAC8
:10B4C000020C8DF87BC019F80C2C0F99CDF820C018
:10B4D00081EA020C8DF87CC019F80B8C1099CDF81C
:10B4E00004C081EA08088DF87D8019F80A7C11995A
:10B4F0004F408DF87E7019F809CC129A82EA0C0C34
:10B500008DF87FC019F808EC039A8BEA0E0E8DF8BF
:10B5100080E019F807BC82EA0B0B8DF881B019F8AE
:10B52000062C54408DF8824019F8052C53408DF8B4
:10B53000833019F8042C56408DF8846019F8032CD8
:10B5400055408DF8855019F8021C41408DF8861041
:10B5500019F8012C049842401A988DF8872009F1B7
:10B56000100981457FF4AAAD1D9B1B9A013302EBA4
:10B5700003131B931EA922A8FFF710FD1C9A1B9909
:10B58000131D994202D20B1D9A4215D31B9C1C9D80
:10B5900023682499DDE9222053402B606368259AB3
:10B5A00043406B60A36820464B40AB60C368534088
:10B5B000EB6027B0BDE8F08F15460C469DF888205B
:10B5C00009789DF889309DF88A004A402A7062788F
:10B5D0009DF88B1053406B70A3789DF88C204340EE
:10B5E000AB70E3789DF88D004B40EB7023799DF8AC
:10B5F0008E1053402B7163799DF88F2043406B71FF
:10B60000A3799DF890004B40AB71E3799DF89110C0
:10B610005340EB71237A9DF8922043402B72637A5A
:10B620004B406B72A37A5340AB72E37A9DF8931050
:10B630009DF894209DF895004B40EB72237B9DF87C
:10B64000961053402B73637B9DF8972043406B7398
:10B65000A37B20464B40AB73C37B5340EB7327B0B7
:10B66000BDE8F08F3B78117854784B408DF87830F6
:10B670007B78917863408DF87930BB78D4784B40F3
:10B680008DF87A30FB78117963408DF87B303B7907
:10B6900054794B408DF87C307B79917963408DF8FB
:10B6A0007D30BB79D4794B408DF87E30FB79117AAF
:10B6B00063408DF87F303B7A547A4B408DF8803070
:10B6C0007B7A917A63408DF88130BB7A4B408DF85C
:10B6D0008230FB7AD47A117B63408DF883303B7BD8
:10B6E000547B4B408DF884307B7B917BD27B6340D5
:10B6F0008DF88530BB7B4B408DF88630FB7B53400B
:10B700008DF887309DE400BF184B0A789A5C027070
:10B710004A7B9A5C42708A7A9A5C8270CA799A5C97
:10B72000C2700A799A5C02714A789A5C42718A7B8B
:10B730009A5C8271CA7A9A5CC2710A7A9A5C0272C5
:10B740004A799A5C42728A789A5C8272CA7B9A5C65
:10B75000C2720A7B9A5C02734A7A9A5C42738A7953
:10B760009A5C8273CA789B5CC3737047D4010400EF
:10B770002DE9F04F89B08F784E78CC7800940B7813
:10B78000BDF8001004911FFA86FC1FFA87FE4FEAED
:10B790008C0A4FEA8E094FEACC049DB24FEACE02E2
:10B7A000019505944FEA81084FEA242B4FEA292599
:10B7B00014464FEA2A21664A0694515C555D12F8F8
:10B7C0000B204FEA242B019C4FEA4E0ECDF80CE0E3
:10B7D00081EA0A014FEA282E4FEAC40A5C4C85EA46
:10B7E000090514F80E9014F80BE0009C86EA070B8C
:10B7F0005E407B406340079387EA06031C464FEA9E
:10B800004C0302934FEA2A27514BDF5D009B83EAEA
:10B810000B0B059B82EA030C049A89EA0808530083
:10B820004FEAC209009A04935640494B4FEA292235
:10B8300087EA0A0A9A5C019F079BC9B24B406140A4
:10B840007C00BF0001970094069C009FEDB25FFA58
:10B8500088F885EA0B0B8EEA040E7540039C3E12B5
:10B8600088EA030388EA01014FEA46082712B04438
:10B87000019C029E82EA09024FEA26292612344CD4
:10B88000A45D05947C00009E2744049C08EBC80836
:10B89000241288EA06084FEA4906B1446600344497
:10B8A000039E07EBC7077740029E09EBC9095FFAC1
:10B8B0008AFA89EA0609059E5FFA8CFC8AEA030384
:10B8C0008AEA01018CEA03038CEA0B0B8CEA05057A
:10B8D0008CEA0101B446019E5FFA8EFE8CEA0606F0
:10B8E0008EEA030C049BD2B28EEA0B0B8EEA05059E
:10B8F00004EBC40482EA0B0B55405FFA88F88EEA29
:10B900000101FFB25C4088EA0B0B8CEA02035FFA8C
:10B9100089F98AEA060A4A407D40E4B2654089EA2C
:10B920000B0B5FFA8AFA89EA030988EA02088AEAB5
:10B930000B0B87EA09078AEA050A84EA080480F8FB
:10B9400000B04770C47080F802A009B0BDE8F08F65
:10B95000D40204002DE9F04F85680379102697B0D2
:10B96000044606FB0350043013FB06F30EAE0C91A5
:10B97000864205EB03010B9103D20FA88142C0F070
:10B98000D1810B9F10683E687968BB68556870402C
:10B9900096680E9069405E40D568FB680F916B40D9
:10B9A000CDE9106312A80EA9FFF7AEFE2379012B93
:10B9B00040F22B81023BDBB26FF00F04A4EB0314C7
:10B9C0000D939DF84C3001939DF8503002939DF8F3
:10B9D000513003939DF8523004939DF853300593F2
:10B9E0009DF854300B9D06939DF8553007939DF8B4
:10B9F00056309DF84D009DF84E109DF84F2008934D
:10BA00002C449DF8573009949DF848E09DF849C0B2
:10BA10009DF84A709DF84B602C460FAD0A95804604
:10BA2000894693469A4614F8103C019ABC4D8EEA1A
:10BA3000030E8DF848E014F80F3C8CEA030C8DF8E7
:10BA400049C014F80E3C5F408DF84A7014F80D3C64
:10BA50005E408DF84B6014F80C3C5A408DF84C2039
:10BA600014F80B3C029A88EA03088DF84D8014F80C
:10BA70000A3C89EA03098DF84E9014F8093C8BEAD8
:10BA8000030B8DF84FB014F8083C5A408DF8502045
:10BA900014F8073C039A5A408DF8512014F8063CDC
:10BAA000049A5A408DF8522014F8053C059A5A40E1
:10BAB0008DF8532014F8043C069A5A408DF854200F
:10BAC00014F8033C079A5A408DF8552014F8023CAC
:10BAD000089A5A408DF8562014F8013C12A98AEAB7
