:020000022000DC
:1060000000000120D5590300155A0300175A030058
:10601000195A03001B5A03001D5A03000000000018
:1060200000000000000000000000000051590300C3
:10603000215A03000000000071590300255A030093
:10604000275A0300275A0300752F0300275A03001D
:10605000275A0300275A0300D9320300275A0300A6
:10606000275A0300275A0300275A0300275A030020
:10607000275A0300275A0300275A0300275A030010
:10608000275A0300DD560300275A0300275A03004E
:10609000275A0300275A0300F5180300275A030064
:1060A000275A0300275A0300275A0300275A0300E0
:1060B000275A0300275A03000000000000000000D8
:1060C000275A0300275A0300275A0300275A0300C0
:1060D000275A0300275A0300275A03000000000034
:1060E00000000000000000000000000000000000B0
:1060F00000000000000000000000000000000000A0
:10610000000000000000000000000000000000008F
:10611000000000000000000000000000000000007F
:10612000000000000000000000000000000000006F
:10613000000000000000000000000000000000005F
:10614000000000000000000000000000000000004F
:10615000000000000000000000000000000000003F
:10616000000000000000000000000000000000002F
:10617000000000000000000000000000000000001F
:10618000000000000000000000000000000000000F
:1061900000000000000000000000000000000000FF
:1061A00000000000000000000000000000000000EF
:1061B00000000000000000000000000000000000DF
:1061C00000000000000000000000000000000000CF
:1061D00000000000000000000000000000000000BF
:1061E00000000000000000000000000000000000AF
:1061F000000000000000000000000000000000009F
:10620000F1EE103A43F08073E1EE103A704700BFB0
:1062100010B5054C237833B9044B13B10448AFF3E0
:1062200000800123237010BD7038002000000000A2
:106230008815040008B5034B1BB103490348AFF3AD
:10624000008008BD0000000074380020881504009C
:10625000154B002B08BF134B9D46A3F5803A002138
:106260008B460F461348144A121A17F066FE0F4B5E
:10627000002B00D098470E4B002B00D098470020F1
:10628000002104000D000D48002802D00C48AFF397
:10629000008017F0D5FD200029000FF0E9FB17F072
:1062A000BBFD00BF0000080000000120000000004E
:1062B00000000000703800207C6300200000000017
:1062C00000000000F0B53B4B1B78B3B0002B67D14A
:1062D000394B1C78042C274638D96E46A20030462C
:1062E0003649374D17F005FEA5FB0435ED08013C96
:1062F00006EB84043346A34208D01A6853F8041FFF
:106300008A42F8D9A34243E90112F6D11C1FA642E2
:10631000F0D1002D08BF01257F1BBD42A7EB050270
:106320003BD2ADF1040106EB850301EB8707043B8B
:106330000020002153F8044F001941F100019F4251
:10634000F8D1002317F0C0FB33B0F0BD2CB31B4BCA
:10635000012C18684FF000010FD05A68801841F1E5
:106360000001022C09D09A68801841F10001032C29
:1063700003D0DB68C01841F1000117F05FFB07EEA6
:10638000904AB8EE677A07EE900AC7EE877AFCEE7D
:10639000E77A17EE900A33B0F0BD002033B0F0BDBD
:1063A0006E463046C822054917F0A3FD3227052561
:1063B00031249DE7A0380020A1380020A438002017
:1063C000CDCCCCCC2DE9F04F2DED068B85B006461B
:1063D00000900291C82200219148924D924FDFF81F
:1063E000708217F0AAFD914A6E7000231370904AD4
:1063F0002B740124B7EE008AC5E90133137088F8C5
:10640000004085ED038A3B700CF0AAFF814602F044
:1064100091FF214611200FF0FDFF3B78002B40F04B
:10642000F58003F0FF02DFED839A9FED839A9FEDE5
:1064300083AA0192144616460CF092FF804BA0EB03
:10644000090B9B458246C5F804B000F2CE8047F2A6
:106450002F518B45A0EB060200F291800121B2F58D
:10646000FA7F88F8001080F09080AAEB0402632A7B
:1064700023D96421009802F087FF0446A86002F047
:10648000DFFF002840F08C80684B6E4A1878411C72
:10649000A2FB0132624B120943F820403220634BC9
:1064A00000FB12121A70002A7AD1614B01221A7075
:1064B00047F22F52934522D854460A200CF05CFF35
:1064C0003B78002BB8D002F04DFF3B78002B40F01A
:1064D00095802B7C002B78D1019B1BB1009819462D
:1064E00002F038FD042388F800300123029A02B13B
:1064F0001370019805B0BDEC068BBDE8F08F524BD0
:106500000020002103F1C80C1C4654F8042F801809
:1065100041F10001A445F8D1039317F08FFA07EE7B
:10652000900A9FED4A7A039B67EEA96A53F8042FFD
:1065300007EE902AF8EE677A9C4277EEE67AA7EEAD
:10654000A77AF3D127EE097AF5EEC06AF1EE10FAD8
:10655000F1EEC77A29DDC7EEA68AF4EEC88AF1EE1D
:1065600010FAC5ED038A2AD4F4EECA8AF1EE10FAC5
:10657000A2D5012203232A7488F80030A3E7022160
:106580007C2A88F800107FF670AF11200FF054FFBE
:10659000B0FA80F1490911200FF03CFF564664E73C
:1065A000234B1A78002A87D082E7F7EE008AB4EEF0
:1065B000E88AF1EE10FAC5ED038A7FF77DAFFFF7A9
:1065C00081FEB0EE688A0190CEE7FFF77BFE0146C0
:1065D0000190009802F0BEFC012111200FF01AFF7B
:1065E000042388F80030002380E7052388F8003072
:1065F00002F0B8FE3B78002B3FF46BAF0021112076
:106600000FF008FF0023019303236FE702F0AAFEB7
:106610003B78002BF2D12B7C002BD6D1019361E784
:10662000A43800208C380020A2380020A138002097
:10663000A03800200AD7A33C052FA73C6F12833A4D
:10664000DF9304001F85EB51A038002000000000FC
:10665000A338002010B5012111200FF043FE0021C6
:1066600011200FF0D7FEC82200210648064C17F073
:1066700064FC06480649074A0023037023700B7028
:10668000137010BDA4380020A3380020A1380020CA
:10669000A0380020A238002010B50024E0B202F09B
:1066A0001DFC013408B9042CF8D110BDF0B500244C
:1066B0001D4F83B02646E5B2284602F00FFC013498
:1066C000C8B9042CF7D1042E0ED0052411200FF0E8
:1066D000B3FEB0FA80F1490911200FF09BFEC820EB
:1066E0000CF04AFE013CF1D1012111200FF092FE85
:1066F000304603B0F0BD0DF107012846FFF762FEFA
:106700009DF807303A7801464FF4FA7043B1012BF7
:1067100004D0002AD7D10CF02FFED2E70029F8D000
:106720000136F6B2F5E700BFA2380020032B0BD9E3
:1067300038B5094C236833B1156893F830032946FE
:1067400002F008FC08B938BD704720682946C830F7
:10675000BDE8384009F0B0BC6C390020032B0BD9E0
:1067600038B50A4C236833B1156893F830032946CD
:1067700002F048FC08B938BD70472068294600F58A
:106780009070BDE8384009F097BC00BF6C3900201C
:10679000032B0BD938B50A4C236833B1156893F82D
:1067A0003003294602F086FC08B938BD70472068DE
:1067B000294600F5BC70BDE8384009F07DBC00BF3B
:1067C0006C3900204BB130B5204C206889B010B135
:1067D0001178032902D909B030BD704780F8301311
:1067E000183009F02DFC2468694694F8300302F053
:1067F0008BFB0546A0B9014604F1C80009F078FCFE
:10680000294604F5907009F073FC294604F5BC7024
:1068100009F06EFC294604F5207009F011FCDAE756
:10682000009904F1C80009F047FC019904F5907043
:1068300009F042FC029904F5BC7009F03DFC04F536
:1068400020709DF80D1009F0FBFBC4E76C390020A7
:10685000704700BF002B49D070B5574C216888B0F5
:10686000002941D0137891F83053013B062B3BD8D7
:10687000DFE803F004415365696C3D0002F05AFD06
:106880006421284602F080FD064602F06BFD5EB3EF
:106890002846314602F05EFB30B32568703531463C
:1068A000284609F009FC3146284609F011FD246804
:1068B000694694F8300302F027FB0546002864D1AE
:1068C000014604F1C80009F013FC294604F5907054
:1068D00009F00EFC294604F5BC7009F009FC2946B4
:1068E00004F5207009F0ACFB08B070BD7047284675
:1068F000FFF7AEFFF8E702F01DFD6421284602F025
:1069000043FD064602F02EFD002EEDD0284631460E
:1069100002F078FB0028E7D0BFE702F00BFD64210E
:10692000284602F031FD064602F01CFD002EDBD0A9
:106930002846314602F0BEFB0028D5D0ADE72846F8
:1069400002F010FCB3E702F063FCB0E728466946AA
:1069500002F086FD0028C7D02568019E70353146BB
:10696000284609F0A9FB3146284609F0B1FC246805
:106970009DF8085004F50A742946204609F060FB8A
:106980002946204609F000FCAEE7009904F1C80052
:1069900009F092FB019904F5907009F08DFB0299C2
:1069A00004F5BC7009F088FB04F520709DF80D100B
:1069B00009F046FB98E700BF6C390020F0B589B0BC
:1069C0000446694690F8300302F09EFA054604F545
:1069D000907704F1C80004F5BC7604F5207485B9FD
:1069E000294609F085FB2946384609F081FB2946EE
:1069F000304609F07DFB2946204609F021FB09B00D
:106A0000F0BD009909F058FB0199384609F054FB94
:106A10000299304609F050FB20469DF80D1009F010
:106A20000FFB09B0F0BD00BF2DE9F04FAD4C8DB0AC
:106A30000646214608A80AF079FA08A930460AF065
:106A40003FFA374608A80AF05BFAA74B47F8183B0D
:106A5000214608A80AF06AFA08A9384609F04EFA51
:106A600008A80AF04DFA06F1700B214608A80AF0B2
:106A70005DFA08A9584609F041FA08A80AF040FA58
:106A800006F1C80A214608A80AF050FA08A950469B
:106A900009F034FA08A80AF033FA06F5907921468D
:106AA00008A80AF043FA08A9484609F027FA08A8F6
:106AB0000AF026FA06F5BC78214608A80AF036FA4C
:106AC00008A9404609F01AFA08A80AF019FA06F5CA
:106AD000E875214608A80AF029FA08A92846009571
:106AE00009F00CFA08AB18460AF00AFA06F50A7320
:106AF0001D4608AB214618460AF018FA08A9284690
:106B0000019509F0FBF908AB18460AF0F9F906F50A
:106B100020731D4608AB214618460AF007FA08A95B
:106B20002846029509F0EAF908AB18460AF0E8F998
:106B300006F536731D4608AB214618460AF0F6F9ED
:106B400008A92846039509F0D9F908AB18460AF0B8
:106B5000D7F994E80F00002586F8305304ADDFF82C
:106B60008CC185E80F0008AA40F20133104629467F
:106B7000CCF80060ADF81C300AF0D8F908A9384606
:106B800009F0F6F908AB18460AF0BAF994E80F00D4
:106B900085E80F0008AB2946184640F20237ADF8E9
:106BA0001C700AF0C3F908A9584609F0E1F908ABCE
:106BB00018460AF0A5F994E80F0085E80F0008AB25
:106BC0002946184640F20337ADF81C700AF0AEF9BA
:106BD00008A9504609F0CCF908AB18460AF090F91C
:106BE00094E80F0085E80F0008AB294618464FF4DB
:106BF0004177ADF81C700AF099F908A9484609F0E8
:106C0000B7F908AB18460AF07BF994E80F0085E85D
:106C10000F0008AB2946184640F20537ADF81C7046
:106C20000AF084F908A9404609F0A2F908AB184611
:106C30000AF066F994E80F0085E80F0008AB2946D2
:106C4000184640F20637ADF81C700AF06FF908A933
:106C5000009809F08DF908AB18460AF051F994E84C
:106C60000F0085E80F0008AB2946184640F20737A9
:106C7000ADF81C700AF05AF908A9019809F078F9E2
:106C800008AB18460AF03CF994E80F0085E80F00BD
:106C900008AB294618464FF44277ADF81C700AF04D
:106CA00045F908A9029809F063F908AB18460AF0FB
:106CB00027F994E80F0085E80F0008AB184629462D
:106CC00040F20934ADF81C400AF030F908A90398E5
:106CD00009F04EF908A80AF013F930460DB0BDE8E6
:106CE000F08F00BFB0020400C80204006C3900201D
:106CF00010B5054C2046FFF797FE2046034A04498D
:106D0000BDE8104016F076B970390020003600203A
:106D1000116F020070B506460AF0B6F8044608B1D5
:106D2000204670BD06F1180528460A2109F02EF903
:106D300011221146284609F041F92846012109F09F
:106D40002BF9284601226D4909F03EF9284608F042
:106D5000A5FE04460028E3D12146284606F1700529
:106D600009F06EF92846122109F010F9224628464A
:106D7000112109F023F92846042109F00DF92846CC
:106D800008F08CFE04460028CAD106F1C80401466A
:106D9000284609F0ADF920460A2109F0F7F811223A
:106DA0001146204609F00AF92046042109F0F4F8BA
:106DB00020460122524909F007F9204608F06EFEEC
:106DC00004460028ACD106F5907420460A2109F04B
:106DD000DDF811221146204609F0F0F82046042182
:106DE00009F0DAF820460122464909F0EDF820467C
:106DF00008F054FE0446002892D106F5BC742046E3
:106E00000A2109F0C3F811221146204609F0D6F8EC
:106E10002046042109F0C0F8204601223A4909F031
:106E2000D3F8204608F03AFE044600287FF478AFF5
:106E300006F5E8752846082109F0A8F82146112230
:106E4000284609F0BBF82846012109F0A5F8284694
:106E500001222E4909F0B8F8284608F01FFE044622
:106E600000287FF45DAF06F50A752846122109F067
:106E70008DF822462846112109F0A0F82846012164
:106E800009F08AF8284608F009FE044600287FF435
:106E900047AF2846FF2106F5207509F0D1F82846AE
:106EA000022109F073F822462846112109F086F8DC
:106EB0002846012109F070F8284608F0EFFD044645
:106EC00000287FF42DAF06F536752846122109F00B
:106ED0005DF822462846112109F070F82846042161
:106EE00009F05AF8284608F0D9FD044600287FF436
:106EF00017AF3046FFF762FD12E700BFC56702001B
:106F00002D6702005D67020091670200556802006C
:106F1000174B10B50446036000F5367008F0A4FD69
:106F200004F5207008F0A0FD04F50A7008F09CFD3F
:106F300004F5E87008F098FD04F5BC7008F094FDC5
:106F400004F5907008F090FD04F1C80008F08CFD85
:106F500004F1700008F088FD04F1180008F084FDC9
:106F60002046044B40F8083B09F0CAFF204610BDFC
:106F7000C8020400A40F04002DE9F04F574C89B05B
:106F80000646214604A809F0D1FF04A9304609F0BD
:106F900097FF374604A809F0B3FF514B47F8183B59
:106FA000214604A809F0C2FF04A9384608F0A6FF4C
:106FB00004A809F0A5FF06F1700B214604A809F00A
:106FC000B5FF04A9584608F099FF04A809F098FFF6
:106FD00006F1C80A214604A809F0A8FF04A95046F2
:106FE00008F08CFF04A809F08BFF06F59079214684
:106FF00004A809F09BFF04A9484608F07FFF04A8F5
:1070000009F07EFF06F5BC78214604A809F08EFF42
:1070100004A9404608F072FF04A809F071FF94E843
:107020000F006D4685E80F000223294604A88DF85D
:107030000C3009F07BFF04A9384608F099FF04A83A
:1070400009F05EFF94E80F00032785E80F0029464A
:1070500004A88DF80C7009F069FF04A9584608F0DF
:1070600087FF04A809F04CFF94E80F00042785E887
:107070000F00294604A88DF80C7009F057FF04A9E9
:10708000504608F075FF04A809F03AFF94E80F0095
:10709000052785E80F00294604A88DF80C7009F033
:1070A00045FF04A9484608F063FF04A809F028FF3B
:1070B00094E80F00062485E80F00294604A88DF8FF
:1070C0000C4009F033FF04A9404608F051FF04A822
:1070D00009F016FF304609B0BDE8F08FD402040075
:1070E000EC02040010B5054C2046FFF745FF204692
:1070F000034A0449BDE8104015F07CBFA43C0020C1
:1071000000360020617202002DE9F04F8FB0064674
:1071100009F0BAFE044618B120460FB0BDE8F08F62
:1071200006F118052846022108F030FF22462846BD
:10713000112108F043FF2846102108F02BFF2146BB
:10714000284608F029FF284608F0A8FC0446002835
:10715000E2D106F170073846022108F017FF2246F7
:107160003846112108F02AFF3846182108F012FF8E
:107170002146384608F010FF384608F08FFC0446D8
:107180000028C9D106F1C8084046022108F0FEFED9
:1071900022464046112108F011FF4046042108F024
:1071A000FBFE404608F07AFC04460028B4D106F500
:1071B00090794846022108F0E9FE2246484611210E
:1071C00008F0FCFE4846012108F0E6FE484608F0BB
:1071D00065FC044600289FD106F5BC7A5046022182
:1071E00008F0D4FE22465046112108F0E7FE504632
:1071F000342108F0D1FE504608F050FC0446002827
:107200008AD106F5E87B584600F042FA584617F056
:107210001FFC06F5F07682B25946284608F0F6FEC5
:10722000304600F047FA304617F012FC314682B281
:10723000384608F0EBFE00F025FA0146404608F01B
:107240003BFF00F019FA0146484608F0F9FE01A894
:1072500000F056FB01A95046342208F0D7FE5BE748
:107260000F4B10B50446036000F5BC7008F0FCFB42
:1072700004F5907008F0F8FB04F1C80008F0F4FB86
:1072800004F1700008F0F0FB04F1180008F0ECFBCA
:107290002046044B40F8083B09F032FE204610BD62
:1072A000EC020400A40F040070B50024054604603D
:1072B00044608460C4600461446184612146C461A7
:1072C000046244628462242628222C3016F035FEA3
:1072D0002146324605F1540016F02FFE3246214673
:1072E00005F1780016F029FE85F89C4085F89D4050
:1072F00085F89E40284670BD0148FFF7D5BF00BF06
:10730000A03E00202DE9F0439F4E96F800808FB0FC
:10731000B8F1000F02D00FB0BDE8F08301AA34230A
:10732000C0219A4802F0EEF9002800F0C18001ACBB
:107330000FCC974DDFF860C22F460FC70FCC0FC799
:107340000FCC0FC723683B602B68634574D005F1F1
:107350002F042C2200218F4816F0EFFD8E4B2B605E
:1073600001232B718D4BC5F805304FF080424FF053
:10737000FF37D2F80034C2F8007413F0010940F06E
:10738000F7809A0700F19880580700F1F4801907F8
:1073900000F1F480DA0300F1F4805B0354BF0123B1
:1073A00040236B72EB687E4F0133EB600BF0D8FF2C
:1073B0007C4A7D4BA2FB0012920900216A6129637D
:1073C0004FF0FF3217F8011F4A4042F30001194005
:1073D00081EA520141F300021A4082EA510141F36D
:1073E00000021A4082EA510242F30001194081EA88
:1073F000520242F30001194081EA520141F30002B6
:107400001A4082EA510141F300021A4082EA510215
:1074100042F300011940A74281EA5202D2D1D1437E
:10742000296334235A4A5948C02102F07BF90123C9
:1074300033700FB0BDE8F0835B4B2F6BC5F8308025
:10744000681E05F12F044FF0FF3210F8011F4A406B
:1074500042F30001194081EA520141F300021A404F
:1074600082EA510141F300021A4082EA510242F3DA
:107470000001194081EA520242F30001194081EAF9
:10748000520141F300021A4082EA510141F3000225
:107490001A4082EA510242F300011940844281EA13
:1074A0005202D2D1D24397422F633FF45BAF50E7F1
:1074B000374D05F12F044CE7337804226A72002B14
:1074C0003FF470AF4FF0070885F80A800BF048FFD3
:1074D00095F82830C5F8309001463248EA18A0FBEC
:1074E0000101286982F82080013303EA080200F1D3
:1074F000010C89092A482C4B85F82820C5F810C0B2
:107500003A46A96110F8011F514041F300021A40A8
:1075100082EA510242F30001194081EA520141F32B
:1075200000021A4082EA510141F300021A4082EA45
:10753000510242F30001194081EA520141F3000275
:107540001A4082EA510141F300021A4082EA5102D4
:1075500042F300011940844281EA5202D2D1D14360
:10756000296334230A4A0948C02102F0DBF819E7ED
:1075700002236B7216E708236B7213E710236B72FA
:1075800010E720236B720DE7403F0020A44200204B
:10759000443F00204C3F0020474C42440001010082
:1075A000433F0020D34D62102083B8ED2D4B1B7854
:1075B00003B9704770B52C4C0546A0720BF0D0FE95
:1075C0002A4B94F828202669A3FB00139B09511C21
:1075D00022440020013601F00701A361244B82F808
:1075E00020502063266184F82810601E04F12F05C6
:1075F0004FF0FF3210F8011F4A4042F300011940DA
:1076000081EA520141F300021A4082EA510141F33A
:1076100000021A4082EA510242F30001194081EA55
:10762000520242F30001194081EA520141F3000283
:107630001A4082EA510141F300021A4082EA5102E3
:1076400042F300011940854281EA5202D2D1D1436E
:1076500021633423044A0748C021BDE8704002F08A
:1076600061B800BF403F0020443F0020D34D62106E
:107670002083B8EDA4420020014B987A704700BFE8
:10768000443F0020014BD868704700BF443F0020B2
:1076900010B5064C0649E379A279247A82B00094A9
:1076A000044617F075F9204602B010BD443F002093
:1076B000F802040070B42E4B5B790446212B50D89D
:1076C000DFE803F01C234F4F4F4F4F4F4F4F4F4FAB
:1076D0004F4F4F4F2B364F4F4F4F4F4F4F4F4F4FF7
:1076E0004F4F4F4F4211234D0FCD2D8820602582E3
:1076F0006160A260E360204670BC70471E4B03CB04
:1077000020606160204670BC70471C4B18689B88E5
:107710002060A380204670BC7047194D0FCD2060BB
:10772000286820616160A260E360204670BC7047F9
:10773000144B07CB1D889B7820606160A260A581F7
:10774000A373204670BC70470F4D0FCD2E88AD78C7
:1077500020606160A260E3602682A574204670BC50
:1077600070470A4B03CB20606160204670BC7047B5
:10777000443F00204C030400040304000C030400F5
:107780001403040028030400380304006003040009
:10779000224B1B7803B9704730B4214C214B002297
:1077A00084F829202263601E04F12F054FF0FF3278
:1077B00010F8011F4A4042F30001194081EA5201CA
:1077C00041F300021A4082EA510141F300021A40DB
:1077D00082EA510242F30001194081EA520242F367
:1077E0000001194081EA520141F300021A4082EA85
:1077F000510141F300021A4082EA510242F30001B2
:107800001940854281EA5202D2D1D1432163342307
:10781000034A0548C02130BC01F084BF403F00202E
:10782000443F00202083B8EDA44200202F4B1B785A
:1078300003B9704770B52E4C94F82A300B250133EC
:1078400084F82A30A5720BF08BFD2A4994F8283071
:107850002269A1FB0001E61889090133501CA161CE
:1078600003F007020021244B206186F8205084F8A1
:1078700028202163601E04F12F054FF0FF3210F81D
:10788000011F4A4042F30001194081EA520141F3CD
:1078900000021A4082EA510141F300021A4082EAD2
:1078A000510242F30001194081EA520242F3000101
:1078B000194081EA520141F300021A4082EA510163
:1078C00041F300021A4082EA510242F300011940DA
:1078D000854281EA5202D2D1D14321633423044A42
:1078E0000648C021BDE8704001F01CBF403F0020A9
:1078F000443F0020D34D62102083B8EDA442002005
:10790000F0B4094E054606F1300734460FCCBC42B0
:1079100028606960AA60EB60264605F11005F4D185
:1079200020682860F0BC7047443F0020704700BFCB
:107930002DE9F04F6A4B6B4A5C79D3E902A0002C29
:10794000D3E9045118BF8246C3B00AF1FF3306BF22
:1079500029464FF4807B4FF4002B9342019157D876
:10796000614D4FF0FF344FF0000802AFAAEB08065C
:10797000B6F5807F28BF4FF4807606F10F0929F015
:107980000F094B463A460BEB0801584807F068F9D7
:10799000F0B349464246384600F056FDD04530D057
:1079A000BC461CF8012B82EA040343F300022A4080
:1079B00082EA530242F300032B4083EA520242F36D
:1079C00000032B4083EA520343F300022A4082EA79
:1079D000530343F300022A4082EA530242F30003B6
:1079E0002B4083EA520242F300032B4083EA520306
:1079F00043F30004ACEB07022C40964284EA5304A4
:107A0000CFD8B044D045B1D3019BE4439C4202D0CF
:107A100043B0BDE8F08F72B6354A36480AF6FF73B8
:107A200002211B0B11600268002AFCD0324C314845
:107A3000002202F126010903216001680029FCD01F
:107A400001329342F5D12A4B2A4901221A600B6870
:107A5000002BFCD0DFF89480264E0024AAEB04050E
:107A6000B5F5807F28BF4FF4807505F10F0929F027
:107A70000F094B463A4604EB0B01404607F0F0F87D
:107A800022464946384600F0DFFCE91C890804F527
:107A900018320023994208D057F82300106030684C
:107AA0000028FCD001330432F4E72C445445D5D3EC
:107AB0000F4B104900221A600B68002BFCD062B6F5
:107AC00064200BF059FCBFF34F8F0C490C4BCA6874
:107AD00002F4E0621343CB60BFF34F8F00BFFDE7BA
:107AE000B43F0020FFFE07002083B8EDA03F002038
:107AF00004E5014000E4014008E5014000ED00E03C
:107B00000400FA0510B504460DF0F8FF204610BD3C
:107B10002DE9F843584D2C7814B12046BDE8F88380
:107B200000F0C0FB01222146544806F06FFE0746D4
:107B30000028F2D0524E534832464FF4807321460B
:107B400007F08EF818B1504B32689A4255D006F1C2
:107B5000FF3906F1FB08FC2200214C4816F0EDF934
:107B6000494B336002233371494B48464FF0FF3293
:107B700010F8011F4A4042F30001194081EA520106
:107B800041F300021A4082EA510141F300021A4017
:107B900082EA510242F30001194081EA520242F3A3
:107BA0000001194081EA520141F300021A4082EAC1
:107BB000510141F300021A4082EA510242F30001EE
:107BC0001940804581EA5202D2D1D24300212D488A
:107BD000C6F8FC2007F00AF800289ED04FF4807306
:107BE000274A2848002107F077F8002895D001237C
:107BF0003C462B702046BDE8F88306F1FF39244B44
:107C0000D6F8FCC0C6F8FC40484606F1FB084FF029
:107C1000FF3210F8011F4A4042F30001194081EA87
:107C2000520141F300021A4082EA510141F300027D
:107C30001A4082EA510242F30001194081EA5202DD
:107C400042F30001194081EA520141F300021A4057
:107C500082EA510141F300021A4082EA510242F3E2
:107C600000011940804581EA5202D2D1D2439445A5
:107C7000C6F8FCC0BBD06EE7783F00209C3F0020D8
:107C8000B43F0020A03F002041425746B83F0020AB
:107C90002083B8EDF8B5634E3578002D59D0624C8D
:107CA00094F82030002B57D0012B03D194F82130C9
:107CB000012B55D06379226A6262C3F1010300226D
:107CC000226213F0FF020CBFA379E379012B54D099
:107CD0000B20FFF76BFC5548554B0022C4F8FC20E5
:107CE00000F1FC054FF0FF3210F8011F4A4042F34B
:107CF0000001194081EA520141F300021A4082EA70
:107D0000510141F300021A4082EA510242F300019C
:107D1000194081EA520242F30001194081EA5201FE
:107D200041F300021A4082EA510141F300021A4075
:107D300082EA510242F300011940854281EA52026F
:107D4000D2D1D24300213B48C4F8FC2006F04EFFBC
:107D500058B900252846F8BD94F82130002BA9D148
:107D600094F82230002BA5D1F3E74FF480732E4A0C
:107D70003048002106F0B0FFEBE794F82C102B48B8
:107D800062712B4B4A1C002184F82C2000F1FC0767
:107D9000C4F8FC104FF0FF3210F8011F4A4042F3C4
:107DA0000001194081EA520141F300021A4082EABF
:107DB000510141F300021A4082EA510242F30001EC
:107DC000194081EA520242F30001194081EA52014E
:107DD00041F300021A4082EA510141F300021A40C5
:107DE00082EA510242F300011940874281EA5202BD
:107DF000D2D1D24300210F48C4F8FC2006F0F6FE91
:107E000030B14FF48073084A0A48002106F064FF3D
:107E1000FFF70CFD3478002C9CD0FFF789FD254638
:107E200098E700BF783F0020B43F0020B33F002018
:107E30002083B8EDA03F002038B52E4B1B78002BD7
:107E400053D02D4C2D4A637900211170002B4DD059
:107E50000123E3712A482B4B00222262A262C4F85C
:107E6000FC2000F1FC054FF0FF3210F8011F4A40E2
:107E700042F30001194081EA520141F300021A4025
:107E800082EA510141F300021A4082EA510242F3B0
:107E90000001194081EA520242F30001194081EACF
:107EA000520141F300021A4082EA510141F30002FB
:107EB0001A4082EA510242F300011940854281EAE8
:107EC0005202D2D1D24300210F48C4F8FC2006F060
:107ED0008DFE30B14FF48073074A0B48002106F045
:107EE000FBFEBDE83840FFF753BC38BD0123A3714A
:107EF000B0E700BF783F0020B43F0020983F00204B
:107F0000B33F00202083B8EDA03F00202E4B1B780C
:107F100003B9704770B50BF023FA2C4C2C492D4A4D
:107F20006379086001211170002B41D10223A371F4
:107F3000294D2A4BA0620022C4F8FC2005F1FC0068
:107F40004FF0FF3215F8011F4A4042F3000119407B
:107F500081EA520141F300021A4082EA510141F3E1
:107F600000021A4082EA510242F30001194081EAFC
:107F7000520242F30001194081EA520141F300022A
:107F80001A4082EA510141F300021A4082EA51028A
:107F900042F300011940A84281EA5202D2D1D243F1
:107FA00000210F48C4F8FC2006F020FE18B970BD6F
:107FB0000223E371BCE74FF48073044A08480021B0
:107FC000BDE8704006F088BE783F0020B43F002036
:107FD000943F0020983F0020B33F00202083B8ED5D
:107FE000A03F00200C4B1B782BB110B50B4C237815
:107FF0001BB9002010BD002070470BF0B1F9084BF1
:108000001B684EF65F22C01A9042F2D900232370FB
:10801000BDE81040FFF73EBE783F0020983F0020AB
:10802000943F0020074B187840B1074B5A7932B182
:10803000D879A0F10200B0FA80F040097047987931
:10804000F7E700BF783F0020B43F00202DE9F04F54
:108050007F4B93F80090C3B0B9F1000F24D07D4B53
:10806000984221D8DFF8FCA19AF80530C3F101034A
:10807000DBB2002B009300F6FF7315BF4FF4002214
:108080004FF48072802400241B0B8046934611D04D
:10809000714E1D1901E0A5420CD02146304606F074
:1080A000A5FD01340028F6D14FF00009484643B041
:1080B000BDE8F08FB8F1000F00F0C880674DCDF833
:1080C00004904FF0FF340027A8EB0706B6F5807F39
:1080D00028BF4FF480763246394602A815F009FFD2
:1080E00002AB03EB060E9C461CF8012B82EA04034C
:1080F00043F300022A4082EA530242F300032B407A
:1081000083EA520242F300032B4083EA520343F313
:1081100000022A4082EA530343F300022A4082EA23
:10812000530242F300032B4083EA520242F300035E
:108130002B4083EA520343F300042C40E64584EAD3
:108140005304D1D106F10F0323F00F094E4506D297
:1081500002ABA9EB06020021981915F0EEFE3A4693
:10816000494602A800F05EF94B4602AA0BEB070154
:10817000394806F0B1FD002896D03744B845A3D859
:10818000DDF80490E443009B0122002B53D040F221
:108190000113CAF80C80CAF814408AF80720CAF8FC
:1081A0001C302F4D2D4C0023CAF8FC3005F1FC0685
:1081B0004FF0FF3315F8012F534043F300022240E4
:1081C00082EA530242F30003234083EA520242F35D
:1081D0000003234083EA520343F30002224082EA71
:1081E000530343F30002224082EA530242F30003A6
:1081F000234083EA520242F30003234083EA5203FE
:1082000043F300022240B54282EA5303D2D1DB435A
:1082100000211148CAF8FC3006F0E8FC04460028AA
:108220003FF444AF4FF480730E4A0B48002106F030
:1082300053FDA1463AE740F20113CAF80880CAF894
:1082400010408AF80620CAF81830AAE744469AE790
:10825000783F002000FF0700A03F00202083B8EDFA
:10826000B33F0020B43F002038B5094D094C0A4AFD
:1082700028460C2106F034FF29462046012206F04C
:10828000B1FA2046054A0649BDE8384014F0B2BEAE
:108290007C3F00209C3F00209443002000360020BB
:1082A0002D7902002DE9F0411A4F3E78AAB06EBB3D
:1082B000E846194D404601F0BFFF0FCD02AC0FC498
:1082C00095E80F0084E80F0098E803000AAB83E804
:1082D00003000CA805F032FC0CA805F0A9FB0CA8C3
:1082E00002A9282205F06CFD0CA820220B4905F0FC
:1082F000A3FD2822314602A815F01FFE0CA8C8F8DD
:108300000460009605F0BEFB01233B702AB0BDE877
:10831000F08100BFB440002094030400B840002066
:1083200010B5054B044640F82C3B03F003FC2046F7
:1083300004F0E0FC204610BD700304002DE9F04776
:10834000364F374E3D469446804689460FCDE0B0C5
:108350000DAC0FC495E80F0084E80F004FEA1C61D4
:108360004FEA1C424FEA1C2316A88DF857C08DF81F
:1083700056308DF854108DF8552005F0DFFB16A807
:1083800005F056FB05AD0DA916A8242205F018FD31
:1083900016A82946202205F04FFD95E80F0001ACF4
:1083A00084E80F004FF0200A0DA82422002115F0C8
:1083B000C4FD52460021284615F0BFFD16A805F061
:1083C00061FB21AD16A804F0BFFD2846169603F008
:1083D00059FC5246394616A8179504F0B3FC2146BD
:1083E000102216A804F0C2FC16A8042104F0BAFD5D
:1083F000424641464B4616A804F0C2FB00232846DD
:10840000C4E90033C4E90233169603F093FB16A8BF
:1084100004F070FC012060B0BDE8F087B840002097
:1084200070030400074B1B7833B130B408B10B075D
:1084300004D0002030BC70470020704730BCFFF7EC
:108440007DBF00BFB4400020074B1B7833B130B470
:1084500008B10B0704D0002030BC704700207047E3
:1084600030BCFFF76BBF00BFB440002010B5074B16
:10847000044640F82C3B03F05DFB204604F03AFC38
:1084800020460DF03BFB204610BD00BF70030400EA
:1084900038B5094C2546204605F082F9074B45F8CA
:1084A000783B284603F034FB20466560044A0549C2
:1084B000BDE8384014F09EBDD8400020BC03040045
:1084C00000360020C984020010B5054B044640F870
:1084D000783B03F09DFA204604F080FD204610BD55
:1084E000BC03040010B5074B044640F8783B03F08A
:1084F0008FFA204604F072FD20460DF0FFFA204668
:1085000010BD00BFBC03040001207047704700BFCE
:10851000704700BF014B01221A70704729420020AA
:1085200008B5012111200DF075FF0AF019FF014B6C
:10853000186008BD2C420020044B197811B9112095
:108540000DF068BF012111200DF064BF2B42002007
:1085500070B5284C284E00222046012108F080FFEB
:108560002046042109F01AF92046244904F1200587
:1085700009F0ECF800231A462846012108F006FB12
:108580002846012108F01AFB28461D4908F0C2FBC5
:1085900028461C4908F0C8FB28461B4908F0C2FBC6
:1085A00020461A4908F0AAFA2046194904F522740F
:1085B00008F0A6FA304609F0E9FA0621204607F04D
:1085C000ABF8204607F090F8204607F05FF83146F8
:1085D000204607F045F82046012107F0D5F8A022F3
:1085E0002046114607F0CCF820461E21BDE8704019
:1085F00007F0C4B80044002034420020F003040017
:10860000098502000D850200118502002185020006
:108610003985020038B54FF080430124C3F878450E
:10862000214611200DF05EFE002111200DF0F2FE1A
:10863000214610200DF056FE214610200DF0EAFED6
:10864000022107200DF04EFE0C200DF06FFD00F012
:1086500037FE00F0DBFBFDF7FDFFFEF71DF80028FD
:1086600040F0B480714C724801F00CFE714800F08B
:10867000E7FF204601F0E0FD01250023C4E9025395
:1086800021466D4801F01EFD21466C4801F0FCF8C2
:108690001B216B481F231E2203F0AEF9694968486D
:1086A00002F0DEF8002840F094800A240121112015
:1086B0000DF0B0FE64200AF05FFE002111200DF0E5
:1086C000A9FE64200AF058FE013CEFD107200DF00E
:1086D000B3FE90B3FDF7E0FF70B35B4D2B78002B3A
:1086E00000F09480594CFDF7E1FF237823BB2B78F1
:1086F000002B00F09580012323700AF031FE544BCB
:1087000005241860012111200DF084FE64200AF078
:1087100033FE002111200DF07DFE64200AF02CFEB6
:10872000013CEFD1012111200DF074FE00214948D8
:10873000BDE8384007F096B838BD32200AF01CFE7C
:1087400007200DF079FE0028C4D10AF009FE424D41
:1087500004460FE00DF070FE0028BBD10AF000FEC9
:10876000A5FB0031C1F3001111200DF053FE0A20CA
:108770000AF002FE0AF0F4FD031BB3F5FA6F4FF0A6
:108780000700E7D3314C002111200DF043FE237880
:10879000002BD1D12C4D2B78002B3CD00123237002
:1087A0000AF0DEFD2A4B05241860012111200DF08E
:1087B00031FE64200AF0E0FD002111200DF02AFEB8
:1087C00064200AF0D9FD013CEFD1ABE7FDF76EFF65
:1087D00048E70A211A4802F0B5FD2049184802F07E
:1087E000E3FE0521164803F031F80821144803F090
:1087F00071F82A461421124802F008FD342110486D
:1088000003F0A0F80E4803F0BDF85FE7FFF7A0FE05
:1088100001232B7066E7FFF79BFE01232B70BDE75A
:10882000FFF796FE01232B7065E700BF1042002082
:1088300094430020A4420020B44200205C43002066
:10884000B0430020C0CA8936284200202B420020B5
:108850002C42002088460020D34D621048E80100D9
:1088600008B501F001FDFFF7D5FEFFF751F918B982
:10887000BDE80840FEF746BDFFF70CFAFFF7D2FB54
:108880000028F5D0FFF742FBBDE80840FEF73ABDEF
:108890002DE9F047524EDFF87081524FDFF86C91AE
:1088A000044602E0B4F57A7F6ED9404602F090FCAF
:1088B000384600F0DDFF002111200DF0ABFD012155
:1088C00010200DF0A7FD3CB9474B484C1A88484B87
:1088D000B2F5486F38BF1C460AF042FD4FF0000A5F
:1088E0000322444986F800A0054607200AF090FBC1
:1088F0000DF0ECF820460AF03FFD0DF0EDF80720F2
:108900000AF090FC0AF02CFD401B844288BF241A18
:10891000384698BF544600F0B1FF404602F03AFC9A
:1089200033788BB30023072033700DF085FD0028CA
:10893000B8D132200AF020FD07200DF07DFD00287F
:10894000B0D10AF00DFD05460FE00DF075FD0028D1
:10895000A8D10AF005FDA9FB0031C1F300111120D7
:108960000DF058FD0A200AF007FD0AF0F9FC431B40
:10897000B3F5FA6F4FF00700E7D31F4C0021112029
:108980000DF048FD23780BB1BDE8F0871B4D2B7827
:1089900003B3012323700AF0E3FC194B052418608C
:1089A000012111200DF036FD64200AF0E5FC0021C4
:1089B00011200DF02FFD64200AF0DEFC013CEFD108
:1089C000012111200DF026FD21460E48BDE8F0479B
:1089D00006F048BFFFF7BCFD01232B70D9E700BFAD
:1089E00029420020A44200203042002000DD6D001A
:1089F0000074B701158502002B4200202842002098
:108A00002C42002088460020B0430020D34D621045
:108A100010B5074C204609F093F820460549064A50
:108A200014F0E8FA0B210548BDE8104000F000BE44
:108A300034420020E58D020000360020A4420020D0
:108A40002DE9F041264D274B2C881B7840F64752E4
:108A5000944296B08CBF002401240BB144F0020470
:108A6000214800F0DBFE08B144F008041F49204A09
:108A7000204B1D481678B5F80080B3F900700D88BA
:108A800000F0CCFEC0B2CDE902700096CDF80480B3
:108A90002B46049406A94022174801F021FB064604
:108AA000B8B1164D03240021284602F067F806A944
:108AB0003246284601F0CAFD0021284602F064F93A
:108AC00058B94FF4FA700AF057FC631E13F0FF0414
:108AD000E9D1002016B0BDE8F0810120FAE700BF1F
:108AE0003042002004360020A44200202042002012
:108AF0002A42002022420020B4420020B04300203D
:108B00002DE9F04FA54DA9B0FFF76CFA2C7874B39E
:108B10000AF026FCA24BA34A1B68C01A904215D843
:108B200007200DF089FC002840F0A68032200AF0D2
:108B300023FC07200DF080FC18B19DE00A200AF00C
:108B40001BFC07200DF078FC0028F7D0964B1B7813
:108B500000222A70002B40F09580002111200DF09A
:108B600059FC0020FFF794FE29B0BDE8F08F2146A4
:108B700011200DF04FFC32200AF0FEFB18AE01214F
:108B800011200DF047FC3146204600F069FC874A71
:108B9000199BDFF84492DFF84482DFF844A288F89A
:108BA0000040A2FB0323C3F34F131E20A9F800309B
:108BB0000DF0C2FA41F2883380B203FB00F07C4B27
:108BC000A3FB0023C01A03EB50037A4ADB0AAAF87E
:108BD00000301480FFF734FF002836D1764CBAF805
:108BE0000030B9F800202168ADF8642040F6475203
:108BF00098F80000ADF8663093428DF8680018913F
:108C00004CD806238DF86930002331466B48ADF807
:108C10006E30CDF86A3000F095FD694D284601F0C0
:108C200027F92B78052B63D02368664803F5E153B9
:108C30001946236001F0D0FA0020FFF729FE624BAD
:108C400000221A7029B0BDE8F08FFFF7EBF910BBD6
:108C50000AF086FB5D4F054640F6B73403E002F0AC
:108C600015F900281EDC0AF07BFB431BA3424FF0E2
:108C700000013846F3D9B1E764200AF07DFB29B042
:108C8000BDE8F08F524808F0EBFD00285ED1514856
:108C900006F05AFE61E7FFF7CFF8D9E702238DF817
:108CA0006930B1E7494D28AF344606E0A74228466F
:108CB00062D001F07FFC04F8010BA21B28465FFA8A
:108CC00082FB01F0DFFB0028F0D10CAC5A463146A4
:108CD000009406AB3B4801F04BFA38B19DF81B10ED
:108CE000A1F11003072B3FD902290AD0324C94E797
:108CF0004FF48020FFF7AAF998BB314800F0A0FE9E
:108D000092E79DF83330DB0739D4BAF800302A4CAB
:108D1000ADF80E3040F64752934298F800002168B3
:108D2000B9F800508DF810008CBF01230523029183
:108D30008DF8113002A900232048ADF80C50ADF891
:108D40001630CDF8123000F0FDFC66E7204808F040
:108D5000BDFD01461E4808F0A3FD64200AF00CFB8F
:108D600095E7FFF7D3F8C8E722469DF82F3014485F
:108D7000114C01F049F850E74FF0400BA5E70F48C0
:108D800000F04CFD0028C0D00428014628BF042173
:108D900089B20A4800F044FDB7E700BF2B4200202B
:108DA0002C420020E0930400284200201F85EB5154
:108DB000010110002242002024420020A442002091
:108DC0005C430020B442002004360020B043002061
:108DD0000044002088460020204200202A42002033
:108DE0003042002010B5074B044640F8183B06F00F
:108DF0003BFE2046044B40F8083B08F081F8204633
:108E000010BD00BF8C100400A40F040070B52D4CE1
:108E1000217809B1012070BD2B4D2C482A468C23A6
:108E200000F070FC18B12A4B2A689A420DD08622B5
:108E30000021284815F081F8254B2B6040F20143B2
:108E4000AB8001232370012070BD234B681E05F108
:108E500087064FF0FF3210F8011F4A4042F300012D
:108E6000194081EA520141F300021A4082EA51019D
:108E700041F300021A4082EA510242F30001194014
:108E800081EA520242F30001194081EA520141F3A2
:108E900000021A4082EA510141F300021A4082EABC
:108EA000510242F300011940864281EA5202D2D1B6
:108EB000D5F88830D2439A42B9D12B79012BB6D15B
:108EC000BFE700BF58430020CC420020A44200204E
:108ED000424C434DD24200202083B8ED084B1B7812
:108EE00053B1032806D8074B03EB4010437DDB4307
:108EF00003F001031846704701231846704700BF6E
:108F000058430020CC420020104B70B41C788CB128
:108F1000032812D80E46A1B10D4D05EB40150835BA
:108F20000FCD30607160B260F3600FCD3061716160
:108F3000B261F361204670BC70470024204670BCCB
:108F400070470C46204670BC704700BF5843002055
:108F5000CC420020274B1B780BB1032801D90020FD
:108F6000704730B4244C254B04EB40100025427D63
:108F7000856142F001024275816004F18705601E3F
:108F80004FF0FF3210F8011F4A4042F30001194030
:108F900081EA520141F300021A4082EA510141F391
:108FA00000021A4082EA510242F30001194081EAAC
:108FB000520242F30001194081EA520141F30002DA
:108FC0001A4082EA510141F300021A4082EA51023A
:108FD00042F300011940854281EA5202D2D1D143C5
:108FE000C4F888108C23044A0548002130BC00F0E6
:108FF00099BB00BF58430020CC4200202083B8ED2D
:10900000A4420020274B1B780BB1032801D9002074
:10901000704730B4244C254B04EB40100025427DB2
:10902000856142F002024275C16004F18705601E4D
:109030004FF0FF3210F8011F4A4042F3000119407F
:1090400081EA520141F300021A4082EA510141F3E0
:1090500000021A4082EA510242F30001194081EAFB
:10906000520242F30001194081EA520141F3000229
:109070001A4082EA510141F300021A4082EA510289
:1090800042F300011940854281EA5202D2D1D14314
:10909000C4F888108C23044A0548002130BC00F035
:1090A00041BB00BF58430020CC4200202083B8EDD4
:1090B000A4420020274B1B780BB1032801D90020C4
:1090C000704730B4244C254B04EB40100025427D02
:1090D000856142F004024275016104F18705601E5A
:1090E0004FF0FF3210F8011F4A4042F300011940CF
:1090F00081EA520141F300021A4082EA510141F330
:1091000000021A4082EA510242F30001194081EA4A
:10911000520242F30001194081EA520141F3000278
:109120001A4082EA510141F300021A4082EA5102D8
:1091300042F300011940854281EA5202D2D1D14363
:10914000C4F888108C23044A0548002130BC00F084
:10915000E9BA00BF58430020CC4200202083B8ED7C
:10916000A4420020264B1B780BB1032801D9002014
:10917000704770B5234C202202FB004008300021CC
:1091800014F0DBFE204B601E04F187054FF0FF3228
:1091900010F8011F4A4042F30001194081EA5201D0
:1091A00041F300021A4082EA510141F300021A40E1
:1091B00082EA510242F30001194081EA520242F36D
:1091C0000001194081EA520141F300021A4082EA8B
:1091D000510141F300021A4082EA510242F30001B8
:1091E0001940854281EA5202D2D1D143C4F8881095
:1091F0008C23044A05480021BDE8704000F092BA73
:1092000058430020CC4200202083B8EDA442002027
:10921000264B187800B9704770B5254C8622A01DE2
:10922000002114F08AFE234A2260234B40F20142BF
:10923000A280601E04F187054FF0FF3210F8011F75
:109240004A4042F30001194081EA520141F3000211
:109250001A4082EA510141F300021A4082EA5102A7
:1092600042F30001194081EA520242F30001194021
:1092700081EA520141F300021A4082EA510141F3AE
:1092800000021A4082EA510242F30001194085426D
:1092900081EA5202D2D1D143C4F888108C23044A07
:1092A00006480021BDE8704000F03CBA5843002059
:1092B000CC420020424C434D2083B8EDA442002014
:1092C00070B5184D2C7804B170BD012110200DF03F
:1092D00009F8012110200DF09DF8214603200DF022
:1092E00001F8214604200CF0FDFF214605200CF07A
:1092F000F9FF21461C200CF0F5FF0B490B4A0C4EE0
:1093000001230320C1F80435C1F80805CB6004210E
:10931000C2F80445C2F80805C2F810152B70347065
:1093200070BD00BF5943002000A0014000B00140C3
:109330005A430020094B1B7823B110B5084C217803
:1093400009B110BD704710200DF064F8012323709F
:109350000A20BDE810400AF00FB800BF59430020B2
:109360005A43002008B5064B1B7803B908BD0121FC
:1093700010200DF04FF8034B00221A7008BD00BFFB
:10938000594300205A430020254B1B78002B44D022
:10939000032842D8234B244AF0B41C5C234F2448B2
:1093A000244D254B254E240244F00114C7F81845DE
:1093B0004FF47A74C0F8603504FB01F4C0F86465BA
:1093C000012300264FF4806CC2F84045EB60144640
:1093D000D360C7F80861C2F84061C0F804C52B60CB
:1093E0001360D4F84021002AFBD0124B104D0F48D7
:1093F00001225A6062604FF48064C5F80845002479
:10940000C0F818451A64D3F840054FF47A7303FB8B
:1094100000F3F0BCB3FBF1F070470020704700BFD1
:1094200059430020FC03040000B0014000600040EC
:1094300000F0014000A001400861004008A0014088
:109440004CF24F33984208D903F5970303F2F173B6
:10945000984294BF0020012070470220704700BF4F
:109460002DE9F047674E337888B0002B00F08F80ED
:10947000032800F29580002900F09280624F0C468C
:10948000002397F800802070FF224B6004230546DC
:109490000A724B72B8F1000F00F087805B4B5C489A
:1094A0005A5DDFF87CE15B4BDFF870C15A49DFF8A9
:1094B0007891DFF878A1120242F00112CEF8182557
:1094C000C0F860150022C0F8649501214FF480694E
:1094D000C3F840A5CCF80C10D960CEF80821C3F829
:1094E0004021C0F804951A46CCF800101960D2F853
:1094F0004031002BFBD04949DFF814C14848012313
:109500004B604FF0000A53604FF48062CCF808259E
:10951000C0F818A50B64D1F84015424A4FF47A7987
:1095200009FB01F9A2FB09294FEA59194CF24F3204
:109530009145C4F804902ED902F5970202F2F17217
:10954000914529D884F809A028466946FFF7DCFC34
:1095500000284CD0019B002B49D0029A002A46D00B
:10956000994549D291454AD9A3EB090964219B1A2F
:1095700001FB09F9B9FBF3F3DBB2FF2B237238D0FF
:10958000B8F1000F25D0637AB3FA83F35B0918466C
:1095900008B0BDE8F08702236372B8F1000F1BD05A
:1095A0000023184608B0BDE8F087414610200CF0B3
:1095B00031FF01230A203B7009F0DEFE3378002BD7
:1095C0007FF46CAF022218466360627208B0BDE897
:1095D000F0873378002BD6D0012110200CF01AFF31
:1095E000637A0022B3FA83F35B093A70CFE7FF2373
:1095F000237203236372C3E784F808A0C0E76423DF
:109600002372BDE7594300205A430020FC030400A5
:1096100000F0014000B001400861004000A001409E
:10962000006000401F85EB5108A00140A0860100AA
:10963000002201704270C0E90122C260704700BF81
:1096400030B5044695B010200CF056FA94F900108D
:109650002A4B2B4A054605F02BFE65602846022161
:1096600005F046FE054648B9606810B103685B68BE
:10967000984700232846636015B030BD0DF10602FF
:109680000DF10501606805F025FF63786BBBBDF83F
:1096900008303E2B10D8BDF80A203E2A0CD80021F5
:1096A00063F30F01039B62F31F41C4E9021301231B
:1096B0002846637015B030BD627800230F93C4E96B
:1096C0000233CDE90B33CDE90D33CDE910331293DD
:1096D000ADF84C30002AEAD060680028E7D00BAA29
:1096E0002223402105F094FEE1E760680028CED0F7
:1096F000222302AA402105F0BBFEC8E700127A002F
:109700009443002070B4457835B1406820B10C46D0
:109710001C44B4F5005F02DD002070BC704770BCD3
:1097200005F0A6BE70B4457835B1406820B10C464E
:109730001C44B4F5005F02DD002070BC704770BCB3
:1097400005F066BEF0B543788BB01BB900252846FE
:109750000BB0F0BD4568002DF8D0038903F2C113AA
:109760001B019BB241F6F0729342EFD80A460446C1
:1097700019462846102305F04BFE05460028E5D083
:109780002289254EA1896089013286FB0273134428
:109790005B11C3EB8313D31A9BB23E2923812DD8CF
:1097A000013189B2A181E289013292B200278A4255
:1097B0003E4688BF0A4663F30F0761F30F0688BF72
:1097C000E181617898BFE281002360F31F4762F373
:1097D0001F46CDE901760593CDE90333CDE9063384
:1097E0000893ADF824300029B1D060680028AED0CD
:1097F00001AA2223402105F00BFEA8E7013086FBD9
:1098000000260644C217C2EB6616C6EB8616801BFE
:1098100080B26081C7E700BF83200882C08970479B
:1098200010B5C389846842788AB08B4294BFD91A34
:10983000591A89B2002301948489C181ADF80A10B4
:10984000ADF808400593CDE90333CDE9063308931D
:10985000ADF8243012B901200AB010BD40680028CC
:10986000F9D001AA2223402105F0D2FDF3E700BF81
:10987000406808B105F05ABE704700BF406808B1A3
:1098800005F074BE704700BF002310B500F1180248
:10989000416103704370C0E90133C3600382837484
:1098A000044620234FF400710B48FFF72BFF18B13B
:1098B0000A4BA2699A4200D010BD94F82F30032BB6
:1098C00003D0052B08BF237010BDE169628D2370A2
:1098D0006160228210BD00BFA44200204841544F65
:1098E0000B78FF2B02D0012B00D07047F0B58B789E
:1098F0004D78CC784D4A1B0243EA054323439342FB
:10990000A1B001DC21B0F0BD4B68B3F5802FF9D8D0
:109910000378D1F80E20032B00F082804369426067
:1099200005461E785878DF7B1F220C4612FB060284
:10993000997818795E79C2EB42121144DA78C1EB5A
:1099400041110A44C2EB42121044C0EB40100644DD
:109950009879DA79197AC6EB46163044C0EB401094
:109960000244C2EB421211445A7A987ADE7AC1EB71
:1099700041110A44C2EB42121044C0EB40100644AD
:10998000187B5A7B997B2A4BC6EB46163044C0EBBA
:1099900040100244C2EB42120A44C2EB42123A4463
:1099A0002449A3FB02031B0D01FB1323AB6009F049
:1099B000D7FC00260123204AE8602B702E82AE746B
:1099C0006E70AA61D4F80E20EA6162682A62D4F847
:1099D0000A206A6222892A856E85627885F82C20A1
:1099E000A27885F82D20E27885F82E2085F82F3092
:1099F00005F11802202385F830604FF400710F48FC
:109A0000FFF790FE31466846802214F096FA6A46C7
:109A100080234FF406710948FFF784FE21B0F0BDA2
:109A2000436893427FF47AAF6CE700BF0001010006
:109A3000B17C219540771B004841544FA44200203F
:109A400008B50378052B00D008BD0246002380F836
:109A50002F30183220234FF400710A48FFF762FEBE
:109A60004FF08043B122C3F81C25BFF34F8F064946
:109A7000064BCA6802F4E0621343CB60BFF34F8F1A
:109A800000BFFDE7A442002000ED00E00400FA055D
:109A90002DE9F04FC3B03F4A4369009201228DF88F
:109AA000042059689A681C68DB68CDF8113080463C
:109AB0003948CDF80910CDF80D20CDF8054000F05B
:109AC00085FBB8F82830D8F80420ADF81500092136
:109AD0008DF8171006925BB3DFF8C8A02F4F4FF038
:109AE000FF34002510AE4FF0C80909FB05F1013B1A
:109AF00001F510719D426FEA040489B230D0C82389
:109B000032465046FFF7FEFDC823314611F8012BBF
:109B10006240D2B2881B57F82220834282EA142482
:109B2000F4D80135B8F82830ADB2AB42DDD8E34304
:109B3000D8F824400793E31A18BF012300211848DE
:109B40008DF8203001F01AF869462122144800F0FF
:109B50007DFD0021124801F017F943B0BDE8F08FF8
:109B6000D8F8203005EB850B0BEB8B0BA3EBCB0B65
:109B70001FFA8BFB5B4632465046FFF7C3FD5B4640
:109B8000002BC2D10135B8F82830ADB2AB42ACD809
:109B9000CDE700BF41470115B44200200004040096
:109BA000B0430020A44200202DE9F041CB8890B0C2
:109BB0000C46054601F10A02002B00F01881104600
:109BC0009F184FF6FF7141F2210610F801CB81EA90
:109BD0000C210FFA81FC1FFA8CF1BCF1000FACBF15
:109BE000490086EA410189B211F4004F0CBF4900D7
:109BF00086EA410189B211F4004F0CBF490086EAA0
:109C0000410189B211F4004F0CBF490086EA4101BD
:109C100089B211F4004F0CBF490086EA410189B2B4
:109C200011F4004F0CBF490086EA410189B211F4DA
:109C3000004F0CBF490086EA410189B211F4004F80
:109C40000CBF490086EA4101B84289B2BDD12089E2
:109C5000A6888842B7B22FD06B69664A0092012469
:109C60008DF8044059689A681F686348DB68CDF82E
:109C70001130CDF80910CDF80D20CDF8057000F0A9
:109C8000A5FA6A68ADF8150007235C488DF81E40F8
:109C900000210692ADF81C608DF8173000F06EFFC1
:109CA00069461F22554800F0D1FC0021534801F0BD
:109CB0006BF810B0BDE8F081C82101FB07F101F598
:109CC000107189B24E48FFF72DFD0646002869D075
:109CD000A6884B48C6F3C70808F5067841466A4689
:109CE0000123FFF70FFD01279DF80030444806F0DF
:109CF000070607FA06F641461E436A463B468DF8BC
:109D00000060FFF70FFD6B8D3B446B8509F028FB6E
:109D100000266B693B4AE8608DF80470AE740092CF
:109D20001F6859689A68DB68CDF81130CDF80910C2
:109D3000CDF80D20CDF805702F48A78800F046FA21
:109D40006B68ADF81500072231462C4806938DF854
:109D50001720ADF81C708DF81E6000F00FFF1F2259
:109D60006946264800F072FC3146244801F00CF8A0
:109D7000698D2A8D032391422B7085F82F3003D3F0
:109D800004232B7085F82F30202305F118024FF49F
:109D900000711B48FFF7C6FCA38801332B8210B06B
:109DA000BDE8F081134A00926B6901228DF804200E
:109DB000186859689A68A788DB68CDF805000E48CE
:109DC000CDF80910CDF80D20CDF8113000F0FEF9D6
:109DD0006C68ADF81500072202230848ADF81C7026
:109DE000314606948DF817208DF81E3056E74FF651
:109DF000FF712CE741470114B4420020B04300201A
:109E0000A442002041470113122910B520D0162981
:109E10000AD0102901D0002010BD112BFBD911460A
:109E2000FFF75EFD012010BD002100F1180306229E
:109E30000170416042701846202214F07EF8202301
:109E400002464FF400710948FFF76CFC012010BD79
:109E5000092BE0D943681168994201D0012010BD57
:109E60001146FFF7A1FE012010BD00BFA442002053
:109E70002DE9F04F8046B3B009F072FA98F800303F
:109E8000013B0446032B25D8DFE803F06F020227CD
:109E9000D8F80C3042F20F72C31A93421AD998F8CC
:109EA00012300133DBB2042B88F8123040F2C98043
:109EB0000122062388F8012088F8302088F8003035
:109EC00088F82F3008F1180220234FF400717748EA
:109ED000FFF728FC33B0BDE8F08FB8F828305BB34B
:109EE000DFF8C8A1724F4FF0FF3400256E464FF0E7
:109EF000C80909FB05F1013B01F510719D426FEAAC
:109F0000040489B273D0C82332465046FFF7FAFBE7
:109F1000C823314611F8012B6240D2B2881B57F892
:109F20002220984282EA1424F4D30135B8F828306C
:109F3000ADB2AB42DDD8E343D8F82410994208F122
:109F400018026FD00321062388F8011088F830101A
:109F500088F8003088F82F304FF4007120235348E0
:109F6000FFF7E0FB33B0BDE8F08FD8E90223C31A56
:109F70009342AFD34F4A0092D8F814304E48012292
:109F80008DF804201D6859689A68DB68CDF8113097
:109F9000CDF80550CDF80910CDF80D2000F016F9D8
:109FA000B8F82A30ADF815000025013B0920D8F893
:109FB0000420ADF81F30294640F201138DF8170038
:109FC0003E48ADF81C3006928DF81E5000F0D6FDCC
:109FD00069462122394800F039FB2946374800F00C
:109FE000D3FE0223C8F80C4088F8003072E7D8F896
:109FF000203005EB850B0BEB8B0BA3EBCB0B1FFA88
:10A000008BFB5B4632465046FFF77CFB5B46002BE2
:10A010007FF47FAF0135B8F82830ADB2AB423FF6E0
:10A0200068AF88E7052388F8003088F82F304FF4B0
:10A03000007120231D48FFF775FB4046FFF728FD00
:10A0400048E7D8F814301E4A009201258DF80450D4
:10A050001E6859689A681848DB68CDF81130CDF849
:10A060000560CDF80910CDF80D20B8F8106000F0AB
:10A07000ADF8D8F80430ADF81500072200210F48DC
:10A0800006938DF817208DF81E50ADF81C6000F077
:10A0900075FD69461F22094800F0D8FA00210748DB
:10A0A00000F072FEC8F80C4014E700BFA442002084
:10A0B0000004040041470111B4420020B0430020D5
:10A0C0004147011430B4CB680D684C688A68C3609E
:10A0D00000230560446082600382436130BC7047A6
:10A0E0002DE9F047262A9DF820C0BDF82470BDF95F
:10A0F00028609DF82C509DF8304002D80020BDE823
:10A10000F0871A4A0A6001220A71D0F80880D0F854
:10A110000CE0D0F800A0D0F80490C1F80990C1F884
:10A120000D80C1F811E0C1F805A0028A4FF00F0EB2
:10A1300002F10108A0F81080A1F8152081F817E0BD
:10A1400042698A6100228B8381F81EC0A1F81F70CA
:10A15000A1F8216081F8255081F8264081F823205C
:10A1600081F824202720BDE8F08700BF4147010186
:10A17000172A01D80020704770B508684C68CD6870
:10A180008E681860DD601D785C609E6008694C69AF
:10A190005C61412D186101D0002070BD58784728BE
:10A1A000FAD19C78012CF7D1DB7D03F118008242B3
:10A1B000F2D3049A02B10BB9204670BD1046183193
:10A1C0001A4613F096FE204670BD00BF038A5A1C43
:10A1D00002821846704700BF41617047134B01224D
:10A1E000C3F80425D3F80024002AFBD04FF0102236
:10A1F00000210E4BC2F80812D3F80024002AFBD02D
:10A2000000220A49C3F80425D1F80034002BFBD002
:10A21000BFF34F8F0649074BCA6802F4E06213434D
:10A22000CB60BFF34F8F00BFFDE700BF00E00140F0
:10A2300000ED00E00400FA05A0B14FF0805230B408
:10A24000136E526EC270110E150C1C0E120AC371E1
:10A250000170190C1B0A4570047182704171837181
:10A2600030BC7047704700BF08B54FF01023D3F8DB
:10A270000822013200D008BDD3F808320133FAD1E8
:10A28000FFF7ACFF417C01B1704770B48368827BFB
:10A29000254C01254574C3F80825427BC3F80C25DD
:10A2A0002579067B6279C3F81065C3F80015691E2D
:10A2B00012F1FF32C9B218BF01220229C57302741C
:10A2C000206816D9C3F85425184AB2FBF0F2B2F54B
:10A2D000007F13D2FF2A1AD87F2A1ED83F2A19D806
:10A2E0001F2A1DD8102A34BF4FF000414FF0804183
:10A2F00006E00F4C54F821100A43E3E74FF00071D9
:10A300000122C3F8241570BCC3F8002570474FF034
:10A310008061F5E74FF08051F2E74FF00061EFE721
:10A320004FF00051ECE700BFA84300200090D0039D
:10A330000008040082680023C2F8003543747047A7
:10A3400030B482B002AB03E906009DF804409DF8EA
:10A3500005308268611E13F1FF33C9B218BF0123B3
:10A3600000250229C2F80055C473037403D81948A4
:10A3700050F821100B43C2F854350099164BB3FB2B
:10A38000F1F3B3F5007F18D2FF2B0CD87F2B17D831
:10A390003F2B18D81F2B19D8102B34BF4FF000417A
:10A3A0004FF0804101E04FF080610123C2F8241595
:10A3B000C2F8003502B030BC70474FF00071F4E7CE
:10A3C0004FF00061F1E74FF08051EEE74FF00051A0
:10A3D000EBE700BF000804000090D0038368002270
:10A3E000C3F80025704700BF8268C2F81C15D2F878
:10A3F0000831002BFBD0D2F818050023C0B2C2F8F8
:10A4000008317047B2B1013A30B48C1800250139D7
:10A41000826811F8013FC2F81C35D2F80831002BD0
:10A42000FBD0D2F81835C2F80851A1420B70EFD119
:10A4300030BC7047704700BF0B4A0C4B0C4970B4DE
:10A44000D2E90C050B4C966B987300229C604FF47C
:10A450008070094C1E735D73DA731A740C60888007
:10A460005A7470BC704700BF401104009443002030
:10A47000A84300200030024000093D000020704742
:10A48000704700BF38B500210446C0690BF0C2FF19
:10A4900004F1100393E80600A069FFF751FFA069DB
:10A4A0001321FFF7A1FF0021A069FFF79DFF0546DB
:10A4B000A069FFF793FFE06901210BF0ABFFE06AB1
:10A4C000281A38BD2DE9F0430368394A5B6883B028
:10A4D00093428DF8071061D104460021C06904F150
:10A4E00010060BF097FF96E80600A069FFF728FF1B
:10A4F0002221A069FFF778FF0021A069FFF774FF10
:10A500008146A069FFF76AFF0121E0690BF082FF35
:10A51000B9F1FF0F3FD00DF1070845460021E06972
:10A5200015F8017B0BF076FF96E80600A069FFF7AF
:10A5300007FF8021A069FFF757FF3946A069FFF7A1
:10A5400053FFA069FFF74AFF0121E0690BF062FFAA
:10A55000A845E3D001231D46E069002199440BF092
:10A5600059FF96E80600A069FFF7EAFE5FFA89F94D
:10A57000A221A069FFF738FF4946A069FFF734FF21
:10A58000A069FFF72BFFE06901210BF043FF28468C
:10A5900003B0BDE8F08300231D46DDE701220DF185
:10A5A000070198470546284603B0BDE8F08300BF81
:10A5B0004DA6020038B50368234A1B69934204463E
:10A5C0003DD10021C0690BF025FF04F1100393E891
:10A5D0000600A069FFF7B4FE1321A069FFF704FF8E
:10A5E0000021A069FFF700FF0546A069FFF7F6FE0E
:10A5F000E06901210BF00EFFE06A281A08B3E36A54
:10A60000E0690133E36200210BF004FF04F1100361
:10A6100093E80600A069FFF793FE0021A069FFF709
:10A62000E3FE0021A069FFF7DFFE0546A069FFF702
:10A63000D5FEE06901210BF0EDFE284638BD9847B4
:10A64000DCE74FF0FF3038BD85A402002DE9F0476C
:10A6500004460D46C069002104F1100691460BF036
:10A66000D9FE96E80600A069FFF76AFE2221A069DC
:10A67000FFF7BAFE0021A069FFF7B6FE0746A06902
:10A68000FFF7ACFE07EB090AE06901210BF0C2FEFF
:10A69000BAF1FF0F84BFC7F1FF0907EB090AB9F14F
:10A6A000000F1ED0013D05EB09080021E06915F8F7
:10A6B000017F0BF0AFFE96E80600A069FFF740FEB1
:10A6C0008021A069FFF790FE3946A069FFF78CFE54
:10A6D000A069FFF783FE0121E0690BF09BFEA8450E
:10A6E000E3D1E06900210BF095FE96E80600A06931
:10A6F000FFF726FE5FFA8AFAA221A069FFF774FE2F
:10A700005146A069FFF770FEA069FFF767FEE06998
:10A7100001210BF07FFE4846BDE8F087F8B50368DD
:10A720003B4A1B69934204466CD10021C0690BF07F
:10A7300071FE04F1100393E80600A069FFF700FE24
:10A740001321A069FFF750FE0021A069FFF74CFE1E
:10A750000546A069FFF742FEE06901210BF05AFEB1
:10A76000E06A281A00284FD004F11005E0690021A2
:10A770000BF050FE95E80600A069FFF7E1FD0D2102
:10A78000A069FFF731FE0021A069FFF72DFE074603
:10A79000A069FFF723FEE06901210BF03BFEE069B1
:10A7A00000210BF037FE95E80600A069FFF7C8FD11
:10A7B0000021A069FFF718FE0021A069FFF714FE31
:10A7C0000646A069FFF70AFEE06901210BF022FEB0
:10A7D000E06900210BF01EFE95E80600A069FFF776
:10A7E000AFFD8D21A069FFF7FFFD3946A069FFF796
:10A7F000FBFDA069FFF7F2FDE06901210BF00AFE05
:10A800003046F8BD9847ADE74FF0FF30F8BD00BFC8
:10A8100085A4020038B54FF47A7383600D4D0E4A5B
:10A820000E490560012302614375092202238161FB
:10A830000A2500210446C0E90752436241600175C0
:10A84000C0E90A11C0E90C11816308F097F82046AD
:10A8500038BD00BF3C08040000127A009443002079
:10A86000F8B504460F46C06901210BF03BFDE069D5
:10A8700001210BF0CFFD206A431C10D001210BF009
:10A8800031FD0021206A0BF0C5FD0A2008F074FD9F
:10A89000206A01210BF0BEFD0A2008F06DFDA069C1
:10A8A000FFF7F0FC04F110050021E0690BF0B2FDA8
:10A8B00095E80600A069FFF743FD4221A069FFF774
:10A8C00093FD0021A069FFF78FFD0646A069FFF701
:10A8D00085FD0121E0690BF09DFD122E01D00020C5
:10A8E000F8BDE06900210BF095FD95E80600A06930
:10A8F000FFF726FD8121A069FFF776FD8021A06981
:10A90000FFF772FDA069FFF769FDE06901210BF017
:10A9100081FDFB17D904984AA762002341EA573109
:10A92000F80413F0D1F800210646E0690BF072FD3F
:10A9300095E80600A069FFF703FD8621A069FFF7EF
:10A9400053FDC6F30741A069FFF74EFDA069FFF76D
:10A9500045FDE06901210BF05DFDE06900210BF090
:10A9600059FD95E80600A069FFF7EAFC8721A06978
:10A97000FFF73AFDC6F30721A069FFF735FDA0698F
:10A98000FFF72CFDE06901210BF044FDE069002197
:10A990000BF040FD95E80600A069FFF7D1FC882187
:10A9A000A069FFF721FDF1B2A069FFF71DFDA069C5
:10A9B000FFF714FDE06901210BF02CFDE069002197
:10A9C0000BF028FD95E80600A069FFF7B9FC8E2181
:10A9D000A069FFF709FD0021A069FFF705FDA06947
:10A9E000FFF7FCFCE06901210BF014FDE069002198
:10A9F0000BF010FD95E80600A069FFF7A1FC8F2180
:10AA0000A069FFF7F1FC0021A069FFF7EDFCA06948
:10AA1000FFF7E4FCE06901210BF0FCFCE069002198
:10AA20000BF0F8FC95E80600A069FFF789FC0C2103
:10AA3000A069FFF7D9FC0021A069FFF7D5FC064605
:10AA4000A069FFF7CBFCE06901210BF0E3FCE069B2
:10AA500000210BF0DFFC95E80600A069FFF770FC11
:10AA60008C21A069FFF7C0FC46F00301C9B2A069C0
:10AA7000FFF7BAFCA069FFF7B1FCE06901210BF018
:10AA8000C9FCE06900210BF0C5FC95E80600A0694F
:10AA9000FFF756FCA621A069FFF7A6FC0421A069D8
:10AAA000FFF7A2FCA069FFF799FCE06901210BF018
:10AAB000B1FCE06900210BF0ADFC95E80600A0694F
:10AAC000FFF73EFCCD21A069FFF78EFC8421A06931
:10AAD000FFF78AFCA069FFF781FCE06901210BF018
:10AAE00099FCE06900210BF095FC95E80600A0694F
:10AAF000FFF726FC8B21A069FFF776FC2B21A069CC
:10AB0000FFF772FCA069FFF769FCE06901210BF017
:10AB100081FCE06900210BF07DFC95E80600A0694E
:10AB2000FFF70EFC8921A069FFF75EFC8F21A06969
:10AB3000FFF75AFCA069FFF751FCE06901210BF017
:10AB400069FCE06900210BF065FC95E80600A0694E
:10AB5000FFF7F6FB8121A069FFF746FC8121A06980
:10AB6000FFF742FCA069FFF739FCE06901210BF017
:10AB700051FC0120F8BD00BF0048E801F8B50446CB
:10AB80000F46C069002104F110050BF043FC95E865
:10AB90000600A069FFF7D4FB0121A069FFF724FCA0
:10ABA0000021A069FFF720FC0646A069FFF716FC0C
:10ABB00006F00306E06901210BF02CFC032E00F0E7
:10ABC0009B800021E0690BF025FC95E80600A06958
:10ABD000FFF7B6FB1221A069FFF706FC0021A06970
:10ABE000FFF702FC0646A069FFF7F8FB0121E069C8
:10ABF0000BF010FC330700F181800021E0690BF0BD
:10AC000009FC95E80600A069FFF79AFB8121A0697D
:10AC1000FFF7EAFB8121A069FFF7E6FBA069FFF7D8
:10AC2000DDFB0121E0690BF0F5FB002F7FD13946F8
:10AC3000E06927630BF0EEFB95E80600A069FFF7DB
:10AC40007FFB1D21A069FFF7CFFB3946A069FFF705
:10AC5000CBFB0646A069FFF7C1FB0121E0690BF0C1
:10AC6000D9FB3946E0690BF0D5FB95E80600A069F1
:10AC7000FFF766FB9D21A069FFF7B6FB06F0FE011A
:10AC8000A069FFF7B1FBA069FFF7A8FBE06901210C
:10AC90000BF0C0FBE06900210BF0BCFB95E806005F
:10ACA000A069FFF74DFB8D21A069FFF79DFB0021F7
:10ACB000A069FFF799FBA069FFF790FBE06901210C
:10ACC0000BF0A8FBE06900210BF0A4FB95E806005F
:10ACD000A069FFF735FBA221A069FFF785FB0021E2
:10ACE000A069FFF781FBA069FFF778FBE06901210C
:10ACF0000BF090FB0120F8BD0020F8BDE0690021B9
:10AD00000BF088FB95E80600A069FFF719FB92217C
:10AD1000A069FFF769FB0821A069FFF765FBA0693F
:10AD2000FFF75CFB0121E0690BF074FB65E701268E
:10AD30000021E06926630BF06DFB95E80600A06931
:10AD4000FFF7FEFA1D21A069FFF74EFB0021A06965
:10AD5000FFF74AFB0746A069FFF740FB3146E06971
:10AD60000BF058FB0021E0690BF054FB95E806005E
:10AD7000A069FFF7E5FA9D21A069FFF735FB47EAD7
:10AD80000601C9B27CE700BF70B50446C06951B383
:10AD9000A36B002B77D0002104F110050BF03AFBD8
:10ADA00095E80600A069FFF7CBFAC021A069FFF77C
:10ADB0001BFB4021A069FFF717FBA069FFF70EFB03
:10ADC000E06901210BF026FBE06900210BF022FB7A
:10ADD00095E80600A069FFF7B3FA8121A069FFF7A3
:10ADE00003FB832143E004F110050BF013FB95E80E
:10ADF0000600A069FFF7A4FA8121A069FFF7F4FA21
:10AE00008321A069FFF7F0FAA069FFF7E7FA0121B3
:10AE1000E0690BF0FFFA01E00BF00EF80021E069A9
:10AE20000BF0F8FA95E80600A069FFF789FA1221FD
:10AE3000A069FFF7D9FA0021A069FFF7D5FA064605
:10AE4000A069FFF7CBFA0121E0690BF0E3FA3307C1
:10AE5000E2D50021E0690BF0DDFA95E80600A06973
:10AE6000FFF76EFA9221A069FFF7BEFA0821A069E8
:10AE7000FFF7BAFAA069FFF7B1FAE06901210BF018
:10AE8000C9FA012070BD04F110059EE72DE9F843D1
:10AE900004468846C069002104F110050BF0BAFA97
:10AEA00095E80600A069FFF74BFA1221A069FFF7A9
:10AEB0009BFA0021A069FFF797FA0646A069FFF701
:10AEC0008DFAE06901210BF0A5FAB8F1000F40F30B
:10AED000318101270021E06927630BF09BFA95E897
:10AEE0000600A069FFF72CFA1D21A069FFF77CFA84
:10AEF0000021A069FFF778FA8146A069FFF76EFA92
:10AF00003946E0690BF086FA0021E0690BF082FA1D
:10AF100095E80600A069FFF713FA9D21A069FFF7E5
:10AF200063FA49EA0701C9B2A069FFF75DFAA069AF
:10AF3000FFF754FA3946E0690BF06CFA0021E0693A
:10AF40000BF068FA95E80600A069FFF7F9F9A2216D
:10AF5000A069FFF749FA5FFA88F1A069FFF744FAA0
:10AF6000A069FFF73BFA0121E0690BF053FA0021D9
:10AF7000E0690BF04FFA95E80600A069FFF7E0F9E9
:10AF80009221A069FFF730FA3146A069FFF72CFA49
:10AF9000A069FFF723FA06F060060121E0690BF0D3
:10AFA00039FA402E77D1266BE0690027E762002E40
:10AFB00063D131460BF02EFA95E80600A069FFF741
:10AFC000BFF91321A069FFF70FFA3146A069FFF717
:10AFD0000BFA0646A069FFF701FAE06901210BF0C0
:10AFE00019FAE06900210BF015FA95E80600A0694E
:10AFF000FFF7A6F91021A069FFF7F6F90021A06973
:10B00000FFF7F2F90746A069FFF7E8F9E0690121C7
:10B010000BF000FAE06900210BF0FCF995E806005E
:10B02000A069FFF78DF98D21A069FFF7DDF9394699
:10B03000A069FFF7D9F9A069FFF7D0F9E06901210C
:10B040000BF0E8F9E06900210BF0E4F995E806005F
:10B05000A069FFF775F98121A069FFF7C5F9812182
:10B06000A069FFF7C1F9A069FFF7B8F9E06901210C
:10B070000BF0D0F93046BDE8F88339460BF0CAF939
:10B0800095E80600A069FFF75BF92221A069FFF7A8
:10B09000ABF939469AE70021E0690BF0BBF995E876
:10B0A0000600A069FFF74CF90121A069FFF79CF9A0
:10B0B0000021A069FFF798F90646A069FFF78EF90D
:10B0C0000121E0690BF0A6F9862E5ED0E06900212F
:10B0D0000BF0A0F995E80600A069FFF731F98D2182
:10B0E000A069FFF781F90021A069FFF77DF9A06948
:10B0F000FFF774F9E06901210BF08CF9E069002198
:10B100000BF088F995E80600A069FFF719F981218D
:10B11000A069FFF769F98621A069FFF765F9A069C1
:10B12000FFF75CF90026E06901210BF073F9304666
:10B13000BDE8F88300273946E06927630BF06AF918
:10B1400095E80600A069FFF7FBF81D21A069FFF74D
:10B150004BF93946A069FFF747F98046A069FFF728
:10B160003DF90121E0690BF055F93946E0690BF032
:10B1700051F995E80600A069FFF7E2F89D21A06962
:10B18000FFF732F908F0FE01E7E600263046BDE899
:10B19000F88300BF10B500210446C0690BF03AF9EE
:10B1A00004F1100393E80600A069FFF7C9F8A0694D
:10B1B0008121FFF719F98121A069FFF715F9A0692D
:10B1C000FFF70CF9E0690121BDE810400BF022B94E
:10B1D00010B500210446C0690BF01CF904F11003FE
:10B1E00093E80600A069FFF7ABF8A0698121FFF79B
:10B1F000FBF88021A069FFF7F7F8A069FFF7EEF8E8
:10B20000E0690121BDE810400BF004B970B50446B7
:10B210000D46C0690ABB0E2D1146A8BF0E250BF0C6
:10B22000F9F804F1100393E80600A069FFF788F825
:10B230008921A069FFF7D8F825EAE57343F070018A
:10B24000C9B2A069FFF7D0F8A069FFF7C7F8E069B5
:10B250000121BDE870400BF0DDB8112945DC022D5D
:10B260004FF0000104F11006B8BF02250BF0D2F830
:10B2700096E80600A069FFF763F8CD21A069FFF703
:10B28000B3F88421A069FFF7AFF8A069FFF7A6F82B
:10B290000121E0690BF0BEF80021E0690BF0BAF87B
:10B2A00096E80600A069FFF74BF88B21A069FFF72D
:10B2B0009BF82B21A069FFF797F8A069FFF78EF89C
:10B2C0000121E0690BF0A6F80021E0690BF0A2F87B
:10B2D00096E80600A069FFF733F88921A069FFF717
:10B2E00083F8AB1E63F07F01AAE714290B4604F133
:10B2F0001006A8BF14230021DD1E0BF08BF896E882
:10B300000600A069FFF71CF8CD21A069FFF76CF8D3
:10B310008721A069FFF768F8A069FFF75FF80121AE
:10B32000E0690BF077F80021E0690BF073F896E81C
:10B330000600A069FFF704F88B21A069FFF754F815
:10B340003121B7E705292DE9F041044640F3F580A6
:10B350000C2900F3EF80062900F0EF8009014EB2BE
:10B360000021E06904F110050BF054F895E806009F
:10B37000A069FEF7E5FFB121A069FFF735F8C32109
:10B38000A069FFF731F8A069FFF728F80121E0690B
:10B390000BF040F80021E0690BF03CF895E806005E
:10B3A000A069FEF7CDFFB721A069FFF71DF80A21BC
:10B3B000A069FFF719F8A069FFF710F80121E0690B
:10B3C0000BF028F8E06900210BF024F895E806005E
:10B3D000A069FEF7B5FF1E21A069FFF705F800215F
:10B3E000A069FFF701F80746A069FEF7F7FFE069DB
:10B3F00001210BF00FF8E06900210BF00BF895E844
:10B400000600A069FEF79CFF9E21A069FEF7ECFFF5
:10B4100007F00F013143C9B2A069FEF7E5FFA0694B
:10B42000FEF7DCFFE06901210AF0F4FFE06900218A
:10B430000AF0F0FF95E80600A069FEF781FF1D21E4
:10B44000A069FEF7D1FF0021A069FEF7CDFF0646F7
:10B45000A069FEF7C3FFE06901210AF0DBFF3011AC
:10B460000928D8BF4F4B4FF00001D8BF53F82070C8
:10B47000E069C8BF4FF0FF370AF0CCFF95E806003F
:10B48000A069FEF75DFF1E21A069FEF7ADFF002158
:10B49000A069FEF7A9FF8046A069FEF79FFFE0695B
:10B4A00001210AF0B7FFE06900210AF0B3FF95E837
:10B4B0000600A069FEF744FF2621A069FEF794FF6D
:10B4C0000021A069FEF790FF0646A069FEF786FFFF
:10B4D000E06901210AF09EFF4FEA2818012202FAD2
:10B4E00008F24FF47A7397FBF2F793FBF7F3102B04
:10B4F000C8BF46F00806E0694FF00001CCBFF6B2C5
:10B5000006F0F7060AF086FF95E80600A069FEF748
:10B5100017FFA621A069FEF767FF3146A069FEF775
:10B5200063FFA069FEF75AFFE0690121BDE8F04121
:10B530000AF070BF6FF03F0612E70021E06904F1E6
:10B5400010050AF067FF95E80600A069FEF7F8FE0F
:10B55000B121A069FEF748FFC521A069FEF744FFAD
:10B56000A069FEF73BFF0121E0690AF053FF0021CB
:10B57000E0690AF04FFF95E80600A069FEF7E0FEDB
:10B58000B721A069FEF730FF0C21A069FEF72CFF60
:10B59000A069FEF723FF0121E0690AF03BFF602666
:10B5A00010E700BF0C0804002DE9F04104460846EE
:10B5B00011F078FE93A3D3E9002306460F4612F05C
:10B5C00057F9002840F00E8190A3D3E900233046BC
:10B5D000394612F04DF9002849D18EA3D3E9002352
:10B5E0003046394612F044F9002840F0FD808BA324
:10B5F000D3E900233046394612F03AF9002840F0EA
:10B60000F58088A3D3E900233046394612F030F99B
:10B61000002840F0ED8085A3D3E900233046394669
:10B6200012F026F9002840F0E58082A3D3E9002338
:10B630003046394612F01CF9002840F0DD807FA327
:10B64000D3E900233046394612F012F9002840F0C1
:10B65000D580394630467BA3D3E9002312F008F9A0
:10B66000002814BF6FF07F076FF06F0700E010270E
:10B6700004F11005E06900210AF0CCFE95E806000F
:10B68000A069FEF75DFE1D21A069FEF7ADFE002159
:10B69000A069FEF7A9FE0646A069FEF79FFEE069D5
:10B6A00001210AF0B7FEE06900210AF0B3FE06F0BE
:10B6B0000F0695E80600A069FEF742FE3E439D2175
:10B6C000A069FEF791FEF1B2A069FEF78DFEA069B8
:10B6D000FEF784FEE06901210AF09CFEE06900218A
:10B6E0000AF098FE95E80600A069FEF729FE1D21E4
:10B6F000A069FEF779FE0021A069FEF775FE0646F7
:10B70000A069FEF76BFEE06901210AF083FE3011AB
:10B710000928D8BF3A4B4FF00001D8BF53F820702A
:10B72000E069C8BF4FF0FF370AF074FE95E80600E5
:10B73000A069FEF705FE1E21A069FEF755FE002157
:10B74000A069FEF751FE8046A069FEF747FEE0695A
:10B7500001210AF05FFEE06900210AF05BFE95E836
:10B760000600A069FEF7ECFD2621A069FEF73CFE6D
:10B770000021A069FEF738FE0646A069FEF72EFEFE
:10B78000E06901210AF046FE4FEA2818012202FA78
:10B7900008F24FF47A7397FBF2F793FBF7F3102B51
:10B7A000C8BF46F00806E0694FF00001CCBFF6B212
:10B7B00006F0F7060AF02EFE95E80600A069FEF7EF
:10B7C000BFFDA621A069FEF70FFE3146A069FEF776
:10B7D0000BFEA069FEF702FEE0690121BDE8F04121
:10B7E0000AF018BE002743E7202741E730273FE74C
:10B7F00040273DE750273BE7602739E7702737E7C9
:10B800000C080400000000000078BE4000000000AA
:10B810000050C440000000000078CE40000000004E
:10B820000050D440000000008084DE400000000092
:10B83000805CE440000000008084EE4000000000D6
:10B840008084FE400000000080840E410829F8B585
:10B85000A8BF082104460E4604F11007C069002164
:10B860000AF0D8FD97E80600A069FEF769FDA06917
:10B870001D21FEF7B9FD0021A069FEF7B5FD0546C3
:10B88000A069FEF7ABFDE06901210AF0C3FDE069A4
:10B8900000210AF0BFFD97E80600A069FEF750FD01
:10B8A000A0699D21FEF7A0FD052EB8BF0526311F1A
:10B8B00025F00E0545EA4101C9B2A069FEF794FDE5
:10B8C000A069FEF78BFDE0690121BDE8F8400AF0B0
:10B8D000A1BD00BF70B504460E4604F11005C06955
:10B8E00000210AF097FD95E80600A069FEF728FD03
:10B8F000A069A021FEF778FDC6F30721A069FEF735
:10B9000073FDA069FEF76AFDE06901210AF082FD7E
:10B91000E06900210AF07EFD95E80600A069FEF7C7
:10B920000FFDA069A121FEF75FFDF1B2A069FEF74E
:10B930005BFDA069FEF752FDE0690121BDE87040A2
:10B940000AF068BD38B504460D46C06900210AF00A
:10B9500061FD04F1100393E80600A069FEF7F0FC16
:10B96000A069B921FEF740FDE9B2A069FEF73CFDF0
:10B97000A069FEF733FDE0690121BDE838400AF017
:10B9800049BD00BF70B5044604F110050021C0692F
:10B990000AF040FD95E80600A069FEF7D1FCA06919
:10B9A0001E21FEF721FD0021A069FEF71DFD0646C0
:10B9B000A069FEF713FDE06901210AF02BFDE069A3
:10B9C00000210AF027FD95E80600A069FEF7B8FC03
:10B9D000A0699E21FEF708FD46F00401C9B2A069E6
:10B9E000FEF702FDA069FEF7F9FCE0690121BDE860
:10B9F00070400AF00FBD00BFC0E9071243627047F4
:10BA00000148FEF707BF00BFB04300201020704779
:10BA100010B5064B0446B02140F80C3B01F0B4FAD7
:10BA2000204600F055F9204610BD00BF6008040014
:10BA300010B5074B0446B02140F80C3B01F0A4FAC6
:10BA4000204600F045F920460AF058F8204610BD7F
:10BA500060080400102A01D0002070472DE9F84347
:10BA60000E684D688C68CA688261C6600561446171
:10BA700000F1B00500F11004012604201DE094F847
:10BA8000089014F8047C617A14F8038CA27A14F8F4
:10BA900002ECE37A14F801CC89EA070781EA08018D
:10BAA00082EA0E0283EA0C0327736173A273E373C5
:10BAB00004340130AC42C0B226D00428DFD1324673
:10BAC00004F1080104F10C0001F024F8207B617BF3
:10BAD000A27BE37B14F8048C14F803EC14F802CC7A
