:020000022000DC
:106000000000012075C50200B5C5020055CE020092
:10601000B9C50200BBC50200BDC5020000000000FA
:10602000000000000000000000000000F1C40200B9
:10603000C1C502000000000011C50200C5C5020074
:10604000C7C50200C7C50200F5A80200C7C5020007
:10605000C7C50200C7C5020071A90200C7C502007A
:10606000C7C50200C7C50200C7C50200C7C50200F8
:10607000C7C50200C7C50200C7C50200C7C50200E8
:10608000C7C5020071C20200C7C50200C7C5020031
:10609000C7C50200C7C50200999C0200C7C502001F
:1060A000C7C50200C7C50200C7C50200C7C50200B8
:1060B000C7C50200C7C502000000000000000000C4
:1060C000C7C50200C7C50200C7C50200C7C5020098
:1060D000C7C50200C7C50200C7C502000000000016
:1060E00000000000000000000000000000000000B0
:1060F00000000000000000000000000000000000A0
:10610000000000000000000000000000000000008F
:10611000000000000000000000000000000000007F
:10612000000000000000000000000000000000006F
:10613000000000000000000000000000000000005F
:10614000000000000000000000000000000000004F
:10615000000000000000000000000000000000003F
:10616000000000000000000000000000000000002F
:10617000000000000000000000000000000000001F
:10618000000000000000000000000000000000000F
:1061900000000000000000000000000000000000FF
:1061A00000000000000000000000000000000000EF
:1061B00000000000000000000000000000000000DF
:1061C00000000000000000000000000000000000CF
:1061D00000000000000000000000000000000000BF
:1061E00000000000000000000000000000000000AF
:1061F000000000000000000000000000000000009F
:1062000010B5054C237833B9044B13B10448AFF3F0
:1062100000800123237010BD6038002000000000C2
:106220008461030008B5034B1BB103490348AFF376
:10623000008008BD00000000643800208461030075
:10624000154B002B08BF134B9D46A3F5803A002148
:106250008B460F461348144A121A0AF0FCFB0F4BE8
:10626000002B00D098470E4B002B00D09847002001
:10627000002104000D000D48002802D00C48AFF3A7
:1062800000800AF06BFB2000290006F09DF90AF05F
:106290003FFB00BF000008000000012000000000DC
:1062A0000000000060380020005D002000000000B9
:1062B0000000000030B58FB0044600F5E8752846B0
:1062C00000F092FA28460BF01FFB82B2294604F137
:1062D000180003F0BFFA04F5F075284600F096FAAE
:1062E00028460BF011FB82B2294604F1700003F03E
:1062F000B1FA00F073FA014604F1C80003F0F0FAB5
:1063000000F066FA014604F5907003F0DDFA01A88A
:1063100000F0DEFA342201A904F5BC7003F09AFA09
:106320000FB030BD2DE9F04FB1B00646564C2146B6
:1063300004A803F0FFFB04A9304603F069FB04A89E
:1063400003F083FB3746514B47F8183B214608A81A
:1063500003F0F0FB08A9384603F046FA08A803F05A
:1063600074FB06F1700B21460CA803F0E3FB0CA9AB
:10637000584603F039FA0CA803F067FB06F1C80A87
:10638000214610A803F0D6FB10A9504603F02CFAC2
:1063900010A803F05AFB06F59079214614A803F0E3
:1063A000C9FB14A9484603F01FFA14A803F04DFBDB
:1063B00006F5BC78214618A803F0BCFB18A9404696
:1063C00003F012FA18A803F040FB6D4694E80F00A2
:1063D00085E80F0002238DF80C3029461CA803F035
:1063E000A9FB1CA9384603F013FA1CA803F02DFBE7
:1063F00094E80F0085E80F0003238DF80C30294640
:1064000020A803F097FB20A9584603F001FA20A822
:1064100003F01BFB94E80F0085E80F0004238DF8C0
:106420000C30294624A803F085FB24A9504603F02C
:10643000EFF924A803F009FB94E80F0085E80F00AA
:1064400005238DF80C30294628A803F073FB28A9F2
:10645000484603F0DDF928A803F0F7FA94E80F00A6
:1064600085E80F0006238DF80C3029462CA803F090
:1064700061FB2CA9404603F0CBF92CA803F0E5FA08
:10648000304631B0BDE8F08FDC390300243A030018
:10649000012800D070474FF6FF739942FAD110B52A
:1064A000044C2046FFF73EFF034A0449204609F00A
:1064B0000DFC10BD7C38002000360020FD66020077
:1064C00008B54FF6FF710120FFF7E2FF08BD00009D
:1064D00070B5054603F058FA002875D105F1180487
:1064E0000221204603F09BF900221121204603F0EF
:1064F000ABF91021204603F095F90021204603F066
:1065000093F9204603F006F80446002876D105F1F9
:1065100070040221204603F082F900221121204656
:1065200003F092F91821204603F07CF9002120465F
:1065300003F07AF9204602F0EDFF0446002875D1F9
:1065400005F1C8040221204603F069F90022112157
:10655000204603F079F90421204603F065F920462E
:1065600002F0D8FF0446002878D105F59074022186
:10657000204603F054F900221121204603F064F96B
:106580000121204603F050F9204602F0C3FF0446E3
:1065900000287BD105F5BC740221204603F03FF9A9
:1065A00000221121204603F04FF93421204603F048
:1065B0003BF9204602F0AEFF044600287ED1284673
:1065C000FFF778FE002411E004463A224749484884
:1065D0000BF09AF8204606F06FFC48B1204606F012
:1065E0006BFC0BF091F843480BF016F9204670BD98
:1065F0002246214640480BF087F8F4E741223B4908
:106600003B480BF081F8204606F056FC40B120468E
:1066100006F052FC0BF078F836480BF0FDF8E5E791
:106620002246214634480BF06FF8F5E748222F49FF
:106630002F480BF069F8204606F03EFC40B120469A
:1066400006F03AFC0BF060F82A480BF0E5F8CDE7CD
:106650002246214628480BF057F8F5E74E222349F9
:1066600023480BF051F8204606F026FC40B12046A6
:1066700006F022FC0BF048F81E480BF0CDF8B5E709
:10668000224621461C480BF03FF8F5E754221749F3
:1066900017480BF039F8204606F00EFC40B12046B2
:1066A00006F00AFC0BF030F812480BF0B5F89DE745
:1066B0002246214610480BF027F8F5E75A220B49ED
:1066C0000B480BF021F8204606F0F6FB40B12046BF
:1066D00006F0F2FB0BF018F806480BF09DF885E782
:1066E0002246214604480BF00FF8F5E7303A030044
:1066F000EC390300183A03000C3A030010B50446C5
:106700000E4B036000F5BC7002F0C6FD04F59070FE
:1067100002F0C2FD04F1C80002F0BEFD04F17000F9
:1067200002F0BAFD04F1180002F0B6FD2046044B59
:1067300040F8083B03F089F9204610BD243A0300D5
:10674000DC43030070B505460024046044608460A7
:10675000C460046144618461C4610462446284620F
:10676000282221462C300AF076F92426324621468A
:1067700005F154000AF06FF93246214605F1780020
:106780000AF069F985F89C4085F89D4085F89E409F
:10679000284670BD012800D0704708B54FF6FF733A
:1067A000994200D008BD0248FFF7CCFFFAE700BFCE
:1067B000783A00200A6803689A4200D37047084676
:1067C000FCE708B54FF6FF710120FFF7E3FF08BDB6
:1067D000014B987A704700BF183B0020014BD868E6
:1067E000704700BF183B002010B582B00446054931
:1067F0008A79CB79097A009103490BF025F8204674
:1068000002B010BD183B0020603A030030B40446CB
:10681000274B5B79212B46D8DFE803F0111845455B
:106820004545454545454545454545451E2745455D
:10683000454545454545454545454545313C1D4B47
:1068400003CB20606160204630BC70471A4B18684B
:1068500020609B88A380F6E7184D0FCD2060616013
:10686000A260E36028682061EDE7154B07CB20604C
:106870006160A2601A889B78A281A373E3E7114D3F
:106880000FCD20606160A260E3602A88AB7822822D
:10689000A374D8E70C4D0FCD20606160A260E36067
:1068A0002B882382CFE7094B03CB20606160CAE7C6
:1068B000183B00206C3A0300743A03007C3A030052
:1068C000903A0300A03A0300B43A0300C83A030028
:1068D000F0B4094E044606F1300735460FCD20606E
:1068E0006160A260E3602E461034BD42F5D1286895
:1068F0002060F0BC704700BF183B002070470000CC
:10690000012800D0704738B54FF6FF73994200D088
:1069100038BD094D094A0C21284602F021FB084CDC
:1069200001222946204602F045F9064A064920463A
:1069300009F0CCF9ECE700BF4C3B0020F43C002010
:10694000643B002000360020FD68020010B50446BC
:1069500005F09AFE204610BD08B54FF6FF710120E4
:10696000FFF7CEFF08BD0000012800D0704738B502
:106970004FF6FF73994200D038BD094C204601F014
:106980007FFC2546074B45F8783B284600F0C0FFC2
:106990006560054A0549204609F098F9ECE700BF13
:1069A000803B0020D83A030000360020456B0200EF
:1069B0002DE9F0478AB0334C2478002C5AD00028B7
:1069C00057D0002A5AD0002B5AD0C82901D9002408
:1069D00050E0984616460F46054600230793089355
:1069E000DFF8A8A0DAF800301A0E8DF824201A0C6F
:1069F0008DF825201A0A8DF826208DF8273005A855
:106A000000F022F9DFF8889010221F49484601F073
:106A100018FA0C2207A9484601F010FB082205A924
:106A2000484601F032FA9DF8243033709DF8253045
:106A300073709DF82630B3709DF82730F3703B4695
:106A40002A46311D484601F032FA102201A9484673
:106A500001F076FB3B1D019AF2500837C8F8007030
:106A6000DAF800300133CAF80030484601F0F5FB8F
:106A700000E0002420460AB0BDE8F0870024F9E7D2
:106A80000024F7E77C3B0020B83C0020C83C0020F5
:106A9000803B002008B54FF6FF710120FFF764FF2F
:106AA00008BD0000F0B5AFB02CAF384600F0CCF810
:106AB000194B26AC0FCB84E80F002AAB97E80300F4
:106AC00083E80300684601F0B5FC684601F062FC0B
:106AD00018222146684601F099FD1EAE202231465B
:106AE000684601F0C7FD0D4D96E80F0085E80F00E0
:106AF000002526956560A560E56025616561202219
:106B00002946304609F0A7FF2C957D60684601F0C4
:106B10006DFC2FB0F0BD00BF0C3B0300B83C002063
:106B200008B5064B1B7803B108BDFFF7BBFF044B4C
:106B300000221A60014B01221A70F5E77C3B00200D
:106B4000C83C002010B50446044B40F8783B00F0E8
:106B50007DFE204601F07CF9204610BDD83A0300A6
:106B600010B50446064B40F8783B00F06FFE204617
:106B700001F06EF9204605F087FD204610BD00BFEC
:106B8000D83A030030B40D684C688A68CB68056059
:106B900044608260C36000230382436130BC70475D
:106BA000038A5A1C028218467047262A01D8002000
:106BB0007047F8B51E460C46054641230B70472327
:106BC0004B7001238B70CB700B7107684068A9680C
:106BD000EA68C4F80570C4F80900C4F80D10C4F8D8
:106BE00011202846FFF7DCFFA4F815000F23E375FA
:106BF0006B69A361A6839DF81830A377BDF81C309C
:106C0000A4F81F30BDF92030A4F82130002384F807
:106C1000233084F824309DF8243084F825309DF802
:106C2000283084F826302720F8BD416170474DF8A0
:106C300004BD4FF08053186E596E002242EA000BDB
:106C400058465DF804BB7047034688B14FF0805149
:106C50000A6E496E080E1870080C5870080A987071
:106C6000D970110E1971110C5971110A9971DA71DB
:106C7000704770470020704730B587B04FF4E1315E
:106C80003F4803F024FC3E4B93F8A3302BB903F0AC
:106C9000B4FE40F6B7339842F5D9394C394920460D
:106CA00003F03EFB3849204603F03AFB37492046C3
:106CB00003F036FBFFF7BBFF02460B463449204684
:106CC00003F038FB41F288323249204603F032FBB0
:106CD00005223149204603F02DFB3049204603F0C0
:106CE0001FFB2F4800F0FCF92E4C1F231E221B21F6
:106CF000204600F079FA2C49204600F00AFD40B900
:106D00002A491F4803F00CFB4FF47A7003F08FFE02
:106D1000FAE7244C0A21204600F0B0FB2449204623
:106D200000F0DEFB0521204600F072FC0122142158
:106D3000204600F0B3FC204600F083FC104D1D49B6
:106D4000284603F0EDFAFFF7EBFE1B49284603F057
:106D5000E7FA04AC2046FFF777FF6B4694E80300A0
:106D600083E8030002AA82E8030019461348FFF7EC
:106D700009FF1349284603F0D3FA07B030BD00BF1E
:106D80002C4100201C3B0300483B0300643B0300F4
:106D9000903B0300A43B0300B83B0300D03B03003F
:106DA000F43C0020103D0020C0CA8936FC3B0300A3
:106DB00048E80100183C03002C3C0300CC3C0020B8
:106DC000403C030008B5FFF754FFFFF755FF08BD2F
:106DD0002DE9F041CCB0394B1D782846FFF74AFF2A
:106DE0000646374B1A683748A0FB02304309642136
:106DF00001FB13239FB207F67467BFB20009322369
:106E000003FB1020DC3004B2AAB10023049300235A
:106E10000393029401970095334640223CA92A48E7
:106E2000FFF7C3FE014640B92849294803F078FA24
:106E30004CB0BDE8F0810223E8E707AB08AA3CA804
:106E4000FFF7B6FD20B92349214803F069FAEFE7BF
:106E5000214D0021284600F0D0FC079A08A92846B9
:106E600000F084FA0021284600F044FA00B3144DE3
:106E70002B6801332B6003F0C0FDD5F80080174D5F
:106E8000A5FB0035AD09204609F078F80022144B27
:106E900009F008FACDE9040102970196074B1B7827
:106EA000009343462A460F49094803F043FABFE7D7
:106EB0000D49074803F034FABAE700BFEC3C002064
:106EC000E43C00201F85EB51CC3C0020683C0300D3
:106ED0002C410020843C0300103D0020D34D621063
:106EE00000002440A03C0300E43C030008B503F08C
:106EF00084FD1C4B1B68C01A41F28733984203D8AB
:106F00000A2003F094FD08BD03F077FD154B1860CF
:106F1000FFF75EFF144B1B78A3B1144A13780533B7
:106F2000DBB21370632B05D9134664221A700E4B23
:106F300000221A700E4B1968053119600D48FFF7D1
:106F400074FEDDE7094B1B78052B06D8074B0022A2
:106F50001A70054B01221A70ECE7053B034A1370C7
:106F6000E8E700BFF03C002004360020EC3C0020A5
:106F7000E83C0020CC3C002008B5FFF7B7FF08BD77
:106F8000022805D0032805D0012805D0002070472D
:106F900004207047062070470220704710B5002477
:106FA000447481B181600B4951F82220027351F879
:106FB000233083739DF8083051F823304373002346
:106FC000C373037410BD044B044A4521044809F0FF
:106FD0006DFC00BFE4460300043D0300783D030060
:106FE000143D0300012800D070474FF6FF7399420B
:106FF000FAD100B583B0094B094A1A6001225A71CF
:1070000000221A710D2300930C230E220549064815
:10701000FFF7C4FF03B05DF804FB00BF083D00208C
:1070200000093D0000300240F43C0020826800234B
:10703000C2F800354374704783680022C3F8002506
:107040007047B1F5007F0FD2FF2913D87F2914D8DC
:107050003F2915D81F2916D80F2902D84FF0004212
:1070600004E04FF0804201E04FF000728368C3F803
:10707000242570474FF08062F8E74FF00062F5E793
:107080004FF08052F2E74FF00052EFE730B583B097
:10709000044602AB03E9060083680022C3F800251A
:1070A0009DF8055015F1FF3518BF012505749DF8B1
:1070B0000400E073FFF764FFA3682843C3F8540596
:1070C000009B0649B1FBF3F12046FFF7BAFFA36826
:1070D0000122C3F8002503B030BD00BF0090D003EB
:1070E00008B5437C03B108BD012343748368827BE8
:1070F000C3F808258368427BC3F80C258368027BAC
:10710000C3F81025024B93E80600FFF7BFFFEAE73C
:10711000083D00208368C3F81C158368D3F8082154
:10712000002AFAD0D3F818050022C3F80821C0B20B
:107130007047F8B507460D4616460024B44206D2FD
:10714000295D3846FFF7E6FF28550134F6E7F8BD1C
:1071500008B54FF6FF710120FFF744FF08BD00207E
:10716000704710B582B002AB03F8011D0268546885
:1071700001221946A04702B010BD704710B5044661
:10718000002141604FF47A7383600C4B03600C4B19
:1071900003610123437501750A4B83610A23C361AF
:1071A00009230362022343628162C1620163416376
:1071B000816303F087F9204610BD00BFC03D030086
:1071C00000127A00F43C0020012800D0704708B576
:1071D0004FF6FF73994200D008BD0248FFF7CEFF7B
:1071E000FAE700BF103D0020C161026243627047B0
:1071F00070B504460E4615460021C06905F0B4FF7F
:1072000004F1100393E80600A069FFF73FFF314641
:10721000A069FFF77FFF2946A069FFF77BFF0546BE
:10722000A069FFF709FF0121E06905F09DFF2846ED
:1072300070BD08B5002201F07F01FFF7D9FF08BD3E
:1072400010B504461321FFF7F4FFE36AC01A10BD1E
:1072500010B5044603681B69984738B1E36A0133E7
:10726000E36200212046FFF7E4FF10BD4FF0FF303E
:10727000FBE708B51E21FFF7DCFF001108BD000089
:1072800008B51D21FFF7D5FFC0F3071009281ED848
:10729000DFE800F00520080B0E111417191B41F64A
:1072A000786019E043F6F04016E045F2401013E034
:1072B00047F6122010E04AF2E4200DE04FF224409D
:1072C0000AE0064808E0064806E0064804E04FF0F9
:1072D000FF3001E042F6A00008BD00BF48E8010011
:1072E00090D0030020A1070008B541F08001FFF70E
:1072F0007FFF08BD38B504460D4629B1836B1BB12D
:1073000040221146FFF7F0FF832201212046FFF7BC
:10731000EBFF75B912212046FFF78BFF10F0080F25
:1073200002D105F0D1FBF5E7082212212046FFF734
:10733000DBFF012038BD10B504460121FFF779FFBE
:1073400000F0030003280FD012212046FFF771FF41
:1073500010F0080F01D1002007E00822122120467A
:10736000FFF7C2FF002000E0012010BD2DE9F04131
:1073700006460F4615462221FFF75BFF804643195C
:10738000FF2B01D9C0F1FF050024A54206D93A5DC3
:1073900000213046FFF7A8FF0134F6E708EB0502AD
:1073A000D2B222213046FFF79FFF2846BDE8F08188
:1073B00070B5044603681B69984780B10D212046CB
:1073C000FFF737FF064600212046FFF732FF05464C
:1073D00032460D212046FFF787FF284670BD4FF04B
:1073E000FF30FBE708B581220121FFF77DFF08BDD3
:1073F00008B580220121FFF777FF08BD38B50446A4
:1074000081620C4A0023C804491309F0BBF8054601
:10741000C0F3074206212046FFF766FFC5F30722A7
:1074200007212046FFF760FFEAB208212046FFF758
:107430005BFF38BD0048E80138B50446FFF720FF80
:1074400005462046FFF715FF012303FA00F095FBE0
:10745000F0F04FF47A7595FBF0F526212046FFF702
:10746000E8FE102D06DC00F0F70226212046FFF78B
:107470003BFF38BD40F00802D2B2F6E738B504460B
:1074800005291FDD0D460C2928DC06291BD0C32247
:1074900031212046FFF728FF0A2237212046FFF737
:1074A00023FF1E212046FFF7C4FE00F00F0040EA34
:1074B0000512D2B21E212046FFF716FF2046FFF725
:1074C000BBFF38BD0625C52231212046FFF70CFF42
:1074D0000C2237212046FFF707FFE2E70C25D6E70D
:1074E000F8B50446084608F049FD06460F4636A39F
:1074F000D3E9002309F028F8002846D134A3D3E9C2
:1075000000233046394609F01FF800284ED132A337
:10751000D3E900233046394609F016F8002847D150
:107520002FA3D3E900233046394609F00DF800288F
:1075300040D12DA3D3E900233046394609F004F8A1
:10754000D0BB2BA3D3E900233046394608F0FCFF1B
:10755000A0BB29A3D3E900233046394608F0F4FF45
:1075600070BB27A3D3E900233046394608F0ECFF6F
:1075700040BB25A3D3E900233046394608F0E4FF99
:1075800008B9092502E0082500E000251D21204654
:10759000FFF74FFE00F00F0242EA05121D212046C0
:1075A000FFF7A2FE2046FFF747FFF8BD0125EDE7F4
:1075B0000225EBE70325E9E70425E7E70525E5E7ED
:1075C0000625E3E70725E1E7000000000078BE405C
:1075D000000000000050C440000000000078CE40D1
:1075E000000000000050D440000000008084DE4015
:1075F00000000000805CE440000000008084EE4059
:10760000000000008084FE400000000080840E41E5
:1076100038B50546042903DD082902DD082100E00C
:1076200005210C1F1D212846FFF703FE41B221F062
:107630000E0141EA4401CAB21D212846FFF754FE5B
:1076400038BD10B504461E21FFF7F3FD40F00402DB
:10765000D2B21E212046FFF747FE10BD08B578299B
:1076600008D9F02916D801F11E020B4981FB02321C
:10767000920807E02D39084A82FB0132C917C1EB95
:107680006202D2B202F01F0242F020020B21FFF789
:107690002BFE08BD1B22F5E76766666638B5054612
:1076A0000C467AB91346002902DB0E2908DD0E23A9
:1076B00043F07002D2B209212846FFF715FE38BD0B
:1076C0000B46F5E7112916DD142900DD1424033CCF
:1076D00087224D212846FFF707FE8C212846FFF719
:1076E000BDFFA21E52B262F07F02D2B2092128462B
:1076F000FFF7FAFDE3E7012909DD84224D21284641
:10770000FFF7F2FD64212846FFF7A8FFE9E702240E
:10771000F3E738B504460D460121C06905F08AFC3F
:107720000121E06905F020FD206AB0F1FF3F0AD198
:10773000A069FFF7D5FC42212046FFF77AFD122809
:1077400013D0002038BD012105F074FC0021206A0F
:1077500005F00AFD0A2003F06AF90121206A05F00C
:1077600003FD0A2003F063F9E2E72046FFF740FE3D
:1077700029462046FFF742FE00220E212046FFF751
:10778000B3FD00220F212046FFF7AEFD0C2120465D
:10779000FFF74FFD40F00302D2B20C212046FFF765
:1077A000A3FD042226212046FFF79EFD0122112180
:1077B0002046FFF773FF2046FFF714FE0120C1E7C4
:1077C00010B50446002303631D21FFF732FD00F0CE
:1077D000FE021D212046FFF787FD10BD10B50446AF
:1077E000012303631D21FFF724FD40F00102D2B203
:1077F0001D212046FFF778FD10BD38B504460D4623
:10780000FFF799FD08B1002038BD2046FFF7EAFDDB
:1078100075B12046FFF7E2FF00220D212046FFF759
:1078200063FD002222212046FFF75EFD0120EBE7E9
:107830002046FFF7C5FFEFE708B54FF6FF710120BF
:10784000FFF7C2FC08BD10207047000010B50446C9
:10785000054B40F80C3BB02100F0CFFA204600F079
:107860007FF8204610BD00BFE43D030010B504467C
:10787000FFF7ECFF204604F007FF204610BD102A5A
:1078800001D00020704770B500F10C040E684D68FF
:107890008A68CB68C6606560A260E3600423102537
:1078A00001261EE0324604F10C0104F1100000F044
:1078B0007DFA237C227853402374637C62785340A2
:1078C0006374A37CA2785340A374E37CE2785340B2
:1078D000E3740136F6B2002304340435EDB201330B
:1078E000DBB2AF2D12D8042BDCD0227B21784A40AA
:1078F0002274627B61784A406274A27BA1784A401C
:10790000A274E27BE1784A40E274E5E7012070BDB1
:1079100010B5044600F016F8044B23600A232371C7
:1079200004F10C03A360204610BD00BFE43D03003A
:107930001020704708B5017901310901806800F015
:107940005CFA08BD10B5044600F048FA034B23600A
:1079500000232371A360204610BD00BF1440030024
:1079600010B50446024B036000F03EFA204610BDFD
:10797000144003000A78184B9A5C02704A799A5CAA
:1079800042708A7A9A5C8270CA7B9A5CC2700A7969
:107990009A5C02714A7A9A5C42718A7B9A5C827123
:1079A000CA789A5CC2710A7A9A5C02724A7B9A5CC3
:1079B00042728A789A5C8272CA799A5CC2720A7B35
:1079C0009A5C02734A789A5C42738A799A5C8273F1
:1079D000CA7A9B5CC37370470C3F03000A78184B4C
:1079E0009A5C02704A7B9A5C42708A7A9A5C8270D6
:1079F000CA799A5CC2700A799A5C02714A789A5C78
:107A000042718A7B9A5C8271CA7A9A5CC2710A7AE4
:107A10009A5C02724A799A5C42728A789A5C8272A3
:107A2000CA7B9A5CC2720A7B9A5C02734A7A9A5C3D
:107A300042738A799A5C8273CA789B5CC37370477D
:107A4000043E03002DE9F0410B784D788C78CF7817
:107A50005A00D6B2121251000A4402EBC20256403A
:107A60006900CAB209124FEA410C614401EBC1013D
:107A70004A4061005FFA81FC09124FEA410E7144ED
:107A800001EBC1018CEA010C4FEA470E5FFA8EF858
:107A90004FEA2E2E4FEA4E01714401EBC10188EAF4
:107AA000010186EA020E8EEA050E8EEA040E8EEAC7
:107AB000070E80F800E05A4082EA0C0262407A40E9
:107AC000427083EA050282EA0C0C8CEA010C8CEA13
:107AD0000707877073406B4063404B40C370BDE83D
:107AE000F08170B588B00E46846800230F2B09D84A
:107AF000D15CE55C694008AD1D4405F8101C0133FC
:107B0000DBB2F3E71034057902E01034013DEDB249
:107B1000012D21D904A96846FFF72CFF694604A866
:107B2000FFF790FF01A905A8FFF78CFF02A906A89F
:107B3000FFF788FF03A907A8FFF784FF00230F2B97
:107B4000E3D808AAD11811F8102CE05C424001F8E3
:107B5000102C0133DBB2F2E704A96846FFF70AFFF5
:107B600000230F2B09D808AA1A4412F8202CE15C34
:107B70004A40F2540133DBB2F3E708B070BD0000B5
:107B80002DE9F04F87B091F8008091F801E091F86D
:107B900002C091F803901FFA88F56B00DEB21B1249
:107BA0005A00134403EBC30386EA030101911FFA51
:107BB0008EFB4FEA4B03DAB21B1259000B4403EB66
:107BC000C303534002931FFA8CF463005FFA83FAF5
:107BD0001B125A00134403EBC3038AEA0302049204
:107BE0001FFA89F25300DFB21B1259000B4403EB5A
:107BF000C30387EA03060596AE00F3B23612404986
:107C00008E5D73404FEA8B06F7B236128E5D774079
:107C10000397A6005FFA86FA36128E5D8AEA060A94
:107C20009600F7B236128E5D7740ED00EEB22D125F
:107C30004D5D6E404FEACB0B5FFA8BF54FEA2B2B75
:107C400011F80BB085EA0B05E4005FFA84FB2412FF
:107C50000C5D8BEA0404D2005FFA82FB12128A5C8C
:107C60008BEA020B7340019A5A406A4002994A40DB
:107C700082EA0E02624082EA0A0282EA0C0282EA88
:107C80000B0282EA0902027088EA06026A4003993E
:107C90004A4002994A40624004994A4082EA0C02F2
:107CA00082EA0B027A4082EA0902427083EA080300
:107CB0006B4083EA0E03634083EA0A0A8AEA010AF8
:107CC0008AEA0B0A059B8AEA030A8AEA090980F80C
:107CD000029001994E4086EA080888EA0505039952
:107CE0004D4085EA0E0E8EEA040484EA0C0C8CEA00
:107CF0000B0B8BEA07075F40C77007B0BDE8F08F3A
:107D0000043F030070B588B005460E4684680379C9
:107D100004EB031400230F2B09D8D15CE05C414035
:107D200008A8184400F8101C0133DBB2F3E704A9DB
:107D30006846FFF753FE2D7915E0694604A8FFF762
:107D40001FFF01A905A8FFF71BFF02A906A8FFF75F
:107D500017FF03A907A8FFF713FF04A96846FFF759
:107D60003DFE013DEDB2012D0ED9103C00230F2B3D
:107D7000E3D808AAD11811F8202CE05C424001F8A1
:107D8000202C0133DBB2F2E700230F2B0BD808AA1B
:107D90001A4412F8202CE11811F8101C4A40F25431
:107DA0000133DBB2F1E708B070BD000030B44C78AD
:107DB000084B1C5D084DAA5C544004708A789A5C9C
:107DC0004270CA789A5C82700A789B5CC37030BC3F
:107DD000704700BF0C3F030034400300014B0360B9
:107DE000704700BF4840030070470000014B03602C
:107DF000704700BF70400300704721B1002303703B
:107E000001390130F9E7704730B400243AB1037802
:107E10000D786B401C43013A01310130F6E7C4F59F
:107E20008074230A14BF0120002030BC704708B5BD
:107E300040680368DB68984708BD0C207047102035
:107E4000704708B5406803681B69984708BD000083
:107E500010B50446074B40F8303B4821FFF7CDFFF3
:107E600004F1080000F02CFA204600F0E5FC204662
:107E700010BD00BF9C40030010B50446FFF7E8FFAB
:107E8000204604F001FC204610BD38B590F8703053
:107E900003B138BD15460446083000F024FAD4E991
:107EA0001823501943F10001C4E91801F1E72DE945
:107EB000F843064689461546984690F8703013B345
:107EC00047464C46002F48D096F871300F2B21D8EA
:107ED00096F87120C2F11003DBB2BB4200D9FBB2AD
:107EE00006F1400111441A4486F87120FF1A002B54
:107EF000E8D02A78087842402270013BDBB2013199
:107F000001340135F3E7083000F01CFA012386F84C
:107F10007030D5E796F83F104A1C86F83F2096F857
:107F20003E3003EB122286F83E2096F83D3003EBFC
:107F3000122386F83D3096F83C2002EB132386F896
:107F40003C30706803685B6906F1300206F140015D
:107F50009847002386F87130BAE74246494606F151
:107F6000080000F0C0F9D6E91A2312EB080043F12B
:107F70000001C6E91A01BDE8F883F8B506460D46CA
:107F800014461F4690F870306BB33A46214606F10E
:107F9000080000F0A8F9D6E91A23D01943F100012E
:107FA000C6E91A01002F48D096F871300F2B21D85E
:107FB00096F87120C2F11003DBB2BB4200D9FBB2CC
:107FC00006F1400111441A4486F87120FF1A002B73
:107FD000E8D02278087842402A70013BDBB20131B8
:107FE00001340135F3E7083000F0ACF9012386F8DD
:107FF0007030CAE796F83F104A1C86F83F2096F882
:108000003E3003EB122286F83E2096F83D3003EB1B
:10801000122386F83D3096F83C2002EB132386F8B5
:108020003C30706803685B6906F1300206F140017C
:108030009847002386F87130BAE7F8BD2DE9F04380
:1080400085B0044688460C2A68D0174600F15006D1
:108050000025056545658565C565406803685B69FC
:1080600032463146984704F1080331461E46184609
:1080700000F02DF93A464146304600F034F93046DA
:1080800000F060F9009501957A0FF9000B0A03F4EE
:108090007F4343EA1163F90201F47F010B431206A7
:1080A00043EAC76945EA02004946CDE902011022C8
:1080B0006946304600F017F910216846FFF79DFE2B
:1080C000102204F13001304600F04AF9002200236A
:1080D000C4E91823C4E91A23002384F8703010225D
:1080E00084F8712004F1500523656365A365E36599
:1080F000606803685B692A4629469847294604F167
:10810000080000F0E4F8606803685B6904F130027D
:1081100029469847012005B0BDE8F0830868496802
:10812000D8F8082020636163A263002384F83C3000
:1081300084F83D3084F83E30012384F83F30C5E7B1
:108140002DE9F04F85B006468846174600F108092C
:10815000484600F0F7F8306E736EDA0042EA50726B
:10816000C300190A01F47F4141EA1361C30203F419
:108170007F031943130A03F47F4343EA1263140293
:1081800004F47F04234343EA02634FF0000A41EA08
:10819000C06B4AEA03005946CDE90001B56EF36EA3
:1081A000D90041EA5571EB001A0A02F47F4242EA13
:1081B0001362EB0203F47F031A430B0A03F47F43B9
:1081C00043EA1163080200F47F00034343EA0163BA
:1081D00042EAC5621146504640EA0300CDE9020179
:1081E00010226946484600F07EF810216846FFF7E5
:1081F00004FE06F1400510222946484600F0B0F87A
:1082000054460F2C0AD8331993F8502093F8401095
:108210004A4083F840200134E4B2F2E7102F00D93D
:1082200010273A462946404608F0F1FB05B0BDE864
:10823000F08F102A01D90020704770B514460D4602
:10824000064656F8303BDB6A1022314698472246F4
:1082500029463046FFF7D8FD70BD10B5044640688A
:108260000368DB69984704F1080000F089F84821A9
:1082700004F13000FFF7C1FD102384F8713010BD08
:1082800038B5044600F0CEFA0A4B2360002565603D
:1082900004F1080000F010F800220023C4E91823BC
:1082A000C4E91A2384F87050102384F871302046F2
:1082B00038BD00BF9C400300002280F8202070479A
:1082C00010B504462421FFF798FD204610BD10B5D7
:1082D000044600F0BBFA002323616361A361E361FC
:1082E00084F8203010BDF8B506460C46154609E066
:1082F00096F820303B44DBB286F82030ED1B3C443E
:10830000102B17D0EDB196F82010C1F11007FFB275
:10831000AF4200D9EFB206F11000014400239F42A2
:10832000E6D9CA5C14F803C082EA0C02CA540133CD
:10833000DBB2F4E7314600F0C8FA002386F82030BB
:10834000E0E7F8BD90F8203003B9704710B5044657
:108350000146103000F0B9FA002384F8203010BD37
:1083600070B506460D461446FFF7ECFF102C00D9F9
:108370001024224606F11001284608F048FB70BD83
:1083800008B52421FFF739FD08BD202070474020A3
:10839000704700000E4B83600E4BC3600E4B0361B1
:1083A0000E4B43610E4B83610E4BC3610E4B036258
:1083B00003F17453A3F52303A3F69243436200230E
:1083C00080F8703000220023C0E91A23704700BFF4
:1083D00067E6096A85AE67BB72F36E3C3AF54FA556
:1083E0007F520E518C68059BABD9831F10B5044694
:1083F000054B40F8083B7021FFF7FFFC204600F0DA
:10840000E5FA204610BD00BFD840030010B5044671
:1084100070210830FFF7F1FC23681B69204698475C
:1084200010BD10B50446FFF7E1FF204604F02CF91B
:10843000204610BD10B5044600F0C2FA034B23607D
:108440002046FFF7A7FF204610BD00BFD84003001D
:108450002DE9F04F8BB000240F2C13D804F10A053E
:1084600050F82520130A03F47F4343EA12631102F4
:1084700001F47F010B4343EA026340F825300134E5
:10848000E4B2E9E787680397C26804920469059437
:108490004169069186690796C5690895036A029342
:1084A000436A0993DDF80880A946A446964600254C
:1084B0001C460F2D30D8544B53F82520224405F18B
:1084C0000A0350F823301A444FEAF62383EAB6131E
:1084D00083EA76631A4406EA090328EA060463403D
:1084E0001A444FEA773383EAB70383EAB7548EEA34
:1084F0000C033B400EEA0C0A83EA0A03234401EB17
:10850000020A0135EDB261464446C846B1465646B8
:10851000F446BE46D718CCE70191A3463F2D56D866
:10852000A5F10F0303F00F030A3350F823A0AB1E8D
:1085300003F00F030A3350F8233005F00F010A311E
:1085400050F82140EA1F02F00F020A3250F82220B0
:1085500014444FEABA4282EAFA1282EADA02144476
:108560004FEAF34282EA734282EA93231C4440F8C2
:108570002140254B53F825305B4423444FEAF62431
:1085800084EAB61484EA7664234406EA090B28EAEE
:1085900006028BEA020B5B444FEA773282EAB702AB
:1085A00082EAB7518EEA0C023A400EEA0C046240AD
:1085B0000A44019919440135EDB2CDF804C0C3460F
:1085C000C846B1460E46F446BE469F18A6E75B462F
:1085D000039A17448760049A7244C260059A624401
:1085E0000261019A06990A444261079A164486611B
:1085F000089A4A44C261029A42440262099A1344A8
:1086000043620BB0BDE8F08F004103002DE9F04854
:1086100006460F461546510FD000D6E91A2312EB35
:10862000000B43EB010CC6E91ABC10E006F1280070
:1086300022463946184408F0EAF996F87030234487
:10864000DBB286F870302D1B2744402B09D07DB15A
:1086500096F87030C3F14004E4B2AC42E6D9ECB213
:10866000E4E73046FFF7F4FE002386F87030EEE7CB
:10867000BDE8F088F8B504460F46164600F1280517
:1086800090F87030372B3FD88022EA5490F8702051
:10869000501CC2F137020021284408F0DCF9A16E19
:1086A000E36E1A0A02F47F4242EA1362180200F4EF
:1086B0007F00024342EA036222660B0A03F47F430F
:1086C00043EA11630A0202F47F02134343EA01639F
:1086D00063662046FFF7BCFE0022072A45D8931C9C
:1086E00054F823100B0A03F47F4343EA1163080292
:1086F00000F47F00034343EA016302F10A0144F8F6
:1087000021300132D2B2E8E78022EA5490F870209A
:10871000501CC2F13F020021284408F09CF9204679
:10872000FFF796FE38220021284608F094F9A16E42
:10873000E36E1A0A02F47F4242EA1362180200F45E
:108740007F00024342EA036222660B0A03F47F437E
:1087500043EA11630A0202F47F02134343EA01630E
:1087600063662046FFF774FEB6E723689B682046E1
:1087700098470246B04204D22946384608F047F9E5
:10878000F8BD3246F8E710B582B0044636230093B0
:1087900013460A4600F1280100F019F9D4E91A231A
:1087A00012F5007043F10001C4E91A012046FFF7F9
:1087B0004FFE02B010BD2DE9F0418AB004460F46CD
:1087C00090461E46054655F8283B9B69202202A983
:1087D00098475C23009343463A462946204600F0DA
:1087E000F6F8D4E91A2312F5007043F10001C4E948
:1087F0001A012046FFF72CFE23685D699B6820461E
:108800009847024602A92046A84723689B69109A08
:10881000314620469847202102A8FFF7EEFA0AB019
:10882000BDE8F08110B50446FFF7E0FA014B236084
:10883000204610BD0842030010B50446024B0360F9
:10884000FFF7DAFA204610BD0842030030B40D6885
:108850004C688A68CB68056044608260C3600268C7
:10886000130A03F47F4343EA1263110201F47F0108
:108870000B4343EA026303604268130A03F47F4335
:1088800043EA1263110201F47F010B4343EA0263DE
:1088900043608268130A03F47F4343EA12631102C0
:1088A00001F47F010B4343EA02638360C268130A49
:1088B00003F47F4343EA1263110201F47F010B4387
:1088C00043EA0263C36030BC70472DE9F04F0F6884
:1088D0004E688D68CC684FF0000AD446D646D04624
:1088E000D14603E00AF1010A5FFA8AFABAF10F0FE2
:1088F0002CD810F80A100022072AF3D841F3C0132D
:1089000007EA030B89EA0B0906EA030B88EA0B085E
:1089100005EA030B8EEA0B0E23408CEA030C44F3AA
:10892000000303F061434FEAC57B4BEA54044FEA6E
:10893000C67B4BEA55054FEAC77B4BEA560683EAEE
:1089400057070132D2B24900C9B2D5E74FEA19231D
:1089500003F47F4343EA19634FEA092202F47F02DA
:10896000134343EA096303604FEA182303F47F4388
:1089700043EA18634FEA082202F47F02134343EAF2
:10898000086343604FEA1E2303F47F4343EA1E63F8
:108990004FEA0E2202F47F02134343EA0E63836020
:1089A0004FEA1C2303F47F4343EA1C634FEA0C2283
:1089B00002F47F02134343EA0C63C360BDE8F08F07
:1089C000014B0360704700BF4442030070472DE92C
:1089D000F84306460C4691461D469DF820700368F4
:1089E000DB689847804633681B6930469847A8453E
:1089F00021D233685B692A46494630469847336836
:108A00009B6830469847054633689B690246214675
:108A10003046984733681B6930469847A8EB0502F3
:108A20003946601908F017F85DB123787B40237050
:108A3000013D0134F8E72A464946204607F0E7FFA2
:108A4000ECE7BDE8F883704708B50368DB69984731
:108A500008BD08B503681B69984708BD10B50468D0
:108A60006469A04710BD08B503681B6A984708BD34
:108A700010B50468646AA04710BD08B50368DB69D7
:108A8000984708BD08B503681B69984708BD10B52D
:108A900004686469A04710BD08B503681B6A98475D
:108AA00008BD10B50468646AA04710BD10B504463F
:108AB000043000F09CF8606918B103F0E5FD002374
:108AC000636110BD08B5043000F0B1F880F001001A
:108AD000C0B208BD08B5043000F095F8400A08BDE2
:108AE00010B582B0446954B14FF40073009313463B
:108AF0004A020146204600F072FB02B010BD4FF45E
:108B000000734902043000F0EFF8003018BF012074
:108B1000F3E710B582B044694CB15B020093134691
:108B20004A020146204600F05AFB02B010BD5B022B
:108B30004902043000F0D8F8003018BF0120F4E7F3
:108B400008B5436923B10146184600F0E3FA08BDB1
:108B50000120FCE710B582B0446954B14FF40073B2
:108B6000009313464A020146204600F0F0FA02B094
:108B700010BD4FF400734902043000F0EBF80030F0
:108B800018BF0120F3E710B582B044694CB15B0215
:108B9000009313464A020146204600F0D8FA02B07C
:108BA00010BD5B024902043000F0D4F8003018BF59
:108BB0000120F4E738B504461546064B40F8043B5F
:108BC00000F00CF8044B23606574002363612046B9
:108BD00038BD00BF74420300B842030001600022A8
:108BE00042604FF0FF3282600122027370470368D7
:108BF00043B110B504461A685268184690470023DE
:108C0000636010BD704743680BB11868704700205F
:108C1000704710B582B0006803685C6901230DF1EC
:108C200007020521A0479DF8070002B010BD08B556
:108C30004368DB7AC3F380130BB1184608BDFFF716
:108C4000E8FF10F0030F0CBF01230023F5E710B578
:108C500004464368DB7A13F0400F08D12046FFF743
:108C6000D8FF10F0030F02D003F02EFFF6E710BD7F
:108C700008B5006803681B690621984708BD08B558
:108C8000006803681B690421984708BD38B543682C
:108C900043B3DD7AC5F38015F5B90D460446806807
:108CA000002804DB237BCBB1012104F05DFA2046D0
:108CB000FFF7CDFF2046FFF7DBFF20680368DB6985
:108CC0002A03202198470546A068002804DB237B5F
:108CD00033B1002104F048FA284638BD0021E4E70A
:108CE0000121F7E70025F7E72DE9F041446844B397
:108CF0001D461746884604468068002804DB237B0F
:108D0000CBB1012104F030FA2046FFF7A0FF206824
:108D100003681E6A2B463A464146B0470646A0689D
:108D2000002804DB237B43B1002104F01DFA36B98F
:108D30000020BDE8F0810021E4E70121F5E72846A5
:108D4000F7E70020F5E70A6803689A4200D3704706
:108D50000846FCE72DE9F04383B098464368002BB2
:108D600053D004460E4617468068002804DB237B58
:108D700053B3012104F0F8F96368DB7A13F0400F74
:108D800024D1CDF80080009B73B32046FFF75FFF2E
:108D90002046FFF76DFFF3B2C3F5807302A941F8D7
:108DA000043D6846FFF7CFFF056820680368D3F8E5
:108DB00024902B463A463146C847A8B1009B5B1B1E
:108DC00000932F442E44DEE70021D3E72046FFF72F
:108DD0004FFF206803685D6A43463A463146A8471C
:108DE0002046FFF74CFF02E0009BA8EB0308A068B9
:108DF000002804DB237B33B1002104F0B5F94046A1
:108E000003B0BDE8F0830121F7E74FF00008F6E773
:108E10000020704701614261704710B5044601218E
:108E2000007B04F007F90121207B04F09DF9A06884
:108E3000FEF756F910BD10B504468068FEF7F6F847
:108E40000021207B04F0F6F810BDF0B583B0044695
:108E50000F460369009301258DF8055000268DF813
:108E6000046002AB13E906008068FEF70FF9314693
:108E7000207B04F079F93946A068FEF74BF92946C2
:108E8000207B04F071F9A068FEF7D6F8284603B0FD
:108E9000F0BD2DE9F04182B00646884615461C46D5
:108EA0000369009301238DF8053000278DF80470C5
:108EB00002AB13E906008068FEF7E8F83946307B1C
:108EC00004F052F94146B068FEF724F9671E44B138
:108ED00005F101082978B068FEF71CF93C464546C3
:108EE000F4E70121307B04F03FF9B068FEF7A4F805
:108EF000012002B0BDE8F0812DE9F04182B00646C4
:108F0000884615461C464369009301238DF80530B9
:108F100000278DF8047002AB13E906008068FEF7A5
:108F2000B5F83946307B04F01FF94146B068FEF7CA
:108F3000F1F8671E4CB105F10108FF21B068FEF79A
:108F4000E9F828703C464546F3E70121307B04F000
:108F50000BF9B068FEF770F8012002B0BDE8F081AF
:108F600010B4064C046003244471047101738260E0
:108F7000034A426102615DF8044B7047FC42030002
:108F800000093D000379032B04D0042B05D1130EF7
:108F90000B700131130C0B700131130A0B704A7006
:108FA00070472DE9F04184B00446884617460369AE
:108FB000029301268DF80D6000258DF80C5004AB4E
:108FC00013E906008068FEF761F82946207B04F06B
:108FD000CBF800958DF804508DF800803A460DEBE3
:108FE00006012046FFF7CEFF227932446946A06889
:108FF000FEF79FF83146207B04F0B6F8A068FEF734
:109000001BF8304604B0BDE8F0812DE9F04184B092
:109010000446884616461F464369029301238DF88D
:109020000D3000258DF80C5004AB13E90600806864
:10903000FEF72CF82946207B04F096F80095ADF851
:10904000045063798DF8003042460DF1010120464D
:10905000FFF798FF227963790B2B18D000231A446D
:10906000D2B20132D2B26946A068FEF762F83A463F
:109070003146A068FEF75DF80121207B04F074F80A
:10908000A068FDF7D9FF012004B0BDE8F0810123FD
:10909000E5E72DE9F04184B00646884615461C46B2
:1090A0000369029301238DF80D3000278DF80C70B1
:1090B00004AB13E906008068FDF7E8FF3946307B12
:1090C00004F052F800978DF8047002238DF80030F8
:1090D00042460DF101013046FFF754FF327901326B
:1090E0006946B068FEF725F8671E44B105F101082E
:1090F0002978B068FEF70EF83C464546F4E70121B2
:10910000307B04F031F8B068FDF796FF012004B021
:10911000BDE8F08100F580531B68B3F1FF3F14D028
:1091200070B505460C1D190B2046FFF7AFFD05F580
:1091300080564FF480532A4631682046FFF70AFED6
:109140004FF0FF333360012070BD012070472DE9DF
:10915000F04383B00646884615461F460A9B019396
:109160000BE0009A394606EB090007F050FC009B23
:109170001F44019AD21A01921D44019B23B325F486
:109180007F6424F00F04C5F30B09C9F5805302A9CD
:1091900041F8083D01A8FFF7D6FD0368009306F5E6
:1091A00080531B68A342DCD041463046FFF7B2FF34
:1091B00006F580531C604FF480533246214608F177
:1091C0000400FFF791FDCCE7012003B0BDE8F08378
:1091D0000A6803689A4200DB70470846FCE72DE9FD
:1091E000F04F83B089461546984600F580531C68B9
:1091F000B4F1FF3F3DD00746944203D90C9BD318EE
:109200009C4236D204F58053AB4232D9641B24D43D
:109210004FF0000BCBF58053009326460C9B1B1B95
:1092200002A941F8043D6846FFF7D2FFD0F800A03C
:10923000BCB9524607EB0B0108EB060007F0E7FB51
:1092400054440C9BA3421BD91B1B08EB0402291995
:1092500009F10400FFF748FD12E0C4F1000B0024FF
:10926000D8E723464246294609F10400FFF73CFDB2
:10927000DFE70C9B4246294609F10400FFF734FD65
:10928000012003B0BDE8F08FAADF7047ABDF704765
:10929000ACDF7047B0DF704710B50446034B40F8B1
:1092A000043B00F0D2FB204610BD00BF5C4303002E
:1092B00010B50446FFF7F0FF204603F0E5F920461D
:1092C00010BD0000F0B58BB005460C468E880B88AB
:1092D000502B00F0C680512B40F0CB808B79012BB6
:1092E0001CD0A379022B40F0C48004F10807A37BB3
:1092F000042B3ED0062B7ED0012B40F0BA80EA6CC6
:10930000002A00F0B68095F8443013F0080F22D1FF
:10931000EB6C3A46294630469847AAE0826C002A10
:10932000DFD001F1080790F8443013F0040F05D1A5
:10933000AB6C3A46294630469847D2E706960790E6
:1093400008970323009306AB0821384603F036FD47
:109350000028C6D1ECE706960795089703230093EB
:1093600006AB0E21384603F029FD002840F081802D
:10937000CEE7EB6BBBB100230693079308930993E9
:1093800002238DF81830238A628A9818B5F84010A5
:10939000884213DD40F20913ADF81C3006A93046AF
:1093A000FFF778FF65E04FF48060A5F8400001F01A
:1093B0005AFBE8630023A5F84230DCE704F114010E
:1093C0009DF81E0040F001008DF81E00ADF8203021
:1093D000ADF822200991E86B184407F018FBB5F8A6
:1093E0004220238A618A0B449BB29A4200D91346D9
:1093F000A5F84230D2E7EB6B002B3AD00023029362
:1094000003930493059302238DF8083002A9304694
:10941000FFF740FF2A6D5AB195F8443013F0010F61
:1094200010D12C6DB5F84230EA6B29463046A04782
:10943000E86B01F032FB0023EB63A5F84230A5F89E
:10944000403016E006960795E86B0890B5F8421094
:1094500009910423009306AB03F0B0FC0028E0D090
:10946000E6E7CA88438E9A4205D0E288EB8E9A429C
:1094700020D00BB0F0BD026D002AF6D090F8443039
:1094800013F0010F07D12F6D238A04F11202294630
:109490003046B847E9E70696079001F112000890B8
:1094A000098A09910423009306AB03F087FC002886
:1094B000DBD1E8E7648A1349134808F025F921460F
:1094C000124808F021F9124808F0A6F96A6D002A3E
:1094D000CFD095F8443013F0020F05D16B6D2246C2
:1094E000294630469847C4E7069607950894032313
:1094F000009306AB0021084603F060FC0028EDD085
:10950000B7E700BF2C430300344303003C43030090
:10951000183A030070B598B00446954B1B688361F8
:10952000043000F0C5FA94F82E3013F0320F07D152
:1095300094F82F2002F0F0026FF3071284F82F2026
:1095400013F00C0F07D194F8303003F0F0036FF3F1
:10955000071384F830300DF15E020DF15F01A06950
:1095600000F06AFA9DF85F209DF85E0094F82F30B5
:1095700013F00F0F11D0194603F00F0602F00F057C
:10958000AE4208D8534013F00F0F03D11309B3EBC9
:10959000111F00D3114684F82F1094F8303013F0C7
:1095A0000F0F11D01A4603F00F0500F00F018D4286
:1095B00008D8434013F00F0F03D10309B3EB121F78
:1095C00000D3024684F8302094F82E3013F0300295
:1095D00059D100230F931093119312931393159362
:1095E00094F82E308DF83C30002A5CD016AB1493E2
:1095F0000023ADF83830012262F342038DF83A308F
:1096000094F82F308DF83830206A58B103784BB178
:10961000109008F079F980B2ADF84400ADF846003A
:109620000EAB139394F8263013B104F12603129372
:109630000023CDF82E30ADF8323004F10803099341
:1096400004F12F030A9394F8313013F0010F2CD159
:10965000E38AADF82C30E38AADF83030E3690D933E
:1096600004F1320309AA0FA90020FFF70DFE0546F9
:10967000E8B994F825309BBB237D002B72D00025E0
:10968000284618B070BD4FF00003012161F342037A
:109690008DF85A30374B1B788DF8583094F82F30AE
:1096A0008DF8593095E70023A1E70023D1E74FF467
:1096B000AA723149314808F027F8284603F0FCFB2C
:1096C00040B1284603F0F8FB08F01EF82C4808F0DB
:1096D000A3F8D5E72A4629462A4808F015F8F5E701
:1096E0000020ADF808004FF00003012262F34203AE
:1096F0008DF80A3094F82F308DF808301D4B5B68D8
:109700000393CDF81A00ADF81E000223ADF818300F
:10971000ADF81C3003AB049302AB059304F12403B2
:1097200008930DF1060204A9FFF7B0FD05460028D5
:10973000A2D04FF4B7721049104807F0E5FF284651
:1097400003F0BAFB40B1284603F0B6FB07F0DCFF9C
:109750000B4808F061F893E72A462946094807F0C4
:10976000D3FFF5E72146084800F0D9F8002587E740
:109770004C3D0020244303006C430300EC390300FC
:10978000183A03000C3A0300D83D0020002380F86B
:10979000443003751422C282836103628384C0F85B
:1097A0002630C0F82A3080F82E300E4A127880F821
:1097B0002F2080F830204FF00102012161F3420296
:1097C00080F83120C361438683860387C386C363E1
:1097D000A0F84030A0F842308364C3640365436559
:1097E000704700BF2443030010B50446064B0360D6
:1097F000064B43604B6883608B68C360CB68036132
:10980000FFF7C4FF204610BD5C430300144403006F
:109810004B6883608B68C360CB680361704780F8D6
:109820002E107047C182704731B990F8313043F043
:10983000010380F831307047C18290F831306FF306
:10984000000380F83130704780F82F1080F8302006
:109850007047000010B582B00023ADF80230C38A13
:10986000934200D91346ADF8003001916A46418E0B
:109870004FF6FF70FFF70CFD044618B9BDF8000065
:1098800002B010BD4FF413720B490C4807F03CFFB7
:10989000204603F011FB48B1204603F00DFB07F012
:1098A00033FF074807F0B8FF0020E9E722462146CA
:1098B000044807F029FFF4E798430300EC3903005C
:1098C000183A03000C3A030000B583B002AB03F86A
:1098D000011D01221946FFF7BDFF03B05DF804FB2F
:1098E00000B583B002AB43F8041D04221946FFF70C
:1098F000B1FF03B05DF804FB38B5044600F5F8701D
:1099000000F07CFBF8252A460021204607F0A3F84A
:109910002A460021601907F09EF8204638BD90F8CD
:109920005430272B07D85A1C80F85420163340F89F
:10993000231001207047002070470378132B06D8AE
:109940005A1C027000EB8300416001207047002028
:10995000704710B4034600224FF00101032464F362
:10996000061101700721417010218170DC701C719B
:109970008265C265026642665DF8044B7047A8DFE7
:10998000704770477047000070B582B005460830D8
:1099900000F08EF80DF1060205F10C010120FFF731
:1099A000EEFF48B9114B1D6029461148FFF7C5FF6E
:1099B0000024204602B070BD044653220D490E48D3
:1099C00007F0A2FE204603F077FA40B1204603F0EC
:1099D00073FA07F099FE094807F01EFFE9E72246EF
:1099E0002146074807F090FEF5E700BF4C3D0020F8
:1099F000D83D0020E8430300EC390300183A030087
:109A00000C3A03000023838011238371C3717047D4
:109A100010B50446064B0360064B83604B68C36079
:109A20008B680361CB684361FFF7ECFF204610BDF4
:109A3000DC4303001444030083790B70C379137073
:109A4000704762DF704763DF7047704710B50446A8
:109A500002F01AFE204610BDF0B583B00646102075
:109A600001F001F80746304607F04EFF441E00257E
:109A700012E000218DF80610331913F8013C8DF81F
:109A80000430335D8DF80530102201A807F0FAFF8D
:109A90006B1C7855DDB2023C002C06DB0F2D04D880
:109AA000335D2D2BE5D10134F5E7384603B0F0BD29
:109AB00083796BBB10B50446C06810B1FFF7CCFFCB
:109AC000A060A06830B3A11DFFF7BBFF221DA168F5
:109AD0001020FFF7B8FF044608B901201BE09322CD
:109AE0000D490E4807F010FE204603F0E5F948B195
:109AF000204603F0E1F907F007FE094807F08CFE65
:109B0000002008E022462146064807F0FDFDF4E764
:109B100001207047012010BD1C440300EC390300F4
:109B2000183A03000C3A030081600023837183809C
:109B3000C360704710B50446024B0360FFF7F4FFA3
:109B4000204610BD144403006DDF70477DDF704771
:109B500070B5044600F030FB04F1100000F014FB77
:109B600004F12000FFF7F5FE04F18800FFF7C4FEC2
:109B700004F5227000F0EBFA04F5337000F0DEFA21
:109B800004F53B7000F07AFB04F5507000F006FB22
:109B90000025A4F86A534FF44063C4F858330A23ED
:109BA00084F85D33012684F85C631722A4F85E23F1
:109BB0000323A4F8603384F8626384F86363A4F831
:109BC0006423A4F8663384F8686384F8696384F8CE
:109BD0006C5384F86D535022294604F5617006F0E9
:109BE0003AFFC4F87453C4F87853C4F87C5384F82B
:109BF000806384F86E534FF6FF73A4F88233C4F881
:109C0000D853C4F8D453204670BD0000012800D0BA
:109C1000704708B54FF6FF73994200D008BD02485F
:109C2000FFF796FFFAE700BF503D002010B504464D
:109C3000FFF78AFF204610BD10B582B0084602A982
:109C400021F8022DFFF782FF18B99DF8060002B037
:109C500010BD044640F213220B490C4807F054FD96
:109C6000204603F029F948B1204603F025F907F012
:109C70004BFD074807F0D0FD0020E8E722462146CB
:109C8000044807F041FDF4E7E4450300EC39030024
:109C9000183A03000C3A030010B5064C0021D4F822
:109CA000780301F004F90021D4F8740301F0FFF8FF
:109CB00010BD00BF503D0020AB4B93F8A330002BEC
:109CC00000F05181D0F87433002B00F04C812DE965
:109CD000F0418CB00446A44DA449284600F020FB76
:109CE000A34EA44A3146284600F024FB0A2294F8E9
:109CF0005D13284600F09FFB9F4A3146284600F03E
:109D000019FB0A22D4F85813284600F09EFB9B4A00
:109D10003146284600F00EFB0A2294F85C132846D0
:109D200000F089FB94F86C33002B7DD194F86D33EF
:109D3000002B40F0BB808C4D9149284600F0F0FA92
:109D40008B4F904A3946284600F0F4FA04AE4FF0A3
:109D5000200842460021304606F07DFE424631464C
:109D60002046FFF769FF3146284600F0E3FA28460F
:109D700000F0CCFA844A3946284600F0DBFA94F821
:109D80006C238249284600F0D5FA94F86D23804967
:109D9000284600F0CFFA284600F0B8FA7D4A394646
:109DA000284600F0C7FA7C4B0FCB86E80F0021460F
:109DB00002A8FFF73BFF002300933A2306220DF190
:109DC0000901284600F04CFB9DF808305B080CAAFE
:109DD00002EB830353F8202C7049284600F0AAFABE
:109DE000284600F093FA6E4A3946284600F0A2FA57
:109DF00094F96E236B49284600F09CFA284600F03F
:109E000085FA204600F0E6F994F86C33002B40F018
:109E1000918094F86D33002B40F09880524800F008
:109E200075FA0CB0BDE8F0815F49284600F078FA79
:109E30005E4F3946284600F053FA5D4A31462846BF
:109E400000F078FA0A22B4F85E13284600F0DAFA35
:109E50003946284600F044FA564A3146284600F072
:109E600069FA0A22B4F86013284600F0CBFA3946A2
:109E7000284600F035FA504A3146284600F05AFA92
:109E80000A2294F86213284600F0D5FA394628468B
:109E900000F026FA494A3146284600F04BFA0A22D9
:109EA00094F86313284600F0C6FA3FE72E4D444964
:109EB000284600F035FA3D4F3946284600F010FAA2
:109EC0002B4E3B4A3146284600F034FA0A22B4F8B9
:109ED0006413284600F096FA3946284600F000FA46
:109EE000344A3146284600F025FA0A22B4F86613AF
:109EF000284600F087FA3946284600F0F1F92E4A44
:109F00003146284600F016FA0A2294F868132846CB
:109F100000F091FA3946284600F0E2F9274A314626
:109F2000284600F007FA0A2294F86913284600F040
:109F300082FA00E7234A3946284600F0FBF9284612
:109F400000F0E4F9012000F071F862E7064C1E4AC7
:109F50000749204600F0EEF9204600F0D7F902202C
:109F600000F064F85AE770472C4100205844030081
:109F70008C4403008044030094440300A444030081
:109F80002C45030050450300584503006845030075
:109F90007C4503008C4503004844030094450300BE
:109FA0009C450300A8450300B4440300D0440300CB
:109FB000D8440300E0440300F044030000450300DC
:109FC00014450300B0450300CC45030008B5024822
:109FD000FFF772FE08BD00BF503D002008B54FF6E8
:109FE000FF710120FFF712FE08BD0123037000235B
:109FF000437043608360C3818381704710B504461A
:10A00000FFF7F3FF204610BD38B5044603685B69CF
:10A010009847051E08DD204603F064FB29182046FA
:10A0200003F042FB012038BD0020FCE7B0B5CCB006
:10A0300000AF01280DD03D493D4C2346002207F1D9
:10A04000CC0003F03EFC214607F1680003F04CFA17
:10A0500010E03849F0E707F1680003F040FC002801
:10A0600055D007F1680003F040FC38B307F16800F1
:10A0700003F097FB002207F1CC01381D03F038FCF8
:10A08000BB68FB66FB683B673B697B677B69BB67BB
:10A090003B7E87F87C30FB69C7F880303B6AC7F8A5
:10A0A000843007F12401402307F18802002BD2DB22
:10A0B00011F8010B02F8010B013BF7E707F168000B
:10A0C000FFF7A2FF0028D1D007F1680003F0DBFA08
:10A0D000021ECBDD6C46D31D23F00703ADEB030D51
:10A0E00092B2694607F1680003F0AEFA07F1680022
:10A0F00003F0F9FB054607F1680003F00EFB034689
:10A100006A4629460C4807F0FFFAA546AEE70A2042
:10A1100007F012FB07F1680003F043FB07F1CC00E6
:10A1200003F03FFB07F59877BD46B0BD80460300BE
:10A13000304C00206C4603005446030010B5044622
:10A140000021C1771F2206F086FC204610BD10B505
:10A150000446FFF7F3FFFF2384F82030012384F83F
:10A16000213084F82230002384F82330E362202257
:10A170002286F4216186A2861E22E28663872387D7
:10A18000E3632364204610BD00228260C260102178
:10A19000418001808280C822C280704710B5044689
:10A1A0000430FFF72BFF012323804FF6FF736380FA
:10A1B00000232375204610BD034600228260C26042
:10A1C000034A92E8030083E803001846704700BF83
:10A1D0009446030070B52DED028B0546204E214CB0
:10A1E000214A3146204600F0A5F82B8807EE903A28
:10A1F000F8EEE77AB7EE048A67EE887A17EE900AEF
:10A2000005F0CEFE02460B461849204600F092F8B3
:10A210006B8807EE903AF8EEE77A67EE887A17EEE9
:10A22000900A05F0BDFE02460B461149204600F09B
:10A2300081F8204600F06AF80E4A3146204600F0C8
:10A2400079F8EB8803EB83035A000B49204600F0B2
:10A2500071F8204600F05AF8BDEC028B70BD00BFCB
:10A260008C4403002C4100209C460300AC460300B4
:10A27000BC460300CC460300DC46030003461862DC
:10A280001F2282840022826280F82C20012180F823
:10A290002D10802180F82E1080F82F20028680F863
:10A2A00038204263C263026442648264C264A0F8DC
:10A2B0005020A022A0F846205022A0F84820704745
:10A2C00008B50121112002F0B5FE112002F067FF50
:10A2D0000121132002F0AEFE132002F060FF08BD42
:10A2E00061B138B50D460446084607F00DFB2368FA
:10A2F0005B68024629462046984738BD00207047D3
:10A3000008B503681B68984708BD000008B50368D6
:10A310005B6802220149984708BD00BF344A030028
:10A3200038B50546FFF7DCFF04462846FFF7EEFF89
:10A33000204438BD0EB430B5C2B0054645AB53F825
:10A34000042B01934FF4807102A807F0DDFB044653
:10A350002B685B68024602A928469847204642B00F
:10A36000BDE8304003B0704730B58BB005460023E0
:10A370008DF82430012A01D909AC06E00A22FBE756
:10A380003733DBB204F8013D50B1B1FBF2F002FB10
:10A390001011CBB20146092BF2D83033DBB2F1E712
:10A3A00054B1204607F0B0FA2B685B68024621469C
:10A3B000284698470BB030BD0020FBE770B5044637
:10A3C0000D463AB10A2A15D1002908DB0A22FFF707
:10A3D000CBFF03E003681B68C9B2984770BD2D210D
:10A3E000FFF78EFF06460A2269422046FFF7BCFFB0
:10A3F0003044F3E7D2B2FFF7B7FFEFE708B5FFF756
:10A40000DDFF08BD38B50546FFF7F8FF04462846CE
:10A41000FFF77CFF204438BD08B522B903681B68EC
:10A42000C9B2984708BDD2B2FFF79EFFFAE708B558
:10A43000FFF7F2FF08BD38B50546FFF7F8FF044601
:10A440002846FFF763FF204438BD38B50546FFF7BF
:10A45000E3FF04462846FFF759FF204438BD0000BB
:10A460002DE9F843089F39B388463AB39946154613
:10A470000646002408E06A1E121B18F80220104944
:10A480003046FFF757FF0134AC4210DA1CB14946A1
:10A490003046FFF735FF002FEDD094FBF7F307FBB5
:10A4A0001343002BE7D13046FFF730FFE3E705EB1E
:10A4B0004505681EBDE8F8830020FBE70020F9E7AA
:10A4C000644703008160704790F8A300704708B5A7
:10A4D00003681B6A0022984708BD10B582B002AB22
:10A4E00003F8011D0268546801221946A04702B012
:10A4F00010BD000090F8A330002B40F0F28010B5A2
:10A50000036990F89F40C3F80C45036990F89E409A
:10A51000C3F8144590F8A230012B4AD00369C3F860
:10A520006C25B1F5966F54D9B1F5166F40F2A8803D
:10A53000B1F5965F40F2A780B1F5165F40F2A580B5
:10A54000B1F5615F40F2A380B1F5964F40F2A18072
:10A55000B1F5E14F40F29F8047F61223994240F255
:10A560009C80B1F5164F40F29B804DF6C023994276
:10A5700040F29980B1F5614F40F29880B1F5963F75
:10A5800040F29780B1F5E13F40F29580B1F5613F2F
:10A5900040F29480534B994240F29380B1F5E12F01
:10A5A00040F29280B1F5612F00F291804FF070631C
:10A5B00011E0036990F8A040C3F81045036990F8D2
:10A5C000A140C3F80845036942F00102C3F86C25B5
:10A5D000A7E74FF49E230269C2F8243503690822D5
:10A5E000C3F80025036900F15D02C3F8442503693F
:10A5F0000022C3F8202100F15C030269C2F834355F
:10A6000002690123C2F838350269136003694FF407
:10A610008872C3F8042390F99D30002B08DB03F007
:10A620001F015B0901228A4060332F4941F8232032
:10A6300090F99D30002B4DDB03F1604303F561433E
:10A64000602283F8002390F99D30002B07DB03F094
:10A650001F015B0901228A40234941F82320044657
:10A6600003220021012000F029FBC4F8A4000023EC
:10A670001A46194600F040FB012384F8A33010BDB0
:10A680004FF41D23A7E7194BA5E7194BA3E7194B77
:10A69000A1E7194B9FE7194B9DE74FF400039AE799
:10A6A0004FF41D0397E74FF4650394E74FF46B03F2
:10A6B00091E7134B8FE74FF0EB738CE74FF06C7320
:10A6C00089E74FF0806386E74FF0E86383E74FF058
:10A6D000805380E703F00F030A4A1A44602313767D
:10A6E000B1E7704790D0030000E100E000B0130034
:10A6F0000050270000F03A0000A04E0000C0750096
:10A7000000903A01FCEC00E038B5044690F99D3029
:10A71000002B0CDB03F01F015B0901228A40203370
:10A72000204941F82320BFF34F8FBFF36F8F236978
:10A730004FF48872C3F8082322690023C2F8443119
:10A740002269C2F858312269012353602269D3601B
:10A7500001E002F0B9F92369D3F85821002AF8D0B2
:10A76000D3F84421002AF4D00025C3F8005522690B
:10A770004FF0FF33C2F80C352269C2F81435226954
:10A78000C2F808352269C2F8103504F1140002F04D
:10A790000BFDD4F8A40000F019FDC4F8A45084F80F
:10A7A000A35038BD00E100E090F8A33003B9704732
:10A7B00010B504464FF0FF31D0F8A40000F02CFC97
:10A7C00000231A461946D4F8A40000F095FA10BDEB
:10A7D00008B5143002F0F7FC08BD08B5143002F0DB
:10A7E000F9FC08BD08B5143002F00EFD08BD08B52F
:10A7F000D0F8A40000F0B6FC08B9002008BD402045
:10A80000FCE7000008B5054B1BB10548FFF7E0FF6A
:10A8100000B908BDAFF30080FBE700BF00000000F7
:10A820002C4100202DE9F0410446884617461E467B
:10A83000002545604FF47A7383600E4B40F8143B5B
:10A8400002F0B6FCC4F8108084F89D700A4B53F8EF
:10A85000262084F89E209DF8182053F8223084F892
:10A860009F3084F8A250C4F8A45084F8A350204626
:10A87000BDE8F08174470300E4460300012800D0DE
:10A8800070474FF6FF739942FAD100B583B00623A3
:10A8900000930823022203490348FFF7C3FF03B0D4
:10A8A0005DF804FB002000402C41002010B5044658
:10A8B0000369D3F810214AB10022C3F810210369BB
:10A8C000D3F83C353BB9236901221A602369D3F8D8
:10A8D000202132B910BD90F85C10143002F087FCD2
:10A8E000F1E70021C3F82011D4F8A40000F0DFFA4A
:10A8F000F0E7000008B50248FFF7D8FF08BD00BF29
:10A900002C4100202DE9F04182B0174632B3884631
:10A91000054600243B1B009302A9402341F8043D57
:10A920006846FBF747FF06684FF0FF31D5F8A400F3
:10A9300000F072FB324608EB040105F15D0006F001
:10A9400066F82B69C3F848652B6901229A60344484
:10A95000A742DFD8204602B0BDE8F0811446F9E7EF
:10A9600008B54FF6FF710120FFF788FF08BD000012
:10A9700030B585B01C4BD3F8045300240EE0002002
:10A9800004AB43F8040D0090014602F017FA04F1FD
:10A990004003154A002142F823100134072C1ADC29
:10A9A0000123A3402B42F8D004F140030E4A52F891
:10A9B0002330002BF1D00D4B1B57B3F1FF3FE6D0F6
:10A9C0000B4B53F82420002AE1D00A4B1B5D002BCF
:10A9D000D5D19047DBE7BFF34F8F00BF00BF00BF6B
:10A9E00000BF05B030BD00BF00600040FC4100204A
:10A9F000DC410020D4410020FEE72DE9304800F082
:10AA000087FE00254201C30E121A63EB05039B006B
:10AA100043EA92739200101843EB0501CB0043EA1E
:10AA20005073C200900A40EA8350BDE8308808B5F0
:10AA300001464FF47A7200238002890D05F0A2FDD1
:10AA400000F064FF08BD10B5044600F059FE204632
:10AA500005F0ACFF044600F0E7FE0CB1204610BD47
:10AA600002F056F8FAE710B5044601F0F5F80228AE
:10AA700003D0204605F09AFF10BD2046FFF7E3FF04
:10AA8000FAE748B110B5044600F03AFE204605F05A
:10AA900095FF00F0C9FE10BD704710B5044601F0E7
:10AAA000DBF8022803D0204605F088FF10BD2046C1
:10AAB000FFF7E7FFFAE7436A23B1036B1868C0F1B9
:10AAC000050070470020704710B5044601F0B8FB40
:10AAD000A26BE36B9A4204D0002401F0BBFB20463A
:10AAE00010BD0124F9E710B5044601F0A9FBA36BE2
:10AAF00023B1002401F0AEFB204610BD0124F9E78C
:10AB000070B504461646856B026C5AB903681BB1D2
:10AB100000200135A56370BD406801F0F9F80023FD
:10AB20006360F6E76EB9806805F071FF226CA36878
:10AB30001344A3606268934219D32368A360002082
:10AB4000E7E7C06805F063FF226C5242E3681344F4
:10AB5000E36021688B4202D263681A44E260022EED
:10AB600001D00020D5E725B1013D0020D1E700202C
:10AB7000CFE70020CDE7026C72B110B5C368134473
:10AB8000C3604468A34201D30368C3600C46C16834
:10AB9000204605F03CFF10BD704738B5054601F072
:10ABA0004FFB95F8454064B203E001F02BF8013CFF
:10ABB00064B2002C08DD6B6A33B105F1240000F0AB
:10ABC000ABFF0028F3D0F0E7FF2385F8453001F014
:10ABD00041FB01F035FB95F8444064B203E001F01D
:10ABE00011F8013C64B2002C08DD2B6933B105F18A
:10ABF000100000F091FF0028F3D0F0E7FF2385F864
:10AC0000443001F027FB38BD38B504460D4601F04D
:10AC100017FB2168E26B236C03FB021060600020CD
:10AC2000A063A160013A02FB0313E360FF2384F8F1
:10AC3000443084F84530ADB923691BB901F00AFBF3
:10AC4000012038BD04F1100000F066FF0028F5D0A7
:10AC5000094B4FF080525A6040BFBFF34F8FBFF394
:10AC60006F8FEBE704F1100002F0DDFA04F124002D
:10AC700002F0D9FAE2E700BF00ED00E038B51D466A
:10AC8000049C0B4649B12260E06323640121204605
:10AC9000FFF7BAFF84F84C5038BD2460F4E710B5D4
:10ACA00082B01C463BB1012384F8463000949DF8E5
:10ACB0001030FFF7E3FF204602B010BDF0B583B0BF
:10ACC000054617460E46A1B100FB01F05030FFF7D4
:10ACD000BAFE044650B1002380F8463000903B464F
:10ACE00000F1500231462846FFF7C8FF204603B066
:10ACF000F0BD0020EAE70000F0B585B004460F463D
:10AD000001921E4600253BE0324639462046FFF7B9
:10AD1000F7FE636A73B940B13D4B4FF080525A6001
:10AD200040BFBFF34F8FBFF36F8F01F093FA012045
:10AD300005B0F0BD04F1240000F0EEFE0028F4D0D0
:10AD4000334B4FF080525A6040BFBFF34F8FBFF379
:10AD50006F8FEAE701F07EFA0020E9E702A800F031
:10AD600019FF012519E0002384F8443021E0002375
:10AD700084F8453023E02046FFF70FFF00F054FD34
:10AD800001F05EFAA26BE36B9A42BDD3022EBBD0F8
:10AD9000019B002BDED0002DE0D001F05BFA00F02B
:10ADA000AFFC01F04DFA94F844305BB2B3F1FF3FD1
:10ADB000D9D094F845305BB2B3F1FF3FD7D001F062
:10ADC00049FA01A902A800F0F1FED0B92046FFF728
:10ADD0007BFE0028CFD0019904F1100000F07CFE2A
:10ADE0002046FFF7DAFE00F01FFD0028C8D1084B0F
:10ADF0004FF080525A6040BFBFF34F8FBFF36F8F49
:10AE0000BEE72046FFF7C9FE00F00EFD00208FE7E9
:10AE100000ED00E048B108B5002141600160C1606B
:10AE20000B460A46FFF768FF08BD704710B582B0B1
:10AE300000900B46002211460120FFF730FF044628
:10AE4000FFF7E8FF204602B010BDF8B5EFF311861A
:10AE5000402484F31188856BC46BA54205D3022B73
:10AE600003D0002086F31188F8BD1746054690F8F8
:10AE7000454064B21A46FFF743FEB4F1FF3F05D0E8
:10AE8000013464B285F845400120EBE76B6A0BB9E9
:10AE90000120E7E705F1240000F03EFE18B127B1DC
:10AEA00001203860DEE70120DCE70120DAE738B571
:10AEB000EFF31184402383F31188826BC36B9342B9
:10AEC0001AD990F845305BB201328263B3F1FF3F8B
:10AED00005D001335BB280F8453001200DE0436AB4
:10AEE0000BB9012009E00D46243000F015FE38B101
:10AEF00045B10120286000E0002084F3118838BDAE
:10AF00000120FAE70120F8E7F0B585B004460F46C6
:10AF1000019200263DE039462046FFF72CFE013D18
:10AF2000A563236923B901F095F9012005B0F0BDAF
:10AF300004F1100000F0F0FD0028F4D0354B4FF084
:10AF400080525A6040BFBFF34F8FBFF36F8FEAE765
:10AF500001F080F90020E9E702A800F01BFE0126BD
:10AF600021E0002384F8443029E0002384F84530B0
:10AF70002BE02046FFF711FE00F056FC09E02046CA
:10AF8000FFF70BFE00F050FC2046FFF7ACFD002859
:10AF90003ED101F055F9A56B002DBCD1019B002BD2
:10AFA000D6D0002ED8D001F055F900F0A9FB01F061
:10AFB00047F994F844305BB2B3F1FF3FD1D094F835
:10AFC00045305BB2B3F1FF3FCFD001F043F901A9A7
:10AFD00002A800F0EBFD0028D1D12046FFF783FD49
:10AFE0000028C6D0019904F1240000F075FD204628
:10AFF000FFF7D3FD00F018FC0028CAD1054B4FF035
:10B0000080525A6040BFBFF34F8FBFF36F8FC0E7CE
:10B0100000208BE700ED00E070B584B0044601919C
:10B020000026354649E0013BA36323683BB1236911
:10B030004BB901F00FF90126304604B070BD00F0A5
:10B04000CBFE6060F3E704F1100000F065FD00281E
:10B05000EFD0434B4FF080525A6040BFBFF34F8F49
:10B06000BFF36F8FE5E701F0F5F80026E4E702A8EB
:10B0700000F090FD01252AE0002384F8443032E0FE
:10B08000002384F8453034E001F0DAF8606800F01D
:10B09000F3FD064601F0DEF83BE02046FFF77DFDBC
:10B0A00000F0C2FB09E02046FFF777FD00F0BCFB93
:10B0B0002046FFF718FD002841D101F0C1F8A36B2D
:10B0C000002BB0D1019B002BCDD0002DCFD001F0B3
:10B0D000C1F800F015FB01F0B3F894F844305BB20E
:10B0E000B3F1FF3FC8D094F845305BB2B3F1FF3FF6
:10B0F000C6D001F0AFF801A902A800F057FD002862
:10B10000D1D12046FFF7EFFC0028C6D02368002BE2
:10B11000BAD0019904F1240000F0DEFC2046FFF7CC
:10B120003CFD00F081FB0028C7D10D4B4FF0805251
:10B130005A6040BFBFF34F8FBFF36F8FBDE7002E44
:10B140003FF47AAF01F07CF82046FFF7B4FC0146EB
:10B15000606800F00BFE01F07DF800266CE700BF90
:10B1600000ED00E010B5044601F06AF8A46B01F0B0
:10B1700071F8204610BD00000023012B0CD8074AAF
:10B1800052F833200AB10133F7E7044A42F833108A
:10B1900002EBC30358607047704700BFE05C0020BB
:10B1A0000023012B0FD8084A02EBC30252688242E7
:10B1B00001D00133F5E7044A002142F8331002EBD5
:10B1C000C303596070477047E05C002010B5044627
:10B1D000FFF7E6FF94F8463003B110BD2046FFF7B5
:10B1E00050FCFAE770B504460D46164601F028F803
:10B1F00094F844305BB2B3F1FF3F0DD094F8453082
:10B200005BB2B3F1FF3F0BD001F024F8A36B5BB14D
:10B210002046FFF7C2FC70BD002384F84430EDE700
:10B22000002384F84530EFE73246294604F1240034
:10B2300000F060FCECE700004269084B9A4201D044
:10B2400000207047836A064A934202D01BB1002057
:10B250007047002070470120704700BFD84200208F
:10B26000C04200200D4B1B6853B900220C4B1B68D9
:10B27000DB6A73B90B4B1B68012B03D900207047A5
:10B280000122F3E73AB9084B1868084B1B68C01A4B
:10B290007047002070470020704700BF88420020A0
:10B2A0000442002010420020B84200200043002049
:10B2B000084B1B681B683BB1064B1B68DB68DB68EF
:10B2C0005A68054B1A607047034B4FF0FF321A6003
:10B2D000704700BF08420020B84200202DE9F04727
:10B2E00081460D4617469A46089EDDF824800A9C42
:10B2F0009200A521206B05F0AEFB236B07F1804285
:10B30000013A03EB820727F007070023072B07D832
:10B31000E95CE21882F83410EA5C0AB10133F5E71F
:10B32000002384F83B30042E00D90426E6626664CC
:10B330000025A564201D01F081FF04F1180001F033
:10B340007DFF2461C6F10506A6616462E56484F8A8
:10B35000505052464946384600F03EFF2060B8F152
:10B36000000F01D0C8F80040BDE8F08738B50024D0
:10B3700007E004EB840293000E48184401F053FFE9
:10B380000134042CF5D90C4D284601F04CFF0B4C30
:10B39000204601F048FF0A4801F045FF094801F046
:10B3A00042FF094801F03FFF084B1D60084B1C603D
:10B3B00038BD00BF104200208C420020A042002077
:10B3C000C0420020EC420020D84200200842002069
:10B3D0000C42002010B5044600F032FF214A1368E9
:10B3E00001331360204B1B685BB1204B1B686BB9AA
:10B3F0001D4B1B68DA6AE36A9A4207D81A4B1C6035
:10B4000004E0194B1C601368012B28D0184A1368FC
:10B4100001331360E363E36A164A1268934201D969
:10B42000144A136003EB83039A00211D1248104451
:10B4300001F007FF00F00EFF0C4B1B6873B10A4BC5
:10B440001B68DA6AE36A9A4208D20C4B4FF08052CA
:10B450005A6040BFBFF34F8FBFF36F8F10BDFFF730
:10B4600085FFD3E77442002004420020D44200202C
:10B4700084420020884200201042002000ED00E0BD
:10B4800010B5044690F8513013B1012B07D010BD10
:10B49000006BFFF7F6FA2046FFF7F3FAF7E7FFF73E
:10B4A000F0FAF4E70F4B1B68D3B110B500F0C8FEFB
:10B4B0000D4BDB68DC68201D01F0E9FE0B4A1368C8
:10B4C000013B1360074A1368013B136000F0C2FEA2
:10B4D0002046FFF7D5FF034B1B68002BE6D110BDBC
:10B4E000704700BF78420020EC42002074420020E8
:10B4F00070B504460E46174B1D68174B186804308C
:10B5000001F0C5FEB4F1FF3F13D02C44124B1B6871
:10B510005C60A54216D8114B18680F4B19680431AE
:10B5200001F09BFE0E4B1B68A34212D90C4B1C6012
:10B530000FE0002EE9D0084B19680431094801F0EA
:10B5400080FE06E0084B1868034B1968043101F0CF
:10B5500084FE70BD00430020044200200842002009
:10B56000B8420020D84200200C42002030B587B0FD
:10B570000B9D0C9C04B125B900230593059807B0D9
:10B5800030BD2563022584F85150002503950294AF
:10B5900005AD01950A9D0095FFF7A0FE2046FFF737
:10B5A00019FFEBE72DE9F04385B0074688461546BD
:10B5B00099469000FFF747FA08B306465420FFF774
:10B5C00042FA0446B8B10663E4B1002384F851306E
:10B5D000039302940D9B01930C9B00934B462A46C8
:10B5E00041463846FFF77AFE2046FFF7F3FE01207A
:10B5F00005B0BDE8F0833046FFF743FAE4E74FF0CB
:10B60000FF30F5E74FF0FF30F2E70000002831D0BF
:10B6100038B50446184A1268824207D000F010FE7E
:10B620002046FFF709FE10B900F014FE38BD251DB5
:10B63000284601F02CFEE36A104A1268934201D9B1
:10B640000E4A136003EB83039A0029460C4810440A
:10B6500001F0F7FDE26A084B1B68DB6A9A42E3D30C
:10B66000084B4FF080525A6040BFBFF34F8FBFF37B
:10B670006F8FD9E7704700BF044200208842002046
:10B680001042002000ED00E010B588B000240594C1
:10B69000069407AA06A905A801F056FA059B02938D
:10B6A000069B019300942346079A0F490F48FFF722
:10B6B0005DFF0F4B186028B100F008FC012803D093
:10B6C00008B010BD0020F9E7402383F31188094B2F
:10B6D0004FF0FF321A60084B01221A60074B00221C
:10B6E0001A6000F08DFDEBE7A047030041B90200AE
:10B6F000B4420020B8420020D44200200043002081
:10B70000024A136801331360704700BF8042002073
:10B71000014B1868704700BF00430020034610B17A
:10B7200003F134007047014B1B68F9E70442002025
:10B73000024A136818441060704700BF004300209D
:10B74000F8B52E4B1B68002B4DD12D4B1D680135D4
:10B750001D602DB12B4B1B68AB423AD9002747E047
:10B76000294A1168294B186810601960284A136823
:10B7700001331360FFF79CFDECE70127224B1B68A8
:10B780001B6843B3204B1B68DB68DC6863689D4221
:10B7900026D3261D304601F07AFDA36A1BB104F1C1
:10B7A000180001F074FDE36A1A4A1268934201D945
:10B7B000184A136003EB83039A003146164810447D
:10B7C00001F03FFDE26A154B1B68DB6A9A42D4D256
:10B7D000D4E70027D2E70B4B4FF0FF321A6007E0A7
:10B7E000084A136004E00E4A13680133136000270F
:10B7F0000C4B1B6803B101273846F8BD804200207E
:10B8000000430020B8420020084200200C420020E3
:10B81000BC42002088420020104200200442002048
:10B820007C4200200443002038B500F009FD2E4B77
:10B830001A68013A1A601B68002B4ED12B4B1B680B
:10B840003BB300242A4B1B682BB3294BDB68DC6815
:10B8500004F1180001F01BFD251D284601F017FD1D
:10B86000E36A244A1268934201D9224A136003EB27
:10B8700083039A0029462048104401F0E2FCE26A62
:10B880001E4B1B68DB6A9A42DCD31D4B01221A60F7
:10B89000D8E7002422E00CB1FFF70AFD194B1C6821
:10B8A0007CB9174B1B68EBB1174B4FF080525A60B5
:10B8B00040BFBFF34F8FBFF36F8F01240EE0013CF9
:10B8C00007D0FFF73DFF0028F9D00D4B01221A6089
:10B8D000F5E70C4B00221A60E3E7002400F0BAFC05
:10B8E000204638BD0024F9E7804200207442002041
:10B8F000C042002088420020104200200442002064
:10B90000044300207C42002000ED00E010B548B95F
:10B910000A4B4FF080525A6040BFBFF34F8FBFF3C6
:10B920006F8F10BD0446FFF7EBFE00212046FFF7A6
:10B93000DFFDFFF779FF0028EAD0F2E700ED00E035
:10B9400008B505E000F014FEFFF78CFC01280FD8C5
:10B95000FFF7A8FD0C4B1B68012BF3D90B4B4FF0E5
:10B9600080525A6040BFBFF34F8FBFF36F8FE9E73C
:10B97000FFF7C6FEFFF776FC012802D8FFF754FF59
:10B98000E6E700F0CDFCF9E71042002000ED00E012
:10B99000224B1B686BB910B5214B00221A60214B5A
:10B9A0001A6812681B681B6B9A4206D91E4B1B68EB
:10B9B0000BE01B4B01221A6070471A4B186819687C
:10B9C000343101F08DF8F1E7013B03EB83018A008C
:10B9D00016498A58002AF7D008469A00D418A100C0
:10B9E00001444C6864684C601A4491000831084472
:10B9F00084420BD003EB830291000C4A0A44526844
:10BA0000D168084A1160084A136010BD606803EBF2
:10BA100083029100054A0A445060EBE7804200200F
:10BA200004430020044200208842002010420020ED
:10BA300038B5044600F004FCE4B1251D284601F0A9
:10BA400026FCA36A1BB104F1180001F020FC294672
:10BA50001C4801F0F6FB94F85030DBB2012B0CD0FF
:10BA600000F0F8FB184B1B685BB9184B1B68A3422E
:10BA70000ED038BD154B1C68DFE7002384F850302A
:10BA8000EEE700F0DDFBFFF713FC00F0E3FBECE773
:10BA90000D4B1B6843B90B4B1A680D4B1B689A4240
:10BAA0000CD0FFF775FFE4E70A4B4FF080525A6065
:10BAB00040BFBFF34F8FBFF36F8FDAE7034B002216
:10BAC0001A60D6E7D8420020D44200200442002069
:10BAD0007442002000ED00E010B50C46044B1968DC
